:020000040800F2
:10000000B05B0020DDB30008FD3100081F190108B6
:10001000FF3100080332000807320008000000002A
:100020000000000000000000000000000B3200088B
:100030000D32000800000000A7180108CB1E0008C0
:10004000F7B30008F7B30008F7B30008F7B30008E8
:10005000F7B30008F7B30008F7B30008F7B30008D8
:10006000F7060008F7B3000829070008CD220008AA
:10007000F7B30008F7B30008F7B30008F7B30008B8
:10008000F7B30008AF220008F7B30008F7B3000881
:10009000F7B30008F7B30008F7B30008F7B3000898
:1000A000F7B30008F7B30008F7B30008F7B3000888
:1000B00003140008F7B30008F7B300083B2000085A
:1000C000E1230008F7B30008F7B30008F7B300080E
:1000D000F7B30008C3330008F7B30008F7B300080C
:1000E0005B070008F7B30008F7B30008F7B3000890
:1000F000F7B30008F7B30008F7B30008F7B3000838
:10010000F7B300080F320008F7B30008F7B3000890
:10011000F7B30008F7B30008F7B30008F7B3000817
:1001200021130008F7B30008F7B30008F7B300087D
:10013000F7B3000801B40008F7B30008F7B30008EC
:10014000F7B30008F7B30008F7B30008F7B30008E7
:10015000F7B30008F7B30008F7B30008D533000879
:10016000F7B30008F7B30008F7B30008F7B30008C7
:10017000F7B30008F7B30008F7B30008F7B30008B7
:10018000F7B30008DFF80CD03FF0F4F80048004760
:1001900087040008B05B002086B0002500260024FC
:1001A00000270020039065E006F0CEFE80466C4AF2
:1001B00041466C4807F07FF86A480088B0F5A07F98
:1001C00027DC68484088F02823DC0A2010F03CFD3A
:1001D00000BF1B20ADF800000020ADF802002FF09A
:1001E00021F901900020029000BF1120ADF8140009
:1001F0005C480088ADF810005A484088ADF81200FD
:100200005848058846881821684632F07BFB01274C
:1002100030E054480088B0F5A07F03DC51484088A6
:10022000F02824DD012F22D10A2C1DD10024002723
:100230000A2010F009FD00BF1B20ADF800000020CF
:10024000ADF802002FF0EEF801900020029000BF00
:10025000ADF81050ADF812602120ADF8140018214F
:10026000684632F04FFB05E0601CC4B202E0052096
:1002700010F0EAFC98E77CB5064639F053FC3BF0F9
:10028000C2FB0020034638A238A1009038A03AF003
:1002900061FA18B937A00EF0F5FE02E03CA00EF0AE
:1002A000F1FE23F0A4FB0BF0F5FA0CF0A5FB1AF01D
:1002B000EEFF40A00EF0E6FE44A00CF04BFB04461F
:1002C00007F06CF8002C20D0204631F0F8FD40A05B
:1002D0000EF0D8FE2FF024FE0A2010F0B5FC002509
:1002E000142010218B010022CDE90010AFF257112C
:1002F0003EA010F067FB05461DB1284610F000FB3C
:1003000002E03BA00EF0BEFE02E040A00EF0BAFEFE
:1003100000F0FEFF00F06EFA00F029FA00F088FA13
:1003200000F0F0FE7CBD1CB514200A214FF40063E0
:100330000022CDE90010AFF2C1013BA010F042FB5A
:10034000044614B1204610F0DBFA00201CBD70B545
:1003500004460D46214636A00EF094FE204670BDA0
:10036000F812002032010020656C6D002F000000A3
:100370007364300046696C652053797374656D2031
:10038000696E697469616C697A6564210A000000AC
:1003900046696C652053797374656D20696E697464
:1003A00069616C7A6174696F6E206661696C6564FD
:1003B000210A00005443502F495020696E69746926
:1003C000616C697A6564210A000000006C63640056
:1003D00072746775692073657276657220737461D3
:1003E0007274696E672E2E2E0A0000007470000071
:1003F00063726561746520747020746872656164ED
:10040000206661696C6564210A00000063616E20EA
:100410006E6F742066696E64206C63642064657618
:100420006963650A00000000696E697400000000DD
:100430002563000010B501F050FD0EF053FE0CF0E6
:1004400057FA0FF03AFE10F0FDFE124912480EF076
:10045000ABFF0FF0DDFF04F066FB02F0CAFA06F016
:100460003BFB06F0BCFB0CF0C7FAFFF75CFF16F095
:1004700075F90AA015F000FD10F0F0FE0CF0D8FCA4
:100480000FF0E2FF10BD10B511F0F6F9FFF7D2FF43
:10049000002010BD00000220B05B00207561727466
:1004A0003100000000B58BB00121084608F0B4FD12
:1004B0000120019002208DF8080003208DF809002A
:1004C00001A9394808F0F6F801220021364808F061
:1004D00074F90121022008F09FFD082001900220FC
:1004E0008DF8080003208DF8090001A92F4808F0B5
:1004F000E1F8012203212D4808F05FF901210846A7
:1005000008F0BDFD4FF0804009F03AFF4FF0804009
:100510000AF099FC4FF40070ADF8280040F22B105F
:10052000ADF820000020ADF8220040F2CF70099015
:1005300008A94FF0804009F0D0FF6020ADF80C0012
:100540000120ADF80E00402005900020ADF8180005
:1005500003A94FF080400AF055F80821C8060AF0B8
:10056000CEF9012188070AF023F80020ADF80C002D
:100570000120ADF80E00322005900020ADF81800E3
:1005800003A94FF080400AF076F80821C8060AF067
:10059000BFF90122042108070AF00AFC012188079B
:1005A0000AF024F80BB000BD000002400004024035
:1005B00008B54FF4C06006F0FFFF08208DF800007A
:1005C00001208DF8020000208DF8010001208DF837
:1005D0000300684606F0F5FF4FF4C06006F0ECFF3C
:1005E0000A208DF8000001208DF8020000208DF80F
:1005F000010001208DF80300684606F0E2FF4FF489
:10060000C06006F0D9FF28208DF8000001208DF889
:10061000020000208DF8010001208DF803006846DB
:1006200006F0CFFF08BD1CB50221042009F070FEC2
:10063000042007F0BAFC0420009000208DF804008C
:1006400010208DF8050001208DF80600684607F09F
:1006500035FC0421084609F05BFE102007F0A5FCDC
:1006600010200090684607F029FC0D21022009F0B7
:100670004FFE4FF4005007F098FC4FF400500090EC
:10068000684607F01BFC1CBD1CB50121142008F0B6
:10069000C3FC0121880308F003FD04200090002022
:1006A0008DF804008DF8060001208DF80700032066
:1006B0008DF8050069463E4807F0FCFF0122042141
:1006C0003B4808F06FF8102000906946384807F062
:1006D000F1FF01221021364808F064F84FF4005071
:1006E00000906946334807F0E5FF01225103314885
:1006F00008F058F81CBD10B504212D4808F034F856
:10070000012804D12C492D480DF03BFC08E00421C0
:10071000274808F029F818B9294928480DF031FC74
:10072000042007F042FC10BD10B51021204808F04D
:100730001BF8012804D1204922480DF022FC08E0D2
:1007400010211B4808F010F818B91D491D480DF07C
:1007500018FC102007F029FC10BD10B51A491B48E1
:100760000DF00FFC4FF4005007F01FFC10BD08B552
:10077000FFF78AFFFFF71CFFFFF755FF002020233C
:10078000134A14A100900D480DF033FA00202023E5
:10079000124A13A100900D480DF02BFA00202023DF
:1007A000114A12A1009007480DF023FA002008BD5D
:1007B00000100240000802400300002078060020DC
:1007C000000000202807002007000020D807002094
:1007D000A8060020495253315F6D620008080020CE
:1007E0006C65645F6D620000580700204952533207
:1007F0005F6D62001CB50121302008F00DFC402027
:10080000009001208DF8040000208DF806000320E0
:100810008DF8050001208DF8070069460C4807F0A7
:1008200049FF0820009069460A4807F043FF1CBDB5
:1008300008B500208023084A08A1009009480DF05F
:10084000D8F908BD00BF0100A0F10100FBD170473D
:100850000010024000140240B808002054656D707A
:100860005F6D6200880800202DE9F04F87B031F0FD
:1008700015FB044605A931F0A7FA37F055F90546EE
:100880003323FE4A2946FE4800682FF0C8FA044682
:1008900026F01EFC8146FB480088002849DDF94807
:1008A0000088B0F5967F03DAF64800880A2815DA42
:1008B00037F03AF904463823F04A2146F0480068F8
:1008C0002FF0ADFA6FF4F811C16205ACD9F804004D
:1008D000214602694846904700BF2AE0484624F076
:1008E00059FCE9490160E74800880A2821DBE5480E
:1008F00000880A380FFA80F816E0E44908F1010090
:1009000031F81000C0F1AA000090084630F8180035
:10091000C0F1AA0208F101034146484624F0AEFBAB
:1009200008F101000FFA80F8D6480088401E4045C3
:10093000E3DC0122D649D7480DF02CFBB8B9D448E6
:10094000D5A1026801A83EF0D5FD01A9D5480068EF
:1009500036F0F9FE37F0E8F805464A23C74A29463B
:10096000D04800682FF05BFA044637F093FF01226D
:10097000CD49CE480DF00EFBB8B9CB48C6A10268F0
:1009800001A83EF0B7FD01A9C948006836F0DBFEBA
:1009900037F0CAF805465123B84A2946C4480068CA
:1009A0002FF03DFA044637F075FF0122C149C248D5
:1009B0000DF0F0FA10BB4FF40051C04807F0D4FE20
:1009C0000446012C01D1BEA000E0BEA00246BEA19B
:1009D00001A83EF08FFD01A9BD48006836F0B3FEC6
:1009E00037F0A2F806465A23A44A3146B8480068B0
:1009F0002FF015FA054637F04DFF00BF0122B5492B
:100A0000B5480DF0C7FA002837D1B24800683EF06B
:100A1000D6F904904FF08B4104983EF002F8009014
:100A20003EF026FA04464FF06632AC4B3EF0DFF85B
:100A30000646AB4AAB4B3EF04AF982463EF056FAC8
:100A4000049004983EF014FA044622460B46A6A1F0
:100A500001A83EF04FFD01A9A648006836F073FEDC
:100A600037F062F805466223844A2946A1480068A7
:100A70002FF0D5F9044637F00DFF484626F0D3FB9A
:100A800007B0BDE8F08F2DE9F04106460F469A48C1
:100A90000068C8B94021994807F082FE98A19A4899
:100AA000006834F099FD37F03FF805466F23974A08
:100AB0002946954800682FF0B2F9044637F0EAFE5F
:100AC00001208D49086018E040218C4807F066FE3F
:100AD0008FA18D48006834F07FFD37F025F805467A
:100AE00076238A4A2946884800682FF098F90446F8
:100AF00037F0D0FE002080490860BDE8F0812DE984
:100B0000F04106460F4684480068C8B9082183486A
:100B100007F046FE82A18448006834F05DFD37F09E
:100B200003F805468223814A29467F4800682FF052
:100B300076F9044637F0AEFE01207749086018E0E8
:100B40000821764807F02AFE79A17748006834F03A
:100B500043FD36F0E9FF05468923744A2946724869
:100B600000682FF05CF9044637F094FE00206A49D3
:100B70000860BDE8F0812DE9FF4780466EA02EF0A9
:100B800058FC044654B9002599236D4A6DA171A003
:100B90000EF078FA00BF002DFDD000BF31F07EF9D5
:100BA000054602A931F010F9062302AA71A100201E
:100BB00038F024FE3249086036F0B6FF06469F231F
:100BC0005F4A31462E4800682FF029F900F11C05D4
:100BD000C06940F01000286036F0A6FF064636F0E7
:100BE000A3FF8146A023564A4946254800682FF0B6
:100BF00016F90546A023524A31462FF010F96FF43A
:100C0000F811C1621E48006820B920462EF09FFCF2
:100C1000BDE8FF872EF006FC0546AFF2B3312EF09B
:100C2000ADFDDDE90201CDE90001BDF80000C01D08
:100C300000B2ADF80000BDF80000B43000B2ADF86D
:100C40000400BDF80200401D00B2ADF80200BDF87E
:100C50000200143000B2ADF80600002147A036F0C3
:100C6000BEFD074636F060FF0646B423344A3146DF
:100C700038462FF0D4F8054669468BE0E9050408AC
:100C80002400002018000020FF0000FFB80A002008
:100C90004800002078060020B6D4C9E4313A257314
:100CA00000000000280000204C0000202807002041
:100CB0003000002050000020D8070020000802402B
:100CC0004F4646004F4E0000536565643A25730059
:100CD0002C000020540000208808002066660A408E
:100CE0007B14AE47E17A843F54656D703A25342E0B
:100CF00032660000340000201C000020001002407A
:100D0000BFAABCD3C8C8000038000020F205040800
:100D1000B9D8BCD3C8C8000020000020001402408D
:100D2000BFAAB7E7C9C800003C000020FE050408C0
:100D3000B9D8B7E7C9C800004D794170700000000C
:100D40000906040861707020213D2052545F4E5501
:100D50004C4C000028257329206173736572742040
:100D60006661696C65642061742025733A2564208E
:100D70000A0000004D61696E57696E00504D2032C7
:100D80002E3520414443B2C9D1F9D5DBCFDFCDBCEC
:100D90000000000037F03BF936F0C6FE8146B6236E
:100DA000E64A494638462FF03AF8054634F075F8D9
:100DB0008146B623E14A4946E14800682FF02FF802
:100DC0000646294634F0F6F9BDF808000A3000B2AC
:100DD000ADF80800BDF808005A3000B2ADF80C00BC
:100DE000BDF80A00AA3000B2ADF80A00BDF80A004A
:100DF000193000B2ADF80E00AFF2FC0033F0FFFC8A
:100E0000D0490860D049CF48006833F073FD36F010
:100E10008BFE0646C023C94A3146CA4800682EF0F8
:100E2000FEFF054602A937F0F2F836F07DFE814656
:100E3000C123C24A4946C34800682EF0F0FF054668
:100E400034F02BF88146C123BC4A4946BC480068AF
:100E50002EF0E5FF0646294634F0ACF9BDF808004F
:100E6000643000B2ADF80800BDF80C00643000B288
:100E7000ADF80C000021B5A036F0B1FCB649086011
:100E800036F052FE0646C723AC4A3146B2480068E7
:100E90002EF0C5FF054602A937F0B9F836F044FE3A
:100EA0008146C823A54A4946AB4800682EF0B7FFE3
:100EB000054633F0F2FF8146C823A04A4946A048C0
:100EC00000682EF0ACFF0646294634F073F9BDF8F1
:100ED0000800643000B2ADF80800BDF80C006430C2
:100EE00000B2ADF80C0000219CA036F078FC9E49C1
:100EF000086036F019FE0646CE23904A31469A48DD
:100F000000682EF08CFF054602A937F080F836F015
:100F10000BFE8146CF23894A4946934800682EF04C
:100F20007EFF054633F0B9FF8146CF23834A494609
:100F3000834800682EF073FF0646294634F03AF9DC
:100F4000BDF80800C83800B2ADF80800BDF80C00C4
:100F5000C83800B2ADF80C00BDF80A001E3000B26F
:100F6000ADF80A00BDF80E001E3000B2ADF80E005C
:100F7000AFF2542033F043FC7C4908607C497B4845
:100F8000006833F0B7FC36F0CFFD0646D9236B4A34
:100F90003146764800682EF042FF054602A937F038
:100FA00036F836F0C1FD8146DA23644A49466F4877
:100FB00000682EF034FF054633F06FFF8146DA23D8
:100FC0005E4A49465E4800682EF029FF06462946DB
:100FD00034F0F0F8BDF80800643000B2ADF8080055
:100FE000BDF80C00643000B2ADF80C00002161A027
:100FF00036F0F5FB6249086036F096FD0646E023C0
:101000004E4A31465E4800682EF009FF054602A9A7
:1010100036F0FDFF36F088FD8146E123474A494618
:10102000574800682EF0FBFE054633F036FF814638
:10103000E123424A4946424800682EF0F0FE064647
:10104000294634F0B7F8BDF80800643000B2ADF8B6
:101050000800BDF80C00643000B2ADF80C000021AF
:1010600048A036F0BCFB4949086036F05DFD0646F5
:10107000E723324A3146454800682EF0D0FE054647
:1010800002A936F0C4FF36F04FFD8146E8232B4A13
:1010900049463E4800682EF0C2FE054633F0FDFE8C
:1010A0008146E823254A4946254800682EF0B7FEC8
:1010B0000646294634F07EF800212148006838F0C1
:1010C00056F820462EF099FC1D48006837F050FF76
:1010D00020462EF03CFA2EA00DF0D4FF00BF97E57D
:1010E0001CB5142000904FF4006300222C4901909D
:1010F0002CA00FF067FC044614B120460FF000FC52
:1011000000201CBD10B5FFF7EBFF002010BD70B52F
:10111000044621461048006836F015FB36F004FD01
:10112000064640F20F13204A31460B4800682EF065
:1011300076FE054637F0AEFB002070BD09060408B8
:101140002400002038000020870A0008B6D4C9E433
:10115000313A4F4E000000002800002052656564BF
:101160003A4F4646000000002C0000203C000020C2
:10117000FF0A0008B6D4C9E4323A4F4E000000001E
:101180003000002054656D703A00000034000020EB
:101190004D7941707020517569742E0A000000006D
:1011A000770B000877696E001A06040800B59BB03B
:1011B0000121994807F030FF0121080207F070FF74
:1011C000964806F09BFC00200290954803909548B5
:1011D00004900020059002200690002007904FF414
:1011E000806008904000099080000A9040110B90A8
:1011F00040020C9000200D9001200E9000200F90D6
:10120000109002A9854806F01BFD0121834806F0D5
:1012100051FD01221021814806F0D8FD0122042150
:101220007E4806F0D3FD002208217C4806F0CEFD62
:101230001020009003208DF804008DF80500002098
:101240008DF807006946784807F034FA08200090C6
:101250006946754807F02EFA002011904FF440308F
:10126000129000201390149011A806F051FA00205B
:10127000159001208DF8580000208DF85900179026
:10128000199002208DF8680015A965484C3806F0C1
:1012900010FA00230122042161484C3806F094FA28
:1012A00002231A4603215E484C3806F08DFA0121CC
:1012B0005B484C3806F032FB012159484C3806F0A7
:1012C00022FB012156484C3806F03EFA1BB000BD07
:1012D00008B54FF4E06006F06FF91C208DF80000AF
:1012E00000208DF801008DF8020001208DF8030028
:1012F000684606F066F938208DF800000A208DF85F
:10130000010000208DF80200684606F05AF908BD79
:1013100010B5FFF7C7F8FFF7DBFFFFF747FF10BD7A
:1013200010B542493D4806F022FD012803D140494D
:101330003A4806F091FD3D491839384806F017FD46
:10134000012806D13BA00DF09DFE3F49334806F031
:1013500083FD36491039314806F009FD012803D1D3
:101360003A492E4806F078FD2E4800883849088012
:101370000988142291FBF2F101EB4100C11700EB47
:101380009171C1F38F01324A1180104601883148B2
:1013900002880088401C2F4B18802F4820F812101C
:1013A0002E480088401C2D49088018460088B0F55A
:1013B000A07F04DB002019460880284908802848BF
:1013C0000088401C2649088016484088254909683D
:1013D00008442449086022480088642810D108463F
:1013E00000686421B0FBF1F01E49086008460168FE
:1013F0001D480CF0C6FD00201949088019490860F5
:1014000010BD10B506484C3806F03AFA042108071A
:1014100009F0F9FC10BD000001004000106402401A
:101420004C20014058000020000002402000001025
:101430002080001021212121444D41322054782068
:101440004572726F720A00000820001010400010F0
:10145000660000205C000020B80A00201800002070
:101460006400002060000020880800207CB504464D
:101470000D4616460120A121ABB2B2B2CDE9001053
:101480002146874800F0E8FF7CBD7CB504460D4648
:101490000120A0212B461022CDE9001021468048D2
:1014A00000F0DAFF32200FF0CFFB00207CBD7CB5CE
:1014B00004460D460120A0212B460246CDE900102E
:1014C0002146774800F0C8FF32200FF0BDFB002016
:1014D0007CBD2DE9F05F81460D4616464FF0000AAF
:1014E000D34600270024C846AFB2B4B2A819B0F55D
:1014F000807F02D90020BDE8F09F0BE039464046CE
:10150000FFF7C3FF07F1100087B2A4F1100084B207
:1015100008F11008102CF1DA09E039467B1C9FB263
:10152000404608F10108FFF7C2FF601E84B2002C9C
:10153000F3D10120DFE70146002070472DE9F0419B
:1015400007460E4615461C46224631462846FFF7FA
:101550008DFF012802D12046BDE8F0814FF0FF3019
:10156000FAE72DE9F04107460E4615461C4622468D
:1015700031462846FFF7ADFF012802D12046BDE8DD
:10158000F0814FF0FF30FAE7024600207047014635
:101590000020704703460020704770B501F02AF81C
:1015A000002406E03F4D00BF2800A5F10105FBD156
:1015B000641C042CF6D33C483C4948623C48886291
:1015C0003C48C8623C4808633C4848633C488863E0
:1015D0001220087503223BA134480BF0E1F970BDDD
:1015E00070B5C0B037A00BF0B5F906464FF4807364
:1015F0006A46002130460BF0C5FA00240FE00025B2
:1016000007E005EB04101DF8001030A00DF03AFDC6
:101610006D1C102DF5DB2FA00DF034FD641C102C7B
:10162000EDDB40B070BD30B5ADF5017D25A00BF010
:1016300091F90546002406E0FF2041A90855002045
:1016400001A90855641CFF2CF6DD4FF4807341AAF4
:10165000002128460BF0C4FAB0F5807F02D11EA00D
:101660000DF010FD4FF4807301AA002128460BF005
:1016700089FA00240EE041A8005D01A9095D8842B5
:1016800007D001A8025D41A8015D234616A00DF018
:10169000F9FC641CFF2CEEDD0DF5017D30BD000072
:1016A00000540040FFFF0F0037150008380D0020E0
:1016B000891500088F1500083D15000863150008FE
:1016C00095150008656570726F6D000030782530E3
:1016D000325820000A000000577269746520537563
:1016E00063636573730A00004545204661696C6554
:1016F0006420255820213D20255820617420256430
:101700000A000000F849098821F03801F64A1180E2
:101710001146098801431180704700B587B0012147
:101720000A2007F079FC0121C80307F0A8FC382043
:10173000059006220321ED4807F03FF80622042118
:10174000EA4807F03AF806220521E84807F035F89C
:1017500002208DF819008DF8180000208DF81A006D
:1017600001208DF81B0005A9E04806F0A3FF4FF407
:101770008060059001208DF8180005A9DC4806F06E
:1017800099FF4FF48061DA4807F008F80021D94842
:1017900008F0E0FC0020ADF800004FF48270ADF8D6
:1017A00002000020ADF80400ADF80600ADF8080016
:1017B0004FF40070ADF80A000820ADF80C000020CE
:1017C000ADF80E000720ADF810006946C94808F0D2
:1017D000E3FB0121C74808F0BDFC00220121C6A09F
:1017E0000BF004FCC749086007B000BD70B50546A2
:1017F000C54C00BF0221BF4808F041FD10B9601E72
:10180000041EF7DC002C06DCC0480068401CBF4901
:101810000860002070BD2946B64808F0F4FCBA4CB8
:1018200000BF0121B34808F02AFD10B9601E041E54
:10183000F7DC002C06DCB5480068401CB3490860A2
:101840000020E7E7AB4808F0DBFCC5B22846E1E73B
:1018500010B54FF48061A64806F0A2FF0520FFF7FF
:10186000C5FFFF20FFF7C2FF04464FF48061A04888
:1018700006F094FF204610BD2DE9F04781460C4646
:1018800016461D46B0464FF0FF319E4800680BF0EB
:1018900012FC4FF48061964806F082FF0320FFF7A8
:1018A000A5FFC4F30720FFF7A1FFE0B2FFF79EFFFB
:1018B000002717E0FF20FFF799FF08F8010B934876
:1018C000006868B18F4800680BF093FC00208F49D6
:1018D00008608FA00DF0D6FB4FF0FF30BDE8F08719
:1018E000641C7F1CAF42E5D34FF48061804806F052
:1018F00055FF844800680BF07CFC2846EEE72DE994
:10190000F04781460C4616461D462F46B0464FF01E
:10191000FF317C4800680BF0CEFB4FF480617448C7
:1019200006F03EFF0620FFF761FF4FF4806170482C
:1019300006F034FF4FF480616D4806F031FF02205D
:10194000FFF754FFC4F30720FFF750FFE0B2FFF7A3
:101950004DFF15E018F8010BFFF748FF6B480068D2
:1019600060B1684800680BF044FC6DA00DF08AFB84
:10197000002066490860401EBDE8F0877F1E641C99
:10198000002FE7D14FF48061594806F007FF5D480A
:1019900000680BF02EFC2846EEE701460020704759
:1019A00070B505460C460121524808F0D3FB012CC6
:1019B0000FD04FF480614E4806F0F2FE0120FFF791
:1019C00015FF8020FFF712FF4FF48061484806F0B2
:1019D000E5FE002070BD10B504464FF48061444818
:1019E00006F0DEFE0420FFF701FF4FF4806140485F
:1019F00006F0D4FE00213F4808F0ACFB002010BDEB
:101A00002DE9F04105460E46144655B90027D3236B
:101A1000474A48A14BA00DF035FB00BF002FFDD079
:101A200000BF102E0BD1214619B94FF0FF30BDE891
:101A3000F0810120486088604003086000BF0020FA
:101A4000F5E710B5304CFFF768FE00BF2000A4F1A9
:101A50000104FBD14FF48061254806F0A1FE04206B
:101A6000FFF7C4FE4FF48061214806F097FE012085
:101A70003C4908753C4848623C4888623C48C8621A
:101A8000AFF20B200863AFF28910486339488863CE
:101A90000020C8630B2238A132480AF081FF10BD34
:101AA0002DE9F041ADF5007D80460025002405E0DC
:101AB00040A90C5500200DF80400641CFF2CF7DD34
:101AC0002DA00AF047FF05463DB92DA00DF0DAFA2A
:101AD00001200DF5007DBDE8F08103212846AA6AAA
:101AE000904700267BE000000038004000040240E0
:101AF000000C0240003C00406672616D6C6F636BCD
:101B0000000000006C000020FFFF0F0068000020B4
:101B1000526561642074696D65206F75740A0000F8
:101B200057726974652074696D65206F75740A0059
:101B30005F06040864657620213D2052545F4E55AF
:101B40004C4C000028257329206173736572742042
:101B50006661696C65642061742025733A25642090
:101B60000A000000780D00209B190008A119000848
:101B7000D7190008011A00086672616D3000000074
:101B80006465766963652025733A206E6F742066FC
:101B90006F756E64210D0A004FF4807340AA3146C0
:101BA00028466F6BB8474FF480736A463146284623
:101BB0002F6BB84700240EE040A8005D1DF804100C
:101BC000884207D01DF8043040A8025D214609A0D4
:101BD0000DF058FA641CFF2CEEDD06F58076B6F5A4
:101BE000005FD9DB2846E96A884708A00DF04AFA69
:101BF00000BF6EE76572726F722061742025643ACF
:101C0000202564213D25640A0000000046696E73AA
:101C10006820746573740A001CB5002008F0C8F8C9
:101C2000002008F0C8F808F09BF800214FF400608D
:101C300007F036FA00220821AD4806F0BEFD00226A
:101C40000921AB4806F0B9FD00220A21A84806F098
:101C5000B4FD00220B21A64806F0AFFD00220C21A6
:101C6000A34806F0AAFD00220221A24806F0A5FD25
:101C70004FF47060009000208DF804008DF807008C
:101C800069469B4806F016FD042000906946994875
:101C900006F010FD4FF4805000906946944806F01D
:101CA00009FD1CBD1CB501210E2007F0B5F90C2261
:101CB00008218F4806F081FD0C2209218C4806F08E
:101CC0007CFD0C220A218A4806F077FD0C220B21AC
:101CD000874806F072FD0C221146854806F06DFD1E
:101CE0000C220221834806F068FD4FF470600090DA
:101CF00001208DF8050002208DF8040000208DF8E9
:101D0000060001208DF807006946794806F0D2FCEC
:101D1000042000906946774806F0CCFC4FF48050D0
:101D2000009000208DF807006946714806F0C2FC5B
:101D30000120009000208DF8040001208DF807009C
:101D400069466D4806F0B6FC0121C80207F0A8F903
:101D50000121880507F060F91CBD30B58FB004463D
:101D60000D464FF0FA51654806F01CF80021634813
:101D700005F0A0FF614805F0C1FE4FF00060009043
:101D80005F48019002944020039000200490059049
:101D90004FF480600690800007908000089000203B
:101DA00009904FF440300A9004200B9003200C90CF
:101DB0004FF400000D9080100E9069464F4805F0DA
:101DC0003FFF20214D4805F08BFF01214B4805F0D6
:101DD00071FF0FB030BD30B58FB004460D464FF0E7
:101DE000FA51464805F0DEFF0021444805F062FF45
:101DF000424805F083FE4FF000600090404801909B
:101E0000029400200390049005904FF480600690A7
:101E10008000079080000890002009904FF4403027
:101E20000A9004200B9003200C904FF400000D90BA
:101E300080100E906946314805F002FF20212F489E
:101E400005F04EFF01212D4805F034FF0FB030BDE5
:101E500010B54FF0C051294805F089FF10BD10B5ED
:101E600000214FF0006005F0E2FB10BD7FB5684631
:101E700007F03DF864210198B0FBF1F42146B1F17F
:101E8000807F00D31DE021F07F40401E4FF0E02214
:101E9000506150170F22002807DA13071E0E194B46
:101EA00000F00F052D1F5E5503E013071D0E164BA6
:101EB0001D5400BF00204FF0E02290610720106108
:101EC00000BF042005F0CBFB7FBD10B50CF008FD72
:101ED0000AF01DFD0CF013FD10BD10B5FFF7BFFF9C
:101EE000FFF7C4FF01F00FFA08A00DF040F910BD94
:101EF00000080240000C0240000402405864024006
:101F0000802C014018ED00E000E400E0756172747F
:101F10003100000070472DE9F04104460D464FF6B0
:101F2000FF784FF0FF31FE4800680BF0CAFA064612
:101F3000002E37D100BF5FEA0800A8F101080ED1DA
:101F4000F849204606F04CFE208840F400702080BE
:101F5000F34800680BF076FB0020BDE8F081208894
:101F600040F480702080A78A2582A08A00F00200B9
:101F70000228E0D1EB49204606F032FE208840F4EA
:101F80000070208000BF208800F40070B0F5007F52
:101F9000F9D0E5A00DF076F8E14800680BF052FBAF
:101FA0000120DAE70020D8E72DE9F04104460D468C
:101FB00016461F46E24885600661EFB94020E049B9
:101FC000C860E04884420AD1DE4810304860DE48EC
:101FD00005F036FE0121DC4805F06CFE2BE0DB4805
:101FE000D7494860D848603805F02AFE0121D64814
:101FF000603805F05FFE1EE00020D149C860D1487E
:1020000084420CD1CF4810304860CF48903805F05A
:1020100017FE0121CC48903805F04CFE0BE0CB4870
:10202000C7494860C848183005F00AFE0121C64873
:10203000183005F03FFEBDE8F0812DE9F0410A2798
:102040000CF04EFCBF4814300588001D068845EA98
:102050000644BF482040BE4988421DD1BD48007893
:1020600050B9BD48007800F0FE00B6491031088034
:102070000120B84908700DE0B6480078052809D15C
:10208000B548007840F00100AE49103108800620C4
:10209000B049087000250026AD48401C2040A0F53E
:1020A0004031891E55D1AB480078012802D006285E
:1020B0004CD114E0A94800680078A249103108808A
:1020C000A7480078012803D10320A249087005E041
:1020D000A3480078022801D19E49087036E0A14843
:1020E0000078012816D101239F4802689F480168A3
:1020F0009448FFF759FF9348001D008840F4C050F2
:102100009049091D0880012210218F48903805F060
:102110005DFE17E093480078032813D18948001D1D
:10212000008840F480608749091D0880081F0088E6
:102130004FF6FF310840834908800846008840F484
:102140000070088007208349087000BF00BF002589
:1021500000267F483F302040A0F54031403914D15F
:102160007C480078072810D17E48007803280CD1DD
:102170007448103000887D49096808700820754946
:10218000087081017A480BF0BAFB7A482040A0F52C
:10219000E02184397ED16F48007804284AD17649FD
:1021A000694805F0FFFD0021674805F083FD6D4893
:1021B000007830B1012812D002281AD0032838D173
:1021C0002DE00820634908705E48008840F40070E4
:1021D0005C490880491566480BF091FB29E0052011
:1021E0005C4908705748008840F480705549088061
:1021F0001FE008205749087081015D480BF07FFB04
:102200005048001D008820F4D0504E49091D088018
:10221000081F008840F48070091F088009E005202D
:102220004C4908704748008840F480704549088050
:1022300000BF00BF4748007802281BD148480078FB
:10224000022808D14548006840783E49103108808E
:1022500003204049087043480078022807D04148CD
:102260000078012803D03F480078032802D10420D9
:102270003849087037480078032814D100233A48B9
:1022800002683A4801682F48FFF78EFE2D48001D6E
:10229000008800E007E040F400602A49091D08803A
:1022A00004202C4908700CF02AFBBDE8F08110B521
:1022B0000CF016FB3149244805F0A5FD18B12E4954
:1022C000214805F06FFD0CF01AFB10BD10B50CF0A5
:1022D00007FB2B491C48903805F095FDF0B12949C2
:1022E0001948903805F05EFD0022102116489038FC
:1022F00005F06CFD00211448903805F0DBFC154812
:102300000078072843D10820124908700D4800883A
:1023100040F400700B490880491535E037E00000B3
:10232000840000200004001041636B6E6F776C65C1
:10233000646765506F6C6C696E67204F4B0A0000D4
:10234000B80D002000540040A0600240105800402A
:10235000010003009400002088000020900000206D
:102360009700002095000020980000208C0000209D
:10237000F40D0020840007000000202000802020B1
:102380002080001020000010FC480BF0B8FAFC4937
:10239000FC4805F038FD18B1FB49FA4805F002FD8C
:1023A000FA49F84805F02FFD20B1F7490839F548FA
:1023B00005F0F8FCF649F34805F025FD18B1F5499C
:1023C000F04805F0EFFCF449EE4805F01CFD20B1A3
:1023D000F049C91CEB4805F0E5FC0CF090FA10BD83
:1023E0000021EE4A1160EE49088800F48061B1F5E1
:1023F000806F0BD1EA49098821F48061E84A118095
:10240000E649096841F02001E44A116000F4807156
:10241000B1F5807F0BD1E249098821F48071E04A4F
:102420001180DE49096841F48071DC4A116000F4D2
:102430000071B1F5007F0BD1D949098821F40071F1
:10244000D74A1180D549096841F01001D34A11607B
:1024500070470246012070472DE9FF4F83B00446C4
:102460000E461746DDE9108A4FF6FF754FF0FF3133
:10247000CC4800680BF025F800F0FF09B9F1000F17
:1024800070D14FF00109C84880F80080C748076044
:10249000C7480660C74880F800A006A8C64908607B
:1024A0000020C64908600220C54908700020C549BF
:1024B000087018F0010F0BD0BC480068012803D148
:1024C0000320C149087006E00120BF49087002E0FE
:1024D0000020BD490870A08840F44070A08020888A
:1024E00040F4807020804FF6FF7502A84FF0FF3354
:1024F00005224FF400710090A0480BF073FA10B160
:102500004FF0000967E0B048007802284CD105E0A0
:102510002800A5F1010501D181465CE0A08A00F008
:1025200001000128F4D14FF6FF759F480078208202
:1025300005E02800A5F1010501D181464BE0A08A04
:1025400000F002000228F4D120884FF6FF31084045
:10255000208072B6B4F818B0208840F40070208053
:1025600062B606E044E02800A5F1010501D18146EC
:1025700031E0A08A00F040004028F4D1208A8C4944
:102580000968087005E02800A5F1010501D1814620
:1025900021E0208800F40070B0F5007FF3D020889F
:1025A00040F48060208015E005E02800A5F10105D9
:1025B00001D1814605E0208800F40070B0F5007F6D
:1025C000F3D000BF80480078032803D1208840F46E
:1025D0008060208000BFA0884FF6C0718843A08033
:1025E000704800680BF02EF8484607B0BDE8F08F41
:1025F0000020FAE700B587B07448007800287DD144
:102600000121480506F03BFD0121022006F004FDF2
:102610000121480506F000FDC020059002208DF83C
:1026200019008DF8180001208DF81A0000208DF88F
:102630001B0005A9664806F03DF8042207216448FE
:1026400006F0BBF804220621614806F0B6F8012125
:10265000480506F07CFD00214FF4001006F077FDE0
:102660004F48143806F0DEF80020ADF808004BF6AD
:10267000FF70ADF80A002820ADF80C004FF4806020
:10268000ADF80E000001ADF810005248019001A90C
:102690004348143806F0EFF801214148143806F099
:1026A00066F91F208DF8000000208DF801008DF8DC
:1026B000020001208DF80300684604F082FF11201B
:1026C0008DF80000684604F07CFF0B208DF80000B8
:1026D000684604F076FF20208DF8000002208DF877
:1026E0000200684604F06DFF00212648903005F096
:1026F000E1FA2448903005F001FA00E03CE04FF0A8
:102700000070354908602648001F48600020886036
:10271000C8604FF6FF700861002048614FF4806088
:1027200088610020C861086248624FF440308862C6
:102730000020C862012008630020886348631148B4
:10274000903005F07DFA00210E4805F0B3FA0D48EF
:1027500005F0D4F920490B4805F072FA00221FA1B8
:1027600006480BF00AF800211FA00AF0CFFD0D4922
:10277000086001201549087007B000BDF40D002065
:1027800010400010106002401000001008200010DF
:10279000010000900100801004100010740000205F
:1027A000145400408400002088000020980000207D
:1027B0008C00002097000020900000207000002076
:1027C000790000209400002095000020780000206F
:1027D00000040240801A0600B80D00206932635FD1
:1027E0006576656E740000006932635F6D75780010
:1027F00030B501464A69A2F146035A1CD41702EBD0
:102800009474A410C64D6C43C64D05FB0340C64CE2
:102810000A6954F8222010440C69012C09DD9A1C25
:10282000D41702EB9474A410B2EB840401D0BC4A18
:10283000801ACA68521EBA4C04FB02004FF461644D
:102840008A6804FB02003C244A6804FB02000A6810
:10285000104430BD02460020704710B504460020E9
:1028600010BD2DE9F0438BB007468846154667B981
:102870004FF000095423AD4AADA1B1A00CF002FC09
:1028800000BFB9F1000FFCD000BFB8F1100F03D0AA
:10289000B8F1110F4CD121E02E46B149002006F0CD
:1028A0008DFEB049002006F013FFAD4880780090FF
:1028B000AB4840780190AA4800780290A948407837
:1028C000401E0490A74880780390A648C078463000
:1028D00005906846FFF78CFF306029E02E46012105
:1028E000080706F0CCFB012006F0B1F930463CF0B9
:1028F000A1FB04469A492068887060684870A06807
:1029000008702069401C97494870E06888706069C9
:102910004638C8709249002006F0EEFD914900202B
:1029200006F071FE4AF2A551012007F063F900BFDD
:1029300000BF00200BB0BDE8F08310B54FF40014C9
:102940000121080706F09BFB012006F080F9012019
:1029500006F048FA00BF412006F001FA10B9601EE7
:102960000400F8D114B94FF0FF3010BD4FF480705F
:1029700006F02CFBFF207C4908607F207B49086023
:10298000012006F03EFB06F087FC0020EDE710B5C5
:10299000FFF7D3FF002802DA4FF0FF3010BD002010
:1029A0006F4908704870887001206E4948708870BF
:1029B0000020C870042008706C4800686C494860AA
:1029C00069480068886000200860084606F014FD29
:1029D0006349012006F090FD6249012006F013FED4
:1029E000634806F009FD10B94FF0FF30D6E700202C
:1029F000D4E710B505205F490875012007F001F9FB
:102A0000A0F52541A5390CD05BA00CF03BFB60A0E4
:102A10000CF038FBFFF7BBFF28B169A00CF032FBCC
:102A200010BD06F039FC0020524948626A488862AD
:102A30000020C862694808630020486368488863CA
:102A40000020C863032267A14A4809F0A9FF00BF1C
:102A5000E6E738B504460020009062A009F07AFF4E
:102A600005463DB16A46102128460AF0E7F80CB148
:102A700000982060009838BD2DE9F84306460F46BF
:102A8000904600246846FFF7E4FF68463CF0D2FA1F
:102A9000044634B1A6F26C706061781E2061C4F8FF
:102AA0000C8020463BF0CAFE00904EA009F052FF79
:102AB000054625B16A4611212846FFF7D2FEBDE83A
:102AC000F8832DE9F84306460F46904600246846F1
:102AD000FFF7BFFF68463CF0ADFA04461CB1A660A4
:102AE0006760C4F8008020463BF0A8FE00903DA03F
:102AF00009F030FF054625B16A4611212846FFF747
:102B0000B0FEBDE8F88338B56846FFF7A2FF684617
:102B10003BF0E4FE0446214633A00CF0B3FA38BD86
:102B2000805101008033E101A4000020E106040887
:102B300064657620213D2052545F4E554C4C000078
:102B40002825732920617373657274206661696C2E
:102B500065642061742025733A2564200A00000012
:102B6000D4000020D8000020A00000209C000020FD
:102B7000140E0020300E0020727463206973206EE2
:102B80006F7420636F6E666967757265640A000012
:102B9000706C6561736520636F6E666967757265D9
:102BA0002077697468207365745F6461746520615F
:102BB0006E64207365745F74696D650A00000000BF
:102BC00072746320636F6E666967757265206661F3
:102BD000696C2E2E2E0D0A00552800085B2800086F
:102BE000632800087274630025730A00F8B505466F
:102BF000EC6BE88A10F0100F37D1E88A10F4807F70
:102C000009D04022002160680BF0BFFE00206168FF
:102C1000086461684864E88A10F4006F1DD0A068F9
:102C2000006850B900262F23F44AF5A1FEA00CF04D
:102C300029FA00BF002EFDD000BF0020A1688860E7
:102C4000A168486010200090A16801F1440201F1E0
:102C50000C005023FCA10DF001F80121206808F0C0
:102C600083FAE88A40F01000E8820020F8BD0246AE
:102C7000002070470146002070472DE9F05F804634
:102C80008B4616461F4635464FF00009D8F83C40A3
:102C9000B8F8160010F4807F29D025E00EF0ECFD86
:102CA00082466068006C6168496C884212D0606836
:102CB000016C405C05F8010B7F1E6068006C401CD5
:102CC000616808646068006C402809D3002061686E
:102CD000086405E06FF0030950460EF0D1FD05E0F1
:102CE00050460EF0CDFD00BF002FD7D10DE009E01A
:102CF00003E02068808828706D1C2068008810F030
:102D0000200FF6D1A81BB842F2D348460BF01CFEA8
:102D1000A81BBDE8F09F2DE9F04104460D4616467C
:102D200054B900278E23C94AC9A1BFA00CF0AAF943
:102D300000BF002FFDD000BF0021204604F0BAFFE5
:102D4000E56066600121204604F0B4FFBDE8F08133
:102D50002DE9F05F804691461F464FF0000A4E462F
:102D6000D8F83C40B8F8160010F4806F0AD000255F
:102D7000A923BD4ABDA1ACA00CF084F900BF002D71
:102D8000FDD064E0B8F8160010F4006F31D0A168EF
:102D900001F10C004FF0FF310DF082F8054615B936
:102DA0006FF0040A24E02E606F600020A8600EF02F
:102DB00063FD8346A0688068E860A068806810B101
:102DC000A06880688560A0688560A068406858B980
:102DD000A0684560A3685B685A68A3685B68196867
:102DE000A3681868FFF797FF58460EF049FD00BF2B
:102DF0002DE0B8F8160010F0400F1AD016E0307829
:102E00000A2808D100BF2068008810F0800FFAD08F
:102E10000D202168888000BF2068008810F0800F96
:102E2000FAD0307821688880761C7F1E002FE6D18A
:102E30000DE00AE000BF2068008810F0800FFAD093
:102E4000307821688880761C7F1E002FF2D1504692
:102E50000BF07AFDA6EB0900BDE8F09F2DE9F041EB
:102E600004460E4690465CB900274FF48273804AB0
:102E700080A16DA00CF006F900BF002FFDD000BFAF
:102E8000E56B012E0AD0022E11D1E08A40F020001D
:102E9000E0820021286808F067F908E0E08A20F065
:102EA0002000E0820121286808F05EF900BF00BF21
:102EB0000020BDE8F0812DE9F04104460F4615469B
:102EC0001E466CB94FF0000840F21F136D4A6EA108
:102ED00055A00CF0D7F800BFB8F1000FFCD000BF30
:102EE00015F4007F02D115F4806F0DD04FF000086B
:102EF0004FF49273634A5DA14BA00CF0C3F800BF7E
:102F0000B8F1000FFCD000BF00202075E061206206
:102F1000624860626248A0626248E0626248206380
:102F2000624860636248A063E663A8B240F00302AF
:102F30003946204609F034FDBDE8F08170B50546FC
:102F4000EC6B40F22551206808F002FA002853D0BB
:102F5000E88A10F4807F0BD100264FF49F73554A06
:102F600055A131A00CF08EF800BF002EFDD000BF9F
:102F700029E00EF081FC06462068808861684A6C72
:102F800088546068406C401C616848646068406CAC
:102F9000402802D30020616848646068406C616822
:102FA000096C88420BD16068006C401C6168086441
:102FB0006068006C402802D30020616808643046D5
:102FC0000EF05EFC00BF2068008810F0200FD0D10A
:102FD00040F22551206808F0F1F9E86960B16068B5
:102FE000006C6168496C88427CD96068006CC0F1F3
:102FF00040006168496C73E07FE073E0F00604080C
:10300000756172742D3E646D615F74782D3E646DE0
:10301000615F6368616E6E656C20213D2052545F74
:103020004E554C4C00000000282573292061737315
:10303000657274206661696C656420617420257313
:103040003A2564200A000000646E0000FF060408B0
:10305000646D615F6368616E6E656C20213D205216
:10306000545F4E554C4C000014070408300000001B
:103070002407040864657620213D2052545F4E5594
:103080004C4C0000360704086465766963652021AE
:103090003D2052545F4E554C4C000000ED2B000873
:1030A0006F2C0008752C00087B2C0008512D00089F
:1030B0005D2E00084C0704086465766963652D3E43
:1030C000666C616720262052545F4445564943454B
:1030D0005F464C41475F494E545F52580000000024
:1030E000084404E06068406C6168096C401A064658
:1030F00031462846EA69904700BF40F226612068C1
:1031000008F026F920B140F22661206808F056F94F
:1031100070BD2DE9F0410546EC6BE88A10F4006FB4
:103120000CD100274FF4BE73234A24A1AFF208103C
:103130000BF0A8FF00BF002FFDD000BFA0684668BD
:1031400066B900274FF4C0731B4A26A1AFF22810BE
:103150000BF098FF00BF002FFDD000BF286A18B108
:10316000316828462A6A90470EF086FB8046B06890
:10317000A1684860A068406810B90020A168886014
:1031800040460EF07DFB30460CF002FFA068406820
:1031900050B1A3685B685A68A3685B681968A36844
:1031A0001868FFF7B8FD04E0A1680868002104F082
:1031B00081FDBDE8F08100005D0704086465766963
:1031C00063652D3E666C616720262052545F44453E
:1031D000564943455F464C41475F444D415F545813
:1031E00000000000646174615F6E6F646520213DC2
:1031F0002052545F4E554C4C00000000704700BFF9
:10320000FEE700BFFEE700BFFEE77047704710B55E
:103210000BF066FB01F0F3FA022802D102A00BF0DA
:1032200031FF0BF06CFB10BD5344204572726F727E
:103230000A00000010B50121084605F0EDFE01214D
:10324000102005F02DFF0121042005F0E5FE0121ED
:10325000202005F025FF10BD1CB502208DF80400CC
:103260008DF8050000208DF8060001208DF807007C
:103270004FF4C060009069465B4805F01BFA0722D6
:103280000921594805F099FA07220A21564805F004
:1032900094FA02208DF804008DF8050000208DF8C6
:1032A000060001208DF80700C020009069464F48B5
:1032B00005F000FA082206214C4805F07EFA0822A3
:1032C00007214A4805F079FA1CBD08B525208DF87C
:1032D000000000208DF801008DF8020001208DF81B
:1032E0000300684604F06DF947208DF800000020C7
:1032F0008DF801008DF8020001208DF8030068466A
:1033000004F05FF908BD1FB5FFF794FFFFF7A4FFB6
:10331000FFF7DBFF364807F051FE4FF4E130009035
:103320000020ADF80400ADF80600ADF80800ADF8D7
:103330000C000C20ADF80A0069462D4807F08CFE01
:103340002C4B40F243122CA12D48FFF7B4FD012273
:1033500040F22551264807F0C0FF0121244807F01C
:1033600003FF8021224807F0EAFF264807F026FEE7
:103370004FF4E13000900020ADF80400ADF80600F5
:10338000ADF80800ADF80C000C20ADF80A00694655
:103390001C4807F061FE1C4B40F243121BA11D4864
:1033A000FFF789FD012240F22551164807F095FFED
:1033B0000121144807F0D8FE8021124807F0BFFF12
:1033C0001FBD10B50BF08CFA0D48FFF7B7FD0BF0E1
:1033D00096FA10BD10B50BF083FA0E48FFF7AEFD5C
:1033E0000BF08DFA10BD0000000002400008024002
:1033F00000100140DC000020756172743100000093
:10340000B80E002000140140E800002075617274BD
:1034100036000000400F002010B5FEF7FDFB10BD88
:10342000014600BFFE48006810F0450FFAD040F298
:10343000FF50FB4A121D1060F9482038006808222E
:103440001040C0B270472DE9FC4107460D460026EA
:1034500000240020009001900820F249086010200C
:103460004860402088600020C8604FF48060086198
:10347000084606F0B3FC1020FFF7D2FF044614B153
:103480002046BDE8FC81E84800680004E549086082
:1034900037204860402088600020C8604FF480607A
:1034A0000861084606F09AFC3720FFF7B9FF04468A
:1034B0000CB12046E5E74FF0FF30DC4908600820FA
:1034C0004860302088600220C86000200861012028
:1034D0004861084606F0AAFC0020D2490860332063
:1034E0004860402088600020C8604FF48060086118
:1034F000084606F073FC3320FFF792FF04460CB138
:103500002046BEE709E04FF4001006F0F3FC20B1BE
:1035100006F0B2FC4DF82600761CC148006840F267
:103520002A610842EFD0082006F0E4FC28B1082008
:1035300006F0EBFC04242046A3E7022006F0DAFCA8
:1035400028B1022006F0E1FC0224204699E7202061
:1035500006F0D0FC28B1202006F0D7FC0624204637
:103560008FE74FF4007006F0C5FC30B14FF40070E7
:1035700006F0CBFC0724204683E740F2FF5006F01C
:10358000C4FC00980006009901F47F4140EA012044
:10359000009901F47F0140EA1120009940EA11608E
:1035A000686001980006019901F47F4140EA01201A
:1035B000019901F47F0140EA1120019940EA11606C
:1035C000286020465DE77CB5054600240020009079
:1035D000019006F024FC10F0007F02D00E2420465B
:1035E0007CBD69469048006880B2FFF72CFF044616
:1035F0000CB12046F4E7012D35D1019810F4802F4D
:103600002ED0894800680004864908603720486049
:10361000402088600020C860A8020861084606F0C3
:10362000DDFB3720FFF7FCFE04460CB12046D7E750
:1036300002207C4908600620486040208860002005
:10364000C8604FF480600861084606F0C7FB06209A
:10365000FFF7E6FE04460CB12046C1E72046BFE76F
:1036600025242046BCE7019810F4803F2FD06E48F7
:10367000006800046B49086037204860402088607B
:103680000020C8604FF480600861084606F0A6FB81
:103690003720FFF7C5FE04460CB12046A0E7002006
:1036A0006049086006204860402088600020C860AB
:1036B0004FF480600861084606F090FB0620FFF793
:1036C000AFFE04460CB120468AE7204688E7252451
:1036D000204685E770B50446002555480068032854
:1036E00002D12725284670BD5148006838B150489E
:1036F0000068012803D04E48006802282ED1B4F596
:10370000805F02D127252846EDE7B4F5006F14D17C
:103710000120FFF758FF054605BB01204549087504
:1037200000200860486088604FF40060C860002096
:103730000861084606F01FFB10E00020FFF743FF7A
:1037400005465DB901203B490875002008604860C6
:103750008860C8600861084606F00DFB2846C2E78D
:1037600070B5044600252F48046007202D494860A5
:10377000402088600020C8604FF4806008610846DF
:1037800006F02CFB0720FFF74BFE0546284670BDD0
:1037900030B5014600200022254B1B6881F84E30D1
:1037A000214B1B68A1F84C30234B1B681A0E930960
:1037B0000B70C2F383034B7002F003038B701E4B3C
:1037C0001B68C3F30742CA701B4B1B68C3F3072275
:1037D0000A71194B1B68DAB24A71174B5B681A0EF3
:1037E0001301CB80144B5B68C3F30742CB8843EAD9
:1037F0001213CB8002F00F030B720F4B5B68C3F305
:103800000722D3094B72C2F380138B72C2F34013A9
:10381000CB72C2F300130B7300234B73044B0DE008
:10382000342C014018100020F80000202C1000203B
:10383000F400002000100020800F00201B681BB146
:10384000FE4B1B68012B3DD193071B0D0B61FC4BFD
:103850005B68DAB20B6943EA82030B61F84B9B6841
:103860001A0E0B6943EA92130B61C2F3C2030B7584
:1038700002F007034B75F24B9B68C3F307425309F1
:103880008B75C2F38203CB7593075B0F0B76EC4B02
:103890009B68C3F307220B7E43EAD2130B760B69B6
:1038A0005B1C4B640C7E4B6CA41C0125A5406B4338
:1038B0004B640C7A0123A3408B64D1E91134634338
:1038C0004B6422E0DD4B1B68022B1ED1DC4B5B6896
:1038D000DAB293069B0A0B61D94B9B681A0E0B69EF
:1038E00043EA02230B61D64B9B68C3F307420B6983
:1038F00013430B61D24B9B68C3F307220B695B1C1C
:10390000DB044B644FF400738B64C2F3801301F843
:10391000193F93065B0E4B70C94B9B68DAB24B782C
:1039200043EAD2134B7002F07F038B70C44BDB6809
:103930001A0ED309CB70C2F341130B71C2F3820389
:103940004B7193071B0F8B71BD4BDB68C3F30742B1
:103950008B7943EA92138B71C2F34013CB7100232E
:103960000B7202F001034B72B54BDB68C3F3072205
:10397000D3098B72C2F38013CB72C2F340130B7363
:10398000C2F300134B73C2F381038B7302F0030382
:10399000CB73AB4BDB68DAB253080B7401234B7467
:1039A000A84B1B681A0ECA74A1F11901A54B1B681C
:1039B000C3F307424FEA0224CC85A24B1B68C3F332
:1039C0000722CB8D43EA0203CB859E4B1B68DAB2FC
:1039D0004FEA02640C639B4B5B684FEA13620B6B0C
:1039E00043EA02440C63974B5B68C3F307420B6BDB
:1039F00043EA02240C63934B5B68C3F307220B6B0F
:103A000043EA02030B638F4B5B68DAB24FF0340377
:103A10005A548C4B9B684FEA13624FF035035A544B
:103A2000884B9B68C3F307424FEA02648C63854B63
:103A30009B68C3F307228B6B43EA02448C63814B80
:103A40009B68DAB28B6B43EA02248C637D4BDB68A4
:103A50004FEA13628B6B43EA02038B63794BDB689B
:103A6000C3F307424FF03C035B5C43EA12144FF090
:103A70003C035C544FEA02734FEA1354CC87714BFA
:103A8000DB68C3F30722CB8F43EA0203CB876D4B7E
:103A9000DB68DAB24FEA52044FF040035C544FF057
:103AA00001044FF041035C5430BD70B500256648F9
:103AB000046801E06448046814F0450FFAD014F07B
:103AC000040F05D00325042006F01FFA284670BD18
:103AD00014F0010F05D00125012006F016FA284642
:103AE000F5E740F2FF5006F010FA2846EFE72DE91F
:103AF000F04106460F464FF000085348056801E0C4
:103B00005148056815F0450FFAD015F0040F07D09D
:103B10004FF00308042006F0F8F94046BDE8F081B4
:103B200015F0010F06D04FF00108012006F0EDF965
:103B30004046F3E706F06EF9B04203D04FF01008AC
:103B40004046EBE740F2FF5006F0DFF9002006F0B8
:103B500066F9044614F4604F03D1200C38804046C7
:103B6000DCE714F4005F01D01320D7E714F4804F92
:103B700001D01020D2E714F4004F01D00F20CDE780
:103B80004046CBE738B500240120009006F020F92C
:103B900010B92524204638BD28480068042828D0BC
:103BA00000202A49086002204860C0208860002068
:103BB000C8604FF480600861084606F00FF9FFF70F
:103BC00074FF04460CB12046E5E7002006F027F913
:103BD0001C490860042006F022F91A4948600820B0
:103BE00006F01DF9174988600C2006F018F91549F0
:103BF000C8601248006858B110480068012807D012
:103C00000E480068062803D00C480068022821D11D
:103C100000200E4908600320486040208860002092
:103C2000C8604FF480600861084606F0D7F869461E
:103C30000320FFF75CFF044664B109E0F4000020B4
:103C4000800F0020900F0020342C0140181000201D
:103C50002046A0E7FA48006804282ED0BDF80000EE
:103C6000F8490860BDF800000004F7490860092021
:103C70004860C02088600020C8604FF48060086100
:103C8000084606F0ABF8FFF710FF04460CB12046DB
:103C900081E7002006F0C3F8EC490860042006F034
:103CA000BEF8EA494860082006F0B9F8E74988609C
:103CB0000C2006F0B4F8E549C860002420466AE705
:103CC00070B50025E248046801E0E148046814F09A
:103CD000450FFAD014F0040F05D00325042006F098
:103CE00014F9284670BD40F2FF5006F00EF9284640
:103CF000F8E770B500264FF48035D548046802E037
:103D00006D1ED348046814F0450F01D1002DF7D182
:103D100015B114F0040F05D00326042006F0F5F8C1
:103D2000304670BD14F0400F05D00026402006F04C
:103D3000ECF83046F5E73046F3E770B500254FF470
:103D4000803400E0641E24B1802006F0D3F80028FF
:103D5000F8D014B90325284670BD40F2FF5006F094
:103D6000D4F82846F8E72DE9F04100240026002584
:103D70000027A0467620B7490875002008604860F3
:103D80008860C8600861084605F0F5FF032006F06A
:103D900012F8012006F00CF80020AB4908604860DA
:103DA0008860C8604FF480600861084606F016F825
:103DB000FFF7C3FF044614B12046BDE8F0814FF47D
:103DC000D570A14908600820486040208860002024
:103DD000C8604FF480600861084605F0FFFFFFF7F8
:103DE00088FF04462CB90120954908604FF08048AF
:103DF00012E0002094490860372048604020886025
:103E00000020C8604FF480600861084605F0E6FFB6
:103E10003720FFF705FB044600208B490860372058
:103E20004860402088600020C8604FF480600861CE
:103E3000084605F0D3FF3720FFF7F2FA0446002CBE
:103E40004AD136E000208049086037204860402091
:103E500088600020C8604FF480600861084605F063
:103E6000BDFF3720FFF7DCFA04460CB12046A4E77B
:103E7000794848EA000074490860292048604020D9
:103E800088600020C8604FF480600861084605F033
:103E9000A5FFFFF715FF04460CB120468DE7002073
:103EA00005F0BDFF0646012080EAD67080F00107CC
:103EB0006D1C1FB94FF6FF708542C3D34FF6FF70DC
:103EC000854202D31B24204677E706F08040060097
:103ED00002D002205A49086020466EE710B500243F
:103EE000FDF7E0FE05F03CFFFFF73DFF04460CB197
:103EF000204610BDFFF746FE04460CB12046F8E709
:103F00000120544908750020086048608860C86036
:103F10000861084605F02FFF5048FFF739FC0446BA
:103F200034B94E49B1F84C100804FFF719FC0446A7
:103F300024B94FF40060FFF7CDFB04462046D8E7D4
:103F400070B5044600253F480068000440492C39FC
:103F5000086040F24D40091D08600D20FFF760FA2F
:103F600005460DB1284670BD3948203800682060EC
:103F70002846F8E70120704708B500200090FFF7B9
:103F8000F9FF012809D16846FFF7DAFF08B1FF20E1
:103F900008BD0098C0F34320FAE7FF20F8E710B50A
:103FA0000424FFF7E9FF0446042C01D1002010BDD2
:103FB000FF2C01D10220FAE70120F8E710B5002418
:103FC000002005F0F8FE204610BD70B5044600251F
:103FD0000026002005F023FF10F0007F02D00E2500
:103FE000284670BD402018490860102048604020D5
:103FF00088600020C8604FF480600861084605F0C2
:10400000EDFE1020FFF70CFA05460DB12846E8E753
:104010000C48006800040C490860372048604020C4
:1040200088600020C8604FF480600861084605F091
:10403000D5FE3720FFF7F4F905468DB12846D0E7C5
:10404000F4000020F800002018100020800F00204D
:10405000342C01400010002000001080B00F002020
:104060004FF0FF30FE4908604020486060208860C3
:104070000220C8600020086101204861084605F060
:10408000D5FE0020F74908600D2048604020886078
:104090000020C8604FF480600861084605F09EFE6D
:1040A0000D20FFF7BDF905460DB1284699E70EE052
:1040B0004FF4004005F01EFF48B1002604E005F073
:1040C000DBFE44F82600761C082EF8D32034E648A0
:1040D000006840F22A610842EAD0082005F00AFF91
:1040E00028B1082005F011FF0425284679E70220B1
:1040F00005F000FF28B1022005F007FF0225284641
:104100006FE7202005F0F6FE28B1202005F0FDFE27
:104110000625284665E74FF4007005F0EBFE30B148
:104120004FF4007005F0F1FE0725284659E703E03B
:1041300005F0A2FE2060241D4FF4001005F0DAFE09
:104140000028F5D140F2FF5005F0DFFE284648E791
:1041500070B5044600260025C448FFF736FF064622
:104160000EB1304670BDC148007885092570BF4842
:104170000078C0F340156570BC48857828026080DF
:10418000BA48C578608828436080B8480579280611
:104190006060B6484579606840EA05406060B348B1
:1041A0008579606840EA05206060B048C57960683C
:1041B00028436060AD48057A2572457A6572807A39
:1041C0000509A572A948C57A2802A081A748057BE0
:1041D000A0892843A081A548407B8508A573A348F2
:1041E000407B00F00305E5733046BBE72DE9F04165
:1041F00005460E461446002700209D4908709D493B
:1042000008609D4908609849083908609B48006823
:10421000022800D104024FF0FF309149086008469F
:104220004460902088600220C8600020086101205E
:104230004861084605F0FAFD8A4805601120894961
:104240004860402088600020C8604FF480600861AA
:10425000084605F0C3FD1120FFF7E2F8074617B145
:104260003846BDE8F0810121080205F032FE012048
:1042700005F02BFE21463046FDF7ADFD3846F0E750
:104280002DE9F0410746884614461D4600260020C9
:104290007749087077490860012077490860002055
:1042A00071490839086075480068022800D1040285
:1042B0006C48046010206B494860402088600020F2
:1042C000C8604FF480600861084605F087FD102043
:1042D000FFF7A6F8064616B13046BDE8F0814FF06C
:1042E000FF305F49086005FB04F04860902088605B
:1042F0000220C8600020086101204861084605F0DE
:1043000095FD584807601220564948604020886053
:104310000020C8604FF480600861084605F05EFD2B
:104320001220FFF77DF806460EB13046D5E7012191
:10433000080205F0CEFD012005F0C7FD05FB04F1E4
:104340004046FDF748FD3046C7E710B5002400BFE2
:10435000FDF77EFD30B94748006818B94448007839
:104360000028F5D04248007810B14148007810BDCF
:104370002046FCE72DE9F04105460E46144600278D
:1043800000203B4908703B4908603B4908603649BA
:104390000839086039480068022800D10402314811
:1043A000056018202F494860402088600020C860C0
:1043B0004FF480600861084605F010FD1820FFF7F3
:1043C0002FF8074617B13846BDE8F0814FF0FF30AF
:1043D0002349086008464460902088600020C86037
:1043E000086101204861084605F020FD012108020E
:1043F00005F06FFD21463046FDF7AFFC012005F0CA
:1044000064FD3846E0E72DE9F04107468846164648
:104410001C46002500201649087016490860012036
:1044200015490860002010490839086013480068E1
:10443000022800D1060212480068000409490860F9
:1044400037204860402088600020C8604FF48060BA
:104450000861084605F0C2FC3720FEF7E1FF11E0D5
:104460002C10002018100020342C0140A00F002038
:104470000001002004010020FC000020F4000020C6
:10448000F8000020054615B12846BDE8F081F9483E
:1044900004601720F7494860402088600020C86009
:1044A0004FF480600861084605F098FC1720FEF77D
:1044B000B7FF05460DB12846E7E7EE48076019202B
:1044C000EC494860402088600020C8604FF480605C
:1044D0000861084605F082FC1920FEF7A1FF054699
:1044E0000DB12846D1E74FF0FF30E349086004FBE7
:1044F00006F04860902088600020C86008610120B4
:104500004861084605F092FC0121080205F0E1FC33
:10451000012005F0DAFC04FB06F14046FDF71DFC26
:104520002846B2E710B5002400BFFDF791FC30B972
:10453000D248006818B9D24800780028F5D0D04891
:10454000007810B1CE48007810BD40F2FF5005F061
:10455000DCFC2046F8E7CB48006810F4405F01D04F
:10456000012070470020FCE710B500240020C54959
:104570002C39086040F24C40091D08600C20FEF701
:104580004FFF0446204610BD2DE9F04106460027A6
:1045900000240025BC4800680004B64908600D20CE
:1045A0004860402088600020C8604FF48060086147
:1045B000084605F013FCB348056801E0B1480568FA
:1045C00015F0450FFAD015F0040F06D0032704208C
:1045D00005F09BFC3846BDE8F08115F0010F05D0D1
:1045E0000127012005F091FC3846F4E705F012FCA4
:1045F00005460D2D02D010273846ECE740F2FF505B
:1046000005F083FC002005F00AFC0446C4F34320B7
:1046100030709E48044201D13846DCE714F0004F68
:1046200001D01C20D7E714F0804F01D00920D2E739
:1046300014F0005F01D00A20CDE714F0805F01D0B4
:104640000B20C8E714F0006F01D00C20C3E714F072
:10465000806F01D00D20BEE714F0807F01D00E20C6
:10466000B9E714F4000F01D00F20B4E714F4800F61
:1046700001D01020AFE714F4001F01D01120AAE7E9
:1046800014F4801F01D01220A5E714F4002F01D0EC
:104690001320A0E714F4802F01D014209BE714F41A
:1046A000003F01D0152096E714F4803F01D016207A
:1046B00091E714F4004F01D017208CE714F4804FD9
:1046C00001D0182087E714F4005F01D0192082E799
:1046D00014F0080F01D01A207DE738467BE72DE95A
:1046E000F84305460E4600240027A046002000900F
:1046F00067484068202111EA105F03D12524204635
:10470000BDE8F8835F4830380068C0B2801C61495A
:10471000B1FBF0F8002005F082FB10F0007F02D022
:104720000E242046ECE75C480068022801D16D0A9F
:10473000760A5948006838B157480068012803D004
:104740005548006802282BD14A4805602020494975
:104750004860402088600020C8604FF48060086195
:10476000084605F03BFB2020FEF75AFE04460CB13C
:104770002046C5E73F48066021203E49486040206A
:1047800088600020C8604FF480600861084605F02A
:1047900025FB2120FEF744FE04460CB12046AFE77E
:1047A00000203449086026204860402088600020AE
:1047B000C8604FF480600861084605F00FFB2620B2
:1047C000FEF72EFE04460CB1204699E7002700E0D4
:1047D0007F1C4745FCD36846FFF7D6FE044603E03E
:1047E0006846FFF7D1FE04463CB99DF80000072853
:1047F000F6D09DF800000628F2D0204680E710B5DC
:104800002648006801280DD100201E492C39086077
:1048100040F24C40091D08600C20FEF701FE1849CB
:10482000087002E00020164908704FF4807005F00F
:104830007BFB00214FF4807005F04BFB01200F49FA
:1048400008600F48007810BD0146002002E04910C2
:10485000421CD0B20129FAD1704710B5044600239A
:1048600001220FA1104808F089FB78B30FA00AF0CD
:1048700009FC2FE0181000202C100020040100205B
:1048800000010020342C0140F800002008E0FFFD6A
:10489000800F0020C0D40100F4000020FC000020A4
:1048A00073646C6F636B000094100020696E697410
:1048B000207364206C6F636B2073656D6170686F2B
:1048C0007265206661696C65640A0000FFE7C6A036
:1048D0000AF0D8FB002010BD0246002070470146B8
:1048E000002070472DE9F05F83460F461446984636
:1048F000C2480068022801D1012501E04FF400758B
:104900004FF0FF31BE4808F0D6FB4FF0030A54E0E9
:1049100014F0030F02D1BB48844225D900261FE0C2
:10492000B94949683144394401FB05F04FF400723C
:10493000B649FFF75BFC8146FFF707FD814600BFE4
:10494000FFF72DFB0028FBD1B9F1000F00D009E0E3
:1049500004EB46204FF40072AC490AF03AF8761C9A
:104960004645DDD300BF22E0B8F1010F0BD1A649C7
:104970004968394401FB05F04FF400722146FFF706
:1049800035FC81460BE0A0494968394401FB05F03C
:1049900043464FF400722146FFF772FC8146FFF751
:1049A000D4FC814600BFFFF7FAFA0028FBD1B9F129
:1049B000000F00D104E0AAF1010ABAF1000FA7D15B
:1049C00000BF8F4808F015FCB9F1000F02D1404636
:1049D000BDE8F09F224649468DA00AF053FB002017
:1049E000F6E72DE9F0478246884615469946834802
:1049F0000068022801D1012601E04FF400764FF053
:104A0000FF317F4808F057FB15F0030F02D17D48B6
:104A1000854223D900271DE005EB47214FF40072A2
:104A20007A4809F0D6FF784949683944414401FB86
:104A300006F04FF400727549FFF79CFC0446FFF73F
:104A400071FD044600BFFFF7AAFA0028FBD104B1AC
:104A500002E07F1C4F45DFD300BF22E0B9F1010F18
:104A60000BD169494968414401FB06F04FF40072DB
:104A70002946FFF77FFC04460BE06349496841443F
:104A800001FB06F04B464FF400722946FFF7BBFCD2
:104A90000446FFF747FD044600BFFFF780FA0028F1
:104AA000FBD1574808F0A5FB14B94846BDE8F0878C
:104AB0002A4621465EA00AF0E5FA0020F6E72DE935
:104AC000F04105460E4614465DB9002740F67623B0
:104AD000604A61A164A00AF0D5FA00BF002FFDD0A2
:104AE00000BF102E1DD1214619B94FF0FF30BDE88F
:104AF000F0814FF4007048606348806C88603F48E4
:104B00000068022805D160480069401C80020860E6
:104B100006E05D48406C5C4A926CB0FBF2F00860C5
:104B200000BF0020E3E738B5FFF7D8F9002856D1D9
:104B300031208DF8000000208DF801008DF8020072
:104B400001208DF80300684602F03BFD4FF4007031
:104B50000AF098FC04461CB94CA00AF093FA38BD40
:104B60004FF400720021204609F00FFF4FF400724D
:104B700021460020FFF73AFB0546FFF7E6FB054616
:104B800000BFFFF70CFA0028FBD155B900222146DF
:104B90001D4835F06CFD40B100201B49486088601D
:104BA00003E0002018494860886020460AF050FE63
:104BB000012041490875414848624148886241489E
:104BC000C8624148086341484863414888632E48A9
:104BD000C8630F223FA1384807F0E2FEBFE73EA0BE
:104BE0000AF050FA00BFBAE75344204361726420D0
:104BF000696E6974204F4B0A00000000F400002029
:104C0000941000200000082084100020B410002020
:104C100072656164206661696C65643A2025642C64
:104C200020627566666572203078253038780A0013
:104C30007772697465206661696C65643A202564E1
:104C40002C20627566666572203078253038780AC7
:104C5000000000007507040864657620213D20529D
:104C6000545F4E554C4C0000282573292061737306
:104C7000657274206661696C6564206174202573B7
:104C80003A2564200A000000B00F0020616C6C6FB0
:104C90006361746520706172746974696F6E2073EA
:104CA0006563746F722062756666657220666169FD
:104CB0006C65640A00000000441000205B48000896
:104CC000D9480008DF480008E5480008E349000823
:104CD000BF4A0008736430007364636172642069C2
:104CE0006E6974206661696C65640A0070B505467A
:104CF0000C46A4F12000044A02EB001110222846C1
:104D000039F0F3FD70BD0000870704081CB50121D0
:104D1000582004F081F90121084604F09FF90C2283
:104D20000021FE4803F049FD0C220121FB4803F05D
:104D300044FD0C220421F94803F03FFD0C2205211B
:104D4000F64803F03AFD0C220821F44803F035FD43
:104D50000C220921F14803F030FD0C220A21EF4812
:104D600003F02BFD0C220E21EC4803F026FD0C2253
:104D70000F21EA4803F021FD4CF23370009002202D
:104D80008DF8040003208DF8050000208DF8060042
:104D90008DF807006946E14803F08CFC0C220221E3
:104DA000DF4803F00AFD0C220721DD4803F005FD72
:104DB0000C220821DA4803F000FD0C220921D84812
:104DC00003F0FBFC0C220A21D54803F0F6FC0C2270
:104DD0000B21D34803F0F1FC0C221146D04803F01C
:104DE000ECFC0C220D21CE4803F0E7FC0C220E2136
:104DF000CB4803F0E2FC0C220F21C94803F0DDFC94
:104E00004FF6847000906946C54803F053FC0C22AD
:104E10000521C44803F0D1FC0C221146C14803F01F
:104E2000CCFC0C220D21BF4803F0C7FC0C220E2144
:104E3000BC4803F0C2FC47F2200000906946B94824
:104E400003F038FC4FF40060009001208DF804005E
:104E500002208DF8050000208DF8060001208DF855
:104E600007006946AD4803F025FC0122D102AB489A
:104E700003F098FC1CBD00B597B0062008900020F8
:104E800009900A9010200B9000200C900E900F902B
:104E900010904FF480501190002012900D901390BC
:104EA000149001A815900F200190002002900F206F
:104EB00003900020049005900690079001A816909A
:104EC00008A803F097F80121062003F03CF917B079
:104ED00000BD10B5944CFFF719FF00BF2000A4F1EE
:104EE0000104FBD1FFF7C7FF10BD002109E000223C
:104EF00001E0531C9AB240F275439A42F9DB4B1C15
:104F000099B28142F3DB704710B5FFF7E2FF40F240
:104F100023108649088000203AF0D0FA834908809F
:104F200008460088A0F51341253905D07F48008840
:104F3000A0F5134128397DD101207D490870102149
:104F4000E7203AF0CDFA012100203AF0C9FA4FF4F7
:104F5000807101203AF0C4FA4FF4E06102203AF087
:104F6000BFFA41F2300103203AF0BAFA00210420DE
:104F70003AF0B6FA40F2072108203AF0B1FA0021DF
:104F800009203AF0ADFA00210A203AF0A9FA0121ED
:104F90000C203AF0A5FA00210D203AF0A1FA0021E8
:104FA0000F203AF09DFA002110203AF099FA0721DB
:104FB00011203AF095FA002112203AF091FA0021DE
:104FC00013203AF08DFA3220FFF78FFF41F2905113
:104FD00010203AF085FA40F2272111203AF080FAA9
:104FE0003220FFF782FF9C2112203AF079FA32201A
:104FF000FFF77BFF4FF4C85113203AF071FA2321D9
:1050000029203AF06DFA0E212B203AF069FA32206D
:10501000FFF76BFF002120203AF062FA00212120E7
:105020003AF05EFA3220FFF760FF072130203AF0B5
:1050300057FA00E097E040F2077131203AF050FA59
:10504000062132203AF04CFA40F2047135203AF051
:1050500047FA41F6047136203AF042FA042137202B
:105060003AF03EFA002138203AF03AFA40F206715E
:1050700039203AF035FA40F201713C203AF030FA2A
:105080000F213D203AF02CFA3220FFF72EFF0021AD
:1050900050203AF025FAEF2151203AF021FA002170
:1050A00052203AF01DFA40F23F1153203AF018FA1C
:1050B0004FF4274160203AF013FA012161203AF0C1
:1050C0000FFA00216A203AF00BFA002180203AF012
:1050D00007FA002181203AF003FA002182203AF0F9
:1050E000FFF9002183203AF0FBF9002184203AF0F7
:1050F000F7F9002185203AF0F3F9102190203AF0D9
:10510000EFF9002192203AF0EBF9032193203AF0D5
:10511000E7F94FF4887195200CE00000000C024084
:105120000010024000180240FFFF1F001E01002077
:105130001C0100203AF0D4F9002197203AF0D0F970
:10514000002198203AF0CCF940F2331107203AF0D0
:10515000C7F9002120203AF0C3F9002121203AF0BC
:10516000BFF901F084BAFE480088A0F51341203948
:1051700004D0FB480088B0F5134F7DD10020F949D9
:105180000870002108463AF0ABF94FF48071012015
:105190003AF0A6F94FF4E06102203AF0A1F941F2A9
:1051A000180103203AF09CF9002104203AF098F904
:1051B00040F2022108203AF093F9002109203AF048
:1051C0008FF900210A203AF08BF901210C203AF0E6
:1051D00087F900210D203AF083F900210F203AF0E1
:1051E0007FF96420FFF781FE40F2011107203AF0B9
:1051F00077F96420FFF779FE4FF4865110203AF0DA
:105200006FF9072111203AF06BF94FF488711220E1
:105210003AF066F94FF4306113203AF061F9002159
:1052200029203AF05DF944F210012B203AF058F9A8
:10523000002150203AF054F9EF2151203AF050F972
:10524000002152203AF04CF940F23F1153203AF03D
:1052500047F94FF41C5160203AF042F901216120D6
:105260003AF03EF900216A203AF03AF90021802014
:105270003AF036F9002100E031E081203AF030F9CF
:10528000002182203AF02CF9002183203AF028F9FD
:10529000002184203AF024F9002185203AF020F9F9
:1052A000102190203AF01CF9002192203AF018F9D0
:1052B000012193203AF014F94FF4887195203AF0C7
:1052C0000FF9002197203AF00BF9002198203AF0CD
:1052D00007F940F2731107203AF002F941E7A048BC
:1052E0000088A0F5134131397ED103209D49087013
:1052F00041F21401E7203AF0F3F84FF480710120F5
:105300003AF0EEF84FF4007102203AF0E9F841F279
:10531000300103203AF0E4F840F2022108203AF08C
:10532000DFF8002109203AF0DBF800210A203AF0EA
:10533000D7F800210C203AF0D3F800210D203AF0E4
:10534000CFF800210F203AF0CBF8002110203AF0DE
:10535000C7F8072111203AF0C3F8002112203AF0D3
:10536000BFF8002113203AF0BBF8C820FFF7BDFDBD
:1053700041F2906110203AF0B3F840F22721112059
:105380003AF0AEF83220FFF7B0FD0C2112203AF0CF
:10539000A7F83220FFF7A9FD4FF4006113203AF07F
:1053A0009FF8112129203AF09BF80B212B203AF08D
:1053B00097F83220FFF799FD002120203AF090F86D
:1053C000002121203AF08CF8002130203AF088F8B2
:1053D0004FF4837131203AF083F8002132203AF003
:1053E0007FF84FF4017100E073E035203AF078F86F
:1053F00041F20A6136203AF073F840F20771372023
:105400003AF06EF84FF4837138203AF069F840F2C0
:10541000077139203AF064F840F202413C203AF03A
:105420005FF840F60F413D203AF05AF80021502035
:105430003AF056F8EF2151203AF052F8002152206C
:105440003AF04EF840F23F1153203AF049F84FF449
:105450001C5160203AF044F8012161203AF040F8F4
:1054600000216A203AF03CF8002180203AF038F818
:10547000002181203AF034F8002182203AF030F8FF
:10548000002183203AF02CF8002184203AF028F8FB
:10549000002185203AF024F8102190203AF020F8DD
:1054A0004FF4C06192203AF01BF8212107203AF016
:1054B00017F83220FFF719FD612107203AF010F8A4
:1054C0003220FFF712FD40F2331107203AF008F8BE
:1054D00047E623480088A0F5194119397DD10D20F0
:1054E000204908700621282039F0FAFF0121002008
:1054F00039F0F6FF0021102039F0F2FF47F2EF21DA
:10550000012039F0EDFF4FF4C061022039F0E8FFCF
:1055100046F63821032039F0E3FF46F674011120E6
:1055200039F0DEFF00210F2039F0DAFF45F20831B3
:105530000B2039F0D5FF03210C2039F0D1FF0A21CF
:105540000D2039F0CDFF4FF438510E2039F0C8FF4F
:10555000BE211E2039F0C4FF4FF40041252003E096
:105560001E0100201C01002039F0BAFF4FF4F04169
:10557000262039F0B5FF7821272039F0B1FF00212E
:105580004E2039F0ADFF00214F2039F0A9FF40F641
:10559000D901122039F0A4FF0021302039F0A0FFFA
:1055A0004FF48271312039F09BFF4FF4807132202B
:1055B00039F096FF40F20531332039F091FF40F287
:1055C0000551342039F08CFF40F20531352039F097
:1055D00087FF40F20771362000E015E039F080FFC8
:1055E0004FF44071372039F07BFF4FF490513A204F
:1055F00039F076FF4FF400613B2039F071FF332121
:10560000072039F06DFFACE5FE480088A0F5A851F1
:10561000053905D0FB480088A0F5A06105397DD18A
:105620000920F94908700021072039F059FF32207C
:10563000FFF75BFC4FF48E71122039F051FF01210E
:10564000A42039F04DFF0F21082039F049FF08212F
:105650000A2039F045FF08210D2039F041FF40F2C2
:105660000771302039F03CFF0721312039F038FF35
:1056700040F20361322039F033FF4FF4E061332010
:1056800039F02EFF40F20221342039F029FF0221A7
:10569000352039F025FF41F60F71362039F020FF13
:1056A00040F20771372039F01BFF0021382039F014
:1056B00017FF0021392039F013FF40F207713A201B
:1056C00039F00EFF00213B2039F00AFF07213C2072
:1056D00039F006FF00213D2039F002FF3220FFF7AC
:1056E00004FC0121072039F0FBFE0121172039F0CD
:1056F000F7FE3220FFF7F9FB4FF4BD51102039F0CF
:10570000EFFE40F21721112039F0EAFE4FF48F71BD
:10571000122039F0E5FE4FF4706100E095E01320AF
:1057200039F0DEFE00212A2039F0DAFE0A21292094
:1057300039F0D6FE4FF49F71122039F0D1FE0021CE
:10574000502039F0CDFEEF21512039F0C9FE002163
:10575000522039F0C5FE40F23F11532039F0C0FE0F
:105760004FF41C51602039F0BBFE0121612039F05B
:10577000B7FE00216A2039F0B3FE0021802039F005
:10578000AFFE0021812039F0ABFE0021822039F0EC
:10579000A7FE0021832039F0A3FE0021842039F0E8
:1057A0009FFE0021852039F09BFE1321902039F0C7
:1057B00097FE4FF44071922039F092FE052193201C
:1057C00039F08EFE0021952039F08AFE00219720C5
:1057D00039F086FE0021982039F082FE4FF4807166
:1057E000012039F07DFE4FF4E061022039F078FEAF
:1057F00041F23001032039F073FE0021042039F01A
:105800006FFE00210C2039F06BFE00210F2039F0D3
:1058100067FE0021202039F063FE0021212039F0AD
:105820005FFE2121072039F05BFEC820FFF75DFBFA
:105830006121072039F054FEC820FFF756FB40F2E3
:105840007311072039F04CFE8BE46E480088A0F5F8
:10585000094189397DD105206B490870012100205B
:1058600039F03EFE3220FFF740FB4AF6A401032048
:1058700039F036FE3220FFF738FB00210C2039F0DA
:105880002FFE3220FFF731FB40F60C010D2039F0DE
:1058900027FE3220FFF729FB4FF42C510E2039F060
:1058A0001FFE3220FFF721FBB0211E2039F018FE29
:1058B0003220FFF71AFB42F63F31012039F010FE8B
:1058C0003220FFF712FB4FF4C061022039F008FECE
:1058D0003220FFF70AFB0021102039F001FE3220B0
:1058E000FFF703FB46F27001112039F0F9FD322079
:1058F000FFF7FBFA0021052039F0F2FD3220FFF717
:10590000F4FA0021062039F0EBFD3220FFF7EDFA22
:105910004EF61C71162039F0E3FD3220FFF7E5FA50
:105920000321172039F0DCFD3220FFF7DEFA40F2C8
:105930003311072039F0D4FD3220FFF7D6FA0021C9
:105940000B2039F0CDFD3220FFF7CFFA00210F20D8
:1059500000E0BAE039F0C4FD3220FFF7C6FA0021BA
:10596000412039F0BDFD3220FFF7BFFA002142206F
:1059700039F0B6FD3220FFF7B8FA0021482039F09F
:10598000AFFD3220FFF7B1FA40F23F11492039F064
:10599000A7FD3220FFF7A9FA00214A2039F0A0FD27
:1059A0003220FFF7A2FA00214B2039F099FD322076
:1059B000FFF79BFA4FF46F41442039F091FD3220FC
:1059C000FFF793FA0021452039F08AFD3220FFF7D6
:1059D0008CFA40F23F11462039F082FD3220FFF769
:1059E00084FA40F20771302039F07AFD3220FFF757
:1059F0007CFA4FF40171312039F072FD3220FFF74B
:105A000074FA03E01E0100201C0100204FF4017114
:105A1000322039F065FD3220FFF767FA40F202517B
:105A2000332039F05DFD3220FFF75FFA40F2075175
:105A3000342039F055FD3220FFF757FA4FF4017149
:105A4000352039F04DFD3220FFF74FFA4FF4017148
:105A5000362039F045FD3220FFF747FA40F2025177
:105A6000372039F03DFD3220FFF73FFA40F2023196
:105A70003A2039F035FD3220FFF737FA40F2023193
:105A80003B2039F02DFD3220FFF72FFA0021232093
:105A900039F026FD3220FFF728FA0021242039F0C2
:105AA0001FFD3220FFF721FA4FF40041252039F085
:105AB00017FD3220FFF719FA00214F2039F010FDB1
:105AC00000214E2039F00CFD08E4FE480088A0F5C6
:105AD000094199397ED10420FB490870062128200C
:105AE00039F0FEFC0121002039F0FAFC4AF6A461ED
:105AF000032039F0F5FC04210C2039F0F1FC0C21D5
:105B00000D2039F0EDFC4FF420510E2039F0E8FC67
:105B1000B5211E2039F0E4FC43F63F31012039F075
:105B2000DFFC4FF4C061022039F0DAFC00211020C4
:105B300039F0D6FC46F63001112039F0D1FC0021B5
:105B4000052039F0CDFC0021062039F0C9FC4EF6C5
:105B50001C71162039F0C4FC3321072039F0C0FC39
:105B600000210B2039F0BCFC00210F2039F0B8FCDB
:105B70000021412039F0B4FC0021422039F0B0FC72
:105B80000021482039F0ACFC40F23F11492039F0A7
:105B9000A7FC00214A2039F0A3FC00214B2039F05A
:105BA0009FFC4FF46F41442039F09AFC00214520BE
:105BB00039F096FC40F23F11462039F091FC00216B
:105BC0004E2039F08DFC00214F2039F089FC40F245
:105BD000077100E04BE0302039F082FC40F20221F6
:105BE000312039F07DFC4FF40171322039F078FC1E
:105BF00040F20251332039F073FC40F20751342057
:105C000039F06EFC4FF40171352039F069FC4FF426
:105C10000171362039F064FC40F20251372039F02E
:105C20005FFC40F202313A2039F05AFC40F2023176
:105C30003B2039F055FC0021232039F051FC002194
:105C4000242039F04DFC4FF40041252039F048FC68
:105C50004FF4E041262039F043FC4BF2EB012020C9
:105C600039F03EFC7C21272039F03AFC30E495489D
:105C70000088A0F5A84108397ED108209249087013
:105C80004101012039F02CFC4FF4E061022039F091
:105C900027FC41F23001032039F022FC00210420CE
:105CA00039F01EFC40F20721082039F019FC0021D0
:105CB000092039F015FC00210A2039F011FC0021DF
:105CC0000C2039F00DFC00210D2039F009FC0021D9
:105CD0000F2039F005FC3220FFF707F940F20111DF
:105CE000072039F0FDFB3220FFF7FFF841F2B061E9
:105CF000102039F0F5FB0121112039F0F1FB0121D1
:105D0000172039F0EDFB4FF49C71122039F0E8FBBD
:105D10004FF40061132039F0E3FB0921292039F009
:105D2000DFFB09212A2039F0DBFB0021A42039F018
:105D3000D7FB0021502039F0D3FBEF21512039F05F
:105D4000CFFB0021522039F0CBFB40F23F11532012
:105D500039F0C6FB4FF41C51602039F0C1FB032120
:105D6000612039F0BDFB00216A2039F0B9FB002128
:105D7000802039F0B5FB00E02AE00021812039F0D5
:105D8000AFFB0021822039F0ABFB0021832039F0EA
:105D9000A7FB0021842039F0A3FB0021852039F0E6
:105DA0009FFB1321902039F09BFB0021922039F0BA
:105DB00097FB0321932039F093FB4FF488719520D2
:105DC00039F08EFB40F27311072039F089FB1AE499
:105DD0003C480088A0F58A41313977D107203A49FB
:105DE00008700121002039F07BFB4FF4C5611020C1
:105DF00039F076FB0621122039F072FB40F6322191
:105E0000132039F06DFB4021112039F069FB50213E
:105E1000152039F065FB1621122039F061FB322084
:105E2000FFF763F845F26061102039F059FB32202A
:105E3000FFF75BF842F64E21132039F051FB4FF487
:105E40008071012039F04CFB4FF44071022039F091
:105E500047FB41F23001032039F042FB40F20221BE
:105E6000082039F03DFB00210A2039F039FB0021E0
:105E7000302039F035FB40F20241312039F030FB5F
:105E80004FF48371322039F02BFB4FF4E061332063
:105E900039F026FB4FF48271342039F021FB40F2B7
:105EA0000131352039F01CFB40F20771362039F002
:105EB00017FB40F20531372039F012FB4FF4027125
:105EC000382004E01E0100201C01002039E039F0D8
:105ED00007FB40F60B71392039F002FB3220FFF747
:105EE00004F80221412039F0FBFA4FF41C516020E4
:105EF00039F0F6FA0121612039F0F2FA40F2191175
:105F0000902039F0EDFA4FF48571922039F0E8FADB
:105F10000421932039F0E4FA4FF48071A02039F085
:105F2000DFFA3220FEF7E1FF40F23311072039F0AB
:105F3000D7FA3220FEF7D9FF0021A02039F0D0FA9D
:105F400095E3FE480088A0F58A4135397ED10C20C2
:105F5000FB4908703021152039F0C2FA10219A202F
:105F600039F0BEFA2021112039F0BAFA43F2284163
:105F7000102039F0B5FA0221122039F0B1FA41F2BD
:105F80003801132039F0ACFA2820FEF7AEFF1221B9
:105F9000084639F0A5FA2820FEF7A7FF43F2204172
:105FA000102039F09DFA43F24501132039F098FA98
:105FB0004620FEF79AFF0021302039F091FA40F296
:105FC0000241312039F08CFA40F20731322039F0A9
:105FD00087FA4FF44171332039F082FA04213420DA
:105FE00039F07EFA40F20141352039F079FA40F279
:105FF0000771362039F074FA40F20531372039F054
:106000006FFA4FF4C261382039F06AFA4FF4C26176
:10601000392039F065FA4FF48071012039F060FAC7
:106020004FF44071022039F05BFA41F23001032055
:1060300039F056FA40F60801082039F051FA0821E3
:106040000A2039F04DFA4FF41C5100E034E0602092
:1060500039F046FA0121612039F042FA4FF49F717C
:10606000902039F03DFA4FF48071922039F038FADF
:106070004FF48071932039F033FA4FF44051A0204F
:1060800039F02EFA1021A32039F02AFA0121072035
:1060900039F026FA2121072039F022FA232107209E
:1060A00039F01EFA3321072039F01AFA40F2331181
:1060B000072039F015FADAE2A048008847287DD198
:1060C0000A209F4908700021EA2039F009FA2021AE
:1060D000EB2039F005FA0C21EC2039F001FAC4214B
:1060E000ED2039F0FDF94021E82039F0F9F93821A7
:1060F000E92039F0F5F90121F12039F0F1F9102109
:10610000F22039F0EDF9A321272039F0E9F9012136
:10611000402039F0E5F90021412039F0E1F9002172
:10612000422039F0DDF91021432039F0D9F90E2150
:10613000442039F0D5F92421452039F0D1F9042142
:10614000462039F0CDF95021472039F0C9F9022114
:10615000482039F0C5F91321492039F0C1F9192136
:106160004A2039F0BDF919214B2039F0B9F916212F
:106170004C2039F0B5F91B21502039F0B1F931210B
:10618000512039F0ADF92F21522039F0A9F93F21E2
:10619000532039F0A5F93F21542039F0A1F93E21CF
:1061A000552039F09DF92F21562039F099F97B219E
:1061B000572039F095F90921582000E065E039F0C1
:1061C0008FF90621592039F08BF906215A2039F030
:1061D00087F90C215B2039F083F91D215C2039F00F
:1061E0007FF9CC215D2039F07BF918211B2039F093
:1061F00077F901211A2039F073F91521242039F09B
:106200006FF95021252039F06BF98B21232039F0CB
:1062100067F93621182039F063F90121192039F086
:106220005FF90021012039F05BF988211F2039F046
:1062300057F93220FEF759FE80211F2039F050F91E
:106240003220FEF752FE90211F2039F049F932200A
:10625000FEF74BFED0211F2039F042F93220FEF725
:1062600044FE0521172039F03BF90021362039F092
:1062700037F93821282039F033F93220FEF735FE7E
:106280003C21282039F02CF9F1E12C480088A0F5B8
:10629000EE4183397ED10620294908700121FF2073
:1062A00039F01EF90821F32039F01AF94FF4807102
:1062B000012039F015F94FF4E061022039F010F9AE
:1062C00041F23001032039F00BF940F2023108208D
:1062D00039F006F940F20721082039F001F90021D0
:1062E000092039F0FDF800210A2039F0F9F80021E1
:1062F000102039F0F5F80521112039F0F1F80021CE
:10630000122039F0EDF80021132039F0E9F832209D
:10631000FEF7EBFD41F2B021102039F0E1F8322018
:10632000FEF7E3FD0721112039F0DAF83220FEF7FD
:10633000DCFD8B21122039F0D3F803E01E01002090
:106340001C0100203220FEF7D0FD4FF4B85113207D
:1063500039F0C6F83220FEF7C8FD2221292039F095
:10636000BFF80021302039F0BBF840F2077131202E
:1063700039F0B6F840F20551322039F0B1F840F268
:106380000711352039F0ACF80821362039F0A8F88B
:10639000002100E041E0372039F0A2F840F202216C
:1063A000382039F09DF84FF48371392039F098F88E
:1063B00040F202213C2039F093F84FF481613D20F6
:1063C00039F08EF83220FEF790FD0021502039F090
:1063D00087F8EF21512039F083F80021522039F05D
:1063E0007FF840F23F11532039F07AF84FF42741FB
:1063F000602039F075F80121612039F071F83321FE
:10640000902039F06DF80B212B2039F069F840F21B
:106410003311072039F064F829E140F22310FB49D9
:106420000880672039F04AF8F84908800846008853
:106430004728F1D10B20F64908700821422039F095
:106440004FF8B421462039F04BF84321472039F06A
:1064500047F81321482039F043F84721492039F003
:106460003FF814214A2039F03BF836214B2039F00F
:1064700037F803214C2039F033F846214D2039F00C
:106480002FF805214E2039F02BF810214F2039F03C
:1064900027F80821502039F023F80A21512039F03B
:1064A0001FF80021022039F01BF80021032039F0E9
:1064B00017F80021042039F013F8EF21052039F0F6
:1064C0000FF80021062039F00BF80021072039F0E1
:1064D00007F80121082039F003F83F21092038F09E
:1064E000FFFF0A20FEF701FD0621012038F0F8FF2A
:1064F000C821162038F0F4FF9521232038F0F0FF52
:106500009521242038F0ECFFFF21252038F0E8FF0A
:106510000221272038F0E4FF0221282038F0E0FF94
:106520000221292038F0DCFF02212A2038F0D8FF90
:1065300002212C2038F0D4FF02212D2038F0D0FF8A
:1065400001213A2038F0CCFF01213B2038F0C8FF70
:10655000F0213C2038F0C4FF00213D2038F0C0FF7E
:106560001420FEF7C2FC3821352038F0B9FF78211D
:10657000362038F0B5FF38213E2038F0B1FF0F212A
:10658000402038F0ADFFF021412038F0A9FF002174
:10659000382038F0A5FF4921192038F0A1FF0A2141
:1065A000932038F09DFF0A20FEF79FFC202108462B
:1065B00038F096FF03211D2038F092FF00211E20A5
:1065C00038F08EFF09211F2038F08AFF5321442024
:1065D00038F086FF1021452038F082FF0A20FEF7B0
:1065E00084FC04211C2038F07BFF1420FEF77DFC86
:1065F0008021432038F074FF0520FEF776FC0A2145
:106600001B2038F06DFF2820FEF76FFC12211B20A5
:1066100038F066FF2820FEF768FC7F21902038F0D4
:106620005FFF0421262038F05BFF2820FEF75DFC89
:106630002421262038F054FF2C21262038F050FF4A
:106640002820FEF752FC0821702038F049FF3C2139
:10665000262038F045FF0221572038F041FF002165
:10666000552038F03DFF0021572038F039FF322007
:10667000FEF73BFC10BD70B504460D46C5F1EF00BA
:1066800085B22E462546344661480078001F0A2808
:1066900006D2DFE800F00E0F050505051918052ADA
:1066A0002146202038F01CFF2946212038F018FF11
:1066B0001CE000BF21464E2038F012FF29464F2033
:1066C00038F00EFF12E000BF2112022038F008FF60
:1066D0002146032038F004FF2912062038F000FF7D
:1066E0002946072038F0FCFE00E000BF00BF70BD67
:1066F00070B505460024464800780A2803D044486F
:1067000000780B2820D10021022038F0E9FE00217A
:10671000032038F0E5FE0021042038F0E1FEEF21EF
:10672000052038F0DDFE0021062038F0D9FE0021DA
:10673000072038F0D5FE0121082038F0D1FE3F2196
:10674000092038F0CDFE03E000210846FFF793FF53
:10675000222038F0C1FE002403E0284638F0B6FEBF
:10676000641CB4F5963FF8D370BD30B5014601F016
:106770001F04C1F34513CA0AE50205EB431515448E
:10678000A8B230BD2DE9F04705460E4631462846F1
:10679000FFF771FF222038F09FFE1D480078001F90
:1067A000092828D2DFE800F0090805062727131278
:1067B000070000BF00BF00BF00BF38F079FE0446ED
:1067C00038F076FE04462046BDE8F08700BF38F07A
:1067D0006FFEC0F3C70738F06BFEC0F3C70838F090
:1067E00067FEC0F387094FEAC82040EA49103843E2
:1067F00084B22046E8E738F05BFE044638F058FEE5
:1068000004462046FFF7B1FFDEE700001E0100202E
:106810001C01002070B506460C461546B6F5A07F53
:1068200001DAF02C00DB70BD21463046FFF723FF74
:106830002946222038F054FE00BFF4E72DE9F05F2E
:1068400004460D4691469A46DDF828B04C4503DDD6
:106850000FFA89F7A146BCB2554503DD0FFA8AF756
:10686000AA46BDB2A9EB04000FFA80F8AAEB050016
:1068700006B2B8F1000F0BD100BF5A462946204698
:10688000FFF7C8FF681C85B2AA45F6DABDE8F09F9D
:1068900056B900BF5A4629462046FFF7BBFF601C89
:1068A00084B2A145F6DAF1E7B04521DDC8EB460038
:1068B00007B215E05A4629462046FFF7ABFF601C99
:1068C00084B2002F08DD681C85B27000022101FB34
:1068D0001800384407B203E0022000FB067007B23C
:1068E0004C45E7D15A4629462046FFF793FF20E062
:1068F000C6EB480007B215E05A4629462046FFF786
:1069000089FF681C85B2002F08DD601C84B270000E
:10691000022101FB1800384407B203E0022000FB0B
:10692000067007B25545E7D15A4629462046FFF77B
:1069300071FF00BFAAE72DE9FF5F06460F469046AC
:106940009946DDF838B041466846FEF7CFF9002495
:106950001FE01DF804A0002517E0C5F107004AFA62
:1069600000F010F0010F07D03A1991B2721990B2ED
:106970004A46FFF74FFF06E03A1991B2721990B2FA
:106980005A46FFF747FF681C85B2082DE5DB601CFF
:1069900084B2102CDDDBBDE8FF9F2DE9F8430546EE
:1069A0000E4614469846DDF8209000BF14F8017B8F
:1069B00043463A4631462846CDF80090FFF7BBFFE4
:1069C000B5F59C7F03DA05F1080085B208E0E02EFA
:1069D00004DA002506F1100086B201E00025002649
:1069E00020780028E2D1BDE8F88370B504460D4652
:1069F00016462288B1B2A8B2FFF70CFF70BD70B581
:106A000004460D461646B1B2A8B2FFF7BBFE208081
:106A100070BDF8B505460E4617461C462888A3B239
:106A2000BAB2A1B20090B0B2FFF708FFF8BDF8B556
:106A300005460C4616461F462888BBB2A2B2B1B224
:106A40000090A0B2FFF7FAFEF8BD2DE9F04105462F
:106A50000E4614461F46A84600BFB8F80020A1B253
:106A6000B0B2FFF7D7FE641C08F10208781E0700D9
:106A7000F3D1BDE8F08101460020704702460020B6
:106A800070470146002070472DE9F04180460E46D0
:106A90001546DEB1032E1AD12C465CB9002740F210
:106AA000A5531C4A1CA120A008F0ECFA00BF002F3F
:106AB000FDD000BF10206070062020700020A06074
:106AC0004FF4A070A080F020E08001E000E000BF63
:106AD00000BF0020BDE8F08110B507201A490875F5
:106AE0001A4848621A4888621A48C8621A48886375
:106AF0000020086348631948C863FEF705FA4FF69B
:106B0000FF70FFF7F5FD0B2215A10F4805F048FFB8
:106B100010BD0000770D0408696E666F213D525468
:106B20005F4E554C4C00000028257329206173737B
:106B3000657274206661696C6564206174202573D8
:106B40003A2564200A000000B4120020776A000889
:106B50007D6A0008836A0008896A0008080100202D
:106B60006C636400002109E0002201E0531C9AB22A
:106B70004FF6FF739A42F9DB4B1C99B28142F3DB6B
:106B8000704700B585B00121880302F078FAFE480D
:106B900003F0DCF90020ADF800004FF48270ADF88E
:106BA00002000020ADF80400ADF80600ADF80800C2
:106BB0004FF40070ADF80A001820ADF80C0000206A
:106BC000ADF80E000720ADF810006946EE4803F05E
:106BD000E3F90121EC4803F0BDFA05B000BD1CB596
:106BE0000121022002F018FA0121282002F014FAF3
:106BF0000121880302F043FA05220A21E34801F04B
:106C0000DCFD05220E21E14801F0D7FD05220F2110
:106C1000DE4801F0D2FD4FF48060009002208DF834
:106C2000040003208DF8050000208DF806000120E7
:106C30008DF807006946D54801F03CFD4FF48040CF
:106C400000906946D14801F035FD4FF400400090B6
:106C50006946CE4801F02EFD4FF48050009001208F
:106C60008DF8040000208DF8060003208DF8050043
:106C700001208DF807006946C54801F01BFD4FF45F
:106C80000050009000208DF804008DF806000320CD
:106C90008DF8050001208DF807006946BD4801F018
:106CA00009FD4FF48051BA4801F078FDFFF769FF04
:106CB0001CBD10B5002108E00C2200BF1300A2F19A
:106CC0000104E2B2FAD14A1C91B28142F4D310BD60
:106CD00010B5044600BF0221AB4803F0D0FA0028EB
:106CE000F9D02146A84803F08EFA00BF0121A6483A
:106CF00003F0C5FA0028F9D0A34803F081FA10BDCB
:106D000070B500BF0221A04803F0B9FA0028F9D0FD
:106D100000219D4803F077FA00BF01219A4803F053
:106D2000AEFA0028F9D0984803F06AFA054628061A
:106D3000040C0120FFF7BDFF00BF0221924803F0C1
:106D40009EFA0028F9D000218F4803F05CFA00BFBA
:106D500001218D4803F093FA0028F9D08A4803F006
:106D60004FFA05462C43E410C4F30B04204670BDD3
:106D700010B54FF48051864801F012FD0120FFF755
:106D800098FF9020FFF7A4FF0120FFF792FFFFF785
:106D9000B7FF04464FF480517D4801F0FFFC2046C8
:106DA00010BD10B54FF48051794801F0F9FC012075
:106DB000FFF77FFFD020FFF78BFF0120FFF779FF60
:106DC000FFF79EFF04464FF48051714801F0E6FC46
:106DD000204610BD2DE9F04104460D46FFF7C8FFDF
:106DE00006460120FFF765FFFFF7DBFF0746266039
:106DF0002F60BDE8F0817047F8B504460D464FF6A8
:106E0000FF70A11E8AB20D39009088B22B46294628
:106E1000FFF714FD4FF6FF702B46009004F10F00B2
:106E200082B22946A01C80B2FFF708FD4FF6FF7022
:106E30000090A81E83B20D3881B222462046FFF78B
:106E4000FDFC4FF6FF70009005F10F0083B2224663
:106E5000A81C81B22046FFF7F1FC4BF6F040E11F81
:106E60008AB20839009088B205F10F018BB289B25D
:106E7000FFF7E4FC4BF6F040A4F10F018AB200905A
:106E800088B205F10F018BB2E91D89B2FFF7D6FC7C
:106E90004BF6F040A5F10F06B3B2E61FB2B2A5F172
:106EA0000F06B1B2A4F10F060090B0B2FFF7C6FC16
:106EB0004BF6F040A5F10F06B3B2A4F10F06B2B243
:106EC000EE1FB1B2A4F10F060090B0B2FFF7B6FC0E
:106ED0004BF6F040009005F10F0083B204F10F0073
:106EE00082B205F10F0081B2E01D80B2FFF7A6FC6F
:106EF0004BF6F040009005F10F0083B204F10F0053
:106F000082B2E81D81B204F10F0080B2FFF796FC57
:106F10004BF6F0400090A5F10F0083B281B204F16E
:106F20000F0082B2E01D80B2FFF788FC4BF6F04004
:106F30000090E81F83B2083881B204F10F0082B2DA
:106F400080B2FFF77BFCF8BDF0B597B00027482171
:106F5000684637F0E3FC00BF15A916A8FFF73AFF13
:106F600016984DF8270009A8159940F82710781CA5
:106F7000C7B24FF40051074801F0F6FB08B9092FDA
:106F8000EADB092F7ED107E0003800400004024010
:106F900000140240000C0240DDE90001084402999F
:106FA0000844032190FBF1F01290DDE9030108444D
:106FB00005990844032190FBF1F01390DDE90601E7
:106FC000084408990844032190FBF1F01490DDE98E
:106FD0001201441ADDE91301451A12991498461A50
:106FE000002C01DD204600E060420446002D01DD5A
:106FF000284600E068420546002E01DD304600E0EC
:1070000070420646022C06DD022D04DD022E02DD52
:10701000002017B0F0BDAC4215DAA64209DA149A86
:107020001299881800EBD071C1F34F01EB4A11801F
:107030001EE0DDE91212881800EBD071C1F34F0198
:10704000E64A118014E0AE4209DA149A12998818BF
:1070500000EBD071C1F34F01E04A118008E0DDE997
:107060001312881800EBD071C1F34F01DB4A118075
:10707000DDE9091001440B980844032190FBF1F06D
:10708000129000E063E0DDE90C1001440E98084422
:10709000032190FBF1F01390DDE90F1001441198EA
:1070A0000844032190FBF1F01490DDE91201441A29
:1070B000DDE91301451A12991498461A002C01DDD6
:1070C000204600E060420446002D01DD284600E035
:1070D00068420546002E01DD304600E0704206465B
:1070E000022C05DD022D03DD022E01DD002090E7DC
:1070F000AC4215DAA64209DA149A1299881800EB04
:10710000D071C1F34F01B54A51801EE0DDE9121282
:10711000881800EBD071C1F34F01B04A518014E0E0
:10712000AE4209DA149A1299881800EBD071C1F3B3
:107130004F01AA4A518008E0DDE91312881800EBDC
:10714000D071C1F34F01A54A5180A44861E70020E6
:107150005FE72DE9F04705460C4690464FF00109E0
:1071600021882289891AE38862899A1A5143A28860
:107170002389D31A66886289B21A03FB121037F08A
:1071800023FEC8E90C0100221346D8E90C61304601
:1071900037F084FE02D14FF0000989E029882A895E
:1071A000891AE38862899A1A5143AA882B89D31ACB
:1071B00066886289B21A03FB121037F005FEC8E92F
:1071C000000121882289891AAA882B89D21A514361
:1071D0002A88D21AA38826899B1B02FB131037F03A
:1071E000F3FDC8E902012189AA885143A2882B89AD
:1071F00002FB13116288514322885A4323892E8847
:1072000003FB1623E28803FB0212A1887143238843
:10721000AE8803FB1613618903FB012037F0D4FD10
:10722000C8E904016A886989511AE38862899A1A4F
:107230005143EB886A899B1A66886289B21A03FBFC
:10724000121037F0C1FDC8E9060121882289891A88
:10725000EB886A899A1A51436B886A899A1AA388BB
:1072600026899B1B02FB131037F0AEFDC8E908010D
:107270002189EA885143A3886A8903FB1211628835
:10728000514322886B895A4323896E8803FB162356
:10729000E28803FB0213A18871432688EA8806FB73
:1072A0001212618902FB013037F08EFDC8E90A0134
:1072B0004846BDE8F0872DE9F04F8BB080460D467B
:1072C00014464FF0010B00221346D4E90C613046FE
:1072D00037F0E4FD5CD0688837F087FD8146D4E95B
:1072E0000263324637F083FCCDE90201288837F08B
:1072F0007CFD8146D4E90063324637F078FCCDE965
:107300000001DDE9022337F0CCFBCDE90401D4E92B
:107310000463324637F0C5FBCDE90601D4E90C63BE
:10732000324637F0D4FCCDE9080137F08AFDA8F8E1
:107330000000688837F059FD8146D4E90863324679
:1073400037F055FCCDE90201288837F04EFD814623
:10735000D4E90663324637F04AFCCDE90001DDE9A5
:10736000022337F09EFBCDE90401D4E90A633246DB
:1073700037F097FBCDE90601D4E90C63324637F0CC
:10738000A6FCCDE9080137F05CFDA8F8020001E099
:107390004FF0000B58460BB0BDE8F08F10B540F62B
:1073A00052500F49088040F6B230488040F25730C2
:1073B000888040F66A110A48C18040F6BA20084920
:1073C000088140F2D93106484181064A0146064803
:1073D000FFF7BFFE0020FFF78BF910BD2E01002044
:1073E00030130020F812002022010020002100208C
:1073F000674A126842F48032654B1A6000BF644AE3
:10740000126802F40030491C10B9B1F5A06FF6D132
:107410005F4A126812F4003F01D0012000E0002012
:10742000012837D15A4A08321268594B08331A607A
:107430001A46126842F400421A601A46126842F470
:10744000A0521A60534A1B1F1A601A1F126842F09A
:1074500080721B1F1A6000BF4D4A126812F0007F35
:10746000FAD040F203724C4B1A60494A0832126853
:1074700022F00302464B08331A601A46126842F0A3
:1074800002021A6000BF424A0832126802F00C027F
:10749000082AF8D1704710B53D48006840F0010057
:1074A0003B49086000203A490831086038480068C4
:1074B0003A490840364908603948091D0860081FE4
:1074C000006820F48020091F0860002030490C313A
:1074D0000860FFF78BFF4FF000603249086010BD75
:1074E00070B500200022022300240221284D083517
:1074F0002D6805F00C0020B1042806D0082834D1EE
:1075000007E0294D294E356033E0294D274E35607F
:107510002FE01F4D2D1D2D68C5F380541C4D2D1DD2
:107520002D6805F03F0154B1214DB5FBF1F5184E22
:10753000361D3668C6F3881605FB06F209E01A4DBB
:10754000B5FBF1F5124E361D3668C6F3881605FBFD
:1075500006F20F4D2D1D2D68C5F301456D1C6B0006
:10756000B2FBF3F5114E356003E00F4D0F4E356061
:1075700000BF00BF064D08352D68C5F303150D4E3D
:10758000705D0A4D2D68C540084E356070BD000025
:1075900000380240193C4005003C0240FFFFF6FE67
:1075A0001030002408ED00E00024F4003C0100202D
:1075B00040787D014001002033490143334A116086
:1075C000704770B5002100230F22C47824B32F4CDC
:1075D000246804F4E064C4F5E064C4F30721C1F155
:1075E0000404E3B20A4144789C40E1B28478144038
:1075F00021430C07210E264C05786155047804F0D0
:107600001F050124AC4005786D114FF0E02606EB14
:107610008505C5F8004109E0047804F01F05012440
:10762000AC401C4D0678761145F8264070BD1A4ACC
:107630000A400243154B1B1F1A60704739B1134AA9
:10764000121D12680243114B1B1D1A6006E00F4AFF
:10765000121D126882430D4B1B1D1A6070470428CF
:1076600008D14FF0E021096941F004014FF0E02218
:10767000116107E04FF0E021096921F004014FF0AA
:10768000E0221161704700000000FA050CED00E0F7
:1076900000E400E080E100E080FFFF1F10B5012161
:1076A000080201F065FD00214FF4807001F060FDDB
:1076B00010BD30B50246002000235068F94C204030
:1076C0000D790C6844EA0524204350609068F64C1C
:1076D0002040D1E903542C438D682C434D7944EA72
:1076E000450420439060D06A20F470000C7D641E35
:1076F000E4B2234340EA0350D06230BD0021016070
:10770000017141718160C1600161012101757047A2
:107710000021E64A1168E64A01EA0201D0E90023A5
:1077200042EA0302836842EA0302C36842EA0302B0
:1077300042EA0101DF4AC2F80413704700210160E8
:1077400041608160C160704721B1826842F00102EE
:10775000826003E0826822F00102826070470A467C
:1077600000214168D44B1940114341607047416288
:10777000826270470A460021416821F01F011143CF
:107780004160704738B1C949096841F40001C94AEC
:10779000C2F8041306E0C549096821F40001C54A8E
:1077A000C2F80413704738B1C049096841F4800138
:1077B000C04AC2F8041306E0BC49096821F48001FC
:1077C000BC4AC2F804137047F0B504460D460020C9
:1077D0000021092D11DDE068A5F10A0606EB460738
:1077E000072606FA07F18843A5F10A0606EB4606C6
:1077F00003FA06F10843E0600CE0206905EB450759
:10780000072606FA07F1884305EB450603FA06F159
:1078100008432061072A0FDA606B561E06EB8607C5
:107820001F2606FA07F18843561E06EB860605FA60
:1078300006F10843606322E00D2A0FDA206BD61FA1
:1078400006EB86071F2606FA07F18843D61F06EBCC
:10785000860605FA06F10843206310E0E06AA2F10B
:107860000D0606EB86071F2606FA07F18843A2F1EC
:107870000D0606EB860605FA06F10843E062F0BD48
:10788000816841F0804181607047014600208A682C
:1078900012F4800F01D0012000E00020704721B1D8
:1078A000826842F48062826003E0826822F480622F
:1078B0008260704721B1826842F00202826003E078
:1078C000826822F002028260704710B50A460021E9
:1078D0000023416821F46041531E41EA4331416075
:1078E00010BD21B1426842F40062426003E0426888
:1078F00022F40062426070470146C86C80B2704753
:107900006E480068704721B1826842F480728260DC
:1079100003E0826822F480728260704721B182683D
:1079200042F40072826003E0826822F40072826096
:10793000704738B15D49096841F400515D4AC2F8A9
:10794000041306E05949096821F40051594AC2F864
:1079500004137047F0B504461546002000220026A7
:10796000092911DDE068A1F10A0707EB470C072799
:1079700007FA0CF29043A1F10A0707EB470703FA55
:1079800007F21043E0600CE0206901EB410C07278F
:1079900007FA0CF2904301EB410703FA07F2104398
:1079A0002061A06BC0F30156EF1C06F1010CA7EBA0
:1079B0000C0707EB870C1F2707FA0CF29043EF1C0C
:1079C00006F1010CA7EB0C0707EB870701FA07F29A
:1079D0001043A063F0BD10B50A4600210023816B5F
:1079E00021F44011531E41EA0351816310BD10B5CB
:1079F000002303460B441A6010BD0A46002181682B
:107A000021F470211143816070470A46002181688A
:107A100021F44011114381607047816841F4800175
:107A200081607047014600208A6812F4800F01D0FF
:107A3000012000E00020704721B1426842F48062DA
:107A4000426003E0426822F480624260704721B1E4
:107A5000426842F48052426003E0426822F480525D
:107A60004260704702460023134601F12800034498
:107A7000186880B2704710B50B460021D9B20124B6
:107A800004FA01F11AB144680C43446002E044680E
:107A90008C43446010BD0246002013680B420FD097
:107AA00001200EE0FFFEFFFCFDF7FFC004230140B4
:107AB000E030FCFF00200140FFFD3FFF08230140B4
:107AC00000207047CA430260704770B5024600202C
:107AD000002300240B12556801268E4005EA060497
:107AE00015681D4202D00CB1012000E0002070BDDD
:107AF00000220A12D343036070470000016821F09E
:107B0000010101600021016041608160C16001618B
:107B100021214161DA49884204D13D21D84A103AF5
:107B200091608CE0D6491831884205D14FF47461D8
:107B3000D34A103A916082E0D1493031884205D170
:107B40004FF47411CE4A103A916078E0CC49483134
:107B5000884205D14FF07461C94A103A91606EE0D5
:107B6000C7496031884204D1C649C54A103AD1603C
:107B700065E0C3497831884204D1C349C04A103A0C
:107B8000D1605CE0BE499031884204D1BF49BC4A13
:107B9000103AD16053E0BA49A831884205D14FF07C
:107BA0003D51B74A103AD16049E0B949884204D101
:107BB0003D21B74A083A116041E0B5491831884281
:107BC00005D14FF47461B24A083A116037E0B04908
:107BD0003031884205D14FF47411AD4A083A116032
:107BE0002DE0AB494831884205D14FF07461A84A75
:107BF000083A116023E0A6496031884204D1A149C6
:107C0000A34A121F11601AE0A1497831884204D1B9
:107C10009D499F4A121F116011E09D499031884291
:107C200004D19A499A4A121F116008E09849A83174
:107C3000884204D14FF03D51954A121F11607047A0
:107C400010B500220268934B1A40CC680B6823439E
:107C50004C6923438C692343CC6923430C6A234337
:107C60004C6A23438C6A23434C6B23438C6B234322
:107C70001A430260426922F00702D1E90B34234320
:107C80001A4342610B6943604B6883608B68C36031
:107C900010BD0021016041608160C16001614161EE
:107CA0008161C161016241628162C16201634163BC
:107CB0008163704721B1026842F00102026003E073
:107CC000026822F001020260704721B1026842F4AA
:107CD0000042026003E0026822F400420260704742
:107CE00021B1026842F02002026003E0026822F043
:107CF000200202607047416070470146486880B2C8
:107D0000704722B1036843F40023036003E0036873
:107D100023F4002303600161704721B1026842F43B
:107D20008022026003E0026822F480220260704731
:107D30000AB1016100E0C1607047014600200A6895
:107D400012F4002F01D0012000E00020704701460E
:107D500000200A6812F0010F01D0012000E000208D
:107D60007047014600204A6902F03800704730B57C
:107D700003460A4600200024454DAB4202D240494A
:107D8000103901E04249103912F0005F01D04C680F
:107D900000E00C68404D2C40144201D0012000E06E
:107DA000002030BD02463A4B9A4202D23448103885
:107DB00001E03748103811F0005F03D0364B0B401C
:107DC000C36002E0344B0B408360704710B511F084
:107DD000800F09D022B1436943F08003436103E07F
:107DE000436923F08003436180290BD02AB10368E3
:107DF00001F01E042343036004E0036801F01E0445
:107E0000A343036010BD70B5024600200024002586
:107E10001F4EB24202D21A4B103B01E01C4B103BEA
:107E20001E4E314206D01E2606EAD124166806EA06
:107E3000040502E0566906F0800511F0005F01D0EC
:107E40005C6800E01C68144E34400C4202D00DB156
:107E5000012000E0002070BD02460D4B9A4202D284
:107E60000748103801E00A48103811F0005F03D0CD
:107E7000094B0B40C36002E0074B0B408360704727
:107E8000106002403D000020400F002000003D2017
:107E9000106402403F801CF07D0F7D0F3C0F3C0FB3
:107EA000002044490860091D0860091D0860091D7B
:107EB000086041483F4914310860704700213D493E
:107EC0008279002A3AD00A46126803689A430B4620
:107ED0001A600A1D126803689A430B1D1A60027922
:107EE00011440A6803681A430A60324A0832126869
:107EF00003689A432F4B08331A601A1D12680368EF
:107F00009A432C4B0C331A604279102A0ED11A1F57
:107F1000126803681A43274B08331A601A1D126847
:107F200003681A43234B0C331A600DE02149427950
:107F300011440A6803681A430A6005E00279114493
:107F40000A6803689A430A60704700210160017162
:107F50000C21417100218171704716491031096867
:107F60000143144A10321160704701460020114A43
:107F7000143212680A4201D0012000E0002070474C
:107F80000C49143108607047014600200022094B5B
:107F90001B6803EA0102074B14331B680B4202D033
:107FA0000AB1012000E00020704702491431086046
:107FB00070470000003C0140FFFF7F0030B943F2F2
:107FC000DB014FF0204242F8201005E043F2D201DD
:107FD0004FF0204242F820106FF07042411C4FF0E9
:107FE000204343F8212011461A4602EB8002C2F8D2
:107FF00004117047D0E901121143C26811430269AC
:1080000011434269114382691143C2691143026AF3
:108010001143426A1143826A1143C26A1143026BDF
:1080200011434FF02043026843F822108168082969
:1080300008D11A46016852F8211041F04001026847
:1080400043F82210416B0968426B526841EA021101
:10805000426B926841EA0221426BD26841EA0241D6
:10806000426B126941EA0251426B526941EA026174
:10807000426B926911430268521C4FF0204343F84F
:108080002210C16AB1F5804F1AD1816B0968826BE9
:10809000526841EA0211826B926841EA0221826BC6
:1080A000126941EA0251826B526941EA0261826BB4
:1080B00092691143026803EB8202C2F8041108E0DE
:1080C0006FF070414FF02043026803EB8202C2F868
:1080D000041170470021016002214160002181608C
:1080E000C160016141618161C16101624FF48051F0
:1080F0004162490081620021C16201630F21426B2C
:108100001160426B5160FF21426B91600F21426B05
:10811000D160426B1161426B51610021426B9161F0
:108120000F21826B1160826B5160FF21826B916025
:108130000F21826BD160826B1161826B51610021D2
:10814000826B9161704751B14FF0204252F820206C
:1081500042F001024FF0204343F8202009E04FF0A5
:10816000204252F82020F84B1A404FF0204343F8A9
:108170002020704710280AD118214FF020421166A4
:10818000402151664FF0FC319166D16610E0182114
:10819000EE4A11604FF040014FF02042C2F88410C7
:1081A0004FF0FC31EA4A11604FF02042C2F88C10C7
:1081B000704730B5002100220023446844F00804D1
:1081C00085682C43C5682C4305692C43456944EAFE
:1081D0004524856944EA4531C4692468C5696D68E8
:1081E00044EA0524C569AD6844EA0544C569ED68FB
:1081F00044EA0562046A2468056A6D6844EA052455
:10820000056AAD6844EA0544056AED6844EA056319
:108210000468102C05D14FF020442166A266E36665
:1082200007E0CA4C21604FF02044C4F88820C94CB4
:10823000236030BD10210160002141608160C16078
:10824000016141618161FC21C2691160C2695160B3
:10825000C2699160C269D160026A1160026A5160AC
:10826000026A9160026AD160704799B1102808D102
:108270004FF02042126E42F004024FF020431A6683
:108280001DE0B24A126842F004024FF02043C3F8E6
:10829000802014E0102809D14FF02042126EAA4B22
:1082A000DB1E1A404FF020431A6608E0A74A126806
:1082B000A94B02EA03024FF02043C3F88020704725
:1082C00099B1102808D14FF02042126E42F04002BE
:1082D0004FF020431A661DE09C4A126842F04002AB
:1082E0004FF02043C3F8802014E0102809D14FF04C
:1082F0002042126E984B3C3B1A404FF020431A66C6
:1083000008E0924A1268954B02EA03024FF02043BC
:10831000C3F88020704701460020102903D14FF098
:108320002042506F01E08E4A1068704718208D4936
:1083300008604FF000004FF02041C1F8A4004FF05A
:10834000FC308949086001F10401086001F1040171
:1083500008607047016841F01001426841EA42211B
:10836000826841EA42317F4A1160C1680968C26887
:10837000526841EA0221C268926841EA0241C26839
:10838000D26841EA0261784A1160016909680269AC
:10839000526841EA02210269926841EA0241026997
:1083A000D26841EA0261714A116041690968426913
:1083B000526841EA02214269926841EA02414269F7
:1083C000D26841EA02614FF02042C2F8B010704713
:1083D0000021016041608160FC21C2681160C268B7
:1083E0005160C2689160C268D1600269116002691F
:1083F0005160026991600269D1604269116042690D
:108400005160426991604269D160704740B15549FD
:10841000096841F004014FF02042C2F8A01008E0C2
:10842000504909684C4A01EA02014FF02042C2F863
:10843000A010704710B5F2B1102807D14FF02043BB
:108440005B6E0B434FF02044636632E0B0F5807FF3
:1084500008D1474B1B6843EA01034FF02044C4F89E
:10846000843026E0434B1B6843EA01034FF020446D
:10847000C4F8A4301DE0102807D14FF020435B6EF4
:108480008B434FF02044636613E0B0F5807F08D142
:10849000374B1B6823EA01034FF02044C4F88430B3
:1084A00007E0344B1B6823EA01034FF02044C4F873
:1084B000A43010BD10B5024600200023102A03D1BD
:1084C0004FF02044636E07E0B2F5807F02D1284C64
:1084D000236801E0274C23680B4201D0012000E013
:1084E000002010BD102807D14FF02042526E8A4361
:1084F0004FF020435A6613E0B0F5807F08D11C4A44
:10850000126822EA01024FF02043C3F8842007E0FA
:10851000184A126822EA01024FF02043C3F8A4204F
:10852000704770B502460020002300240025102A61
:1085300003D14FF02046736E20E0B2F5807F1BD14F
:108540000B4E33681AE00000FEFF0F00800000A011
:10855000880000A08C0000A0FBFF0F00BFFF0F00F1
:10856000940000A0A00000A0A80000A0AC0000A003
:10857000840000A0A40000A0154E336803EA0104A3
:1085800003EAD10514B10DB1012000E0002070BD57
:10859000102808D14FF02042526E22EAD1024FF04B
:1085A00020435A6613E0B0F5807F08D1094A12686B
:1085B00022EAD1024FF02043C3F8842007E0044AA6
:1085C000126822EAD1024FF02043C3F8A42070477A
:1085D000A40000A0840000A010B50446884884428E
:1085E00008D10121084600F06CFD0021012000F0B7
:1085F00068FD5EE08348844208D10121022000F03A
:1086000060FD0021022000F05CFD52E07E488442C3
:1086100008D10121042000F054FD0021042000F0C5
:1086200050FD46E07948844208D10121082000F03D
:1086300048FD0021082000F044FD3AE074488442DF
:1086400008D10121102000F03CFD0021102000F095
:1086500038FD2EE06F48844208D10121202000F02F
:1086600030FD0021202000F02CFD22E06A488442E9
:1086700008D10121402000F024FD0021402000F01D
:1086800020FD16E06548844208D10121802000F0D9
:1086900018FD0021802000F014FD0AE060488442AB
:1086A00007D10121801500F00CFD0021A01500F07C
:1086B00008FD10BDF0B50A4600210023002400BFCC
:1086C0003DE0012505FA01F3156805EA03049C4223
:1086D00034D105684F000326BE40B54305601579C7
:1086E0004E00B5400668354305601579012D02D06E
:1086F0001579022D16D185684F000326BE40B5437B
:10870000856055794E00B54086683543856045687B
:1087100001268E40B5434560456896798E40B6B2D5
:1087200035434560C5684F000326BE40B543C5606C
:10873000D5794E00B540C6683543C560491C10293F
:10874000BFD3F0BD4FF6FF7101600021017141718F
:108750008171C17170474FF480320A43C261C161B7
:10876000C261C269C26970470246002013690B42A8
:1087700001D0012000E0002070470146086980B266
:1087800070470246002053690B4201D0012000E0EF
:10879000002070470146486980B2704701837047E6
:1087A000418370470AB1018300E041837047416112
:1087B000704742694A4042617047F0B50023002487
:1087C0004D07ED0E02FA05F3CE1000F1200555F825
:1087D00026504E07F70E0F26BE40B543CF1000F1CE
:1087E000200646F82750CE1000F1200555F82650F7
:1087F00045EA0304CE1000F1200545F82640F0BDFF
:10880000000002400004024000080240000C024048
:10881000001002400014024000180240001C0240F8
:108820000020024010B50446F948844209D10121D4
:10883000480500F08CFC00214FF4001000F087FC8C
:1088400018E0F448844209D10121880500F07FFC3A
:1088500000214FF4800000F07AFC0BE0EE488442E7
:1088600008D10121C80500F072FC00214FF400007E
:1088700000F06DFC10BD2DE9FF4704460D460026B3
:10888000B1460427DFF89483A6884FF6C0700640EF
:10889000684600F02CFBDDF80880E148B8FBF0F0FA
:1088A0001FFA80F946EA0906A68020884FF6FE7175
:1088B000084020800026DB49286888420CD82868B8
:1088C0004000B8FBF0F087B2042F00DA04273E43E3
:1088D00009F10100208427E0E888A0F53F41FF3935
:1088E00006D1286800EB4000B8FBF0F087B209E041
:1088F000286800EBC00101EB0010B8FBF0F087B274
:1089000047F480473805000D01D147F0010747F4CF
:10891000004006434FF4967009FB00F04FF47A7163
:1089200090FBF1F0401C2084A683208840F00100D9
:10893000208026884FF6F5300640A88869890843CC
:1089400006432680A889298908432081BDE8FF873E
:1089500041F288310160002181804BF6FF71C180B6
:108960000021018141814FF480418181704721B113
:10897000028842F00102028004E002884FF6FE7392
:108980001A400280704721B1028842F4807202804E
:1089900004E002884FF6FF631A400280704721B15D
:1089A000028842F40072028004E002884FF6FF530E
:1089B0001A400280704712B141F0010101E001F05C
:1089C000FE010182704721B1028842F48062028078
:1089D00004E002884FF6FF331A40028070470A46CF
:1089E000002181894FF60173194002F0FE031943FB
:1089F0008181704721B1828942F00102828104E0C5
:108A000082894FF6FE731A408281704721B1028835
:108A100042F04002028004E002884FF6BF731A4021
:108A20000280704721B1028842F40042028003E0D4
:108A30000288C2F30E020280704721B9028842F018
:108A40008002028004E002884FF67F731A400280A1
:108A50007047B1F5804F05D0828B4BF6FF731A40FB
:108A6000828303E0828B42F4804282837047B1F5B7
:108A7000006F04D1028842F40062028004E00288A0
:108A80004FF2FF731A4002807047B1F5005F04D1C6
:108A9000028842F40052028004E002884DF6FF731F
:108AA0001A400280704721B1028842F01002028011
:108AB00004E002884FF6EF731A400280704701828B
:108AC00070470146088AC0B2704721B1028842F45B
:108AD0008052028004E002884EF6FF731A40028042
:108AE0007047B1F5006F04D1028842F40062028041
:108AF00004E002884FF2FF731A400280704721B1F0
:108B0000028842F02002028004E002884FF6DF7300
:108B10001A40028070470146088B0012704721B14D
:108B2000828842F40062828004E082884FF2FF7300
:108B30001A408280704721B1828842F4805282803C
:108B400004E082884EF6FF731A4082807047024626
:108B5000002313460B441888704710B51AB1838858
:108B60000B43838004E08388CC43A4B223408380FA
:108B700010BD70B502460024002500230020958A10
:108B8000138B1B0445EA030626F07F4404EA010622
:108B90008E4201D1012000E0002070BD10B50146D9
:108BA0000020002300228B8A0A8B120443EA02046D
:108BB00024F07F4010BD30B5034600200024002281
:108BC0001A460C0F21F07F410CB1143201E0090C60
:108BD000183215680D4201D0012000E0002030BDA0
:108BE000002221F07F42D3438382704730B5024692
:108BF00000200023948801F0E06504EA154321F089
:108C00007F41948A0C420FD073B101200DE0000027
:108C10000054004000580040005C004000127A0000
:108C200040420F00A0860100002030BD002221F04C
:108C30007F42D3438382704710B50121080700F0BB
:108C400086FA00214FF0805000F081FA10BD2C49C7
:108C500008627047014600202A4A106820F0E000B0
:108C6000084310607047264908617047264908602C
:108C7000704726490860704721494862704710B51F
:108C8000024600201F4B186820F0030010431860B4
:108C90001F4B1B6843F004031D4C2360012901D1C5
:108CA00030BF00E020BF1A4B1B6823F00403184CB0
:108CB000236010BD1348006840F0040011490860AB
:108CC0000846006840F0020008601148006840F063
:108CD00004000F49086000BF00BF30BF7047014665
:108CE0000020084A52680A4201D0012000E000201A
:108CF00070470449096841EA8001024A11607047DF
:108D000000000E4200700040A0000E42A4000E427F
:108D100010ED00E0F848006840F00100F6490860F6
:108D20000020F54908310860F3480068F34908401D
:108D3000F1490860F248091D0860081F006820F426
:108D40008020091F08600020EB490C310860704743
:108D50000021E94A921C117011460870704710B545
:108D600001460022002300204A11012A02D1E24CD0
:108D7000236808E0022A03D1DF4C7034236802E044
:108D8000DD4C7434236801F01F02012494401C421E
:108D900001D0012000E0002010BD70B500240025A6
:108DA000002600BF3120FFF7DAFF0646641CB4F549
:108DB000A06F01D0002EF5D03120FFF7D0FF08B111
:108DC000012500E00025284670BD01460020CA4A62
:108DD000106820F0F80040EAC10010607047C949EF
:108DE000086070470021C44A703211701170012868
:108DF00002D004280AD104E00121BF4A7032117068
:108E000005E00521BC4A7032117000E000BF00BFD0
:108E10007047BD490860704770B5049C41EA8215EF
:108E20000126C6EB530645EA0645054345EA0465B7
:108E3000B14E361D356070BDB2490866704782017B
:108E400042EA0172AC4B84331A607047AD498866C0
:108E50007047AC49C864704702460020A64B0833EF
:108E6000186820F0EC6042EA01031843A24B083373
:108E700018607047024600209F4B0833186820F0A6
:108E8000784042EA010318439B4B0833186070474F
:108E900001460020984A0832106820F00300084379
:108EA0001060704794480830006800F00C0070476C
:108EB00001460020904A0832106820F0F000084374
:108EC00010607047014600208B4A0832106820F479
:108ED000E05008431060704701460020864A08327F
:108EE000106820F4604040EAC10010607047F0B59F
:108EF0000021002200240225002602237E4F08378D
:108F00003F6807F00C0121B1042905D0082937D1A9
:108F100005E07E4F076036E07D4F076033E0764F17
:108F20003F1D3F68C7F38056734F3F1D3F6807F0F2
:108F30003F036EB1764FB7FBF3F7DFF8BCC10CF11E
:108F4000040CDCF800C0CCF3881C07FB0CF40CE02C
:108F50006E4FB7FBF3F7DFF8A0C10CF1040CDCF89F
:108F600000C0CCF3881C07FB0CF4634F3F1D3F6827
:108F7000C7F301477F1C7D00B4FBF5F7076002E0F3
:108F8000624F076000BF00BF5B4F08373F6807F0C4
:108F9000F00109095F4F7A5C0768D7404760564F78
:108FA00008373F6807F4E051890A5A4F7A5C4768EE
:108FB000D7408760504F08373F6807F46041490B3E
:108FC000544F7A5C4768D740C760F0BD002100F479
:108FD0004072B2F5407F0AD1474A0832116821F445
:108FE000F8114D4A02401143434A08321160424A87
:108FF00070321268C0F30B031A433F4B70331A6090
:10900000704741494439086070473F49403908601A
:10901000704742490860704739B1374A30321268A8
:109020000243354B30331A6006E0334A303212685F
:109030008243314B30331A60704739B12E4A343293
:10904000126802432C4B34331A6006E02A4A343249
:1090500012688243284B34331A60704739B1264A6C
:10906000383212680243244B38331A6006E0224A31
:10907000383212688243204B38331A60704739B156
:109080001D4A4032126802431B4B40331A6006E00F
:10909000194A403212688243174B40331A607047B6
:1090A00039B1154A443212680243134B44331A60F3
:1090B00006E0114A4432126882430F4B44331A606F
:1090C000704739B10C4A1032126802430A4B103310
:1090D0001A6006E0084A103212688243064B1033C9
:1090E0001A607047E1B1044A143212680243024B1D
:1090F00014331A6019E0000000380240FFFFF6FE4A
:109100001030002400004742800E47420024F40043
:1091100040787D0150010020FFFCFF0F5C014742B9
:109120005C4A126882435B4B1A60704739B1594AF6
:10913000121D12680243574B1B1D1A6006E0554A68
:10914000121D12688243534B1B1D1A60704739B1C0
:10915000504A0C32126802434E4B0C331A6006E040
:109160004C4A0C32126882434A4B0C331A607047E7
:1091700039B1484A103212680243464B10331A6024
:1091800006E0444A103212688243424B10331A60A0
:10919000704739B13F4A3C32126802433D4B3C3381
:1091A0001A6006E03B4A3C3212688243394B3C333A
:1091B0001A60704739B1374A403212680243354B62
:1091C00040331A6006E0334A403212688243314B22
:1091D00040331A60704739B12E4A44321268024354
:1091E0002C4B44331A6006E02A4A44321268824308
:1091F000284B44331A60704739B1264A4C32126802
:109200000243244B4C331A6006E0224A4C32126867
:109210008243204B4C331A60704739B11D4A50329B
:10922000126802431B4B50331A6006E0194A503251
:1092300012688243174B50331A60704739B1154A90
:10924000D21F12780243134BDB1F1A7008E0114A39
:10925000D21F1278C343DBB21A400E4BDB1F1A70C9
:1092600070470C486030006840F0807009496031F8
:109270000860704701460020064A083A12680A4210
:1092800001D0012000E0002070470249891F0870CA
:10929000704700001438024010B500210020002261
:1092A000CA23FB4C236053232360F94B183B1B68F4
:1092B00023F0A003F64C183C236000BFF44B183B8E
:1092C0001B6803F02002491CB1F5004F01D0002AB1
:1092D000F4D0EF4B183B1B6813F0200F01D0012096
:1092E00000E00020FF23EA4C236010BD10B50021F0
:1092F00000200022E64B183B1B6813F0400F19D1E9
:10930000431EE34C183C236000BFE14B183B1B6835
:1093100003F04002491CB1F5803F01D0002AF4D08F
:10932000DB4B183B1B6813F0400F01D0012002E01B
:10933000002000E0012010BD70B5002400250026AB
:10934000CA20D349086053200860FFF7CFFF00B957
:1093500044E00020CE492439086042F20110091D82
:109360000860081D006800F00700091D086000BFC4
:10937000C7481838006800F00405641CB4F5803F45
:1093800001D0002DF4D0C2481838006810F0040F46
:1093900001D1002622E0BE481C3800680020BC49EC
:1093A0001C3908604FF6FF70B94910390860B94898
:1093B000091F08600020B6490C390860091D0860C3
:1093C000091D0860B24918390860B1491C310860AC
:1093D000FFF762FF08B9002600E00126FF20AC4934
:1093E0000860304670BDAA481838006820F0800038
:1093F000A74918390860704730B504460025CA20CF
:10940000A349086053200860FFF770FF00B91DE012
:109410009F481C38006820F040009D491C390860B6
:10942000084600682168084399491C390860984932
:109430001439A068086008460068616840EA014085
:10944000934914390860FFF7CEFF0125FF209049AA
:109450000860284630BD002101607F214160FF2166
:109460008160704718B1FF21894A116004E0CA2168
:10947000874A116053211160704730B504460025BA
:10948000CA208349086053200860FFF72FFF00B906
:1094900014E044B17E481C38006840F010007C495C
:1094A0001C39086007E07A481C38006820F010007A
:1094B00077491C390860FFF796FF0125FF207449A2
:1094C0000860284630BD0146002204E0501CC2B2AC
:1094D000A1F10A00C1B20A29F8DA100741EA1060C6
:1094E0007047014600BF080900EB8000420001F010
:1094F0000F001044C0B270472DE9F04105460C46FC
:109500000026002755B962481C38006810F0400F4B
:1095100000D002E00020E07000BF0EE05C481C3884
:10952000006810F0400F04D02078FFF7DAFF0646FD
:1095300002E00020E07000BF00BF55B120780004B9
:10954000617840EA0120A1780843E17840EA0146C9
:1095500011E02078FFF7B7FF4FEA00486078FFF787
:10956000B2FF48EA0028A078FFF7ADFF48EA0008FC
:10957000E07848EA0046CA20454908605320086060
:10958000FFF7B4FE08B900270CE0434830404049DB
:1095900024390860FFF727FFFFF77EFE08B9002790
:1095A00000E00127FF203A4908603846BDE8F08115
:1095B0000021C170017041708170704770B506461E
:1095C0000C460025324824380068334900EA01057A
:1095D000C5F305402070C5F30620607005F07F00DC
:1095E000A07005F48000000CE0705EB92078FFF7F1
:1095F00078FF20706078FFF774FF6070A078FFF745
:1096000070FFA07070BD2DE9F04105460C460026A4
:1096100000274DB9607800F01000102804D1607860
:1096200020F010000A30607005B908E06078FFF79C
:1096300058FF0646A078FFF754FF064600BF55B115
:10964000E0780004617840EA0120A178084321789D
:1096500040EA413611E0E078FFF735FF4FEA004875
:109660006078FFF730FF48EA0028A078FFF72BFF6B
:1096700048EA0008207848EA4036CA2004490860D1
:1096800053200860FFF732FE40B9002712E00000C7
:1096900024280040FF007F007F7F7F00F848304093
:1096A000F8490860FFF79FFEFFF7F6FD08B90027AD
:1096B00000E00127FF20F349203108603846BDE86B
:1096C000F08101210170817041700021C1707047EB
:1096D00070B506460C460025EA480068E84900EAED
:1096E0000105280CE070C5F30420607005F03F0010
:1096F000A070C5F3423020706EB9E078FFF7F1FE3C
:10970000E0706078FFF7EDFE6070A078FFF7E9FE8B
:10971000A0702078207070BD2DE9F04105460E46FE
:10972000144600276DB9D748001D006810F0400F9F
:1097300000D002E00020E07000BFA06800B91AE08D
:1097400019E0D048001D006810F0400F04D02078C8
:10975000FFF7C7FE074602E00020E07000BFA068E8
:1097600020B9207BFFF7BDFE074604E0207BFFF712
:10977000B8FE074600BF95B120780004617840EA42
:109780000120A1780843E17840EA0140217B40EACA
:109790000160A1680843616840EA01071BE0207886
:1097A000FFF791FE4FEA00486078FFF78CFE48EA29
:1097B0000028A078FFF787FE48EA0008E07848EA2A
:1097C0000048207BFFF77FFE48EA0060A16808435D
:1097D000616840EA0107CA20AA4920310860532085
:1097E0000860B6F5807F03D1A6481830076002E014
:1097F000A4481C300760FF20A24920310860BDE862
:10980000F0810021C170017041708170816001217F
:1098100001730021416070472DE9F04106460F4673
:1098200014460025B7F5807F03D1964818300568A7
:1098300002E094481C300568C5F305402070C5F36C
:109840000620607005F07F00A07005F48000000C19
:10985000E070C5F30560207305F08040A06005F05E
:10986000803060607EB92078FFF73BFE2070607822
:10987000FFF737FE6070A078FFF733FEA070207B03
:10988000FFF72FFE2073BDE8F08170B5024600237C
:1098900000240020CA257B4E2036356053253560D4
:1098A00041B1784D2D1D2D681543764E361D35601E
:1098B00001201BE0734D2D1D2D689543714E361D03
:1098C000356000BF6F4D08352D6805EA12245B1C1A
:1098D000B3F5803F01D0002CF4D06A4D08352D68D7
:1098E00015EA122F01D1002000E00120FF25654E6E
:1098F0002036356070BDCA21624A20321160532182
:1099000011606049091D096821F007015D4A121DB7
:1099100011601146096801431160FF21594A203244
:1099200011607047CA21574A2032116053211160DB
:10993000544910310860FF211160704751481030C0
:10994000006880B2704730B5014600220023002035
:10995000CA244C4D20352C6053242C6049B1494C0D
:10996000241D246844F48064464D2D1D2C60012084
:109970001CE0444C241D246824F48064414D2D1DBA
:109980002C6000BF3F4C0834246804F00403521CD0
:10999000B2F5803F01D0002BF4D03A4C0834246853
:1099A00014F0040F01D1002000E00120FF24354D08
:1099B00020352C6030BDCA22324B20331A6053222E
:1099C0001A60304A121D126822F480222D4B1B1D92
:1099D0001A601A46126840EA01031A43294B1B1DFC
:1099E0001A60FF22274B20331A6070472548001D5C
:1099F000006800F480207047CA22224B20331A608E
:109A000053221A601F4A121D126822F4E0021D4BF5
:109A10001B1D1A601A46126840EA01031A43194BCB
:109A20001B1D1A60FF22174B20331A60704770B558
:109A300004460D460026CA201249203108605320F2
:109A40000860FFF753FC00B907E044EA05000D4940
:109A500014310860FFF7C7FC0126FF2009492031B7
:109A60000860304670BD30B504460025CA2005495F
:109A70002031086053200860FFF738FC20B914E05B
:109A80003FFFFF000428004034B1B248006840F0B6
:109A90008000B049086005E0AE48006820F0800012
:109AA000AC490860FFF79FFC0125FF20A9491C3144
:109AB0000860284630BDCA21A64A1C3211605321D5
:109AC000116030B1A349096841F40001A14A116055
:109AD00005E0A049096821F400019E4A1160FF21B8
:109AE0009C4A1C321160704710B50A460021994B00
:109AF0001B6840F6080423EA04011AB140F400632D
:109B0000194300E00143CA23924C1C3423605323C1
:109B10002360904B1960FF23236010BD2DE9F041B5
:109B200080460C461546002600278A4828300068E3
:109B3000894900EA010687482C300068874900EA15
:109B40000107C6F305402070C6F30620607006F0DA
:109B50007F00A07006F48000000CE0700020E87028
:109B6000C7F30420687007F03F00A870C7F34230C5
:109B70002870B8F1000F17D12078FFF7B2FC2070E1
:109B80006078FFF7AEFC6070A078FFF7AAFCA070C9
:109B90006878FFF7A6FC6870A878FFF7A2FCA870A9
:109BA0002878FFF79EFC2870BDE8F08141B9694A2A
:109BB0003832126822EA4002664B38331A6007E0F6
:109BC000644A3832126842EA4002624B38331A6003
:109BD000704739B15F4A3832126802435D4B3833FF
:109BE0001A6006E05B4A383212688243594B3833B8
:109BF0001A6070470022574A483202EB8002116017
:109C0000704701460022534A483202EB8102106835
:109C1000704750493831096821F480314D4A383253
:109C20001160114609680143116070474949383194
:109C3000096821F40031474A383211601146096839
:109C400001431160704743493831096821F480218C
:109C5000404A38321160114609680143116070476B
:109C6000CA223C4B1C331A6053221A6081B1394A14
:109C7000126820F004031A43364B1A60354A383212
:109C8000126800F004031A43324B38331A600FE0B5
:109C9000304A126820F004039A432E4B1A602D4A72
:109CA0003832126800F004039A432A4B38331A60A2
:109CB000FF22284B1C331A60704710B50146002064
:109CC0000022244B1B1D1B6843F6777403EA040231
:109CD0000A4201D0012000E0002010BD81B241F015
:109CE00080011C4A121D126802F0800262EA010122
:109CF000184A121D1160704730B50146002000223D
:109D00000023144C3834246804F00402114C2468F5
:109D10000C4002EAD13544EA05030E4C241D2468A8
:109D200004EA111223B11404240C01D0012000E034
:109D3000002030BD002101098AB242F08002054BAB
:109D40001B1D1B6803F0800363EA0202014B1B1D0D
:109D50001A607047082800407F7F7F003FFFFF00A8
:109D600010B50121C802FFF703FA00214FF400608B
:109D7000FFF7FEF910BD00216D4A116847F6FF623A
:109D80009143027D83681A4343681A43C3681A43A8
:109D900003681A4303691A431143654A1160704707
:109DA00000210175016041608160C16001617047FF
:109DB0006049086070475E49091F096821F0030186
:109DC0005B4A121F11601146096801431160704718
:109DD0005748001F006800F0030070470021544BF3
:109DE0001B1D02681A601A1D11686FF30A01D0E981
:109DF00001231A43C3681A4303691A4311434C4AA7
:109E00000832116070470021016041608160C160CB
:109E10000161704746480C300068C0B27047014687
:109E20000022434810300A18106870470021404B48
:109E3000203302681A601B1D42681A601A1D1168DF
:109E400021F0F701D0E902231A4303691A43436959
:109E50001A431143364A2832116070474FF0FF31E0
:109E60000160002141608160C16001614161704712
:109E70002F482C30006870472D487C3000687047B0
:109E80002B497C310860704729484430006870478E
:109E90002949086070472849091D0860704726490C
:109EA00008310860704724490C3108607047234925
:109EB0000860704722490860704701218143214AA8
:109EC000116070472049086070471B4914390860C9
:109ED000704739B1164A383212680243144B38338E
:109EE0001A6006E0124A383212688243104B383347
:109EF0001A607047014600200D4A303212680A424B
:109F000001D0012000E00020704709493431086089
:109F1000704701460020064A303212680A4201D0DA
:109F2000012000E00020704701493431086070478B
:109F3000042C0140A0802542A0852542AC81254209
:109F4000B0812542B4812542B881254210B504462E
:109F5000E348844208D101218014FFF709F9002168
:109F6000A014FFF705F916E0DE48844208D101216C
:109F70000014FFF7ECF800212014FFF7E8F80AE0DE
:109F8000D948844207D10121C013FFF7E0F800212E
:109F9000E013FFF7DCF810BD10B50022028802F4D0
:109FA00041520B884C8823438C882343CC8823431D
:109FB0000C8923434C8923438C892343CC89234335
:109FC0001A430280838B4FF2FF74234083830B8AF2
:109FD000038210BD2DE9F04F002502230024012744
:109FE00000220026944690469146B0F81CA04FF2FD
:109FF000400B0AEA0B0AA0F81CA04FF0020AA0F8D6
:10A0000020A0858BD1F808A0BAF1020F01D100BFC2
:10A0100067E0B1F804A0BAF1000F01D1012700E018
:10A020000227DFF8C8A2DAF800A01AF4000F09D05E
:10A03000DFF8B8A2DAF800A02AF4000ADFF8ACB220
:10A04000CBF800A0DFF8A4A20AF17C0ADAF800A09D
:10A05000CAF38818DFF894A20AF17C0ADAF800A0A3
:10A06000CAF30279DFF884A2AAF1040ADAF800A0A0
:10A070000AF03F0CDFF878A2BAFBFCFA0AFB08FAF8
:10A08000BAFBF9F6B1F806A0BAF5007F0ED14FEA97
:10A09000162A0AEB8A0A4FEA4A0AD1F808B0BAFB34
:10A0A000FBFA0AF1050A1FFA8AF20FE04FEA471A93
:10A0B000B6FBFAFA0AEB8A0A4FEA4A0AD1F808B064
:10A0C000BAFBFBFA0AF1050A1FFA8AF24FF00A0AF4
:10A0D000B2FBFAF202F00104A2EB040ACAF34F0346
:10A0E0002402022B01DBFF2B01DD02230024B1F847
:10A0F00006A04AEA040A4AEA030AA0F820A0B1F836
:10A1000004A0B1F80CB04AEA0B0AB1F802B04AEA6E
:10A110000B0AB1F800B04AEA0B0A4AF4006A4AEAAC
:10A1200005058583BDE8F08F002101804180818095
:10A13000C180018141818181C181072101827047F4
:10A140000021018041808180C18002218160002145
:10A150008181704721B1028842F04002028004E010
:10A1600002884FF6BF731A400280704721B1828B7C
:10A1700042F48062828304E0828B4FF6FF331A4000
:10A180008283704702884FF2FF731A400280028870
:10A190000A4302807047B1F5804F04D1028842F42F
:10A1A0008042028004E002884BF6FF731A4002806E
:10A1B0007047A1F57E42FF3A04D0028842F48072D3
:10A1C000028004E002884FF6FF631A400280704765
:10A1D00021B1828842F00402828004E082884FF636
:10A1E000FB731A408280704721B1828842F01002CE
:10A1F000828004E082884FF6EF731A4082807047B5
:10A200000146888970478181704721B1028842F4F4
:10A210000052028004E002884DF6FF731A4002806B
:10A220007047018841F48051018070470246002048
:10A23000012901D0108B00E0908A70470146088AFE
:10A24000704710B51AB183880B43838004E083887C
:10A25000CC43A4B22340838010BD70B500240023FA
:10A260000C110125A540ABB21AB185881D4385802C
:10A2700004E08588DE43B6B23540858070BD024675
:10A28000002013890B4201D0012000E0002070471C
:10A29000CA4302817047F0B5024600200024002323
:10A2A000002501F00F070126BE40B4B20B110126B4
:10A2B0009E40B3B2968806EA03051689264202D06C
:10A2C0000DB1012000E00020F0BD10B5002201F02A
:10A2D0000F040123A3409AB2D343038110BD0000B1
:10A2E0000030014000380040003C00400838024087
:10A2F00040787D0110B501218803FEF739FF002168
:10A300004FF48040FEF734FF10BD1A4908607047D3
:10A3100030B500228B071C0F0F2303FA04F2154BF4
:10A3200008338C1053F824309343124C08348D10AA
:10A3300044F8253023468C1053F824308C07240F22
:10A3400000FA04F423430B4C08348D1044F82530F4
:10A3500030BD09490860704708490860704700200F
:10A3600004492031096811F4807F01D0012000E008
:10A370000020704700380140DC00274200042742DB
:10A3800010B50446FE48844208D101210846FEF774
:10A39000EFFE00210120FEF7EBFE9DE0B4F1804FBF
:10A3A00008D101210846FEF7D2FE00210120FEF768
:10A3B000CEFE91E0F348844208D101210220FEF74D
:10A3C000C6FE00210220FEF7C2FE85E0EE48844270
:10A3D00008D101210420FEF7BAFE00210420FEF777
:10A3E000B6FE79E0E948844208D101210820FEF751
:10A3F000AEFE00210820FEF7AAFE6DE0E44884428C
:10A4000008D101211020FEF7A2FE00211020FEF746
:10A410009EFE61E0DF48844208D101212020FEF742
:10A4200096FE00212020FEF792FE55E0DA48844295
:10A4300008D101210220FEF79BFE00210220FEF739
:10A4400097FE49E0D548844209D101210804FEF76E
:10A450008FFE00214FF48030FEF78AFE3CE0D048AA
:10A46000844209D101214804FEF782FE00214FF405
:10A470000030FEF77DFE2FE0CA48844209D1012159
:10A480008804FEF775FE00214FF48020FEF770FE71
:10A4900022E0C548844208D101214020FEF757FE42
:10A4A00000214020FEF753FE16E0C048844208D148
:10A4B00001218020FEF74BFE00218020FEF747FEA1
:10A4C0000AE0BB48844207D101218015FEF73FFE18
:10A4D0000021A015FEF73BFE10BD00220288A84B0C
:10A4E00098420ED0AC4B98420BD0B0F1804F08D0C0
:10A4F000A44B984205D0A44B984202D0A34B98425B
:10A5000004D14FF68F731A404B881A43A04B9842E0
:10A5100007D0A04B984204D04FF6FF431A400B8956
:10A520001A4302804B68C3620B880385944B9842A0
:10A5300002D0994B984201D18B7A03860123838202
:10A5400070474FF0FF31416000210180018141805F
:10A55000817270470185828270470A460021018816
:10A560004FF68F7319401143018070474162704765
:10A57000C16270470146486A70470146088D7047BE
:10A5800021B1028842F00202028004E002884FF604
:10A59000FD731A400280704721B1028842F0040224
:10A5A000028004E002884FF6FB731A400280704775
:10A5B00021B1028842F08002028004E002884FF656
:10A5C0007F731A400280704702884FF6F7731A4073
:10A5D000028002880A430280704702884FF6FF43D8
:10A5E0001A40028002880A430280704721B1028823
:10A5F00042F00102028004E002884FF6FE731A4026
:10A600000280704770B5002400220023058C4FF6AD
:10A61000FE7635400584028C8388048B4FF68F7557
:10A620002C40B51E2C400D882C43751E2A408D8968
:10A630002A434D882A43524DA84202D0564DA84283
:10A6400013D14FF6F7752A40CD892A434FF6FB7593
:10A650002A408D882A434FF6FF652B404FF6FF5561
:10A660002B400D8A2B434D8A2B43838004838D68B6
:10A670004563028470BD70B5002400220023058C60
:10A680004FF6EF7635400584028C8388048B48F6BC
:10A69000FF752C404FF6FF452C400D882D0644EAEF
:10A6A00015444FF6DF752A408D892D0542EA154283
:10A6B0004D882D0542EA1542314DA84202D0364D53
:10A6C000A8421BD14FF67F752A40CD892D0542EA5D
:10A6D00015424FF6BF752A408D882D0542EA154276
:10A6E0004FF6FF352B404FF2FF752B400D8AAD041E
:10A6F00043EA15434D8AAD0443EA1543838004833E
:10A700008D688563028470BD70B50024002200232B
:10A71000058C4FF6FF6635400584028C8388848B58
:10A720004FF68F752C404FF6FC752C400D882C434E
:10A730004FF6FF552A408D892D0642EA15424D8875
:10A740002D0642EA15420E4DA84202D0124DA842F3
:10A7500036D14FF2FF752A40CD892D0642EA1542C7
:10A760004FF6FF352A408D882D0642EA15424EF6F7
:10A77000FF752B404DF6FF752B400D8A2D0519E016
:10A78000000001400004004000080040000C0040B0
:10A79000001000400014004000040140004001404F
:10A7A000004401400048014000180040001C0040E7
:10A7B0000020004043EA15434D8A2D0543EA154326
:10A7C000838084838D68C563028470BD70B5002268
:10A7D00000230024058C4EF6FF7635400584038C5B
:10A7E0008488828B48F6FF752A404FF6FF452A4041
:10A7F0000D882D0642EA15424DF6FF752B408D89D6
:10A800002D0743EA15434D882D0743EA1543FE4DB6
:10A81000A84202D0FD4DA84206D14BF6FF752C4050
:10A820000D8AAD0544EA1544848082838D680564F1
:10A83000038470BD0021018041808180816081811D
:10A84000C18101824182704770B503460020002417
:10A850001846183001258D40ACB21D8CE643B6B2C7
:10A8600035401D8409B108290AD100EB6100056853
:10A870004FF68F76354005600568154305600DE09D
:10A880000D1FADB200EB6500056848F6FF76354058
:10A8900005600568160645EA1645056070BD41630A
:10A8A000704781637047C1637047016470470A460F
:10A8B0000021018B4FF68F731940114301837047BC
:10A8C0000A460021018B48F6FF731940130641EA3E
:10A8D0001341018370470A460021818B4FF68F7325
:10A8E00019401143818370470A460021818B48F645
:10A8F000FF731940130641EA1341818370470A46EA
:10A900000021018B4FF6F773194011430183704703
:10A910000A460021018B4FF2FF731940130641EAEA
:10A920001341018370470A460021818B4FF6F7736C
:10A9300019401143818370470A460021818B4FF2F1
:10A94000FF731940130641EA1341818370470A4699
:10A950000021018B4FF6FB731940114301837047AF
:10A960000A460021018B4FF6FF331940130641EAD6
:10A970001341018370470A460021818B4FF6FB7318
:10A9800019401143818370470A460021818B4FF69D
:10A99000FF331940130641EA1341818370470A4689
:10A9A0000021018B4FF67F731940114301837047DB
:10A9B0000A460021018BC1F30E01130641EA13413F
:10A9C000018370470A460021818B4FF67F7319403F
:10A9D0001143818370470A460021818BC1F30E0128
:10A9E000130641EA1341818370470A460021018C16
:10A9F0004FF6FD7319401143018470470A46002148
:10AA0000018C4FF6F77319401143018470470A46D1
:10AA10000021018C4FF6DF731940130541EA134101
:10AA2000018470470A460021018C4FF67F7319405C
:10AA3000130541EA1341018470470A460021018C45
:10AA40004FF6FF531940130641EA13410184704742
:10AA50000A460021018C4FF2FF731940130641EAA8
:10AA60001341018470470A460021018C4DF6FF73A3
:10AA70001940130741EA13410184704730B50023A0
:10AA800001248C40A3B2048CDD43ADB22C4004847D
:10AA9000048C02FA01F5ADB22C43048430BD30B50C
:10AAA000002304248C40A3B2048CDD43ADB22C40BF
:10AAB0000484048C02FA01F5ADB22C43048430BD49
:10AAC000828B4FF2FF331A408283828B0B0642EA5D
:10AAD000134282837047F0B50C46154600210022D0
:10AAE0000026078C4EF6FF7C07EA0C070784818B53
:10AAF000028C27073E0C40F6FF4739402F0641EAFB
:10AB000017411F0741EA174145F6FF773A4046F4DF
:10AB100080573A4381830284F0BD828B4FF6F373F2
:10AB20001A408283828B0A4382837047F0B50C46B9
:10AB30001546002100220026078C4FF6FF6C07EA1D
:10AB40000C070784818B028C27063E0C4FF60C778E
:10AB500039401F0545EA174739434FF2FF573A403E
:10AB600046F480773A4381830284F0BD028B4FF232
:10AB7000FF331A400283028B0B0642EA1342028320
:10AB80007047F0B50C461546002100220026078CC0
:10AB90004FF6EF7C07EA0C070784018B028C270530
:10ABA0003E0C40F6FF4739401F0741EA17412F0688
:10ABB00041EA17414FF65F773A4046F010073A43B3
:10ABC00001830284F0BD028B4FF6F3731A400283B7
:10ABD000028B0A4302837047F0B50C4615460021EC
:10ABE0000022068C4FF6FE773E400684018B028CD5
:10ABF0004FF60C7631401E0545EA164631434FF6B6
:10AC0000F576324004E000000000014000040140FD
:10AC100044F00106324301830284F0BD70B505465D
:10AC20000C46208850B92389A28861882846FFF7FE
:10AC3000D3FFE1882846FFF7C6FF25E020880428D7
:10AC40000AD12389A28861882846FFF79AFFE18804
:10AC50002846FFF78BFF17E0208808280AD12389B0
:10AC6000A28861882846FFF761FFE1882846FFF740
:10AC700054FF09E02389A28861882846FFF72BFF4B
:10AC8000E1882846FFF71CFF70BD0021018041804C
:10AC9000012181800021C180018170472DE9F041AF
:10ACA00005460C4600260127608808B9022600E008
:10ACB0000026A088012801D1022700E00127208872
:10ACC000A0B92389A28861882846FFF785FFE1881B
:10ACD0002846FFF778FF23893A4631462846FFF792
:10ACE00050FFE1882846FFF741FF13E02389A2883F
:10ACF00061882846FFF745FFE1882846FFF736FFC1
:10AD000023893A4631462846FFF766FFE188284600
:10AD1000FFF759FFBDE8F0810146486B70470146D7
:10AD2000886B70470146C86B70470146086C7047D6
:10AD30000A884B881A438B881A43CB881A430B899D
:10AD40001A434B891A438B891A43A0F84420704751
:10AD50000021018041808180C18001814181818108
:10AD6000704731B1B0F8442042F40042A0F84420CA
:10AD700005E0B0F84420C2F30E02A0F8442070476A
:10AD800021B1828842F00402828004E082884FF67A
:10AD9000FB731A408280704721B1828842F0010221
:10ADA000828004E082884FF6FE731A4082807047EA
:10ADB00010B51AB183890B43838104E08389CC43A6
:10ADC000A4B22340838110BD8182704702460020D7
:10ADD000138A0B4201D0012000E000207047CA43D3
:10ADE0000282704730B50246002000230024158AF5
:10ADF00005EA0103958905EA010413B10CB10120AC
:10AE000000E0002030BDCA430282704741EA0203DD
:10AE1000A0F84830704710B51AB183890B4383817D
:10AE200004E08389CC43A4B22340838110BD21B1C7
:10AE3000828842F00802828004E082884FF6F7732D
:10AE40001A408280704701894FF6F87211400181E3
:10AE500070470A46002101894FF68F73194011434C
:10AE60000181704730B504460D4629462046FFF75C
:10AE7000F0FF208940F00700208130BD2DE9F0412E
:10AE800004460D4616461F46602D06D13B4601225C
:10AE900031462046FFF775FE05E03B46012231466C
:10AEA0002046FFF799FE29462046FFF7D2FF20896A
:10AEB00040F007002081BDE8F08130B50C4600214C
:10AEC0000189C9B21D0642EA15452543294301817E
:10AED00030BD2DE9F04105460E4617469846002440
:10AEE00043463A4631462846FFF7E7FF2C894FF69E
:10AEF000F870044044F007044FF68F70044044F0AB
:10AF000070042C81BDE8F081F0B504460D4616466C
:10AF10001F463B46324629462046FFF7CEFF208992
:10AF200040F480402081F0BD82884FF68F731A4034
:10AF3000828082880A438280704702894FF6F873C4
:10AF40001A40028102890A430281704702894FF642
:10AF50007F731A40028102890A4302817047F0B56B
:10AF60000C4615461E460021002200230189028B53
:10AF7000038C4FF6F877394021434FF6FC473A40AF
:10AF800040F201173A434FF6DD773B40370545EA7B
:10AF900017473B43018102830384F0BD21B18288BE
:10AFA00042F08002828004E082884FF67F731A406C
:10AFB00082807047A0F850107047000010B504461A
:10AFC000F748844208D101211020FEF7D1F8002172
:10AFD0001020FEF7CDF83EE0F248844209D101216D
:10AFE0004804FEF7B4F800214FF40030FEF7AFF844
:10AFF00031E0ED48844209D101218804FEF7A7F829
:10B0000000214FF48020FEF7A2F824E0E7488442B4
:10B0100009D10121C804FEF79AF800214FF400205D
:10B02000FEF795F817E0E248844209D101210805AE
:10B03000FEF78DF800214FF48010FEF788F80AE043
:10B04000DC48844207D101212020FEF791F800213D
:10B050002020FEF78DF810BD2DE9FF4705460E466E
:10B060000024A14600BFA046B08900B100BF2C8AD1
:10B0700024F44054F08804432C82AC8941F20C60E3
:10B080008443B08831890843718908430443AC8103
:10B09000AC8A24F44074B0890443AC826846FDF75E
:10B0A00026FFBF48854202D0C248854202D1DDF862
:10B0B0000C9001E0DDF80890A88910F4004F08D04A
:10B0C00009EBC90000EB091031684900B0FBF1F74A
:10B0D00007E009EBC90000EB091031688900B0FBFB
:10B0E000F1F76420B7FBF0F004012009642101FBB3
:10B0F0001078A88910F4004F08D0322000EBC80067
:10B10000B0FBF1F000F00700044308E0322000EB50
:10B1100008106421B0FBF1F000F00F0004432C8113
:10B12000BDE8FF874FF41651016000218180C18086
:10B1300001810C21418100218181704710B50246B7
:10B140000020108A20F470600B884C8823438C8880
:10B150002343CC8823431843108210BD0021018073
:10B1600041808180C180704721B1828942F40052C0
:10B17000828104E082894DF6FF731A408281704714
:10B18000028B02F47F420283028B0A4302837047E0
:10B1900021B1828942F40042828103E08289C2F3B4
:10B1A0000E028281704721B1828A42F4006282825B
:10B1B00004E0828A4FF2FF731A4082827047C1F323
:10B1C00008028280704701468888C0F308007047F3
:10B1D000028A4FF6F0731A400282028A0A43028200
:10B1E000704721B1828942F00202828104E08289A3
:10B1F0004FF6FD731A408281704782894FF2FF73C8
:10B200001A40828182890A4382817047028A4FF6FE
:10B21000DF731A400282028A0A430282704721B118
:10B22000028A42F48042028204E0028A4BF6FF73F3
:10B230001A4002827047818941F001018181704783
:10B2400021B1828A42F00802828204E0828A4FF6AB
:10B25000F7731A4082827047028BD2B20283028B4C
:10B2600042EA01220283704721B1828A42F0200221
:10B27000828204E0828A4FF6DF731A40828270472E
:10B2800021B1828A42F01002828204E0828A4FF663
:10B29000EF731A4082827047828A4FF6FB731A401E
:10B2A0008282828A0A438282704721B1828A42F076
:10B2B0000202828204E0828A4FF6FD731A40828283
:10B2C000704710B51AB1838A0B43838204E0838AE6
:10B2D000CC43A4B22340838210BDF0B503460024C2
:10B2E000002600250020A1F510676A3F00D100BFAD
:10B2F0001846C1F3421401F01F06012707FA06F5AC
:10B30000012C01D10C3004E0022C01D1103000E0FE
:10B3100014301AB107682F43076002E00768AF4393
:10B320000760F0BD02460020B1F5007F00D100BFEC
:10B3300013880B4201D0012000E00020704701F487
:10B340000072B2F5007F00D100BFCA43028070478F
:10B3500070B502460024002300250020A1F51066E8
:10B360006A3E00D100BFC1F3421501F01F03012660
:10B3700006FA03F3012D02D19689334006E0022D2F
:10B3800002D1168A334001E0968A33400C1201261E
:10B3900006FA04F41688344073B16CB101200CE055
:10B3A000001001400044004000480040004C0040B4
:10B3B0000050004000140140002070BD10B5002274
:10B3C0000023A1F510646A3C00D100BF0A120124D9
:10B3D0009440A3B2DC43048010BD000006488047BF
:10B3E00006480047FEE7FEE7FEE7FEE7FEE7FEE76A
:10B3F000FEE7FEE7FEE7FEE7977400088501000818
:10B4000070B5FE484569402001F0E6F801280CD1EE
:10B41000402001F005F9FA4818F02FFA04461CB153
:10B420002146F8A003F02EFE00BF012001F0EEF847
:10B43000012801D101F0F4F84FF4803001F0F0F868
:10B4400070BD2DE9F0418046ED497031002000F0DB
:10B45000CCFD0222EE49EF4800F0E7FF0422EE495E
:10B46000EE4800F047FF002406E0EC4901EB4410F1
:10B47000012101F067F8641C042CF6DB42F210761F
:10B480001921012000F091FB054620221B210120FB
:10B4900000F05FFB45F480721921012000F059FB98
:10B4A00000BF3000A6F101018EB2FAD119210120AE
:10B4B00000F07BFB10F0010F03D0D9A003F0E2FDF8
:10B4C00009E01B21012000F070FB0746390AD7A0D4
:10B4D00003F0D8FD00BF25F480752A46192101200C
:10B4E00000F037FB00F0FCFC0020BDE8F0810246D4
:10B4F000002070470146002070472DE9F0410446C6
:10B500000D4616461F466FF0050003F01DFA002099
:10B51000BDE8F0812DE9F04104460D4616461F4670
:10B520006FF0050003F010FA0020BDE8F08170B55F
:10B5300006460D461446012D0BD134B10622B04902
:10B540007031204603F045FA02E04FF0FF3070BD45
:10B5500000E000BF00BF0020F9E72DE9F0410446FC
:10B5600000250027666800BF05E016F8011BB5A09E
:10B5700003F088FD6D1C6089A842F6DCB0A003F0E2
:10B5800081FDBDE8F0812DE9F04781460E4600259A
:10B59000FA21AE4801F08FFD5FEA000819D1AC48EE
:10B5A00000688768344607E062897819616803F0AB
:10B5B00010FA608905442468002CF5D1A8B200F087
:10B5C00020FE10B9A3A003F05DFDA04801F011FE1C
:10B5D00005E0A3A003F056FD4046BDE8F08700203B
:10B5E000FBE72DE9F04F87B083464FF00008C146D6
:10B5F000002601A800F082FD01A807C804AB07C31C
:10B600000498002842D00698006810F4004F17D123
:10B61000049887B2DDF814A003223946104610F0D2
:10B6200053FF064666B1344608E062890AEB08011A
:10B63000606803F0CEF9608980442468002CF4D15E
:10B640008A4800688068012803D98848006805682E
:10B6500000E0069D4FF0000905E04FF00040286033
:10B66000ED6809F101098148006880684845F4D80F
:10B6700000207E49096888606048406910F0800FAA
:10B6800004D080205D49486100208860304607B0C2
:10B69000BDE8F08F08B54FF4A060FBF78DFF3D20AB
:10B6A0008DF8000002208DF8010000208DF80200C6
:10B6B00001208DF803006846FBF783FF08BD1CB529
:10B6C00001210720FDF7A8FC01218803FDF7E8FC14
:10B6D0004FF48070009003208DF8050002208DF853
:10B6E000040000208DF8060001208DF8070069464F
:10B6F0005F48FCF7DFFF002208215D48FDF75DF899
:10B700000120FEF726FE3220009069465948FCF7DA
:10B71000D1FF0B2201215748FDF74FF80B220421DE
:10B720005448FDF74AF80B2205215248FDF745F829
:10B730004FF46050009069464F48FCF7BBFF0B2266
:10B7400011464D48FDF739F80B220C214A48FDF708
:10B7500034F80B220D214848FDF72FF88620009081
:10B7600069464348FCF7A6FF0B2201214048FDF73C
:10B7700024F80B2202213E48FDF71FF80B22072177
:10B780003B48FDF71AF81CBD00B5AFB001214FF0E2
:10B790006060FDF741FC00F078F900F00CFF00BF9D
:10B7A00000F010FF0128FBD0684600F079F9012075
:10B7B0000090002007904FF400700A9000200B903A
:10B7C0000E90119013901490159020904FF00070EF
:10B7D000219000112390002025902690042028908D
:10B7E000C005299040122A9080012B9040122C9085
:10B7F00040002E900121684640E000000090024089
:10B800003C130020525820657272203D25640A00C6
:10B81000642C00205414002094140020D413002021
:10B820004249535420706173730A000042495354D3
:10B83000206661696C6420636F756E74203D2564B9
:10B840000A0000003078253032582000B413002060
:10B850006C0100205478204572726F720A0000005B
:10B8600054782054696D656F75740A007401002066
:10B8700000000240000802400004024000F0C1F94C
:10B8800010B94BA003F0FEFB0121514800F0B1FEBE
:10B890002FB000BD0EB5FFF712FFFFF7FBFEFFF75D
:10B8A00073FF00204B4981F870006021494880F8FF
:10B8B00071106E2180F872100020009001900290AB
:10B8C0004548006802904448803800680190434829
:10B8D000006800900098010C3E4880F873100098B2
:10B8E000010A3C4880F874100098C1B2394880F8C9
:10B8F00075103B48374948623A4888623A48C862FE
:10B900003A4808633A4848633A4888630020C86365
:10B91000AFF231308866AFF29130C8660023012261
:10B9200035A1374801F02AFB36A12A4817F09BFFC2
:10B930000EBD2DE9F8430121084600F036F9054611
:10B940001021012000F031F906460021012000F00D
:10B950002CF907461921012000F027F90446334647
:10B960002A46394628A0009403F08CFB14210120BC
:10B9700000F01BF98046414630A003F083FB122102
:10B98000012000F012F98046414631A003F07AFB15
:10B990003448416934A003F075FB37480078072824
:10B9A00001D1002000E0072033490870BDE8F8838A
:10B9B00045544820696E6974206572726F722C203C
:10B9C0006D6179206265206E6F206C696E6B0A0074
:10B9D000400001003C130020107BFF1F107AFF1F66
:10B9E00043B40008EFB40008F5B40008FBB4000845
:10B9F00015B500082FB5000874785F776169740089
:10BA0000B413002065300000424352203D203078BE
:10BA1000255809425352203D203078255809504876
:10BA2000595F535453203D203078255809504859C8
:10BA30005F4352203D20307825580A005048595F16
:10BA40004643534352203D20307825580A000000D9
:10BA50005048595F4D495352203D20307825580AAF
:10BA60000000000000900240444D415352203D2010
:10BA7000307825580A0000006401002000210146AA
:10BA800000E0491E0029FCD1704710B5012148068D
:10BA9000FDF717FB00214FF00070FDF712FB10BD02
:10BAA00001210160002141608160C16001614FF4AA
:10BAB0008041416100218161C1614FF400610162F7
:10BAC000002141628162C162016341638163C1639C
:10BAD000402101642021416400218164C164016529
:10BAE00041658165C16501668021416600218166ED
:10BAF000C166016741678167C1674FF08061C0F827
:10BB000080104910C0F884100021C0F888104FF44C
:10BB10000011C0F88C100021C0F89010C0F89410EB
:10BB2000C0F89810C0F89C10C0F8A0104FF0007139
:10BB3000C0F8A4104912C0F8A8108901C0F8AC10D0
:10BB40004912C0F8B0100021C0F8B410C0F8B81005
:10BB5000704730B503460C46154600210022F848D0
:10BB6000016901F01C014FF4784000EAC320014351
:10BB70004FF4F86000EA8410014341F0020141F003
:10BB80000101EF484561016100BF521CEC480169A9
:10BB900011F0010F02D0EB488242F6D3E94882420D
:10BBA00001D1002030BD0120FCE710B503460C4652
:10BBB00000210022E248016901F01C014FF47840A5
:10BBC00000EAC32001434FF4F86000EA8410014307
:10BBD00021F0020141F00101D948016100BF521C6E
:10BBE000D748016911F0010F02D0D6488242F6D33E
:10BBF000D448824201D1002010BDD148406980B2B2
:10BC0000FAE72DE9FF47044688464FF00009002572
:10BC1000AA46CD4E0027CA48056925F01C0568468E
:10BC2000FDF765F9019EC948864205D3C84886429A
:10BC300002D245F0080511E0C548864205D3C24846
:10BC4000864202D245F00C0508E0BF48864203D385
:10BC5000C048864200D201E045F00405B8480561BD
:10BC60004FF4004200214046FFF773FF18B900204F
:10BC700004B0BDE8F087B848FFF700FF206800284F
:10BC800050D000BF7F1C01214046FFF78EFF10F00F
:10BC9000040F02D1AB488742F4D3AA48874201D1AE
:10BCA0000020E5E700274FF4805200214046FFF7CF
:10BCB00050FF08B90020DBE700BF7F1C0121404690
:10BCC000FFF773FF10F0200F02D19E488742F4D394
:10BCD0009C48874201D10020CAE700271021404636
:10BCE000FFF763FF814619F0040F06D04FF40060A0
:10BCF00020629AA003F0C6F904E0002020629BA015
:10BD000003F0C0F919F0020F05D0002060619BA07C
:10BD100003F0B8F919E04FF4804060619BA003F094
:10BD2000B1F912E0206AC0F3CF006169C1F34F019D
:10BD300040EA010200214046FFF70BFF08B900204E
:10BD400096E76FF07F40FFF799FE7D4805689348BE
:10BD50000540D4E901010843E1680843216908432B
:10BD600061690843A1690843E1690843216A0843FE
:10BD7000616A0843A16A0843E16A0843216B0843EA
:10BD8000616B084305436E480560D4E90E01084322
:10BD9000216C0843616C0843A16C0843E16C0843C3
:10BDA000216D0843616D084365494860A06D886056
:10BDB000E06DC860084685694FF641700540D4E9DA
:10BDC000181040EA0140A16E0843E16E0843216F5C
:10BDD0000843616F0843054359488561D4E91E0152
:10BDE00008435749C8616E4885696E480540D4E9E3
:10BDF00020010843D4F888100843D4F88C10084375
:10BE0000D4F890100843D4F894100843D4F898104C
:10BE10000843D4F89C100843D4F8A0100843054305
:10BE20005F488561D4E929010843D4F8AC10084380
:10BE3000D4F8B0100843D4F8B41040EA8100D4F824
:10BE4000B810084340F400005549086008460068EF
:10BE500040F08000086001200AE730B1504989694C
:10BE600041F002014E4A916105E04D49896921F096
:10BE700002014B4A9161704730B14949896941F4E7
:10BE80000051474A916105E04549896921F4005113
:10BE9000434A9161704730B12949096841F0040172
:10BEA000274A116005E02649096821F00401244A67
:10BEB000116070473A48806940F4801038498861C1
:10BEC000704730B11E49096841F008011C4A1160F1
:10BED00005E01B49096821F00801194A1160704703
:10BEE00000B50120FFF7EDFFFFF7E4FF0120FFF7AA
:10BEF000D2FF0120FFF7C0FF0120FFF7AEFF00BD1A
:10BF000000200F49896911F0010F01D0012000E0E4
:10BF1000002070470A48806940F0010008498861A4
:10BF2000704730B10649896941F00101044A9161C5
:10BF300005E00349896921F00101014A91617047D7
:10BF400000800240FFFF040000879303002D3101B1
:10BF5000C00E160200E1F505FFFF0F004554482012
:10BF600046756C6C4475706C65780A0045544820C1
:10BF700048616C664475706C65780A0045544820C9
:10BF800073706565642031304D0A000045544820C7
:10BF90007370656564203130304D0A000F8120FFD9
:10BFA00000900240233FDEF801460020FE4A926BDB
:10BFB0000A4201D0012000E0002070470146002025
:10BFC000F94A926B0A4201D0012000E0002070473C
:10BFD00029B1F54AD26B8243F34BDA6304E0F24AAB
:10BFE000D26B0243F04BDA63704710B50B794C7992
:10BFF00043EA0422EC4B03441A64CB781B068C788A
:10C0000043EA04434C7843EA04230C7843EA0402ED
:10C01000E54B03445A6410BD0246E34B1344186CCD
:10C02000030A4B710871E04B1344586C030ECB703C
:10C03000030C8B70030A4B700870704741B1DA4AE9
:10C040000244126C42F00042D74B03441A6407E0EA
:10C05000D54A0244126C22F00042D34B03441A64C6
:10C060007047082908D0D04A0244126C42F080423E
:10C07000CD4B03441A6407E0CB4A0244126C22F011
:10C080008042C94B03441A647047C74A0244126C89
:10C0900022F07C52C44B03441A64C34A0244126C1B
:10C0A0000A43C14B03441A6470471EB500210022A5
:10C0B000009201920292BD4A12681268C2F30D42C8
:10C0C000111F0091BA4A12689268012A05D9B84A2C
:10C0D000126812689268019203E0B44A126892688A
:10C0E0000192B24A12680292B04A1268D268AF4B0B
:10C0F0001A609DE81C0080E81C001EBD1EB50022D1
:10C1000000920192029200216DE0491CA74A126838
:10C11000126812F4007F14D0A44A1268126812F454
:10C12000807F0ED1A14A1268A14B1B681A600122C0
:10C130009F4B1B689A609D4A1268D2689B4B1A609D
:10C1400051E09A4A1268126812F4807F12D1974A1D
:10C150001268126812F4007F0CD1954A1268926836
:10C16000521C934B1B689A60904A1268D2688F4B9E
:10C170001A6038E08D4A12688D4B1B685A608C4AF1
:10C1800012689268521C8A4B1B689A60884A12682F
:10C190009268012A04D1854A1268854B1B681A608F
:10C1A000824A12681268C2F30D42121F0092804A3E
:10C1B00012689268012A05D97D4A1268126892684D
:10C1C000019203E0794A126892680192774A1268F4
:10C1D0000292764A1268D268744B1A609DE81C007D
:10C1E00080E81C001EBD714A1268126812F0004FF0
:10C1F00001D1042989D39DE81C0080E81C0000BF00
:10C20000F0E72DE9F04105460026B04600276948D1
:10C210000068006810F0004F02D00020BDE8F081F7
:10C220006448046840F2F450854208DD95FBF0F65E
:10C2300095FBF0F100FB115010B1761C00E00126D7
:10C24000012E1AD15B480068006840F040505949FF
:10C2500009680860C5F30C005649096848605548EC
:10C260000068006840F00040524909680860514881
:10C270000068C0684F49086028E0002722E03FB905
:10C280004C480068006840F080504A4909680860DE
:10C2900040F2F4506060701EB8420DD1206840F04A
:10C2A00000502060701EC0EBC01000EB4000A5EBFA
:10C2B0008008C8F30C006060206840F000402060F7
:10C2C000E4687F1CB742DAD33A4804603A484069D0
:10C2D00010F4005F02D039A002F0D4FE3648406965
:10C2E00010F0040F04D00420334948610020486056
:10C2F000012093E770B50C46134600212B4D2860B2
:10C3000000BF18E000EB41124FF00045156044F209
:10C31000F4555560C1EBC11505EB450504EB8505EA
:10C3200095605D1E8D4204D900EB41152035D56026
:10C3300000E0D060491C9942E4D31F4DE860224DD3
:10C340001B4E356070BD19480068006810F0004F42
:10C3500013D116480068006810F4807F0DD0134890
:10C360000068134909684860114800688068401CEB
:10C370000F4909688860012070470C480068006810
:10C3800010F0004F31D109480068006810F4007FB8
:10C390002BD006480068006810F4807F25D1034840
:10C3A00000680349096811E0008002407001002024
:10C3B000740100206C01002000900240427573203F
:10C3C0004572726F720A00004C380020086000202D
:10C3D000F949096848600120F74909688860F74809
:10C3E0000068C068F54908601DE0F448006800680E
:10C3F00010F0004F17D1F1480068006810F4007F7A
:10C4000011D1EE480068006810F4807F0BD1EA4833
:10C4100000688068401CE84909688860E74800684F
:10C42000C068E64908600020A6E730B50C46134610
:10C430000021E34D286000BF15E000EB41124FF4EE
:10C4400080151560C1EBC11505EB450504EB8505AD
:10C4500095605D1E8D4204D900EB41152035D560F5
:10C4600000E0D060491C9942E7D3D64D286130BD29
:10C470000246002013680B4201D0012000E000209A
:10C48000704701460868C0F3C3007047016841F077
:10C4900000410160704721B1026842F080420260B1
:10C4A00003E0026822F080420260704702680A439B
:10C4B0000260704702680A430260704721B1026857
:10C4C00022F00062026003E0026842F00062026053
:10C4D000704721B1026842F48012026003E00268F2
:10C4E00022F480120260704721B1026822F080625B
:10C4F000026003E0026842F080620260704710B59B
:10C5000041EA024443682343436010BD02460020D1
:10C5100013680B4201D0012000E000207047024662
:10C52000002013690B4201D0012000E00020704779
:10C53000016841F000410160704701460868C0F39E
:10C540000D40704721B1426822F00042426003E092
:10C55000426842F0004242607047024619B150689A
:10C56000C0F30C4070475068C0F30C00FAE700B508
:10C5700002460023106810F0004F0BD1106810F431
:10C58000004F07D1106810F4807F03D01046FFF7EA
:10C59000D4FF0346184600BD30B18A49096841F00E
:10C5A0008001884A116005E08649096821F0800110
:10C5B000844A116070478348006840F00100814957
:10C5C0000860704700207F49096811F0010F01D011
:10C5D000012000E00020704701460020794A52699E
:10C5E0000A4201D0012000E00020704775494861EF
:10C5F000704729B1734AD2690243724BDA6104E091
:10C60000704AD26982436F4BDA617047014600205D
:10C610006C4A52690A4201D0012000E000207047B4
:10C620006849486170476748406900F001007047F9
:10C630006448406900F04000704700206149896902
:10C6400011F4801F01D0012000E000207047014656
:10C6500000205C4A126A0A4201D0012000E000205A
:10C6600070475848006AC0F34A4070475548006A0E
:10C6700080B270475348806C70475248C06C704716
:10C680005048006D70474F48406D704700204D493D
:10C690004860704700204B498860704749494862AC
:10C6A000704770B506460D46002400213046FFF75E
:10C6B0007CFA044615B144F4804402E04BF6FF7066
:10C6C0000440224600213046FFF743FA08B101201A
:10C6D00070BD0020FCE73C48C06A40F000403A4989
:10C6E000C86270470146002000BF04E051F82020D6
:10C6F000354B9A62401C0828F8D3704730B1324954
:10C70000C96A41F40071304AD16205E02E49C96A14
:10C7100021F400712C4AD1627047014600202A4A58
:10C72000D26A0A4201D0012000E00020704730B1F7
:10C730002549C96A41F00401234AD16205E0224932
:10C74000C96A21F00401204AD162704730B11E4904
:10C75000C96A41F002011C4AD16205E01A49C96A5E
:10C7600021F00201184AD162704730B11649C96AF6
:10C7700041F00101144AD16205E01349C96A21F070
:10C780000101114AD16270471048006840F0300042
:10C790000D49C1F8000170470C48006820F02000E6
:10C7A0000949C1F800010846D0F8000140F0100026
:10C7B000C1F80001704700007401002070010020E2
:10C7C0006C01002000900240008002400081024085
:10C7D00038B14149096841F00801404AC2F80011E6
:10C7E00006E03D49096821F008013C4AC2F8001101
:10C7F000704738B13849096841F00401374AC2F836
:10C80000001106E03449096821F00401334AC2F8F6
:10C810000011704738B13049096821F002012F4AF0
:10C82000C2F8001106E02C49096841F002012B4AC8
:10C83000C2F8001170472848006840F001002749FD
:10C84000C1F80001704710F0805F12D020F08050D6
:10C8500039B1234A126822EA0002204BC3F80C21A6
:10C8600017E01F4A126842EA00021C4BC3F80C2171
:10C870000FE039B11B4A126822EA0002174BC3F8D5
:10C88000102106E0174A126842EA0002134BC3F86F
:10C89000102170470146002011F0805F0BD0124A32
:10C8A00012680A4205D00E4A12680A4201D10120DC
:10C8B0000CE000200AE00D4A12680A4205D0084A3E
:10C8C00012680A4201D1012000E0002070470146B1
:10C8D0000248085870470000008102400080024072
:10C8E0000C81024010810240048102400881024014
:10C8F000704717480068704770B5044604F0BCFFE5
:10C90000054613480460284604F0BAFF70BD10B510
:10C910000F480068401C0E49086003F0C1FF044640
:10C92000A06C401EA064A06C18B9606CA06404F0F8
:10C9300097F804F0EFFB10BD0146642201FB02F002
:10C9400000F2E7304FF47A72B0FBF2F0704700006B
:10C950007C0100202DE9F041064603F0A1FF08B15B
:10C9600003F02BFED74D6C6810E00C20271A08222C
:10C970003146384602F0F5F838B903F091FF08B1B6
:10C9800003F029FE3846BDE8F0812468281D844262
:10C99000EBD103F085FF08B103F01DFE0020F2E7A4
:10C9A00070B504460D46164614B94FF0FF3070BD01
:10C9B0002846FFF7CFFF10B14FF0FF30F7E72A46C8
:10C9C0000721204603F07FFBE6820020A07600BF0F
:10C9D000EDE770B5044654B900254623BA4ABBA119
:10C9E000BEA002F04FFB00BF002DFDD000BF2046CF
:10C9F00003F08FFB002070BD2DE9F041B14F7E6840
:10CA000019E00C20341AD4F82480B8F1000F11D0AA
:10CA1000E08A10F0100F0DD12046C04705462DB119
:10CA20002A462146B5A002F02DFB03E0E08A40F043
:10CA30001000E0823668381D8642E2D10020BDE851
:10CA4000F08170B50446002554B90026B423B94AD4
:10CA50009EA1A2A002F016FB00BF002EFDD000BFD9
:10CA6000606A90B1E08A10F0100F0ED12046616A22
:10CA7000884705462DB12A462146A0A002F002FBB8
:10CA800003E0E08A40F01000E082284670BD2DE906
:10CA9000F04104460E46002554B90027D723A64A84
:10CAA0008AA18EA002F0EEFA00BF002FFDD000BFD9
:10CAB000E08A10F0100F12D1606A60B12046616AFE
:10CAC000884705463DB12A4621468CA002F0DAFA95
:10CAD0002846BDE8F081E08A40F01000E082E08A5C
:10CAE00010F0080F06D0208B10F0080F02D06FF066
:10CAF0000600EEE7A07E401CA076A07E50B900277D
:10CB0000F5238D4A8DA175A002F0BCFA00BF002F5D
:10CB1000FDD000BFA06A20B131462046A26A9047EE
:10CB200005460DB1A81D02D146F008002083284615
:10CB3000CFE770B5044600255CB900264FF4887332
:10CB4000834A62A165A002F09DFA00BF002EFDD0CD
:10CB500000BFA07E10B94FF0FF3070BDA07E401E18
:10CB6000A076A07E08B10020F7E7E06A18B1204661
:10CB7000E16A884705460DB1A81D01D10020208338
:10CB80002846EAE72DE9F04104460D4616461F46C1
:10CB90006CB94FF0000840F239136E4A4BA14FA018
:10CBA00002F070FA00BFB8F1000FFCD000BFA07E09
:10CBB00030B94FF0FF3001F0C7FE0020BDE8F08132
:10CBC000206B38B13B46324629462046D4F830C067
:10CBD000E047F3E76FF0050001F0B6FE0020EDE757
:10CBE0002DE9F04104460D4616461F466CB94FF03C
:10CBF000000840F25F13584A34A138A002F042FA0C
:10CC000000BFB8F1000FFCD000BFA07E30B94FF0DC
:10CC1000FF3001F099FE0020BDE8F081606B38B173
:10CC20003B46324629462046D4F834C0E047F3E775
:10CC30006FF0050001F088FE0020EDE72DE9F041DE
:10CC400004460D4616465CB9002740F27F13434A5E
:10CC50001EA122A002F016FA00BF002FFDD000BFD7
:10CC6000A06B30B1324629462046A36B9847BDE8F9
:10CC7000F0810020FBE770B504460D465CB9002644
:10CC80004FF4CC73364A11A114A002F0FBF900BF97
:10CC9000002EFDD000BFE561002070BD70B50446D8
:10CCA0000D465CB9002640F2AD132E4A07A10BA039
:10CCB00002F0E8F900BF002EFDD000BF2562002081
:10CCC00070BD0000280200209E0D040864657620D7
:10CCD000213D2052545F4E554C4C000028257329AD
:10CCE00020617373657274206661696C656420618C
:10CCF000742025733A2564200A000000546F2069CF
:10CD00006E697469616C697A6520646576696365CA
:10CD10003A2573206661696C65642E20546865202D
:10CD20006572726F7220636F646520697320256479
:10CD30000A000000B30D0408C20D04086465762DD6
:10CD40003E7265665F636F756E7420213D20300012
:10CD5000D10D0408E10D0408F00D0408000E0408CC
:10CD6000120E04082C0E04083F49086070472DE994
:10CD7000F0414CE000BF04F07FFD074601F0CEFD1E
:10CD800070B13A493AA002F07DF900255623374A9E
:10CD900040A141A002F076F900BF002DFDD000BFF8
:10CDA000384604F06DFD00BF04F066FD06464248BB
:10CDB00000F051F8E8B94048016814200C1A04F159
:10CDC0001400D0E900215160D0E9001211604060E8
:10CDD000006000BFA06F10B12046A16F88472046B9
:10CDE00003F039FA012808D1304604F049FDBDE8C6
:10CDF000F081304604F044FDF9E7304604F040FD90
:10CE0000A06A02F025FD204603F0EFF900BF2A4892
:10CE100000F021F80028ADD000BFE8E707E0124895
:10CE2000006810B1104800688047FFF7A0FFF6E7E0
:10CE30001FB520201F21C200204BCDE90032CDE9D3
:10CE4000021000231E4A1FA1204803F0F4FC1F48D3
:10CE500003F056FD1FBD01460868884201D101203C
:10CE600070470020FCE7000080010020460E040807
:10CE700046756E6374696F6E5B25735D20736861C0
:10CE80006C6C206E6F74207573656420696E204928
:10CE900053520A0030000000282573292061737363
:10CEA000657274206661696C656420617420257305
:10CEB0003A2564200A0000006C020020D8380020C7
:10CEC0001DCE00087469646C6500000058380020AD
:10CED0004268116042684A604160086070472DE90D
:10CEE000F04105460C469046204603F0E5FDB8F1BA
:10CEF000000F03D0B8F1010F23D105E004F11401B4
:10CF00002846FFF7E5FF1CE02E680FE01420371AD3
:10CF100094F8350097F83510884206DA04F11401C8
:10CF200007F11400FFF7D4FF02E03668AE42EDD1FE
:10CF300000BFAE4204D104F114012846FFF7C8FF38
:10CF400000BF00BF0020BDE8F08170B505460EE0CF
:10CF500004F092FC0646142029680C1A4FF0FF30AA
:10CF60002063204603F09FFC304604F089FC2846ED
:10CF700001F08EFC0028EBD0002070BD2DE9F041BF
:10CF800004460D4616461F4664B94FF00008D823E4
:10CF9000F34AF4A1F7A002F075F800BFB8F1000F52
:10CFA000FCD000BF2A460121204603F08CF8204621
:10CFB00001F076FCA68367720020BDE8F08170B5B1
:10CFC000044654B90025F523F24AE6A1E9A002F08F
:10CFD00059F800BF002DFDD000BF04F11400FFF789
:10CFE000B4FF204603F095F8002070BD2DE9F0470E
:10CFF00005460E46174600BF04F03EFC814601F090
:10D000008DFC88B1E449E5A002F03CF84FF000083F
:10D0100040F21113E04AEAA1D6A002F033F800BFB3
:10D02000B8F1000FFCD000BF484604F029FC00BF57
:10D030002946012003F08FF8044614B92046BDE8C4
:10D04000F087204601F02CFCA68367722046F6E7A5
:10D0500070B5044600BF04F00FFC064601F05EFC0C
:10D0600078B1D849CDA002F00DF800254FF498739F
:10D07000D44AD3A1BFA002F005F800BF002DFDD017
:10D0800000BF304604F0FCFB00BF5CB900254FF444
:10D090009973CC4AB3A1B7A001F0F4FF00BF002DF3
:10D0A000FDD000BF04F11400FFF74FFF204603F04E
:10D0B0009CF8002070BD2DE9F34705465DB90026B8
:10D0C00040F24D13C04AA7A1AAA001F0DBFF00BFA8
:10D0D000002EFDD000BF00BFBC48006818B1284634
:10D0E000BA490968884700BF04F0C6FB074600BF7D
:10D0F00000BFA88B002806DDA88B401EA8833846F9
:10D1000004F0BEFB63E0019830B9384604F0B8FB88
:10D110006FF00100BDE8FC8700BF04F0ADFB804666
:10D1200003F0BEFB78B9A849A9A001F0ABFF002627
:10D1300040F26D13A44AA2A18EA001F0A3FF00BF8C
:10D14000002EFDD000BF00BF04F096FB814601F029
:10D15000E5FB78B19C4991A001F094FF002640F2D4
:10D160006D13994A96A183A001F08CFF00BF002E99
:10D17000FDD000BF484604F083FB00BF404604F0EA
:10D180007FFB00BF03F08CFB04460021216300BF3E
:10D1900000BF6A7A214605F11400FFF7A0FE01984E
:10D1A00000280BDD00BF00BF01AA002104F14C00E4
:10D1B00003F082FF04F14C0003F0B4FE384604F0A3
:10D1C0005FFB03F053F9206B08B1206BA2E700BFAF
:10D1D0008D48006818B128468B490968884700BF08
:10D1E000002097E710B5044600212046FFF763FFB3
:10D1F00010BD70B5044600BF8448006818B12046D1
:10D2000082490968884700BF002504F035FB0646BF
:10D2100000BF00BF04F1140001F03AFB28B904F18B
:10D22000140001F045FB012502E0A08B401CA08307
:10D23000304604F025FB012D01D103F017F9002041
:10D2400070BD2DE9F04104460E4615465CB9002735
:10D250004FF4F2736E4A43A146A001F013FF00BFE2
:10D26000002FFDD000BF012E10D12F4604F004FB8B
:10D27000804604F11400FFF768FEA783404604F0DF
:10D28000FFFA03F0F3F80020BDE8F0814FF0FF3023
:10D29000FAE72DE9F04104460D4616465CB9002731
:10D2A00040F20F235B4A5CA132A001F0EBFE00BF0D
:10D2B000002FFDD000BF2A460221204602F003FFC6
:10D2C000204601F0EDFA0120A08300202062FF201B
:10D2D000A0770020E0776672BDE8F08170B5044663
:10D2E0005CB9002540F22E23504A4BA121A001F049
:10D2F000C9FE00BF002DFDD000BF04F11400FFF7F0
:10D3000024FE204602F005FF002070BD2DE9F0410B
:10D3100005460E4600BF04F0AFFA804601F0FEFA63
:10D3200078B143491DA001F0ADFE002740F249232A
:10D330003F4A23A10FA001F0A5FE00BF002FFDD0A2
:10D3400000BF404604F09CFA00BF2946022002F0CC
:10D3500002FF044614B92046BDE8F0816AE00000EF
:10D360005C0E040873656D20213D2052545F4E55BC
:10D370004C4C00002825732920617373657274205A
:10D380006661696C65642061742025733A256420A8
:10D390000A000000680E0408760E040846756E63E5
:10D3A00074696F6E5B25735D207368616C6C206EB1
:10D3B0006F74207573656420696E204953520A00AA
:10D3C00030000000840E0408920E04085002002071
:10D3D00046756E6374696F6E5B25735D207368615B
:10D3E0006C6C206E6F7420626520757365642062BA
:10D3F00065666F7265207363686564756C6572201D
:10D4000073746172740A00005402002058020020F4
:10D410009E0E0408AD0E04086D7574657820213DDC
:10D420002052545F4E554C4C00000000BB0E0408C7
:10D43000CB0E0408204601F033FA0120A08300201F
:10D440002062FF20A0770020E07766722046BDE8CA
:10D45000F08170B5044600BF04F00EFA064601F0F4
:10D460005DFA90B1F749AFF2CC0001F00BFE002558
:10D4700040F26A23F34AAFF2B801AFF2081001F0AC
:10D4800001FE00BF002DFDD000BF304604F0F8F9CA
:10D4900000BF6CB900254FF41B73EA4AAFF2880154
:10D4A000AFF2301001F0EEFD00BF002DFDD000BF47
:10D4B00004F11400FFF749FD204602F096FE00201B
:10D4C00070BD2DE9F347044600BF04F0D5F980464E
:10D4D00003F0E6F9002812D1DB49AFF20C1001F09D
:10D4E000D1FD00264FF42273D74AAFF22C11AFF2D0
:10D4F0007C1001F0C7FD00BF002EFDD000BF00BFB3
:10D5000004F0BAF9814601F009FA90B1CE49AFF2C0
:10D51000741001F0B7FD00264FF42273CA4AAFF22F
:10D520006011AFF2B01001F0ADFD00BF002EFDD0D4
:10D5300000BF484604F0A4F900BF404604F0A0F93B
:10D5400000BF6CB9002640F28A23BF4AAFF23811FF
:10D55000AFF2E01001F096FD00BF002EFDD000BF3D
:10D5600004F08AF9074603F09BF9054600BFB74867
:10D57000006818B12046B5490968884700BF00BF58
:10D5800000BF00202863206AA84203D1E07F401C2E
:10D59000E07749E0A08B00280ADDA08B401EA08325
:10D5A000256295F83500A077E07F401CE0773BE0EE
:10D5B000019848B96FF001002863384604F060F91B
:10D5C0006FF00100BDE8FC8700BF00BF95F8350093
:10D5D000216A91F83510884205DA05F135020221F9
:10D5E000206A03F037FB627A294604F11400FFF742
:10D5F00076FC019800280BDD00BF00BF01AA0021C6
:10D6000005F14C0003F058FD05F14C0003F08AFCD5
:10D61000384604F035F902F029FF286B08B1286B71
:10D62000D0E704F029F90746384604F029F900BF8D
:10D630008748006818B1204685490968884700BFB7
:10D640000020BFE72DE9F0470446002600BF04F0A4
:10D6500013F9814603F024F9002812D17D49AFF275
:10D66000902001F00FFD002740F20D33794AAFF210
:10D67000B021AFF2003001F005FD00BF002FFDD05A
:10D6800000BF00BF04F0F8F8824601F047F990B1FE
:10D690007049AFF2F82001F0F5FC002740F20D339D
:10D6A0006C4AAFF2E421AFF2343001F0EBFC00BF82
:10D6B000002FFDD000BF504604F0E2F800BF4846FE
:10D6C00004F0DEF800BF03F0EBF8054604F0D4F8F0
:10D6D000804600BF00BF00BF5F48006818B1204609
:10D6E0005D490968884700BF206AA84209D04FF009
:10D6F000FF302863404604F0C3F84FF0FF30BDE828
:10D70000F087E07F401EE077E07F08BBA07F216AC2
:10D7100091F83510884205D004F11E020221206ADA
:10D7200003F098FA04F1140001F0B2F888B914205B
:10D7300061690D1A00BF00BF256295F83500A0771A
:10D74000E07F401CE07704F1140001F0B1F80126FD
:10D7500006E0A08B401CA08300202062FF20A07761
:10D76000404604F08DF8012E01D102F07FFE00202A
:10D77000C5E703464FF0FF3070472DE9F0410446FE
:10D780000D46164664B9002740F27B33334A34A174
:10D79000AFF2204001F076FC00BF002FFDD000BFAB
:10D7A0002A460321204602F08EFC6672204601F0D4
:10D7B00077F80020E061BDE8F08170B5044664B9F7
:10D7C000002540F297332B4A25A1AFF2584001F0D3
:10D7D00059FC00BF002DFDD000BF04F11400FFF77D
:10D7E000B4FB204602F095FC002070BD2DE9F0410D
:10D7F00005460E4600BF04F03FF8804601F08EF863
:10D8000090B11D49AFF26C4001F03CFC00274FF491
:10D810006C73194AAFF25841AFF2A84001F032FCE4
:10D8200000BF002FFDD000BF404604F029F800BF24
:10D830002946032002F08FFC044614B92046BDE8B7
:10D84000F0811BE0DB0E0408EB0E04085002002000
:10D8500054020020F90E0408580200200A0F0408A0
:10D860006576656E7420213D2052545F4E554C4CB8
:10D8700000000000180F0408280F040866722046F4
:10D8800001F00EF80020E0612046BDE8F08170B59F
:10D8900004466CB9002540F2CE33FC4AAFF2400199
:10D8A000AFF2305001F0EEFB00BF002DFDD000BF05
:10D8B00000BF03F0E1FF064601F030F890B1F349F4
:10D8C000AFF2285001F0DEFB00254FF47473EF4AED
:10D8D000AFF21451AFF2645001F0D4FB00BF002D41
:10D8E000FDD000BF304603F0CBFF00BF04F11400B1
:10D8F000FFF72BFB204602F078FC002070BD2DE9DD
:10D90000F05F04460F467CB94FF0000A40F2EF3357
:10D91000DF4AAFF2B401AFF2A45001F0B3FB00BF95
:10D92000BAF1000FFCD000BF1FB94FF0FF30BDE8C7
:10D93000F09F4FF0000800BFD648006818B120469D
:10D94000D4490968884700BF03F096FF8346E06921
:10D950003843E06104F1140000F09AFFC0BB66692F
:10D9600032E01420351A4FF0FF3995F8400010F0DE
:10D97000010F08D0E86BE1690840E96B884211D1DA
:10D980004FF000090EE095F8400010F0020F09D0AA
:10D99000E86BE169084205D0E86BE1690840E8639B
:10D9A0004FF000093668B9F1000F0DD195F840002D
:10D9B00010F0040F03D0E069E96B8843E06128466A
:10D9C00002F071FF4FF0010804F114008642C8D143
:10D9D000584603F055FFB8F1010F01D102F046FDA2
:10D9E0000020A4E72DE9FF4F83B005460E461746F9
:10D9F000DDF8408000BF03F03FFF029002F050FFCF
:10DA0000002814D1A449AFF2386001F03BFB4FF07D
:10DA1000000A40F24F43A04AAFF25C61AFF2AC6043
:10DA200001F030FB00BFBAF1000FFCD000BF00BF17
:10DA300003F022FF019000F071FFA0B19649AFF210
:10DA4000A46001F01FFB4FF0000A40F24F43924ADE
:10DA5000AFF29461AFF2E46001F014FB00BFBAF1E1
:10DA6000000FFCD000BF019803F00AFF00BF02982E
:10DA700003F006FF00BF7DB94FF0000A40F25243A9
:10DA8000854AAFF22421AFF2147001F0FBFA00BF17
:10DA9000BAF1000FFCD000BF26B94FF0FF3007B03D
:10DAA000BDE8F08F4FF0FF3902F0FAFE0446002186
:10DAB000216300BF7948006818B128467749096892
:10DAC000884700BF03F0D8FE834617F0010F06D049
:10DAD000E8693040B0421BD14FF0000918E017F060
:10DAE000020F05D0E869304212D04FF000090FE074
:10DAF0004FF0000A4FF48E63674AAFF23C71AFF209
:10DB00008C7001F0BFFA00BFBAF1000FFCD000BF6B
:10DB1000B9F1000F0AD1E8693040C8F8000017F0E9
:10DB2000040F2ED0E869B043E8612AE0069818B9DE
:10DB30006FF00100206324E0E66384F840706A7AA5
:10DB4000214605F11400FFF7CAF90698002809DDFF
:10DB500006AA002104F14C0003F0AEFA04F14C00D7
:10DB600003F0E0F9584603F08BFE02F07FFC206BD7
:10DB700008B1206B93E703F07FFE8346E06BC8F8A3
:10DB80000000584603F07CFE00BF4548006818B10D
:10DB9000284643490968884700BF206B7FE72DE985
:10DBA000F04104460D4690466CB9002640F2BE4353
:10DBB0003C4AAFF25431AFF6440001F063FA00BFC3
:10DBC000002EFDD000BF012D10D103F055FE0746F9
:10DBD00004F11400FFF7B9F90020E061384603F0C2
:10DBE0004FFE02F043FC0020BDE8F0814FF0FF3013
:10DBF000FAE72DE9F04704460D4616461F46DDF8C4
:10DC0000208074B94FF0000940F2EB43264A27A167
:10DC1000AFF6A00001F036FA00BFB9F1000FFCD05A
:10DC200000BF2A460421204602F04DFA84F80980FC
:10DC3000204600F035FEE661278400206084A08441
:10DC4000E08404F1280000F020FE0020BDE8F08709
:10DC500070B5044664B9002540F20E53174A13A16B
:10DC6000AFF6F00001F00EFA00BF002DFDD000BFAE
:10DC700004F11400FFF769F904F12800FFF765F9D2
:10DC8000204602F046FA002070BD0000380F04085C
:10DC9000480F040858020020560F040850020020C4
:10DCA00054020020640F0408750F04086D622021DF
:10DCB0003D2052545F4E554C4C000000800F04082C
:10DCC0002DE9F04705460E46174600BF03F0D4FD88
:10DCD000814600F023FEA0B1FD49AFF6401001F0EF
:10DCE000D1F94FF0000840F22A53F94AAFF630114B
:10DCF000AFF6801001F0C6F900BFB8F1000FFCD0FC
:10DD000000BF484603F0BCFD00BF2946042002F0D6
:10DD100022FA044614B92046BDE8F087677220460F
:10DD200000F0BEFD2684218C880001F0ABFBE06191
:10DD3000E06920B9204602F058FA0020ECE7002004
:10DD40006084A084E08404F1280000F09EFD204659
:10DD5000E2E770B5044600BF03F08EFD064600F012
:10DD6000DDFD90B1DB49AFF6CC1001F08BF9002559
:10DD700040F25553D74AAFF6B811AFF6082001F07C
:10DD800081F900BF002DFDD000BF304603F078FDC3
:10DD900000BF6CB900254FF4AB63CE4AAFF2F4017B
:10DDA000AFF6302001F06EF900BF002DFDD000BFAE
:10DDB00004F11400FFF7C9F804F12800FFF7C5F8D3
:10DDC000E06901F045FD204602F00FFA002070BD29
:10DDD0002DE9F74F04460F467CB94FF0000840F29A
:10DDE0008553BD4AAFF23C11AFF6782001F04AF9F5
:10DDF00000BFB8F1000FFCD000BF002602F050FDBC
:10DE0000054600BFB548006818B12046B349096807
:10DE1000884700BF03F030FD8146608C218C88422A
:10DE200008D1029830B9484603F02AFD6FF002008D
:10DE3000BDE8FE8F7BE000202863029828B94846A1
:10DE400003F01EFD6FF00200F2E700BF03F014FDC7
:10DE5000824602F025FDA0B99F49AFF68C2001F063
:10DE600011F94FF000084FF4B5639B4AAFF6B021AB
:10DE7000AFF6003001F006F900BFB8F1000FFCD09A
:10DE800000BF00BF03F0F8FC834600F047FDA0B1DF
:10DE90009149AFF6F82001F0F5F84FF000084FF483
:10DEA000B5638D4AAFF6E821AFF6383001F0EAF8F5
:10DEB00000BFB8F1000FFCD000BF584603F0E0FCF3
:10DEC00000BF504603F0DCFC00BF627A294604F133
:10DED0002800FFF704F8029800280EDDFEF709FD80
:10DEE000064600BF00BF02AA002105F14C0003F066
:10DEF000E3F805F14C0003F015F8484603F0C0FCC8
:10DF000002F0B4FA286B08B1286B91E703F0B4FC77
:10DF10008146029800280ADDFEF7EBFC861B02987A
:10DF2000801B02900298002801DA00200290608C89
:10DF3000218C88423FF47FAFA18CE06940F82170CA
:10DF4000A08C401CA084A08C218C884201DB002086
:10DF5000A084608C401C608404F1140000F098FCE4
:10DF600050B904F1140000F0A3FC484603F088FC0B
:10DF700002F07CFA00205BE7484603F081FC0020B9
:10DF800056E770B504460D46002229462046FFF7A5
:10DF90001FFF70BD2DE9F74F04460F467CB94FF0C7
:10DFA000000840F216634E4AAFF20031AFF63C4033
:10DFB00001F068F800BFB8F1000FFCD000BF0026E8
:10DFC00002F06EFC054600BF4648006818B12046C6
:10DFD00044490968884700BF03F04EFC8146608CC5
:10DFE00040B9029830B9484603F04AFC6FF001008E
:10DFF000BDE8FE8F89E000202863029830B94846CA
:10E0000003F03EFC6FF001002863F1E700BF03F06E
:10E0100033FC824602F044FCA0B93149AFF65040CF
:10E0200001F030F84FF0000840F23B632C4AAFF6A5
:10E030007041AFF6C04001F025F800BFB8F1000F05
:10E04000FCD000BF00BF03F017FC834600F066FC65
:10E05000A0B12349AFF6BC4001F014F84FF000081E
:10E0600040F23B631E4AAFF6A841AFF6F84001F01C
:10E0700009F800BFB8F1000FFCD000BF584603F00C
:10E08000FFFB00BF504603F0FBFB00BF627A29464E
:10E0900004F11400FEF723FF029800280EDDFEF7BE
:10E0A00028FC064600BF00BF02AA002105F14C0073
:10E0B00003F002F805F14C0002F034FF484603F08B
:10E0C000DFFB02F0D3F9286B70B1286B90E70000FA
:10E0D0008D0F04089A0F0408A70F040858020020A7
:10E0E000B70F04085002002003F0C6FB81460298D7
:10E0F00000280ADDFEF7FDFB861B0298801B0290BC
:10E100000298002801DA00200290608C00283FF479
:10E1100072AFE18CE06950F821003860E08C401C5F
:10E12000E084E08C218C884201DB0020E084608C5C
:10E13000401E608404F1280000F0AAFB98B904F1A5
:10E14000280000F0B5FB484603F09AFB00BFFB48EF
:10E15000006818B12046F9490968884700BF02F0F5
:10E1600085F9002044E7484603F08AFB00BFF348E6
:10E17000006818B12046F1490968884700BF0020AF
:10E1800036E72DE9F04104460D4690466CB900266D
:10E1900040F29963EA4AAFF2EC41AFF6286000F032
:10E1A00071FF00BF002EFDD000BF012D16D103F07E
:10E1B00063FB074604F11400FEF7C7FE04F12800D4
:10E1C000FEF7C3FE00206084A084E084384603F09C
:10E1D00057FB02F04BF90020BDE8F0814FF0FF3013
:10E1E000FAE72DE9F05F04460F4690469946DDF8C0
:10E1F00028A074B94FF0000B40F2D563D14AD2A1E8
:10E20000AFF6906000F03EFF00BFBBF1000FFCD006
:10E2100000BF3A460521204601F055FF0B98607279
:10E22000204600F03DFBC4F81C8009F1030020F0FB
:10E2300003002084208C001DBAFBF0F060840020D5
:10E24000A062E0622063002508E0208C001DE169E7
:10E2500005FB0016206B306026636D1C608CA842A5
:10E26000F3DC0020A084BDE8F09F70B5044664B9DB
:10E27000002540F20673B84AB3A1AFF6087000F06B
:10E2800001FF00BF002DFDD000BF04F11400FEF718
:10E290005CFE204601F03DFF002070BD70B50446D5
:10E2A00000BF03F0E9FA064600F038FB90B1AB4935
:10E2B000AFF6187000F0E6FE00254FF4EC63A74AB5
:10E2C000AFF60471AFF6547000F0DCFE00BF002D15
:10E2D000FDD000BF304603F0D3FA00BF64B900257B
:10E2E00040F263739D4A98A1AFF6787000F0CAFEC1
:10E2F00000BF002DFDD000BF04F11400FEF725FE85
:10E30000E06901F0A5FA204601F06FFF002070BD22
:10E310002DE9F84F0746884691469A4600BF03F01C
:10E32000ABFA009000F0FAFAA0B18D49AFF6947004
:10E3300000F0A8FE4FF0000B40F22673884AAFF6BB
:10E340008071AFF6D07000F09DFE00BFBBF1000FF2
:10E35000FCD000BF009803F093FA00BF39460520B7
:10E3600001F0F9FE044614B92046BDE8F88F84F8A0
:10E3700009A0204600F094FA08F1030020F0030001
:10E380002084A4F82290218C091D628C01FB02F0EC
:10E3900001F078F8E061E06920B92046FFF77EFFE0
:10E3A0000020E2E70020A062E0622063002508E090
:10E3B000208C001DE16905FB0016206B3060266390
:10E3C0006D1C608CA842F3DC0020A0842046CCE7C2
:10E3D0002DE9F04704460F4616466CB94FF0000889
:10E3E00040F289735F4A58A15F4800F04BFE00BFBE
:10E3F000B8F1000FFCD000BF6FB94FF0000840F239
:10E400008A73584A59A1584800F03CFE00BFB8F141
:10E41000000FFCD000BF6EB94FF0000840F28B73C4
:10E42000504A57A1504800F02DFE00BFB8F1000F30
:10E43000FCD000BF208CB04203D24FF0FF30BDE8CB
:10E44000F08700BF5148006818B120464F4909685D
:10E45000884700BF03F010FA8146256B2DB9484666
:10E4600003F00EFA6FF00200E9E7286820634846DF
:10E4700003F006FA0020286032463946281D00F0D5
:10E48000A8FA03F0F9F98146E06A08B1E06A05608C
:10E49000E562A06A00B9A562A08C401CA08404F1CA
:10E4A000140000F0F5F950B904F1140000F000FA7E
:10E4B000484603F0E5F901F0D9FF0020BFE74846E0
:10E4C00003F0DEF90020BAE72DE9F04704460F46D5
:10E4D00016466CB94FF0000840F2E1732C4A1AA1BD
:10E4E000214800F0CFFD00BFB8F1000FFCD000BF05
:10E4F0006FB94FF0000840F2E273254A1BA11A4899
:10E5000000F0C0FD00BFB8F1000FFCD000BF6EB935
:10E510004FF0000840F2E3731D4A19A1124800F0C1
:10E52000B1FD00BFB8F1000FFCD000BF208CB0429D
:10E5300030D24FF0FF30BDE8F087000054020020D9
:10E54000C20F0408D00F04086D7120213D205254E1
:10E550005F4E554C4C000000DB0F0408F50F04081B
:10E56000E80F04080210040874D300086275666698
:10E57000657220213D2052545F4E554C4C000000E6
:10E5800073697A6520213D20300000005802002088
:10E590000D10040800BFCC48006818B12046CA49D5
:10E5A0000968884700BF03F067F98146256B35B9D4
:10E5B000484603F065F96FF00200BDE8F08728686F
:10E5C0002063484603F05CF932463946281D00F0C6
:10E5D00000FA03F051F98146A06A2860A562E06A5A
:10E5E00000B9E562A08C401CA08404F1140000F086
:10E5F0004FF950B904F1140000F05AF9484603F0FD
:10E600003FF901F033FF0020D7E7484603F038F91F
:10E610000020D2E72DE9FF4F83B004460F46904615
:10E6200074B94FF0000A40F63903A84AAFF2E80186
:10E63000A74800F027FD00BFBAF1000FFCD000BFD3
:10E6400077B94FF0000A40F63A03A04AAFF2E4016E
:10E650009F4800F017FD00BFBAF1000FFCD000BFCB
:10E66000B8F1000F0ED14FF0000A40F63B03974A75
:10E67000AFF2F401964800F005FD00BFBAF1000FBB
:10E68000FCD000BF4FF0000902F00AF9054600BFB8
:10E690009048006818B120468E490968884700BF35
:10E6A00003F0EAF88346A08C48B9069838B9584672
:10E6B00003F0E6F86FF0010007B0BDE8F08F7CE0F2
:10E6C00000BF03F0D9F8029002F0EAF898B97F4948
:10E6D0007F485C3000F0D6FC4FF0000A40F6510352
:10E6E0007A4AAFF25C117A4800F0CCFC00BFBAF174
:10E6F000000FFCD000BF00BF03F0BEF8019000F097
:10E700000DF998B171497248283000F0BBFC4FF008
:10E71000000A40F651036D4AAFF294116C4800F0C4
:10E72000B1FC00BFBAF1000FFCD000BF019803F0AC
:10E73000A7F800BF029803F0A3F800BF00202863E9
:10E74000069830B9584603F09BF86FF00100286333
:10E75000B2E7627A294604F11400FEF7C0FB06987E
:10E7600000280EDDFEF7C5F8814600BF00BF06AAEF
:10E77000002105F14C0002F09FFC05F14C0002F075
:10E78000D1FB584603F07CF801F070FE286B08B10D
:10E79000286B91E703F070F88346069800280CDD9B
:10E7A000FEF7A7F8A0EB09090698A0EB0900069070
:10E7B0000698002801DA00200690A08C00283FF47B
:10E7C0007FAFA66A3068A062E06AB04201D1002043
:10E7D000E062A08C401EA084584603F051F8208CC3
:10E7E000404501D2208C00E040460246311D3846AB
:10E7F00000F0EFF803F040F88346206B30602663AA
:10E80000584603F03DF800BF3348006818B1204671
:10E8100031490968884700BF00204DE72DE9F047DE
:10E8200004460E46914664B9002740F6BF032B4AC2
:10E83000AFF2EC21264800F025FC00BF002FFDD0F0
:10E8400000BF012E1ED103F017F8804604F114001A
:10E85000FEF77BFB0AE0A56A2868A062E06AA8428E
:10E8600001D10020E062206B28602563A06A0028A7
:10E87000F1D1A084404603F003F801F0F7FD002039
:10E88000BDE8F0874FF0FF30FAE740600060704766
:10E8900001460868884201D1012070470020FCE74A
:10E8A00010B5044604F11400FFF7EFFF002010BD7F
:10E8B00070B50446142021680D1A00BF00BF284619
:10E8C00001F0F1FF002070BD580200201A1004086A
:10E8D00074D30008500200205402002025100408C0
:10E8E00010B500BF00BF02F0C7FF04460D48007816
:10E8F000401C0C490870204602F0C2FF10BD10B544
:10E9000000BF00BF02F0B8FF044606480078401E72
:10E9100004490870204602F0B3FF10BD014800789A
:10E92000704700008401002010B5FFF7F7FF10B119
:10E93000F948006810BD01F0B3FF044614B9F64869
:10E940000068F7E7206BF5E770B50446FFF7E6FFD0
:10E9500010B1F148046070BD01F0A2FF054615B981
:10E96000ED480460F7E72C6300BFF4E710B5FFF74C
:10E97000D5FF08B1E84810BD01F092FF044614B17C
:10E9800004F13000F7E7E448F5E7F0B50C4605463A
:10E99000E6B2042A15D310F0030F12D1014646EA5D
:10E9A000062343EA034304E008C108C108C108C1C3
:10E9B000103A102AF8D201E008C1121F042AFBD233
:10E9C0000D4601E005F8016B1700A2F10102F9D133
:10E9D000F0BD2DE9F0410F46164604463D4633464C
:10E9E000102B26D305F0030C04F003085CEA080C96
:10E9F0001FD121462A4610E052F804CB41F804CB3F
:10EA000052F804CB41F804CB52F804CB41F804CBC4
:10EA100052F804CB41F804CB103B102BECD204E0AD
:10EA200052F804CB41F804CB1B1F042BF8D20C4640
:10EA3000154603E015F801CB04F801CB5FEA030C9F
:10EA4000A3F10103F6D1BDE8F08170B50C46014693
:10EA500023468B4210D29D188D420DD91144134488
:10EA600005E05D1E2B462E784D1E29462E701500A2
:10EA7000A2F10102F5D108E003E013F8015B01F80F
:10EA8000015B1500A2F10102F7D170BDF0B503469C
:10EA900000201C460D4608E026782F78F61B300033
:10EAA00000D004E0641C6D1C521E002AF4D800BF84
:10EAB000F0BD01460A4600E0521C10780028FBD148
:10EAC000501A7047F0B506460F463846FFF7F1FF7B
:10EAD00005460DB93046F0BD3046FFF7EAFF044663
:10EAE00009E0641E2A4639463046FFF7CFFF08B9D1
:10EAF0003046F0E7761CAC42F3DA0020EBE730B5A5
:10EB000003460C4600BF13F8011B14F8012B4129E2
:10EB100002DB5A2900DC2031412A02DB5A2A00DCC0
:10EB20002032914201D10029EDD1881A30BD70B553
:10EB30000346A2B118460C4600BF14F8016B00F85A
:10EB4000016B3EB902E0002500F8015B551E2A006A
:10EB5000F9D102E0551E2A00EFD100BF00BF1846D0
:10EB600070BD30B5034600200BE011F8015B1C7846
:10EB7000641B64B2200002D113F8015B05B902E006
:10EB8000521E002AF1D100BF30BD024601E0521CE6
:10EB9000491C107818B110780B789842F7D010788B
:10EBA0000B78C01A704770B504462046FFF781FF06
:10EBB000451C284600F066FC06460EB9002070BDD4
:10EBC0002A4621463046FFF704FF3046F7E77047F4
:10EBD0002DE9F04F85B00D469C46DDE90F740E9B84
:10EBE00014F0400F02D0DFF8348101E0DFF830810B
:10EBF000CDF8008014F0100F01D024F0010414F0BF
:10EC0000010F02D04FF0300801E04FF02008C2465B
:10EC1000002614F0020F0DD0002A02DA2D265242EF
:10EC200008E014F0040F01D02B2603E014F0080FC5
:10EC300000D02026002142B94FF0300B8846491CF5
:10EC40000DF1040909F808B01DE01AE0E146B9F138
:10EC50000A0F08D14FF00A0BB2FBFBFE0BFB1E287C
:10EC6000B2FBFBF202E002F00F08120900BFDDF870
:10EC7000009019F808B08846491C0DF1040909F8FC
:10EC800008B0002AE2D1B94200DD0F46DB1B14F0C8
:10EC9000110F10D116B1002B00DD5B1E06E0A8425B
:10ECA00003D84FF0200880F80080401CB3F1000822
:10ECB000A3F10103F3DC26B1A84201D806705B1E64
:10ECC000401C14F0100F0AD104E0A84201D880F8CB
:10ECD00000A0401CB3F10008A3F10103F5DC06E03D
:10ECE000A84203D84FF0300880F80080401CB84696
:10ECF0007F1E8845F4DC08E0A84205D80DF1040821
:10ED000018F8018080F80080401CB1F10008A1F1E2
:10ED10000101F1DC0DE000008C0100204411040829
:10ED200033110408A84203D84FF0200880F800806F
:10ED3000401CB3F10008A3F10103F3DC05B0BDE80A
:10ED4000F08F0146002009E00B685A1C0A601A780F
:10ED500000EB800302EB4302A2F130000A68127854
:10ED6000303A0A2AF0D370472DE9FF4F89B0804628
:10ED700044460A984044461E464504D24FF0FF36AA
:10ED8000A6EB08000A906DE10B980078252806D0C4
:10ED9000B44202D80B9800782070641C5FE1002513
:10EDA00026E00B98401C0B900B9800782D2802D180
:10EDB00045F010051CE00B9800782B2802D145F097
:10EDC000040515E00B980078202802D145F00805CD
:10EDD0000EE00B980078232802D145F0200507E0CB
:10EDE0000B980078302802D145F0010500E000E0E2
:10EDF000D7E700BF4FF0FF370B98007830380A286C
:10EE000004D20BA8FFF79DFF07460EE00B98007891
:10EE10002A280AD10B98401C0B900C9880C80C90A3
:10EE2000002F02DA7F4245F010054FF0FF390B98B2
:10EE300000782E281CD10B98401C0B900B98007862
:10EE400030380A2804D20BA8FFF77BFF81460AE07E
:10EE50000B9800782A2806D10B98401C0B900C9830
:10EE600050F8049B0C90B9F1000F01DA4FF0000943
:10EE7000002004900B980078682803D00B98007845
:10EE80006C2805D10B98007804900B98401C0B90CF
:10EE90000A2005900B9800786F2874D00CDC63284A
:10EEA00013D004DC25286FD058286ED18CE064285C
:10EEB0006CD06928F9D18EE0702869D0732824D0ED
:10EEC000752877D07828F0D181E015F0100F08D19F
:10EED00004E0B44201D820202070641C781E071E74
:10EEE000F7DC0C9802C80C90C8B20790B44201D865
:10EEF00007982070641C04E0B44201D820202070E0
:10EF0000641C781E071EF7DCA9E00C9800680690C8
:10EF10000C98001D0C90069808B9C7A0069006989A
:10EF2000FFF7C7FD8346B9F1000F02DDCB4500DDD9
:10EF3000CB4615F0100F09D104E0B44201D82020CF
:10EF40002070641C38467F1E5845F6DC002008906F
:10EF50000BE0B44202D8069800782070641C069832
:10EF6000401C06900898401C089008985845F0DB13
:10EF700004E0B44201D820202070641C38467F1E73
:10EF80005845F6DC6BE01CE015E028E022E0FFE7E6
:10EF9000781C02D1082745F00105CDE900790295DA
:10EFA0000C9804C8102331460C902046FFF710FE41
:10EFB000044654E012E0B44201D825202070641CBD
:10EFC0004DE0082005901DE045F0400500BF1020F1
:10EFD000059017E000BF45F0020500BF12E0B44203
:10EFE00001D825202070641C0B98007830B1B44201
:10EFF00002D80B9800782070641C02E00B98401E29
:10F000000B902CE000BF04986C2807D10C9850F8A6
:10F0100004AB0C9015F0020F16D015E00498682888
:10F020000AD10C9802C81FFA81FA0C9015F0020F51
:10F030000AD00FFA8AFA07E00C9850F804AB0C904B
:10F0400015F0020F00D000BFCDE9007902955246BD
:10F0500031462046059BFFF7BBFD044600BF0B98D9
:10F06000401C0B900B98007800287FF48DAEB442C2
:10F0700001D8207001E000203070A4EB08000DB032
:10F08000BDE8F08F0FB438B505A800907F216C481B
:10F09000009B049AFFF768FE04467F2C00D97F246A
:10F0A0006848006818B96648FFF791FD15E06548A3
:10F0B0000068C58A63480068C08A40F04000614922
:10F0C0000968C88223465E4A00215E480068FDF751
:10F0D00087FD5C480068C58200BF0020009038BCF6
:10F0E0005DF814FB08B558A0FFF7CCFF59A0FFF757
:10F0F000C9FF61A0002302220121009061A0FFF757
:10F10000C1FF68A0FFF7BEFF08BD0FB4F8B5044605
:10F110000D4609A8009029462046009B089AFFF753
:10F1200023FE0646002000903046F8BC5DF814FB34
:10F1300037B505460C4622464FF0FF312846029B64
:10F14000FFF712FE3EBD0FB438B5044606A8009086
:10F150002046009A0599FFF7EBFF05460020009036
:10F16000284638BC5DF814FB36480068704770B517
:10F170000546344806682846FDF7ECFB044664B1B2
:10F180003048006818B12F480068FDF7D2FC2D48C0
:10F19000046003210068FDF77AFC304670BD2DE95C
:10F1A000F04107460C46E01C20F00304F81C20F058
:10F1B000030000EB0408404600F064F9054665B121
:10F1C000601E284201D12E1904E0601E2844611EF1
:10F1D00020EA010646F8045C35462846BDE8F08181
:10F1E00070B5044654F8045C284600F031FB70BD4D
:10F1F000014609B90020704711F0FF0F04D0C8B2D2
:10F20000334A105C401CF6E711F47F4F05D03048BC
:10F21000C1F30722805C0930EDE711F47F0F05D0C0
:10F220002B48C1F30742805C1130E4E7284800EB2B
:10F23000116000781930DEE7284E554C4C2900004B
:10F24000D8390020880100200A205C207C202F0A69
:10F25000000000002D205254202D2020202020547A
:10F260006872656164204F7065726174696E6720B1
:10F2700053797374656D0A0041756720313420320B
:10F2800030313400202F207C205C202020202025BD
:10F29000642E25642E2564206275696C64202573B4
:10F2A0000A0000002032303036202D203230313339
:10F2B00020436F7079726967687420627920727474
:10F2C0002D746872656164207465616D0A000000C8
:10F2D00033100408F44908607047F4490860704727
:10F2E0002DE9F0410446F248006884420AD2002722
:10F2F0008D23F04AF0A1F8A0FFF7C4FE00BF002F55
:10F30000FDD000BFFC48006884420AD300278E234A
:10F31000E84AFAA1F0A0FFF7B5FE00BF002FFDD02C
:10F3200000BF608850B100278F23E24AFEA1EAA007
:10F33000FFF7A8FE00BF002FFDD000BFDC496068CA
:10F3400009684518AC4215D0688898B9EA48006841
:10F3500085420FD0F8480068A84201D1F648046001
:10F3600068686060D2480068201AD14A69681268EB
:10F3700011448860CE49A06809684618A64211D099
:10F38000708878B9EC480068A04201D1EA4806606C
:10F3900060687060C6480068301AC54A61681268C3
:10F3A00011448860BDE8F0812DE9F04705460E461E
:10F3B000E81C20F0030726F0030800BF02F05CFA07
:10F3C0008246FFF7ABFA80B1DC49DDA0FFF75AFEB9
:10F3D0004FF00009BE23D94AE2A1BFA0FFF752FEB9
:10F3E00000BFB9F1000FFCD000BF504602F048FA50
:10F3F00000BFB8F1180F09D9A8F11800B84205D319
:10F40000A8EB07001838D849086006E032462946BC
:10F41000D6A0FFF737FEBDE8F087A548076000BF1C
:10F4200000BF04684FF4F5502080CF4800680C30CE
:10F4300060600020A06060809D49606809680844A1
:10F44000AD4908604FF4F550096808800120AA49C9
:10F4500009684880C44800680C30A74909684860BA
:10F46000C14800680C30A449096888600023012263
:10F47000CDA1CF48FDF782FD8D480068AE490860F8
:10F4800000BFC8E72DE9F047054600BF02F0F4F9D8
:10F490008246FFF743FA80B1C649A9A0FFF7F2FD03
:10F4A0004FF00009FB23C34AAEA18BA0FFF7EAFD92
:10F4B00000BFB9F1000FFCD000BF504602F0E0F9E8
:10F4C00000BF15B90020BDE8F087E81C20F003005C
:10F4D000A84201D000BF01E000BF00BFE81C20F03F
:10F4E0000305A1480068854203D900BF00BF002082
:10F4F000E9E70C2D00D20C254FF0FF31AC48FDF7A9
:10F50000DAFD8D4800686A490968461A95E168483D
:10F5100000688419608800287ED106F10C006168BB
:10F52000081AA84278D306F10C006168091A05F19F
:10F53000180081422DD306F10C0000EB05085C4851
:10F54000006800EB08070020788060687860BE6083
:10F55000C4F80480012060808348796800680C301A
:10F56000814205D05249786809680844C0F808808B
:10F570009148016805F10C0008448F4908608F48E4
:10F5800000680968884219D28B4800688B49086076
:10F5900014E001206080464960680968611A401AD9
:10F5A00085490968084484490860844800680968F6
:10F5B000884203D280480068804908604FF4F550C3
:10F5C00020805D48006884422CD107E05A480068DA
:10F5D0004068374909680844574908605648006838
:10F5E000408828B154480068434909688842EDD1F1
:10F5F0005148006840490968884213D04E48006865
:10F60000408878B14FF000094FF4AF73694A6CA19C
:10F6100031A0FFF737FD00E00BE100BFB9F1000FAB
:10F62000FCD000BF6248FDF7E4FD04F10C00284463
:10F630003149096888420DD94FF000094FF4B17380
:10F640005C4A694924A0FFF71DFD00BFB9F1000F16
:10F65000FCD000BF14F0030F0ED04FF0000940F2B1
:10F660006313544A604948311BA0FFF70BFD00BFEC
:10F67000B9F1000FFCD000BF14F0030F0DD04FF014
:10F6800000094FF4B2734B4A58A113A0FFF7FAFCDC
:10F6900000BFB9F1000FFCD000BF00BF00BF00BF2A
:10F6A00001480068BAE000009001002094010020A9
:10F6B000980100207F1104082872745F75696E74C8
:10F6C000385F74202A296D656D203E3D2068656194
:10F6D000705F7074720000002825732920617373B5
:10F6E000657274206661696C65642061742025739D
:10F6F0003A2564200A0000009C0100202872745FF3
:10F7000075696E74385F74202A296D656D203C2000
:10F710002872745F75696E74385F74202A29686571
:10F7200061705F656E6400006D656D2D3E7573657B
:10F7300064203D3D20300000A00100208A11040813
:10F7400046756E6374696F6E5B25735D20736861C7
:10F750006C6C206E6F74207573656420696E20492F
:10F7600053520A0030000000A40100206D656D2096
:10F77000696E69742C206572726F722062656769A8
:10F780006E206164647265737320307825782C2054
:10F79000616E6420656E64206164647265737320B9
:10F7A000307825780A00000068656170000000006C
:10F7B000583A00209E110408A8010020AC01002046
:10F7C00028286C66726565203D3D20686561705F24
:10F7D000656E6429207C7C2028216C667265652D0D
:10F7E0003E75736564292900C81104082828287209
:10F7F000745F75696E7433325F74296D656D29208D
:10F8000026202852545F414C49474E5F53495A4580
:10F810002D312929203D3D203000000028B1294606
:10F8200004F10C00D54A1268904700BF04F10C00A7
:10F8300049E6D348006830444668D2480068401B17
:10F84000B0423FF664AED048FDF7D3FC00203AE664
:10F850002DE9F041054600BF02F00EF80746FFF71C
:10F860005DF890B1C949AFF22810FFF70BFC0026F4
:10F870004FF4FE73C54AAFF21411AFF2A410FFF7B4
:10F8800001FC00BF002EFDD000BF384601F0F8FF9C
:10F8900000BF0DB9BDE8F08115F0030F0CD00026B4
:10F8A0004FF40073B94ABAA1AFF2D410FFF7EAFBE4
:10F8B00000BF002EFDD000BFB1480068854203D3D1
:10F8C000BF48006885420CD3002640F20123AF4AAE
:10F8D000BC49AFF2FC10FFF7D5FB00BF002EFDD0F6
:10F8E00000BF00BFB848006818B12846B64909688B
:10F8F000884700BFA2480068854203D3B04800682B
:10F90000854202D300BF00BFC4E7A5F10C0400BFCD
:10F9100000BF4FF0FF319C48FDF7CDFB608860B918
:10F92000002640F21B23994AA8A1AFF25420FFF70A
:10F93000A9FB00BF002EFDD000BF2088B0F5F55F09
:10F940000CD000264FF40773904AA3A1AFF27820A1
:10F95000FFF798FB00BF002EFDD000BF00206080A5
:10F960002080A4480068844201D2A24804608449EF
:10F9700060680968611A401A9F490968081A9E4917
:10F9800008602046FFF7ACFC7F48FDF732FC00BF63
:10F9900080E72DE9FC5F06460C4600BF01F06CFFD6
:10F9A0000190FEF7BBFFA0B19449AFF26C20FFF7C6
:10F9B00069FB002000904FF4C473904AAFF25C21C1
:10F9C000AFF2EC20FFF75EFB00BF00980028FCD0F0
:10F9D00000BF019801F054FF00BFE01C20F00304B9
:10F9E00068480068844204D900BF00BF0020BDE819
:10F9F000FC9F1EB92046FFF745FDF8E74FF0FF31A9
:10FA00006148FDF758FB5E480068864203D36C48A6
:10FA10000068864204D35C48FDF7EBFB3046E6E71E
:10FA2000A6F10C0856480068A8EB0009D8F80400B5
:10FA3000A0EB0900A0F10C07A74204D15248FDF742
:10FA4000D8FB3046D3E704F11800B8422DD2381B5A
:10FA500069490968081A6849086009F10C0000EB57
:10FA6000040A4748006800EB0A054FF4F550288067
:10FA700000206880D8F804006860C5F80890C8F8CD
:10FA800004A04048696800680C30814205D03C49B8
:10FA9000686809680844C0F808A02846FFF720FCF9
:10FAA0003948FDF7A6FB3046A1E73748FDF7A1FB33
:10FAB0002046FFF7E7FC8346BBF1000F0CD0A742BE
:10FAC00001D2384600E02046024631465846FEF74D
:10FAD00080FF3046FFF7BCFE584688E72DE9F0412D
:10FAE00004460D4600BF01F0C7FE8046FEF716FF34
:10FAF00090B14349AFF2B830FFF7C4FA002740F2A3
:10FB0000E5133F4AAFF2A431AFF23440FFF7BAFA3F
:10FB100000BF002FFDD000BF404601F0B1FE00BF86
:10FB200004FB05F0FFF7AEFC06462EB104FB05F220
:10FB300000213046FEF729FF3046BDE8F08110B1C4
:10FB4000104B1B68036011B12B4B1B680B6012B18B
:10FB50002C4B1B681360704710B50A4801682AA037
:10FB6000FFF790FA244801682CA0FFF78BFA25488C
:10FB700001682FA0FFF786FA10BD00009001002059
:10FB800098010020A4010020583A0020BD1104086B
:10FB900028282872745F75696E7433325F74297215
:10FBA0006D656D292026202852545F414C49474EEF
:10FBB0005F53495A452D312929203D3D2030000011
:10FBC0009C0100205C120408940100206D656D2DDD
:10FBD0003E757365640000006D656D2D3E6D616757
:10FBE0006963203D3D20484541505F4D41474943B1
:10FBF00000000000A0010020A8010020A8110408B6
:10FC0000B3110408AC010020746F74616C206D6541
:10FC10006D6F72793A2025640A000000757365647F
:10FC2000206D656D6F7279203A2025640A0000000E
:10FC30006D6178696D756D20616C6C6F6361746561
:10FC400064206D656D6F72793A2025640A000000AA
:10FC5000ED4908607047ED49086070472DE9F05F95
:10FC60000446884691469A460A9E64B94FF0000BB6
:10FC70006523E74AE7A1EBA0FFF704FA00BFBBF159
:10FC8000000FFCD000BF42460621204600F01BFAC0
:10FC9000C4F814902AF00300A061F01C20F00306C1
:10FCA000E661D4E90610001DB1FBF0F06062606A05
:10FCB000A06204F12C0000F09CF9002060636769E9
:10FCC000002507E0681C311D00FB0171301D6843F1
:10FCD00039506D1C606AA842F4D80022681E311D9C
:10FCE00048433A5027620020BDE8F09F2DE9F041DB
:10FCF000044654B900269823D24AC6A1C9A0FFF7EA
:10FD0000C1F900BF002EFDD000BF11E001F0B4FD2D
:10FD100007461420E16A0D1A4FF0FF302863284689
:10FD200000F0C1FD606B401E6063384601F0A8FD25
:10FD300004F12C0000F060F90028E7D0204600F024
:10FD4000E8F90020BDE8F0812DE9F05F81468846A2
:10FD5000154600BF01F090FD8346FEF7DFFD80B140
:10FD6000B949BAA0FFF78EF94FF0000ACD23B64A81
:10FD7000BFA1ACA0FFF786F900BFBAF1000FFCD01D
:10FD800000BF584601F07CFD00BF4946062000F048
:10FD9000E2F9044614B90020BDE8F09FE81C20F009
:10FDA0000305E561281D00FB08F0A061291D01FB8A
:10FDB00008F0FFF767FB6061606920B9204600F03A
:10FDC00014FA0020E8E7C4F82480606AA06204F115
:10FDD0002C0000F00EF9002060636769002607E040
:10FDE000701C291D00FB0171281D70433950761CC1
:10FDF000606AB042F4D80022701E291D48433A5070
:10FE000027622046C8E72DE9F041044600BF01F013
:10FE100033FD8046FEF782FD78B196498BA0FFF74F
:10FE200031F9002640F20913924A91A17DA0FFF713
:10FE300029F900BF002EFDD000BF404601F020FD93
:10FE400000BF5CB900264FF486738A4A71A175A081
:10FE5000FFF718F900BF002EFDD000BF11E001F040
:10FE60000BFD07461420E16A0D1A4FF0FF3028639E
:10FE7000284600F018FD606B401E6063384601F0B4
:10FE8000FFFC04F12C0000F0B7F80028E7D060690F
:10FE9000FFF7DEFC204600F0A8F90020BDE8F08165
:10FEA0002DE9F347044601F0E7FC0746A06A38B1A4
:10FEB000A06A401EA062256A286820622C6058E073
:10FEC000019828B9384601F0DBFC0020BDE8FC872A
:10FED00000BF01F0D1FC8146FEF720FD88B16649E4
:10FEE0005AA0FFF7CFF84FF000084FF4B173624A01
:10FEF0005FA14CA0FFF7C6F800BFB8F1000FFCD01F
:10FF000000BF484601F0BCFC00BF00F0C9FC06463B
:10FF1000304600F0D1FD04F12C0006F11401026816
:10FF2000516002680A600160486000BF606B401C5D
:10FF300060630198002809DD01AA002106F14C0048
:10FF400001F0BAF806F14C0000F0ECFF384601F081
:10FF500097FC00F08BFA306B08B10020B6E701F097
:10FF60008BFC0746A06A401EA062256A28682062B2
:10FF70002C60384601F084FC00BF2348006820B1A3
:10FF8000291D2046204A1268904700BF281D9DE782
:10FF90002DE9F04105462E1F346800BF1B4800685C
:10FFA00020B129462046194A1268904700BF01F047
:10FFB00063FC8046A06A401CA062206A3060266212
:10FFC000606B88B11420E16A0F1A0020386338464C
:10FFD00000F069FC606B401E6063404601F050FC1D
:10FFE00000F044FABDE8F081404601F049FC00BF52
:10FFF000F8E740600060704701460868884201D118
:020000040801F1
:10000000012070470020FCE7B0010020B40100206F
:10001000B81204086D7020213D2052545F4E554C9B
:100020004C000000282573292061737365727420C9
:100030006661696C65642061742025733A256420CB
:100040000A000000C3120408D012040846756E634B
:1000500074696F6E5B25735D207368616C6C206ED4
:100060006F74207573656420696E204953520A00CD
:1000700030000000DD120408EA1204080268516032
:1000800002680A60016048607047D0E90021516051
:10009000D0E9001211604060006070479549086027
:1000A00070479549086070479449086070479449C3
:1000B000086070479349086070477047014692484E
:1000C00000EB011070472DE9F04104460D4616463D
:1000D0008D4800EB051745F080002072082231465C
:1000E0002046FEF724FD00BF8248006818B1204674
:1000F00080490968884700BF01F0BEFB804604F1D3
:100100000C01381DFFF7BAFF404601F0B9FBBDE80E
:10011000F08170B5044654B90025FB237B4A7CA1CD
:1001200080A0FEF7AFFF00BF002DFDD000BF00BFD5
:100130007148006818B120466F490968884700BFB8
:1001400001F09AFB064604F10C00FFF79EFF3046D3
:1001500001F096FB70BD2DE9F04705460F4600BF44
:1001600001F08AFB8246FEF7D9FB88B1754976A07B
:10017000FEF788FF4FF000084FF48C73714A7BA1A3
:1001800068A0FEF77FFF00BFB8F1000FFCD000BFF2
:10019000504601F075FB00BF5B4800EB0516F068A8
:1001A000FFF770F9044614B90020BDE8F087257206
:1001B00000206072082239462046FEF7B8FC00BFD6
:1001C0004C48006818B120464A490968884700BF72
:1001D00001F052FB814604F10C01301DFFF74EFF88
:1001E000484601F04DFB2046DFE770B504465CB998
:1001F000002540F259135E4A45A14AA0FEF742FF8E
:1002000000BF002DFDD000BF207A10F0800F0BD072
:1002100000254FF4AD73564A56A142A0FEF732FFB7
:1002200000BF002DFDD000BF00BF3348006818B1EB
:10023000204631490968884700BF01F01DFB06468A
:1002400004F10C00FFF721FF304601F019FB2046B6
:10025000FFF7FEFA70BD70B504465CB900254FF497
:10026000BF734F4A2AA12FA0FEF70CFF00BF002D3D
:10027000FDD000BF207A10F0800F01D0012070BDAA
:100280000020FCE72DE9F04705460E460DB1092E8A
:1002900002DD0020BDE8F0874248007868B14FF0E9
:1002A000000940F29F13404A30A11EA0FEF7EAFE6B
:1002B00000BFB9F1000FFCD000BF00F07EF912487A
:1002C00000EB06177C680DE00C20A4EB0008082268
:1002D00029464046FEF745FC18B900F07CF9404637
:1002E000D8E72468381D8442EED100F074F900206C
:1002F000D0E70000480200204C02002050020020FD
:100300005402002058020020B8010020F612040810
:100310006F626A65637420213D2052545F4E554CD4
:100320004C000000282573292061737365727420C6
:100330006661696C65642061742025733A256420C8
:100340000A0000000713040846756E6374696F6E37
:100350005B25735D207368616C6C206E6F74207513
:1003600073656420696E204953520A003000000012
:100370001A13040821286F626A6563742D3E74792C
:10038000706520262052545F4F626A6563745F4334
:100390006C6173735F5374617469632900000000BA
:1003A0002B13040884010020451304089B490860AE
:1003B000704770B5044654B900255A23984A99A14C
:1003C0009DA0FEF75FFE00BF002DFDD000BFA16A1B
:1003D000E069884205D9A18DA06A0844E169884294
:1003E0000CD221469CA0FEF74DFE01F027FB01F048
:1003F00043FA054600BF002DFDD108E0A06A203079
:10040000E169814203D821469AA0FEF73BFE70BD08
:1004100010B50020A549088000BF00BF002405E0FA
:10042000A34901EBC40000F0F5F8641C202CF7DBB5
:100430001F20A049087000209F4908609F4908605C
:100440009F4800F0E7F810BD70B59C480068FEF7C3
:10045000CFFE451E964850F8351014200C1A9648C9
:10046000046004F11C0001F03CFA70BD2DE9F0417C
:1004700001F002FA07468D480088002834D18F48E1
:100480000068FEF7B5FE461E894850F83610142065
:100490000C1A89480068844225D086490E70864827
:1004A0000568046000BF5D48006820B12146284609
:1004B0005A4A1268904700BF00BF00BF2046FFF7AE
:1004C00078FF8048007830B904F11C0105F11C0068
:1004D00001F0D9F907E000BF00BF04F11C0105F1EC
:1004E0001C0001F0D0F900BF384601F0C9F9BDE8A1
:1004F000F08170B504465CB9002540F20F13724AD2
:1005000048A14DA0FEF7BEFD00BF002DFDD000BFED
:1005100001F0B2F90646012084F8340094F8352041
:10052000634B03EBC20004F114014268116042689E
:100530004A604160086000BF00BF00BF5F49A06B18
:10054000096808435D490860304601F099F970BDBB
:1005500070B504465CB9002540F23D135B4A31A1F9
:1005600035A0FEF78FFD00BF002DFDD000BF01F0CC
:1005700083F9064600BF00BF04F11400D0E9002152
:100580005160D0E9001211604060006000BF94F833
:100590003510474A02EBC1000168814201D10121B7
:1005A00000E0002129B14548A16B00688843434918
:1005B0000860304601F064F970BD10B501F05CF9D7
:1005C00004463A480088401C00B23849088020465A
:1005D00001F056F910BD10B501F04EF9044633484C
:1005E0000088401E00B2314908800846B0F900007A
:1005F000002807DC00200880204601F041F9FFF7C1
:1006000035FF02E0204601F03BF910BD2748008885
:1006100080B27047406000607047000074020020A4
:100620005413040874687265616420213D2052549B
:100630005F4E554C4C0000002825732920617373D0
:10064000657274206661696C65642061742025732D
:100650003A2564200A0000007468726561643A25D6
:100660007320737461636B206F766572666C6F774D
:100670000A0000007761726E696E673A2025732068
:10068000737461636B20697320636C6F736520748E
:100690006F20656E64206F6620737461636B2061E8
:1006A0006464726573732E0A000000005C0200200F
:1006B000783A0020640200206002002068020020D6
:1006C0006C020020840100206E13040888130408C3
:1006D0000268516002680A60016048607047D0E9B2
:1006E00000215160D0E90012116040600060704745
:1006F00070B5FE48046801F0BFF805462046FFF7D4
:1007000027FF042084F8340004F14C0000F0B6FB0D
:100710002046FFF7A0FD012805D1A06F18B920469B
:10072000FFF7F7FC04E004F11401F148FFF7D0FFF4
:10073000284601F0A5F8FFF799FE70BD70B5054693
:100740002C465CB900264FF42073EA4AEAA1EFA0D8
:10075000FEF798FC00BF002EFDD000BF94F83400D7
:1007600002280BD0002640F28123E24AEFA1E7A045
:10077000FEF788FC00BF002EFDD000BF6FF0010027
:10078000206304F11400FFF7AAFF2046FFF7B1FE33
:10079000FFF76CFE70BD2DE9FC5F044616461F4650
:1007A000DDE90C9ADDE90E5804F1140040600060A8
:1007B00000BF26626762C4F82890A4F82CA0A28D1E
:1007C0002321A06AFEF7E1F8B4F82CC0A36A6344C1
:1007D0001A1FDF4BD4E9080100F050FDE061202D25
:1007E0000CDB4FF0000B6E23DA4ADBA1C7A0FEF74B
:1007F00049FC00BFBBF1000FFCD000BF04F1300486
:10080000A5716571C4F81480C4F818804FF0000019
:1008100020602071A064E064A4F1300400902346BD
:10082000AFF2E7022146019004F14C0000F001FB19
:100830000020BDE8FC9F2DE9FF4F85B004460D4622
:10084000174612AE96E8400764B94FF0000BA82394
:10085000CA4AA9A1ADA0FEF715FC00BFBBF1000F6D
:10086000FCD000BF66B94FF0000BA923C34AC4A156
:10087000A6A0FEF707FC00BFBBF1000FFCD000BF35
:100880002A4600212046FFF71EFC8DE840073A4625
:1008900029462046089BFFF77EFF09B0BDE8F08F90
:1008A00092480068704770B504465CB9002540F274
:1008B0005523B94A90A195A0FEF7E4FB00BF002D97
:1008C000FDD000BF00BF00BF94F83400022804D060
:1008D00000BF00BF4FF0FF3070BD00F0CDFF0646F7
:1008E00004F11400FFF7FBFE04F14C0000F0B6FB2E
:1008F000304600F0C5FF2046FFF7FBFD0020EBE788
:1009000070B5044654B90025CE23A44A7AA17FA02D
:10091000FEF7B8FB00BF002DFDD000BF94F83400F7
:1009200050B10025CF239D4A9DA178A0FEF7AAFBD8
:1009300000BF002DFDD000BF04F13404A07860702A
:1009400061784FF0010000FA01F06060A4F1340416
:1009500000BF00BF4FF0020084F834002046FFF7CC
:10096000A2FFFFF79DFF08B1FFF780FD002070BDDB
:1009700070B5044654B90025FA23914A5EA163A0DC
:10098000FEF780FB00BF002DFDD000BF2046FFF723
:10099000DFFD04F14C0000F071FA042084F834000B
:1009A0002046FFF7B6FBA06F50B100F065FF06468A
:1009B00004F114014E48FFF78BFE304600F060FF53
:1009C000002070BD2DE9FF5F06460F4690461D468C
:1009D000DDE90EAB31460020FFF7BDFB8146B9F1E2
:1009E000000F03D1002004B0BDE8F09F2846FEF7B9
:1009F00049FD044624B94846FFF7F7FB0020F2E71B
:100A000043463A46314648468DE8300CFFF7C3FE70
:100A10004846E8E770B504465CB9002540F2591332
:100A2000684A35A139A0FEF72DFB00BF002DFDD08F
:100A300000BF2046FFF78CFD04F14C0000F01EFAC9
:100A4000042084F8340000F017FF064604F1140176
:100A50002748FFF73DFE304600F012FF002070BD32
:100A600070B500F009FF05462048046894F834008A
:100A700001281CD1D4E90510814218D004F11400DA
:100A8000FFF72DFE94F835204F4B03EBC20004F125
:100A900014014268116042684A604160086000BF0A
:100AA000284600F0EDFEFFF7E1FC002070BD28466F
:100AB00000F0E6FE0020F9E770B504465CB90025B9
:100AC00040F22F23414A0CA110A0FEF7DBFA00BF31
:100AD000002DFDD000BF00BF00BF94F834000128F6
:100AE00077D000BF00BF4FF0FF3070BD6002002024
:100AF0006C0200203A140408746872656164202155
:100B00003D2052545F4E554C4C000000282573295F
:100B100020617373657274206661696C656420611D
:100B2000742025733A2564200A00000074687265F9
:100B300061642D3E73746174203D3D2052545F54B6
:100B400048524541445F53555350454E44000000C0
:100B5000F1060108A21304087072696F7269747952
:100B6000203C2052545F5448524541445F50524902
:100B70004F524954595F4D4158000000B2130408C8
:100B8000737461636B5F737461727420213D2052D2
:100B9000545F4E554C4C000029140408C11304083E
:100BA0007468726561642D3E73746174203D3D20EC
:100BB00052545F5448524541445F494E49540000E5
:100BC000D3130408E4130408783A00201714040827
:100BD000FFE700F051FE0646022084F8340020466C
:100BE000FFF7B6FC304600F04BFE002070BDF1B5BB
:100BF00000F042FE05464E4804686CB900264FF4EA
:100C0000D7734C4AAFF21011AFF20010FEF73AFA68
:100C100000BF002EFDD000BF2046FFF74DFF6A4603
:100C2000002104F14C0000F047FA04F14C0000F000
:100C300079F9284600F024FEFFF718FC206B801C91
:100C400000D120630020F8BD10B504462046FFF710
:100C5000CEFF10BD2DE9F04104460E4615466CB995
:100C6000002740F2E113344AAFF27411AFF264107E
:100C7000FEF708FA00BF002FFDD000BF2EB3012EF3
:100C800028D0022E2AD100F0F7FD804694F83400D7
:100C900001280ED12046FFF75BFC287884F8350048
:100CA00094F8351001208840A0632046FFF721FC0E
:100CB00007E0287884F8350094F835100120884042
:100CC000A063404600F0DCFD09E02046FFF718FE77
:100CD000BDE8F0812046FFF79DFEF9E700BF00BFA9
:100CE0000020F5E72DE9F0410646FFF7D9FD08B1F0
:100CF000FFF763FC114D6C6810E00C20271A0822E6
:100D000031463846FDF72DFF38B9FFF7C9FD08B168
:100D1000FFF761FC3846BDE8F0812468281D844255
:100D2000EBD1FFF7BDFD08B1FFF755FC0020F2E75E
:100D300060020020F513040805140408B80100201F
:100D40000268516002680A60016048607047FD49AE
:100D5000086070472DE9F04704460E46174698464E
:100D6000DDF8209084F80990607A20F0010060722C
:100D7000E66127620020A062C4F82480002506E016
:100D800004F1140101EBC50000F069FA6D1C012D9E
:100D9000F6DBBDE8F08770B50446204600F062FA45
:100DA00010B14FF0FF3070BD142021680D1AA86AF1
:100DB000F9E710B50246002001460EE002F11403E7
:100DC00003EBC100D0E900436360D0E90034236045
:100DD0004060006000BF481C01460129EEDB10BDE9
:100DE00070B505460026002408E005F1140101EB6A
:100DF000C40000F037FA00B9761C641C012CF4DB47
:100E0000304670BD2DE9F041044625680AE0A5F1A1
:100E100014063046FFF7E4FF07463946CAA0FEF73E
:100E200031F92D68A542F2D1C8A0FEF72BF9BDE833
:100E3000F0812DE9F84F04460D4616461F46DDE9C0
:100E40000A8964B94FF0000AB823C14AC1A1C6A0FB
:100E5000FEF718F900BFBAF1000FFCD000BF2A4618
:100E600008212046FFF72FF943463A4631462046EF
:100E7000CDF80090FFF76EFFBDE8F88F70B504461F
:100E800054B90025CD23C04AB2A1B7A0FEF7FAF8A5
:100E900000BF002DFDD000BF00F0EEFC064620464E
:100EA000FFF787FF304600F0EBFC2046FFF731F9F3
:100EB000002070BD2DE9F84304460E4617469846BB
:100EC000DDF8209021460820FFF745F9054615B9C1
:100ED0000020BDE8F88343463A4631462846CDF81F
:100EE0000090FFF737FF2846F3E770B504465CB97A
:100EF00000254FF48573A54A96A19BA0FEF7C2F882
:100F000000BF002DFDD000BF00F0B6FC0646204615
:100F1000FFF74FFF304600F0B3FC2046FFF765F9BE
:100F2000002070BD2DE9F84305466DB94FF000086B
:100F30004FF49673964A87A18BA0FEF7A3F800BFE3
:100F4000B8F1000FFCD000BF687A10F0010F03D099
:100F50004FF0FF30BDE8F88300BF8E48006818B13D
:100F600028468C490968884700BF6FF00041686ACD
:100F700088420DD34FF000084FF49B73844A86A13A
:100F800079A0FEF77FF800BFB8F1000FFCD000BFDA
:100F9000FBF7AFFC696A0844A86200F06DFC81466B
:100FA000864E009600242AE019E05DF8242011689E
:100FB000142202EBC402881A826AAB6AD21A00D1E8
:100FC00008E0826AAB6AD21A6FF000439A4200D2FC
:100FD0000CE000BF5DF8240000684DF824005DF8C7
:100FE000240006EBC40149688842DED100BF2CB161
:100FF0005DF824000830611C4DF82100641C012CB0
:10100000D2DB6F480068401C6D49086008460768DD
:1010100005F114010098FFF793FE022412E017F087
:10102000030F0CD1C4F1010305F1140202EBC3015B
:10103000C4F101025DF82200FFF782FE00E003E048
:10104000BF08641C012CEADD00BF687A40F0010093
:101050006872484600F014FC00207BE770B5044637
:101060005CB900254FF4CF73564A3AA13EA0FEF773
:1010700009F800BF002DFDD000BF607A10F0010F0D
:1010800002D14FF0FF3070BD00BF4F48006818B16B
:1010900020464D490968884700BF00F0EDFB064631
:1010A0002046FFF786FE304600F0EAFB607A20F02B
:1010B000010060720020E6E72DE9F04104460E468B
:1010C00015465CB9002740F2BF13404A21A126A073
:1010D000FDF7D8FF00BF002FFDD000BF4EB1012E9D
:1010E00004D0022E08D0032E10D10AE0606A2860D6
:1010F0000CE02868606209E0607A20F0020060720B
:1011000004E0607A40F00200607200BF00BF00207F
:10111000BDE8F08170B500BF00BFFBF7EAFB0546F4
:1011200000F0AAFB06467BE02448016814200C1A54
:10113000A06A281A6FF00041884270D200BF0148AF
:10114000006845E084020020256400000A000000D9
:101150004C14040874696D657220213D2052545F5F
:101160004E554C4C000000002825732920617373F4
:10117000657274206661696C6564206174202573F2
:101180003A2564200A0000005A1404086A1404086E
:101190007A1404085402002074696D65722D3E694A
:1011A0006E69745F7469636B203C2052545F5449CC
:1011B000434B5F4D4158202F203200007C0200201D
:1011C00078020020891404085802002097140408AB
:1011D00018B1204627490968884700BF2046FFF715
:1011E000E8FDD4E907108847FBF783FB054600BFFD
:1011F00000BF607A10F0020F0BD0607A10F0010F80
:1012000007D0607A20F0010060722046FFF78AFE66
:1012100006E0607A20F00100607201E0FFE705E07F
:10122000154800F01FF800283FF47EAF00BF30469D
:1012300000F026FB00BF00BF70BD10B50E48FFF7E1
:10124000AAFD10BD10B5002405E00B4901EBC40058
:1012500000F005F8641C002CF7D010BD704740600A
:101260000060704701460868884201D1012070473C
:101270000020FCE7840200207C020020F0B5044638
:101280000D461646301D20F007004038014600226A
:1012900003E0BE4F41F82270521C102AF9D30D62B0
:1012A0004FF0000CC1F824C0C1F828C0C1F82CC010
:1012B000C1F830C04B638C634FF0807CC1F83CC0F8
:1012C000F0BDB3490860704710B5B2A0FDF7DAFE73
:1012D000B4480188B4A0FDF7D5FEB248008810F0EC
:1012E000010F02D0B6A0FDF7CDFEAE48008810F089
:1012F000020F02D0B5A0FDF7C5FEAA48008810F085
:10130000040F02D0B4A0FDF7BDFEA648008810F07F
:10131000080F02D0B2A0FDF7B5FEA248008810F475
:10132000807F02D0B0A0FDF7ADFE9E48008810F48B
:10133000007F02D0AFA0FDF7A5FE99A0FDF7A2FEA9
:1013400010BD10B5AEA0FDF79DFE9648401E017879
:10135000AEA0FDF797FE9348401E007810F0010FF5
:1013600002D0B0A0FDF78EFE8E48401E007810F02F
:10137000020F02D0AEA0FDF785FE8A48401E00781D
:1013800010F0040F02D0ADA0FDF77CFE8548401E92
:10139000007810F0080F02D0ACA0FDF773FE814872
:1013A000401E007810F0100F02D0ABA0FDF76AFECF
:1013B0007C48401E007810F0800F06D079480E302F
:1013C0000168A7A0FDF75EFE02E075A0FDF75AFEDA
:1013D00010BD10B5A6A0FDF755FE7248801E01781D
:1013E000A8A0FDF74FFE6F48801E007810F0010F97
:1013F00002D0AAA0FDF746FE6A48801E007810F0D1
:10140000020F02D0A8A0FDF73DFE6648801E0078BE
:1014100010F0080F02D0A7A0FDF734FE6148801E2F
:10142000007810F0100F02D0A5A0FDF72BFE5D484C
:10143000801E007810F0800F06D05A480A300168EC
:10144000A2A0FDF71FFE02E055A0FDF71BFE10BD98
:1014500010B55448801C006810F0020F02D09FA005
:10146000FDF710FE4F48801C006810F0804F10D030
:101470004C48401E007808B1FFF763FF4948801EC2
:10148000007808B1FFF7A5FF4648008808B1FFF7CC
:101490001BFF4448801C006810F0004F02D095A04C
:1014A000FDF7F0FD10BD70B505462C1D38480068ED
:1014B00038B12846364909688847064606B970BDDE
:1014C00000BF90A0E16BFDF7DDFD92A0216AFDF762
:1014D000D9FD94A0616AFDF7D5FD96A0A16AFDF73C
:1014E000D1FD98A0E16AFDF7CDFD9AA02168FDF736
:1014F000C9FD9CA06168FDF7C5FD9EA0A168FDF730
:10150000C1FDA0A0E168FDF7BDFDA2A02169FDF726
:10151000B9FDA4A06169FDF7B5FDA6A0A169FDF71D
:10152000B1FDA8A0E169FDF7ADFDAAA0216BFDF713
:10153000A9FDACA0616BFDF7A5FDAEA0A16BFDF709
:10154000A1FD286810F0040F09D0FFF7A9F906469D
:101550003146ACA0FDF796FD00F070FA02E0B1A0B4
:10156000FDF790FDFFF774FF00BFFEE710B5B4A0D4
:10157000FDF788FD00244FF4B073B54AB5A1B6A0BD
:10158000FDF780FD00BF002CFDD010BDEFBEADDE2D
:10159000880200207573616765206661756C743A16
:1015A0000A0000002AED00E05343425F43465352D5
:1015B0005F554653523A30782530325820000000AB
:1015C000554E444546494E5354522000494E5653B9
:1015D0005441544520000000494E5650432000001D
:1015E0004E4F435020000000554E414C49474E4558
:1015F0004420000044495642595A45524F200000A9
:10160000627573206661756C743A0A005343425FD9
:10161000434653525F424653523A3078253032584F
:10162000200000004942555345525220000000005E
:10163000505245434953455252200000494D5052A3
:10164000454349534552522000000000554E535423
:101650004B4552522000000053544B45525220003B
:101660005343422D3E424641523A253038580A00F3
:101670006D656D206D616E616765206661756C7466
:101680003A0A00005343425F434653525F4D46536C
:10169000523A307825303258200000004941434307
:1016A00056494F4C200000004441434356494F4C9B
:1016B000200000004D554E53544B4552522000001F
:1016C0004D53544B45525220000000005343422DCD
:1016D0003E4D4D41523A253038580A006661696CDA
:1016E000656420766563746F722066657463680A4A
:1016F000000000006465627567206576656E740A97
:10170000000000007073723A203078253038780A73
:10171000000000007230303A203078253038780AE6
:10172000000000007230313A203078253038780AD5
:10173000000000007230323A203078253038780AC4
:10174000000000007230333A203078253038780AB3
:10175000000000007230343A203078253038780AA2
:10176000000000007230353A203078253038780A91
:10177000000000007230363A203078253038780A80
:10178000000000007230373A203078253038780A6F
:10179000000000007230383A203078253038780A5E
:1017A000000000007230393A203078253038780A4D
:1017B000000000007231303A203078253038780A45
:1017C000000000007231313A203078253038780A34
:1017D000000000007231323A203078253038780A23
:1017E00000000000206C723A203078253038780AEA
:1017F000000000002070633A203078253038780AE5
:101800000000000068617264206661756C74206F6E
:101810006E207468726561643A2025730D0A0D0AA2
:101820000000000068617264206661756C74206F4E
:101830006E2068616E646C65720D0A0D0A0000000E
:1018400073687574646F776E2E2E2E0A0000000088
:10185000A814040830000000282573292061737340
:10186000657274206661696C6564206174202573FB
:101870003A2564200A000000EFF3108072B670472A
:1018800080F310887047314A1368012B04D04FF061
:10189000010313602E4A10602E4A11602E484FF04B
:1018A000805101607047EFF3108272B627480168DB
:1018B00091B14FF0000101602548016829B1EFF3B3
:1018C000098121E9F00F006801602249096809686F
:1018D000B1E8F00F81F3098882F310884EF0040E0E
:1018E00070471C4908601A494FF00000086017490A
:1018F0004FF00100086019484FF47F01D0F8002034
:1019000041EA0201016014484FF08051016014481F
:101910000068006880F3088862B6704700BF1EF058
:10192000040F14BFEFF30880EFF3098020E9F00FF4
:1019300040F804ED80F3088880F3098800B5FFF7CC
:10194000B2FD5DF804EB4EF0040E704794020020E7
:101950008C0200209002002004ED00E020ED00E069
:1019600008ED00E0014600200A4601E01268401C34
:1019700013688B42FAD1704710B5FAA0FDF782FBCD
:10198000002010BD10B5FDF7ADFB002010BD2DE906
:10199000FC410546F848FDF775FBF7484C30FDF76C
:1019A00071FB2E6845E00C20341A94F8353022463D
:1019B0000821F2A0FDF766FB94F83400012803D15A
:1019C000F2A0FDF75FFB15E094F83400022803D184
:1019D000F1A0FDF757FB0DE094F8340018B9F1A021
:1019E000FDF750FB06E094F83400042802D1F0A083
:1019F000FDF748FBA76A00E07F1C38782328FBD05E
:101A0000216BA06CCDE90001A08DD4F828C0A7EB14
:101A10000C0CA0EB0C03D4F81CC0A06AA0EB0C00CB
:101A2000B4F82CC000EB0C016246E4A0FDF72AFBE1
:101A30003668AE42B7D10020BDE8FC8110B5E84859
:101A4000FFF7A5FF10BD70B5044625680CE0142013
:101A50002E1A3146E3A0FDF715FB2868A04202D0FC
:101A6000E1A0FDF70FFB2D68A542F0D170BDF8B5E0
:101A70000546DEA0FDF706FBE4A0FDF703FB2E689C
:101A800027E00C20341A04F1140000F0C4FC98B9CB
:101A900004F11400FFF766FF07460090A38B22466F
:101AA0000821E2A0FDF7EEFA04F11400FFF7CBFFE6
:101AB000B0A0FDF7E7FA0BE004F11400FFF752FFC6
:101AC00007460090A38B22460821DDA0FDF7DAFA35
:101AD0003668AE42D5D10020F8BD10B5C0481030F0
:101AE000FFF7C5FF10BDF8B50546DAA0FDF7CAFA45
:101AF000E1A0FDF7C7FA2E6821E00C20341A04F1AA
:101B0000140000F088FC98B904F11400FFF72AFFD4
:101B10000746009022460821E0A0E369FDF7B2FAEB
:101B200004F11400FFF78FFF92A0FDF7ABFA05E078
:101B300022460821DFA0E369FDF7A4FA3668AE4229
:101B4000DBD10020F8BD10B5A5483030FFF7CBFF42
:101B500010BDFEB50546DCA0FDF794FAE4A0FDF744
:101B600091FA2E6812E00C20341A04F11400FFF7E9
:101B7000F9FE0746E07F216A08232246CDE90107E6
:101B800000911946E4A0FDF77DFA3668AE42EAD12D
:101B90000020FEBD10B592482030FFF7DAFF10BDDF
:101BA0002DE9FC410546E2A0FDF76CFAE9A0FDF73E
:101BB00069FA2E682BE00C20341A04F1140000F0AE
:101BC0002AFCA8B904F11400FFF7CCFE0746208CCC
:101BD000CDE90007638C22460821E7A0FDF752FA01
:101BE00004F11400FFF72FFF62A0FDF74BFA0DE0A0
:101BF00004F11400FFF7B6FE0746208CCDE900077C
