ARM Linker, 4.1 [Build 894] [Professional (MDK + RL-ARM)]

==============================================================================

Section Cross References

    application.o(.text) refers to touchpanel.o(.text) for Read_Ads7846
    application.o(.text) refers to thread.o(.text) for rt_thread_delay
    application.o(.text) refers to rtgui_app.o(.text) for rtgui_app_self
    application.o(.text) refers to server.o(.text) for rtgui_server_post_event
    application.o(.text) refers to dfs.o(.text) for dfs_init
    application.o(.text) refers to dfs_elm.o(.text) for elm_init
    application.o(.text) refers to dfs_fs.o(.text) for dfs_mount
    application.o(.text) refers to kservice.o(.text) for rt_kprintf
    application.o(.text) refers to ethernetif.o(.text) for eth_system_device_init
    application.o(.text) refers to stm32f2_eth.o(.text) for rt_hw_stm32_eth_init
    application.o(.text) refers to device.o(.text) for rt_device_init_all
    application.o(.text) refers to sys_arch.o(.text) for lwip_sys_init
    application.o(.text) refers to driver.o(.text) for rtgui_graphic_set_device
    application.o(.text) refers to rtgui_system.o(.text) for rtgui_system_server_init
    application.o(.text) refers to adc_dma.o(.text) for ADC_PM2R5
    application.o(.text) refers to temp_conf.o(.text) for GPIO_RM_Configuration
    application.o(.text) refers to sensor_conf.o(.text) for sensor_config
    application.o(.text) refers to lcd_show.o(.text) for gui5
==============================================================================

Removing Unused input sections from the image.

    Removing application.o(.rev16_text), (4 bytes).
    Removing application.o(.revsh_text), (4 bytes).
    Removing startup.o(.rev16_text), (4 bytes).
    Removing startup.o(.revsh_text), (4 bytes).
    Removing tim_conf.o(.rev16_text), (4 bytes).
    Removing tim_conf.o(.revsh_text), (4 bytes).
    Removing sensor_conf.o(.rev16_text), (4 bytes).
    Removing sensor_conf.o(.revsh_text), (4 bytes).
    Removing temp_conf.o(.rev16_text), (4 bytes).
    Removing temp_conf.o(.revsh_text), (4 bytes).
    Removing temp_conf.o(.data), (4 bytes).
    Removing lcd_show.o(.rev16_text), (4 bytes).
    Removing lcd_show.o(.revsh_text), (4 bytes).
    Removing adc_dma.o(.rev16_text), (4 bytes).
    Removing adc_dma.o(.revsh_text), (4 bytes).
    Removing 24lcxx.o(.rev16_text), (4 bytes).
    Removing 24lcxx.o(.revsh_text), (4 bytes).
    Removing fm25lx.o(.rev16_text), (4 bytes).
==============================================================================

Image Symbol Table

    Local Symbols

    Symbol Name                              Value     Ov Type        Size  Object(Section)

    ../../../cmprslib/zerorunl2.c            0x00000000   Number         0  __dczerorl2.o ABSOLUTE
    ../../atan.c                             0x00000000   Number         0  atan.o ABSOLUTE
    ../../atan.c                             0x00000000   Number         0  atan_x.o ABSOLUTE
    ../../ceil.c                             0x00000000   Number         0  ceil.o ABSOLUTE
    ../../cos.c                              0x00000000   Number         0  cos.o ABSOLUTE
    ../../cos.c                              0x00000000   Number         0  cos_x.o ABSOLUTE
    ../../cos_i.c                            0x00000000   Number         0  cos_i.o ABSOLUTE
    ../../dunder.c                           0x00000000   Number         0  dunder.o ABSOLUTE
    ../../floor.c                            0x00000000   Number         0  floor.o ABSOLUTE
    ../../fpclassify.c                       0x00000000   Number         0  fpclassify.o ABSOLUTE
    ../../lrint.c                            0x00000000   Number         0  lrint.o ABSOLUTE
    ../../lrint.c                            0x00000000   Number         0  lrint_x.o ABSOLUTE
    ../../microlib/ctype/ctype.c             0x00000000   Number         0  ctype_o.o ABSOLUTE
    ../../microlib/ctype/ctype.c             0x00000000   Number         0  isalpha_o.o ABSOLUTE
    ../../microlib/ctype/ctype.c             0x00000000   Number         0  isdigit_o.o ABSOLUTE
    ../../microlib/ctype/ctype.c             0x00000000   Number         0  isblank_o.o ABSOLUTE
    ../../microlib/ctype/ctype.c             0x00000000   Number         0  isgraph_o.o ABSOLUTE
    ../../microlib/ctype/ctype.c             0x00000000   Number         0  isprint_o.o ABSOLUTE
    ../../microlib/ctype/ctype.c             0x00000000   Number         0  iscntrl_o.o ABSOLUTE
    ../../microlib/ctype/ctype.c             0x00000000   Number         0  isxdigit_o.o ABSOLUTE
    ../../microlib/ctype/ctype.c             0x00000000   Number         0  isupper_o.o ABSOLUTE
    ../../microlib/ctype/ctype.c             0x00000000   Number         0  isspace_o.o ABSOLUTE
    ../../microlib/ctype/ctype.c             0x00000000   Number         0  isalnum_o.o ABSOLUTE
    ../../microlib/ctype/ctype.c             0x00000000   Number         0  ispunct_o.o ABSOLUTE
    ../../microlib/ctype/ctype.c             0x00000000   Number         0  islower_o.o ABSOLUTE
    ../../microlib/ctype/tolower.c           0x00000000   Number         0  tolower.o ABSOLUTE
    ../../microlib/d2f.c                     0x00000000   Number         0  d2f.o ABSOLUTE
    ../../microlib/division.c                0x00000000   Number         0  ldiv.o ABSOLUTE
    ../../microlib/division.c                0x00000000   Number         0  uidiv.o ABSOLUTE
    ../../microlib/division.c                0x00000000   Number         0  uldiv.o ABSOLUTE
    ../../microlib/errno.c                   0x00000000   Number         0  errno.o ABSOLUTE
    ../../microlib/f2d.c                     0x00000000   Number         0  f2d.o ABSOLUTE
    ../../microlib/fpadd.c                   0x00000000   Number         0  dadd.o ABSOLUTE
    ../../microlib/fpdiv.c                   0x00000000   Number         0  fdiv.o ABSOLUTE
    ../../microlib/fpdiv.c                   0x00000000   Number         0  ddiv.o ABSOLUTE
    ../../microlib/fpepilogue.c              0x00000000   Number         0  depilogue.o ABSOLUTE
    ../../microlib/fpepilogue.c              0x00000000   Number         0  fepilogue.o ABSOLUTE
    ../../microlib/fpfix.c                   0x00000000   Number         0  dfixi.o ABSOLUTE
    ../../microlib/fpfix.c                   0x00000000   Number         0  dfixui.o ABSOLUTE
    ../../microlib/fpfix.c                   0x00000000   Number         0  ffixui.o ABSOLUTE
    ../../microlib/fpfix.c                   0x00000000   Number         0  dfixul.o ABSOLUTE
    ../../microlib/fpfix.c                   0x00000000   Number         0  dfixir.o ABSOLUTE
    ../../microlib/fpflt.c                   0x00000000   Number         0  dfltui.o ABSOLUTE
    ../../microlib/fpflt.c                   0x00000000   Number         0  dflti.o ABSOLUTE
    ../../microlib/fpflt.c                   0x00000000   Number         0  ffltui.o ABSOLUTE
    ../../microlib/fpflt.c                   0x00000000   Number         0  fflti.o ABSOLUTE
    ../../microlib/fpmul.c                   0x00000000   Number         0  fmul.o ABSOLUTE
    ../../microlib/fpmul.c                   0x00000000   Number         0  dmul.o ABSOLUTE
    ../../microlib/fprnd.c                   0x00000000   Number         0  drnd.o ABSOLUTE
    ../../microlib/fpscalb.c                 0x00000000   Number         0  dscalb.o ABSOLUTE
    ../../microlib/fpsqrt.c                  0x00000000   Number         0  dsqrt.o ABSOLUTE
    ../../microlib/init/entry.s              0x00000000   Number         0  entry7b.o ABSOLUTE
    ../../microlib/init/entry.s              0x00000000   Number         0  entry8.o ABSOLUTE
    ../../microlib/init/entry.s              0x00000000   Number         0  entry5.o ABSOLUTE
    ../../microlib/init/entry.s              0x00000000   Number         0  entry2.o ABSOLUTE
    ../../microlib/init/entry.s              0x00000000   Number         0  entry7a.o ABSOLUTE
    ../../microlib/init/entry.s              0x00000000   Number         0  entry.o ABSOLUTE
    ../../microlib/longlong.c                0x00000000   Number         0  llsshr.o ABSOLUTE
    ../../microlib/longlong.c                0x00000000   Number         0  llushr.o ABSOLUTE
    ../../microlib/longlong.c                0x00000000   Number         0  llshl.o ABSOLUTE
    ../../microlib/printf/printf.c           0x00000000   Number         0  printf7.o ABSOLUTE
    ../../microlib/printf/printf.c           0x00000000   Number         0  printf6.o ABSOLUTE
    ../../microlib/printf/printf.c           0x00000000   Number         0  printf8.o ABSOLUTE
    ../../microlib/printf/printf.c           0x00000000   Number         0  printfa.o ABSOLUTE
    ../../microlib/printf/printf.c           0x00000000   Number         0  printf1.o ABSOLUTE
    ../../microlib/printf/printf.c           0x00000000   Number         0  printf0.o ABSOLUTE
    ../../microlib/printf/printf.c           0x00000000   Number         0  printfb.o ABSOLUTE
    ../../microlib/printf/printf.c           0x00000000   Number         0  printf3.o ABSOLUTE
    ../../microlib/printf/printf.c           0x00000000   Number         0  printf4.o ABSOLUTE
    ../../microlib/printf/printf.c           0x00000000   Number         0  printf2.o ABSOLUTE
    ../../microlib/printf/printf.c           0x00000000   Number         0  printf5.o ABSOLUTE
    ../../microlib/printf/stubs.s            0x00000000   Number         0  stubs.o ABSOLUTE
    ../../microlib/stdio/streams.c           0x00000000   Number         0  stdout.o ABSOLUTE
    ../../microlib/stdlib/qsort.c            0x00000000   Number         0  qsort.o ABSOLUTE
    ../../microlib/string/memcpy.c           0x00000000   Number         0  memcpya.o ABSOLUTE
    ../../microlib/string/memcpy.c           0x00000000   Number         0  memcpyb.o ABSOLUTE
    ../../microlib/string/memset.c           0x00000000   Number         0  memseta.o ABSOLUTE
    ../../microlib/string/strcat.c           0x00000000   Number         0  strcat.o ABSOLUTE
    ../../microlib/string/strchr.c           0x00000000   Number         0  strchr.o ABSOLUTE
    ../../microlib/string/strcmp.c           0x00000000   Number         0  strcmp.o ABSOLUTE
    ../../microlib/string/strcpy.c           0x00000000   Number         0  strcpy.o ABSOLUTE
    ../../microlib/string/strlen.c           0x00000000   Number         0  strlen.o ABSOLUTE
    ../../microlib/string/strncasecmp.c      0x00000000   Number         0  strncasecmp.o ABSOLUTE
    ../../microlib/string/strncmp.c          0x00000000   Number         0  strncmp.o ABSOLUTE
    ../../microlib/string/strncpy.c          0x00000000   Number         0  strncpy.o ABSOLUTE
    ../../microlib/string/strrchr.c          0x00000000   Number         0  strrchr.o ABSOLUTE
    ../../microlib/stubs.s                   0x00000000   Number         0  iusefp.o ABSOLUTE
    ../../microlib/time/asctime.c            0x00000000   Number         0  asctime.o ABSOLUTE
    ../../microlib/time/ctime.c              0x00000000   Number         0  ctime.o ABSOLUTE
    ../../microlib/time/localtime.c          0x00000000   Number         0  localtime.o ABSOLUTE
    ../../microlib/time/localtime.c          0x00000000   Number         0  localtime_w.o ABSOLUTE
    ../../microlib/time/localtime.c          0x00000000   Number         0  localtime_i.o ABSOLUTE
    ../../microlib/time/mktime.c             0x00000000   Number         0  mktime.o ABSOLUTE
    ../../poly.c                             0x00000000   Number         0  poly.o ABSOLUTE
    ../../rred.c                             0x00000000   Number         0  rred.o ABSOLUTE
    ../../scanf.c                            0x00000000   Number         0  _strtoul.o ABSOLUTE
    ../../scanf.c                            0x00000000   Number         0  strtol.o ABSOLUTE
    ../../scanf.c                            0x00000000   Number         0  atoi.o ABSOLUTE
    ../../scanf.c                            0x00000000   Number         0  _chval.o ABSOLUTE
    ../../sin.c                              0x00000000   Number         0  sin.o ABSOLUTE
    ../../sin.c                              0x00000000   Number         0  sin_x.o ABSOLUTE
    ../../sin_i.c                            0x00000000   Number         0  sin_i_x.o ABSOLUTE
    ../../sin_i.c                            0x00000000   Number         0  sin_i.o ABSOLUTE
    ../../sqrt.c                             0x00000000   Number         0  sqrt_x.o ABSOLUTE
    ../../sqrt.c                             0x00000000   Number         0  sqrt.o ABSOLUTE
    ..\..\components\dfs\filesystems\elmfat\dfs_elm.c 0x00000000   Number         0  dfs_elm.o ABSOLUTE
    ..\..\components\dfs\filesystems\elmfat\ff.c 0x00000000   Number         0  ff.o ABSOLUTE
    ..\..\components\dfs\filesystems\elmfat\option\cc936.c 0x00000000   Number         0  cc936.o ABSOLUTE
    ..\..\components\dfs\src\dfs.c           0x00000000   Number         0  dfs.o ABSOLUTE
    ..\..\components\dfs\src\dfs_file.c      0x00000000   Number         0  dfs_file.o ABSOLUTE
    ..\..\components\dfs\src\dfs_fs.c        0x00000000   Number         0  dfs_fs.o ABSOLUTE
    ..\..\components\dfs\src\dfs_posix.c     0x00000000   Number         0  dfs_posix.o ABSOLUTE
    ..\..\components\finsh\cmd.c             0x00000000   Number         0  cmd.o ABSOLUTE
    ..\..\components\finsh\finsh_compiler.c  0x00000000   Number         0  finsh_compiler.o ABSOLUTE
    ..\..\components\finsh\finsh_error.c     0x00000000   Number         0  finsh_error.o ABSOLUTE
    ..\..\components\finsh\finsh_heap.c      0x00000000   Number         0  finsh_heap.o ABSOLUTE
    ..\..\components\finsh\finsh_init.c      0x00000000   Number         0  finsh_init.o ABSOLUTE
    ..\..\components\finsh\finsh_node.c      0x00000000   Number         0  finsh_node.o ABSOLUTE
    ..\..\components\finsh\finsh_ops.c       0x00000000   Number         0  finsh_ops.o ABSOLUTE
    ..\..\components\finsh\finsh_parser.c    0x00000000   Number         0  finsh_parser.o ABSOLUTE
    ..\..\components\finsh\finsh_token.c     0x00000000   Number         0  finsh_token.o ABSOLUTE
    ..\..\components\finsh\finsh_var.c       0x00000000   Number         0  finsh_var.o ABSOLUTE
    ..\..\components\finsh\finsh_vm.c        0x00000000   Number         0  finsh_vm.o ABSOLUTE
    ..\..\components\finsh\shell.c           0x00000000   Number         0  shell.o ABSOLUTE
    ..\..\components\finsh\symbol.c          0x00000000   Number         0  symbol.o ABSOLUTE
    ..\..\components\libc\minilibc\rand.c    0x00000000   Number         0  rand.o ABSOLUTE
    ..\..\components\net\lwip\apps\ping.c    0x00000000   Number         0  ping.o ABSOLUTE
    ..\..\components\net\lwip\src\api\api_lib.c 0x00000000   Number         0  api_lib.o ABSOLUTE
    ..\..\components\net\lwip\src\api\api_msg.c 0x00000000   Number         0  api_msg.o ABSOLUTE
    ..\..\components\net\lwip\src\api\err.c  0x00000000   Number         0  err.o ABSOLUTE
    ..\..\components\net\lwip\src\api\netbuf.c 0x00000000   Number         0  netbuf.o ABSOLUTE
    ..\..\components\net\lwip\src\api\netdb.c 0x00000000   Number         0  netdb.o ABSOLUTE
    ..\..\components\net\lwip\src\api\netifapi.c 0x00000000   Number         0  netifapi.o ABSOLUTE
    ..\..\components\net\lwip\src\api\sockets.c 0x00000000   Number         0  sockets.o ABSOLUTE
    ..\..\components\net\lwip\src\api\tcpip.c 0x00000000   Number         0  tcpip.o ABSOLUTE
    ..\..\components\net\lwip\src\arch\sys_arch.c 0x00000000   Number         0  sys_arch.o ABSOLUTE
    ..\..\components\net\lwip\src\core\def.c 0x00000000   Number         0  def.o ABSOLUTE
    ..\..\components\net\lwip\src\core\dhcp.c 0x00000000   Number         0  dhcp.o ABSOLUTE
    ..\..\components\net\lwip\src\core\dns.c 0x00000000   Number         0  dns.o ABSOLUTE
    ..\..\components\net\lwip\src\core\init.c 0x00000000   Number         0  init.o ABSOLUTE
    ..\..\components\net\lwip\src\core\ipv4\autoip.c 0x00000000   Number         0  autoip.o ABSOLUTE
    ..\..\components\net\lwip\src\core\ipv4\icmp.c 0x00000000   Number         0  icmp.o ABSOLUTE
    ..\..\components\net\lwip\src\core\ipv4\igmp.c 0x00000000   Number         0  igmp.o ABSOLUTE
    ..\..\components\net\lwip\src\core\ipv4\inet.c 0x00000000   Number         0  inet.o ABSOLUTE
    ..\..\components\net\lwip\src\core\ipv4\inet_chksum.c 0x00000000   Number         0  inet_chksum.o ABSOLUTE
    ..\..\components\net\lwip\src\core\ipv4\ip.c 0x00000000   Number         0  ip.o ABSOLUTE
    ..\..\components\net\lwip\src\core\ipv4\ip_addr.c 0x00000000   Number         0  ip_addr.o ABSOLUTE
    ..\..\components\net\lwip\src\core\ipv4\ip_frag.c 0x00000000   Number         0  ip_frag.o ABSOLUTE
    ..\..\components\net\lwip\src\core\memp.c 0x00000000   Number         0  memp.o ABSOLUTE
    ..\..\components\net\lwip\src\core\netif.c 0x00000000   Number         0  netif.o ABSOLUTE
    ..\..\components\net\lwip\src\core\pbuf.c 0x00000000   Number         0  pbuf.o ABSOLUTE
    ..\..\components\net\lwip\src\core\raw.c 0x00000000   Number         0  raw.o ABSOLUTE
    ..\..\components\net\lwip\src\core\stats.c 0x00000000   Number         0  stats.o ABSOLUTE
    ..\..\components\net\lwip\src\core\sys.c 0x00000000   Number         0  sys.o ABSOLUTE
    ..\..\components\net\lwip\src\core\tcp.c 0x00000000   Number         0  tcp.o ABSOLUTE
    ..\..\components\net\lwip\src\core\tcp_in.c 0x00000000   Number         0  tcp_in.o ABSOLUTE
    ..\..\components\net\lwip\src\core\tcp_out.c 0x00000000   Number         0  tcp_out.o ABSOLUTE
    ..\..\components\net\lwip\src\core\timers.c 0x00000000   Number         0  timers.o ABSOLUTE
    ..\..\components\net\lwip\src\core\udp.c 0x00000000   Number         0  udp.o ABSOLUTE
    ..\..\components\net\lwip\src\netif\etharp.c 0x00000000   Number         0  etharp.o ABSOLUTE
    ..\..\components\net\lwip\src\netif\ethernetif.c 0x00000000   Number         0  ethernetif.o ABSOLUTE
    ..\..\components\net\lwip\src\netif\slipif.c 0x00000000   Number         0  slipif.o ABSOLUTE
    ..\..\components\rtgui\common\animation.c 0x00000000   Number         0  animation.o ABSOLUTE
    ..\..\components\rtgui\common\animation_engines.c 0x00000000   Number         0  animation_engines.o ABSOLUTE
    ..\..\components\rtgui\common\asc12font.c 0x00000000   Number         0  asc12font.o ABSOLUTE
    ..\..\components\rtgui\common\asc16font.c 0x00000000   Number         0  asc16font.o ABSOLUTE
    ..\..\components\rtgui\common\blit.c     0x00000000   Number         0  blit.o ABSOLUTE
    ..\..\components\rtgui\common\color.c    0x00000000   Number         0  color.o ABSOLUTE
    ..\..\components\rtgui\common\dc.c       0x00000000   Number         0  dc.o ABSOLUTE
    ..\..\components\rtgui\common\dc_blend.c 0x00000000   Number         0  dc_blend.o ABSOLUTE
    ..\..\components\rtgui\common\dc_buffer.c 0x00000000   Number         0  dc_buffer.o ABSOLUTE
    ..\..\components\rtgui\common\dc_client.c 0x00000000   Number         0  dc_client.o ABSOLUTE
    ..\..\components\rtgui\common\dc_hw.c    0x00000000   Number         0  dc_hw.o ABSOLUTE
    ..\..\components\rtgui\common\dc_rotozoom.c 0x00000000   Number         0  dc_rotozoom.o ABSOLUTE
    ..\..\components\rtgui\common\dc_trans.c 0x00000000   Number         0  dc_trans.o ABSOLUTE
    ..\..\components\rtgui\common\filerw.c   0x00000000   Number         0  filerw.o ABSOLUTE
    ..\..\components\rtgui\common\font.c     0x00000000   Number         0  font.o ABSOLUTE
    ..\..\components\rtgui\common\font_bmp.c 0x00000000   Number         0  font_bmp.o ABSOLUTE
    ..\..\components\rtgui\common\font_fnt.c 0x00000000   Number         0  font_fnt.o ABSOLUTE
    ..\..\components\rtgui\common\font_freetype.c 0x00000000   Number         0  font_freetype.o ABSOLUTE
    ..\..\components\rtgui\common\font_hz_file.c 0x00000000   Number         0  font_hz_file.o ABSOLUTE
    ..\..\components\rtgui\common\framebuffer_driver.c 0x00000000   Number         0  framebuffer_driver.o ABSOLUTE
    ..\..\components\rtgui\common\hz12font.c 0x00000000   Number         0  hz12font.o ABSOLUTE
    ..\..\components\rtgui\common\hz16font.c 0x00000000   Number         0  hz16font.o ABSOLUTE
    ..\..\components\rtgui\common\image.c    0x00000000   Number         0  image.o ABSOLUTE
    ..\..\components\rtgui\common\image_bmp.c 0x00000000   Number         0  image_bmp.o ABSOLUTE
    ..\..\components\rtgui\common\image_container.c 0x00000000   Number         0  image_container.o ABSOLUTE
    ..\..\components\rtgui\common\image_hdc.c 0x00000000   Number         0  image_hdc.o ABSOLUTE
    ..\..\components\rtgui\common\image_jpg.c 0x00000000   Number         0  image_jpg.o ABSOLUTE
    ..\..\components\rtgui\common\image_png.c 0x00000000   Number         0  image_png.o ABSOLUTE
    ..\..\components\rtgui\common\image_xpm.c 0x00000000   Number         0  image_xpm.o ABSOLUTE
    ..\..\components\rtgui\common\matrix.c   0x00000000   Number         0  matrix.o ABSOLUTE
    ..\..\components\rtgui\common\pixel_driver.c 0x00000000   Number         0  pixel_driver.o ABSOLUTE
    ..\..\components\rtgui\common\region.c   0x00000000   Number         0  region.o ABSOLUTE
    ..\..\components\rtgui\common\rtgui_app.c 0x00000000   Number         0  rtgui_app.o ABSOLUTE
    ..\..\components\rtgui\common\rtgui_mv_model.c 0x00000000   Number         0  rtgui_mv_model.o ABSOLUTE
    ..\..\components\rtgui\common\rtgui_object.c 0x00000000   Number         0  rtgui_object.o ABSOLUTE
    ..\..\components\rtgui\common\rtgui_system.c 0x00000000   Number         0  rtgui_system.o ABSOLUTE
    ..\..\components\rtgui\common\rtgui_theme.c 0x00000000   Number         0  rtgui_theme.o ABSOLUTE
    ..\..\components\rtgui\common\rtgui_xml.c 0x00000000   Number         0  rtgui_xml.o ABSOLUTE
    ..\..\components\rtgui\dialog\filedialog.c 0x00000000   Number         0  filedialog.o ABSOLUTE
    ..\..\components\rtgui\dialog\messagedialog.c 0x00000000   Number         0  messagedialog.o ABSOLUTE
    ..\..\components\rtgui\server\driver.c   0x00000000   Number         0  driver.o ABSOLUTE
    ..\..\components\rtgui\server\gesture.c  0x00000000   Number         0  gesture.o ABSOLUTE
    ..\..\components\rtgui\server\mouse.c    0x00000000   Number         0  mouse.o ABSOLUTE
    ..\..\components\rtgui\server\server.c   0x00000000   Number         0  server.o ABSOLUTE
    ..\..\components\rtgui\server\topwin.c   0x00000000   Number         0  topwin.o ABSOLUTE
    ..\..\components\rtgui\server\touch.c    0x00000000   Number         0  touch.o ABSOLUTE
    ..\..\components\rtgui\widgets\box.c     0x00000000   Number         0  box.o ABSOLUTE
    ..\..\components\rtgui\widgets\button.c  0x00000000   Number         0  button.o ABSOLUTE
    ..\..\components\rtgui\widgets\caret.c   0x00000000   Number         0  caret.o ABSOLUTE
    ..\..\components\rtgui\widgets\checkbox.c 0x00000000   Number         0  checkbox.o ABSOLUTE
    ..\..\components\rtgui\widgets\combobox.c 0x00000000   Number         0  combobox.o ABSOLUTE
    ..\..\components\rtgui\widgets\container.c 0x00000000   Number         0  container.o ABSOLUTE
    ..\..\components\rtgui\widgets\digfont.c 0x00000000   Number         0  digfont.o ABSOLUTE
    ..\..\components\rtgui\widgets\digtube.c 0x00000000   Number         0  digtube.o ABSOLUTE
    ..\..\components\rtgui\widgets\edit.c    0x00000000   Number         0  edit.o ABSOLUTE
    ..\..\components\rtgui\widgets\filelist_view.c 0x00000000   Number         0  filelist_view.o ABSOLUTE
    ..\..\components\rtgui\widgets\groupbox.c 0x00000000   Number         0  groupbox.o ABSOLUTE
    ..\..\components\rtgui\widgets\iconbox.c 0x00000000   Number         0  iconbox.o ABSOLUTE
    ..\..\components\rtgui\widgets\label.c   0x00000000   Number         0  label.o ABSOLUTE
    ..\..\components\rtgui\widgets\list_view.c 0x00000000   Number         0  list_view.o ABSOLUTE
    ..\..\components\rtgui\widgets\listbox.c 0x00000000   Number         0  listbox.o ABSOLUTE
    ..\..\components\rtgui\widgets\listctrl.c 0x00000000   Number         0  listctrl.o ABSOLUTE
    ..\..\components\rtgui\widgets\menu.c    0x00000000   Number         0  menu.o ABSOLUTE
    ..\..\components\rtgui\widgets\mv_view.c 0x00000000   Number         0  mv_view.o ABSOLUTE
    ..\..\components\rtgui\widgets\notebook.c 0x00000000   Number         0  notebook.o ABSOLUTE
    ..\..\components\rtgui\widgets\panel.c   0x00000000   Number         0  panel.o ABSOLUTE
    ..\..\components\rtgui\widgets\plot.c    0x00000000   Number         0  plot.o ABSOLUTE
    ..\..\components\rtgui\widgets\plot_curve.c 0x00000000   Number         0  plot_curve.o ABSOLUTE
    ..\..\components\rtgui\widgets\progressbar.c 0x00000000   Number         0  progressbar.o ABSOLUTE
    ..\..\components\rtgui\widgets\radiobox.c 0x00000000   Number         0  radiobox.o ABSOLUTE
    ..\..\components\rtgui\widgets\scrollbar.c 0x00000000   Number         0  scrollbar.o ABSOLUTE
    ..\..\components\rtgui\widgets\slider.c  0x00000000   Number         0  slider.o ABSOLUTE
    ..\..\components\rtgui\widgets\staticline.c 0x00000000   Number         0  staticline.o ABSOLUTE
    ..\..\components\rtgui\widgets\text_encoding.c 0x00000000   Number         0  text_encoding.o ABSOLUTE
    ..\..\components\rtgui\widgets\textbox.c 0x00000000   Number         0  textbox.o ABSOLUTE
    ..\..\components\rtgui\widgets\textview.c 0x00000000   Number         0  textview.o ABSOLUTE
    ..\..\components\rtgui\widgets\title.c   0x00000000   Number         0  title.o ABSOLUTE
    ..\..\components\rtgui\widgets\widget.c  0x00000000   Number         0  widget.o ABSOLUTE
    ..\..\components\rtgui\widgets\window.c  0x00000000   Number         0  window.o ABSOLUTE
    ..\..\libcpu\arm\common\backtrace.c      0x00000000   Number         0  backtrace.o ABSOLUTE
    ..\..\libcpu\arm\common\div0.c           0x00000000   Number         0  div0.o ABSOLUTE
    ..\..\libcpu\arm\common\showmem.c        0x00000000   Number         0  showmem.o ABSOLUTE
    ..\..\libcpu\arm\cortex-m3\context_rvds.S 0x00000000   Number         0  context_rvds.o ABSOLUTE
    ..\..\libcpu\arm\cortex-m3\cpuport.c     0x00000000   Number         0  cpuport.o ABSOLUTE
    ..\..\src\clock.c                        0x00000000   Number         0  clock.o ABSOLUTE
    ..\..\src\device.c                       0x00000000   Number         0  device.o ABSOLUTE
    ..\..\src\idle.c                         0x00000000   Number         0  idle.o ABSOLUTE
    ..\..\src\ipc.c                          0x00000000   Number         0  ipc.o ABSOLUTE
    ..\..\src\irq.c                          0x00000000   Number         0  irq.o ABSOLUTE
    ..\..\src\kservice.c                     0x00000000   Number         0  kservice.o ABSOLUTE
    ..\..\src\mem.c                          0x00000000   Number         0  mem.o ABSOLUTE
    ..\..\src\mempool.c                      0x00000000   Number         0  mempool.o ABSOLUTE
    ..\..\src\object.c                       0x00000000   Number         0  object.o ABSOLUTE
    ..\..\src\scheduler.c                    0x00000000   Number         0  scheduler.o ABSOLUTE
    ..\..\src\thread.c                       0x00000000   Number         0  thread.o ABSOLUTE
    ..\..\src\timer.c                        0x00000000   Number         0  timer.o ABSOLUTE
    Drivers\24LCxx.c                         0x00000000   Number         0  24lcxx.o ABSOLUTE
    Drivers\FM25Lx.c                         0x00000000   Number         0  fm25lx.o ABSOLUTE
    Drivers\LCD\AsciiLib.c                   0x00000000   Number         0  asciilib.o ABSOLUTE
    Drivers\LCD\LCD.c                        0x00000000   Number         0  lcd.o ABSOLUTE
    Drivers\TouchPanel\TouchPanel.c          0x00000000   Number         0  touchpanel.o ABSOLUTE
    Drivers\\24LCxx.c                        0x00000000   Number         0  24lcxx.o ABSOLUTE
    Drivers\\FM25Lx.c                        0x00000000   Number         0  fm25lx.o ABSOLUTE
    Drivers\\LCD\\LCD.c                      0x00000000   Number         0  lcd.o ABSOLUTE
    Drivers\\TouchPanel\\TouchPanel.c        0x00000000   Number         0  touchpanel.o ABSOLUTE
    Drivers\\board.c                         0x00000000   Number         0  board.o ABSOLUTE
    Drivers\\i2c.c                           0x00000000   Number         0  i2c.o ABSOLUTE
    Drivers\\rtc.c                           0x00000000   Number         0  rtc.o ABSOLUTE
    Drivers\\sdio_sd.c                       0x00000000   Number         0  sdio_sd.o ABSOLUTE
    Drivers\\serial.c                        0x00000000   Number         0  serial.o ABSOLUTE
    Drivers\\stm32f2_eth.c                   0x00000000   Number         0  stm32f2_eth.o ABSOLUTE
    Drivers\\stm32f2xx_it.c                  0x00000000   Number         0  stm32f2xx_it.o ABSOLUTE
    Drivers\\usart.c                         0x00000000   Number         0  usart.o ABSOLUTE
    Drivers\board.c                          0x00000000   Number         0  board.o ABSOLUTE
    Drivers\i2c.c                            0x00000000   Number         0  i2c.o ABSOLUTE
    Drivers\rtc.c                            0x00000000   Number         0  rtc.o ABSOLUTE
    Drivers\sdio_sd.c                        0x00000000   Number         0  sdio_sd.o ABSOLUTE
    Drivers\serial.c                         0x00000000   Number         0  serial.o ABSOLUTE
    Drivers\stm32f2_eth.c                    0x00000000   Number         0  stm32f2_eth.o ABSOLUTE
    Drivers\stm32f2xx_it.c                   0x00000000   Number         0  stm32f2xx_it.o ABSOLUTE
    Drivers\usart.c                          0x00000000   Number         0  usart.o ABSOLUTE
    Libraries\CMSIS\CM3\DeviceSupport\ST\STM32F2xx\startup\arm\startup_stm32f2xx.s 0x00000000   Number         0  startup_stm32f2xx.o ABSOLUTE
    Libraries\CMSIS\CM3\DeviceSupport\ST\STM32F2xx\system_stm32f2xx.c 0x00000000   Number         0  system_stm32f2xx.o ABSOLUTE
    Libraries\STM32F2x7_ETH_Driver\src\stm32f2x7_eth.c 0x00000000   Number         0  stm32f2x7_eth.o ABSOLUTE
    Libraries\STM32F2xx_StdPeriph_Driver\src\misc.c 0x00000000   Number         0  misc.o ABSOLUTE
    Libraries\STM32F2xx_StdPeriph_Driver\src\stm32f2xx_adc.c 0x00000000   Number         0  stm32f2xx_adc.o ABSOLUTE
    Libraries\STM32F2xx_StdPeriph_Driver\src\stm32f2xx_can.c 0x00000000   Number         0  stm32f2xx_can.o ABSOLUTE
    Libraries\STM32F2xx_StdPeriph_Driver\src\stm32f2xx_crc.c 0x00000000   Number         0  stm32f2xx_crc.o ABSOLUTE
    Libraries\STM32F2xx_StdPeriph_Driver\src\stm32f2xx_cryp.c 0x00000000   Number         0  stm32f2xx_cryp.o ABSOLUTE
    Libraries\STM32F2xx_StdPeriph_Driver\src\stm32f2xx_cryp_aes.c 0x00000000   Number         0  stm32f2xx_cryp_aes.o ABSOLUTE
    Libraries\STM32F2xx_StdPeriph_Driver\src\stm32f2xx_cryp_des.c 0x00000000   Number         0  stm32f2xx_cryp_des.o ABSOLUTE
    Libraries\STM32F2xx_StdPeriph_Driver\src\stm32f2xx_cryp_tdes.c 0x00000000   Number         0  stm32f2xx_cryp_tdes.o ABSOLUTE
    Libraries\STM32F2xx_StdPeriph_Driver\src\stm32f2xx_dac.c 0x00000000   Number         0  stm32f2xx_dac.o ABSOLUTE
    Libraries\STM32F2xx_StdPeriph_Driver\src\stm32f2xx_dbgmcu.c 0x00000000   Number         0  stm32f2xx_dbgmcu.o ABSOLUTE
    Libraries\STM32F2xx_StdPeriph_Driver\src\stm32f2xx_dcmi.c 0x00000000   Number         0  stm32f2xx_dcmi.o ABSOLUTE
    Libraries\STM32F2xx_StdPeriph_Driver\src\stm32f2xx_dma.c 0x00000000   Number         0  stm32f2xx_dma.o ABSOLUTE
    Libraries\STM32F2xx_StdPeriph_Driver\src\stm32f2xx_exti.c 0x00000000   Number         0  stm32f2xx_exti.o ABSOLUTE
    Libraries\STM32F2xx_StdPeriph_Driver\src\stm32f2xx_flash.c 0x00000000   Number         0  stm32f2xx_flash.o ABSOLUTE
    Libraries\STM32F2xx_StdPeriph_Driver\src\stm32f2xx_fsmc.c 0x00000000   Number         0  stm32f2xx_fsmc.o ABSOLUTE
    Libraries\STM32F2xx_StdPeriph_Driver\src\stm32f2xx_gpio.c 0x00000000   Number         0  stm32f2xx_gpio.o ABSOLUTE
    Libraries\STM32F2xx_StdPeriph_Driver\src\stm32f2xx_hash.c 0x00000000   Number         0  stm32f2xx_hash.o ABSOLUTE
    Libraries\STM32F2xx_StdPeriph_Driver\src\stm32f2xx_hash_md5.c 0x00000000   Number         0  stm32f2xx_hash_md5.o ABSOLUTE
    Libraries\STM32F2xx_StdPeriph_Driver\src\stm32f2xx_hash_sha1.c 0x00000000   Number         0  stm32f2xx_hash_sha1.o ABSOLUTE
    Libraries\STM32F2xx_StdPeriph_Driver\src\stm32f2xx_i2c.c 0x00000000   Number         0  stm32f2xx_i2c.o ABSOLUTE
    Libraries\STM32F2xx_StdPeriph_Driver\src\stm32f2xx_iwdg.c 0x00000000   Number         0  stm32f2xx_iwdg.o ABSOLUTE
    Libraries\STM32F2xx_StdPeriph_Driver\src\stm32f2xx_pwr.c 0x00000000   Number         0  stm32f2xx_pwr.o ABSOLUTE
    Libraries\STM32F2xx_StdPeriph_Driver\src\stm32f2xx_rcc.c 0x00000000   Number         0  stm32f2xx_rcc.o ABSOLUTE
    Libraries\STM32F2xx_StdPeriph_Driver\src\stm32f2xx_rng.c 0x00000000   Number         0  stm32f2xx_rng.o ABSOLUTE
    Libraries\STM32F2xx_StdPeriph_Driver\src\stm32f2xx_rtc.c 0x00000000   Number         0  stm32f2xx_rtc.o ABSOLUTE
    Libraries\STM32F2xx_StdPeriph_Driver\src\stm32f2xx_sdio.c 0x00000000   Number         0  stm32f2xx_sdio.o ABSOLUTE
    Libraries\STM32F2xx_StdPeriph_Driver\src\stm32f2xx_spi.c 0x00000000   Number         0  stm32f2xx_spi.o ABSOLUTE
    Libraries\STM32F2xx_StdPeriph_Driver\src\stm32f2xx_syscfg.c 0x00000000   Number         0  stm32f2xx_syscfg.o ABSOLUTE
    Libraries\STM32F2xx_StdPeriph_Driver\src\stm32f2xx_tim.c 0x00000000   Number         0  stm32f2xx_tim.o ABSOLUTE
    Libraries\STM32F2xx_StdPeriph_Driver\src\stm32f2xx_usart.c 0x00000000   Number         0  stm32f2xx_usart.o ABSOLUTE
    Libraries\STM32F2xx_StdPeriph_Driver\src\stm32f2xx_wwdg.c 0x00000000   Number         0  stm32f2xx_wwdg.o ABSOLUTE
    Libraries\\CMSIS\\CM3\\DeviceSupport\\ST\\STM32F2xx\\system_stm32f2xx.c 0x00000000   Number         0  system_stm32f2xx.o ABSOLUTE
    Libraries\\STM32F2x7_ETH_Driver\\src\\stm32f2x7_eth.c 0x00000000   Number         0  stm32f2x7_eth.o ABSOLUTE
    Libraries\\STM32F2xx_StdPeriph_Driver\\src\\misc.c 0x00000000   Number         0  misc.o ABSOLUTE
    Libraries\\STM32F2xx_StdPeriph_Driver\\src\\stm32f2xx_adc.c 0x00000000   Number         0  stm32f2xx_adc.o ABSOLUTE
    Libraries\\STM32F2xx_StdPeriph_Driver\\src\\stm32f2xx_can.c 0x00000000   Number         0  stm32f2xx_can.o ABSOLUTE
    Libraries\\STM32F2xx_StdPeriph_Driver\\src\\stm32f2xx_crc.c 0x00000000   Number         0  stm32f2xx_crc.o ABSOLUTE
    Libraries\\STM32F2xx_StdPeriph_Driver\\src\\stm32f2xx_cryp.c 0x00000000   Number         0  stm32f2xx_cryp.o ABSOLUTE
    Libraries\\STM32F2xx_StdPeriph_Driver\\src\\stm32f2xx_cryp_aes.c 0x00000000   Number         0  stm32f2xx_cryp_aes.o ABSOLUTE
    Libraries\\STM32F2xx_StdPeriph_Driver\\src\\stm32f2xx_cryp_des.c 0x00000000   Number         0  stm32f2xx_cryp_des.o ABSOLUTE
    Libraries\\STM32F2xx_StdPeriph_Driver\\src\\stm32f2xx_cryp_tdes.c 0x00000000   Number         0  stm32f2xx_cryp_tdes.o ABSOLUTE
    Libraries\\STM32F2xx_StdPeriph_Driver\\src\\stm32f2xx_dac.c 0x00000000   Number         0  stm32f2xx_dac.o ABSOLUTE
    Libraries\\STM32F2xx_StdPeriph_Driver\\src\\stm32f2xx_dbgmcu.c 0x00000000   Number         0  stm32f2xx_dbgmcu.o ABSOLUTE
    Libraries\\STM32F2xx_StdPeriph_Driver\\src\\stm32f2xx_dcmi.c 0x00000000   Number         0  stm32f2xx_dcmi.o ABSOLUTE
    Libraries\\STM32F2xx_StdPeriph_Driver\\src\\stm32f2xx_dma.c 0x00000000   Number         0  stm32f2xx_dma.o ABSOLUTE
    Libraries\\STM32F2xx_StdPeriph_Driver\\src\\stm32f2xx_exti.c 0x00000000   Number         0  stm32f2xx_exti.o ABSOLUTE
    Libraries\\STM32F2xx_StdPeriph_Driver\\src\\stm32f2xx_flash.c 0x00000000   Number         0  stm32f2xx_flash.o ABSOLUTE
    Libraries\\STM32F2xx_StdPeriph_Driver\\src\\stm32f2xx_fsmc.c 0x00000000   Number         0  stm32f2xx_fsmc.o ABSOLUTE
    Libraries\\STM32F2xx_StdPeriph_Driver\\src\\stm32f2xx_gpio.c 0x00000000   Number         0  stm32f2xx_gpio.o ABSOLUTE
    Libraries\\STM32F2xx_StdPeriph_Driver\\src\\stm32f2xx_hash.c 0x00000000   Number         0  stm32f2xx_hash.o ABSOLUTE
    Libraries\\STM32F2xx_StdPeriph_Driver\\src\\stm32f2xx_hash_md5.c 0x00000000   Number         0  stm32f2xx_hash_md5.o ABSOLUTE
    Libraries\\STM32F2xx_StdPeriph_Driver\\src\\stm32f2xx_hash_sha1.c 0x00000000   Number         0  stm32f2xx_hash_sha1.o ABSOLUTE
    Libraries\\STM32F2xx_StdPeriph_Driver\\src\\stm32f2xx_i2c.c 0x00000000   Number         0  stm32f2xx_i2c.o ABSOLUTE
    Libraries\\STM32F2xx_StdPeriph_Driver\\src\\stm32f2xx_iwdg.c 0x00000000   Number         0  stm32f2xx_iwdg.o ABSOLUTE
    Libraries\\STM32F2xx_StdPeriph_Driver\\src\\stm32f2xx_pwr.c 0x00000000   Number         0  stm32f2xx_pwr.o ABSOLUTE
    Libraries\\STM32F2xx_StdPeriph_Driver\\src\\stm32f2xx_rcc.c 0x00000000   Number         0  stm32f2xx_rcc.o ABSOLUTE
    Libraries\\STM32F2xx_StdPeriph_Driver\\src\\stm32f2xx_rng.c 0x00000000   Number         0  stm32f2xx_rng.o ABSOLUTE
    Libraries\\STM32F2xx_StdPeriph_Driver\\src\\stm32f2xx_rtc.c 0x00000000   Number         0  stm32f2xx_rtc.o ABSOLUTE
    Libraries\\STM32F2xx_StdPeriph_Driver\\src\\stm32f2xx_sdio.c 0x00000000   Number         0  stm32f2xx_sdio.o ABSOLUTE
    Libraries\\STM32F2xx_StdPeriph_Driver\\src\\stm32f2xx_spi.c 0x00000000   Number         0  stm32f2xx_spi.o ABSOLUTE
    Libraries\\STM32F2xx_StdPeriph_Driver\\src\\stm32f2xx_syscfg.c 0x00000000   Number         0  stm32f2xx_syscfg.o ABSOLUTE
    Libraries\\STM32F2xx_StdPeriph_Driver\\src\\stm32f2xx_tim.c 0x00000000   Number         0  stm32f2xx_tim.o ABSOLUTE
    Libraries\\STM32F2xx_StdPeriph_Driver\\src\\stm32f2xx_usart.c 0x00000000   Number         0  stm32f2xx_usart.o ABSOLUTE
    Libraries\\STM32F2xx_StdPeriph_Driver\\src\\stm32f2xx_wwdg.c 0x00000000   Number         0  stm32f2xx_wwdg.o ABSOLUTE
    applications\\adc_dma.c                  0x00000000   Number         0  adc_dma.o ABSOLUTE
    applications\\application.c              0x00000000   Number         0  application.o ABSOLUTE
    applications\\lcd_show.c                 0x00000000   Number         0  lcd_show.o ABSOLUTE
    applications\\sensor_conf.c              0x00000000   Number         0  sensor_conf.o ABSOLUTE
    applications\\startup.c                  0x00000000   Number         0  startup.o ABSOLUTE
    applications\\temp_conf.c                0x00000000   Number         0  temp_conf.o ABSOLUTE
    applications\\tim_conf.c                 0x00000000   Number         0  tim_conf.o ABSOLUTE
    applications\adc_dma.c                   0x00000000   Number         0  adc_dma.o ABSOLUTE
    applications\application.c               0x00000000   Number         0  application.o ABSOLUTE
    applications\lcd_show.c                  0x00000000   Number         0  lcd_show.o ABSOLUTE
    applications\sensor_conf.c               0x00000000   Number         0  sensor_conf.o ABSOLUTE
    applications\startup.c                   0x00000000   Number         0  startup.o ABSOLUTE
    applications\temp_conf.c                 0x00000000   Number         0  temp_conf.o ABSOLUTE
    applications\tim_conf.c                  0x00000000   Number         0  tim_conf.o ABSOLUTE
    cdcmple.s                                0x00000000   Number         0  cdcmple.o ABSOLUTE
    cdrcmple.s                               0x00000000   Number         0  cdrcmple.o ABSOLUTE
    cfrcmple.s                               0x00000000   Number         0  cfrcmple.o ABSOLUTE
    dc.s                                     0x00000000   Number         0  dc.o ABSOLUTE
    handlers.s                               0x00000000   Number         0  handlers.o ABSOLUTE
    init.s                                   0x00000000   Number         0  init.o ABSOLUTE
    RESET                                    0x08000000   Section      388  startup_stm32f2xx.o(RESET)
    .ARM.Collect$$$$00000000                 0x08000184   Section        0  entry.o(.ARM.Collect$$$$00000000)
    .ARM.Collect$$$$00000001                 0x08000184   Section        4  entry2.o(.ARM.Collect$$$$00000001)
    .ARM.Collect$$$$00000004                 0x08000188   Section        4  entry5.o(.ARM.Collect$$$$00000004)
    .ARM.Collect$$$$00000008                 0x0800018c   Section        0  entry7b.o(.ARM.Collect$$$$00000008)
    .ARM.Collect$$$$00000009                 0x0800018c   Section        8  entry8.o(.ARM.Collect$$$$00000009)
    .ARM.Collect$$$$00002712                 0x08000194   Section        4  entry2.o(.ARM.Collect$$$$00002712)
    __lit__00000000                          0x08000194   Data           4  entry2.o(.ARM.Collect$$$$00002712)
    .text                                    0x08000198   Section        0  application.o(.text)
    .text                                    0x08000434   Section        0  startup.o(.text)
    .text                                    0x080004a4   Section        0  tim_conf.o(.text)
    .text                                    0x080005b0   Section        0  sensor_conf.o(.text)
    .text                                    0x080007f4   Section        0  temp_conf.o(.text)
    Delay                                    0x08000845   Thumb Code    12  temp_conf.o(.text)
    .text                                    0x08000868   Section        0  lcd_show.o(.text)
    heat_switch                              0x08000a87   Thumb Code   120  lcd_show.o(.text)
    fan_switch                               0x08000aff   Thumb Code   120  lcd_show.o(.text)
    win_thread_entry                         0x08000b77   Thumb Code  1386  lcd_show.o(.text)
    .text                                    0x080011ac   Section        0  adc_dma.o(.text)
    .text                                    0x0800146c   Section        0  24lcxx.o(.text)
    ee24LCxx_init                            0x08001537   Thumb Code     6  24lcxx.o(.text)
    ee24LCxx_read                            0x0800153d   Thumb Code    38  24lcxx.o(.text)
    ee24LCxx_write                           0x08001563   Thumb Code    38  24lcxx.o(.text)
    ee24LCxx_open                            0x08001589   Thumb Code     6  24lcxx.o(.text)
    ee24LCxx_close                           0x0800158f   Thumb Code     6  24lcxx.o(.text)
    ee24LCxx_control                         0x08001595   Thumb Code     6  24lcxx.o(.text)
    .text                                    0x08001704   Section        0  fm25lx.o(.text)
    spi_readwrite                            0x080017ed   Thumb Code   100  fm25lx.o(.text)
    fm25_read_status                         0x08001851   Thumb Code    40  fm25lx.o(.text)
    fm25_init                                0x0800199b   Thumb Code     6  fm25lx.o(.text)
    fm25_open                                0x080019a1   Thumb Code    54  fm25lx.o(.text)
    fm25_close                               0x080019d7   Thumb Code    42  fm25lx.o(.text)
    fm25_control                             0x08001a01   Thumb Code    66  fm25lx.o(.text)
    .text                                    0x08001c18   Section        0  board.o(.text)
    .text                                    0x08001f14   Section        0  i2c.o(.text)
    .text                                    0x080027f0   Section        0  rtc.o(.text)
    rt_mktime                                0x080027f1   Thumb Code   100  rtc.o(.text)
    rt_rtc_open                              0x08002855   Thumb Code     6  rtc.o(.text)
    rt_rtc_read                              0x0800285b   Thumb Code     8  rtc.o(.text)
    rt_rtc_control                           0x08002863   Thumb Code   216  rtc.o(.text)
    .text                                    0x08002bec   Section        0  serial.o(.text)
    rt_serial_init                           0x08002bed   Thumb Code   130  serial.o(.text)
    rt_serial_open                           0x08002c6f   Thumb Code     6  serial.o(.text)
    rt_serial_close                          0x08002c75   Thumb Code     6  serial.o(.text)
    rt_serial_read                           0x08002c7b   Thumb Code   156  serial.o(.text)
    rt_serial_enable_dma                     0x08002d17   Thumb Code    58  serial.o(.text)
    rt_serial_write                          0x08002d51   Thumb Code   268  serial.o(.text)
    rt_serial_control                        0x08002e5d   Thumb Code    90  serial.o(.text)
    .text                                    0x080031fc   Section        0  stm32f2xx_it.o(.text)
    .text                                    0x08003234   Section        0  usart.o(.text)
    RCC_Configuration                        0x08003235   Thumb Code    36  usart.o(.text)
    GPIO_Configuration                       0x08003259   Thumb Code   114  usart.o(.text)
    NVIC_Configuration                       0x080032cb   Thumb Code    60  usart.o(.text)
    .text                                    0x08003418   Section        0  sdio_sd.o(.text)
    CmdResp1Error                            0x08003421   Thumb Code    38  sdio_sd.o(.text)
    FindSCR                                  0x08003447   Thumb Code   384  sdio_sd.o(.text)
    SDEnWideBus                              0x080035c7   Thumb Code   270  sdio_sd.o(.text)
    CmdResp2Error                            0x08003aab   Thumb Code    68  sdio_sd.o(.text)
    CmdResp6Error                            0x08003aef   Thumb Code   150  sdio_sd.o(.text)
    CmdResp3Error                            0x08003cc1   Thumb Code    50  sdio_sd.o(.text)
    CmdResp7Error                            0x08003cf3   Thumb Code    72  sdio_sd.o(.text)
    CmdError                                 0x08003d3b   Thumb Code    44  sdio_sd.o(.text)
    IsCardProgramming                        0x08004589   Thumb Code   342  sdio_sd.o(.text)
    rt_sdcard_init                           0x0800485b   Thumb Code   126  sdio_sd.o(.text)
    rt_sdcard_open                           0x080048d9   Thumb Code     6  sdio_sd.o(.text)
    rt_sdcard_close                          0x080048df   Thumb Code     6  sdio_sd.o(.text)
    rt_sdcard_read                           0x080048e5   Thumb Code   254  sdio_sd.o(.text)
    rt_sdcard_write                          0x080049e3   Thumb Code   220  sdio_sd.o(.text)
    rt_sdcard_control                        0x08004abf   Thumb Code   104  sdio_sd.o(.text)
    .text                                    0x08004cec   Section        0  asciilib.o(.text)
    .text                                    0x08004d0c   Section        0  lcd.o(.text)
    LCD_CtrlLinesConfig                      0x08004d0d   Thumb Code   362  lcd.o(.text)
    LCD_FSMCConfig                           0x08004e77   Thumb Code    92  lcd.o(.text)
    LCD_Configuration                        0x08004ed3   Thumb Code    24  lcd.o(.text)
    delay_ms                                 0x08004eeb   Thumb Code    30  lcd.o(.text)
    LCD_SetCursor                            0x08006677   Thumb Code   122  lcd.o(.text)
    LCD_BGR2RGB                              0x0800676b   Thumb Code    26  lcd.o(.text)
    LCD_SetPoint                             0x08006815   Thumb Code    40  lcd.o(.text)
    mylcd_setpixel                           0x080069eb   Thumb Code    20  lcd.o(.text)
    mylcd_getpixel                           0x080069ff   Thumb Code    20  lcd.o(.text)
    mylcd_drawhline                          0x08006a13   Thumb Code    28  lcd.o(.text)
    mylcd_drawvline                          0x08006a2f   Thumb Code    28  lcd.o(.text)
    mylcd_blitline                           0x08006a4b   Thumb Code    44  lcd.o(.text)
    lcd_init                                 0x08006a77   Thumb Code     6  lcd.o(.text)
    lcd_open                                 0x08006a7d   Thumb Code     6  lcd.o(.text)
    lcd_close                                0x08006a83   Thumb Code     6  lcd.o(.text)
    lcd_control                              0x08006a89   Thumb Code    80  lcd.o(.text)
    .text                                    0x08006b64   Section        0  touchpanel.o(.text)
    delay_ms                                 0x08006b65   Thumb Code    30  touchpanel.o(.text)
    ADS7843_SPI_Init                         0x08006b83   Thumb Code    92  touchpanel.o(.text)
    DelayUS                                  0x08006cb3   Thumb Code    30  touchpanel.o(.text)
    WR_CMD                                   0x08006cd1   Thumb Code    48  touchpanel.o(.text)
    RD_AD                                    0x08006d01   Thumb Code   112  touchpanel.o(.text)
    .text                                    0x080073ec   Section        0  system_stm32f2xx.o(.text)
    SetSysClock                              0x080073ed   Thumb Code   170  system_stm32f2xx.o(.text)
    .text                                    0x080075b8   Section        0  misc.o(.text)
    .text                                    0x0800769c   Section        0  stm32f2xx_adc.o(.text)
    .text                                    0x08007afc   Section        0  stm32f2xx_dma.o(.text)
    .text                                    0x08007ea0   Section        0  stm32f2xx_exti.o(.text)
    .text                                    0x08007fbc   Section        0  stm32f2xx_fsmc.o(.text)
    .text                                    0x080085d8   Section        0  stm32f2xx_gpio.o(.text)
    .text                                    0x08008824   Section        0  stm32f2xx_i2c.o(.text)
    .text                                    0x08008c38   Section        0  stm32f2xx_pwr.o(.text)
    .text                                    0x08008d14   Section        0  stm32f2xx_rcc.o(.text)
    .text                                    0x08009298   Section        0  stm32f2xx_rtc.o(.text)
    RTC_ByteToBcd2                           0x080094c7   Thumb Code    28  stm32f2xx_rtc.o(.text)
    RTC_Bcd2ToByte                           0x080094e3   Thumb Code    22  stm32f2xx_rtc.o(.text)
    .text                                    0x08009d60   Section        0  stm32f2xx_sdio.o(.text)
    .text                                    0x08009f4c   Section        0  stm32f2xx_spi.o(.text)
    .text                                    0x0800a2f4   Section        0  stm32f2xx_syscfg.o(.text)
    .text                                    0x0800a380   Section        0  stm32f2xx_tim.o(.text)
    TI4_Config                               0x0800aad7   Thumb Code    68  stm32f2xx_tim.o(.text)
    TI3_Config                               0x0800ab2d   Thumb Code    64  stm32f2xx_tim.o(.text)
    TI2_Config                               0x0800ab83   Thumb Code    68  stm32f2xx_tim.o(.text)
    TI1_Config                               0x0800abd9   Thumb Code    68  stm32f2xx_tim.o(.text)
    .text                                    0x0800afbc   Section        0  stm32f2xx_usart.o(.text)
    .text                                    0x0800b3dc   Section       36  startup_stm32f2xx.o(.text)
    .text                                    0x0800b400   Section        0  stm32f2_eth.o(.text)
    rt_stm32_eth_init                        0x0800b443   Thumb Code   172  stm32f2_eth.o(.text)
    rt_stm32_eth_open                        0x0800b4ef   Thumb Code     6  stm32f2_eth.o(.text)
    rt_stm32_eth_close                       0x0800b4f5   Thumb Code     6  stm32f2_eth.o(.text)
    rt_stm32_eth_read                        0x0800b4fb   Thumb Code    26  stm32f2_eth.o(.text)
    rt_stm32_eth_write                       0x0800b515   Thumb Code    26  stm32f2_eth.o(.text)
    rt_stm32_eth_control                     0x0800b52f   Thumb Code    44  stm32f2_eth.o(.text)
    NVIC_Configuration                       0x0800b695   Thumb Code    42  stm32f2_eth.o(.text)
    GPIO_Configuration                       0x0800b6bf   Thumb Code   202  stm32f2_eth.o(.text)
    ETH_MACDMA_Config                        0x0800b789   Thumb Code   268  stm32f2_eth.o(.text)
    .text                                    0x0800ba7c   Section        0  stm32f2x7_eth.o(.text)
    ETH_Delay                                0x0800ba7d   Thumb Code    14  stm32f2x7_eth.o(.text)
    .text                                    0x0800c8f0   Section        0  clock.o(.text)
    .text                                    0x0800c954   Section        0  device.o(.text)
    .text                                    0x0800cd68   Section        0  idle.o(.text)
    rt_thread_idle_entry                     0x0800ce1d   Thumb Code    20  idle.o(.text)
    rt_list_isempty                          0x0800ce57   Thumb Code    16  idle.o(.text)
    .text                                    0x0800ced0   Section        0  ipc.o(.text)
    rt_list_insert_before                    0x0800ced1   Thumb Code    14  ipc.o(.text)
    rt_ipc_list_suspend                      0x0800cedf   Thumb Code   108  ipc.o(.text)
    rt_ipc_list_resume_all                   0x0800cf4b   Thumb Code    50  ipc.o(.text)
    rt_list_init                             0x0800e88b   Thumb Code     6  ipc.o(.text)
    rt_list_isempty                          0x0800e891   Thumb Code    16  ipc.o(.text)
    rt_ipc_object_init                       0x0800e8a1   Thumb Code    16  ipc.o(.text)
    rt_ipc_list_resume                       0x0800e8b1   Thumb Code    24  ipc.o(.text)
    .text                                    0x0800e8e0   Section        0  irq.o(.text)
    .text                                    0x0800e928   Section        0  kservice.o(.text)
    print_number                             0x0800ebd1   Thumb Code   370  kservice.o(.text)
    skip_atoi                                0x0800ed43   Thumb Code    38  kservice.o(.text)
    .text                                    0x0800f2d4   Section        0  mem.o(.text)
    plug_holes                               0x0800f2e1   Thumb Code   200  mem.o(.text)
    .text                                    0x0800fc50   Section        0  mempool.o(.text)
    rt_list_init                             0x0800fff3   Thumb Code     6  mempool.o(.text)
    rt_list_isempty                          0x0800fff9   Thumb Code    16  mempool.o(.text)
    .text                                    0x0801007c   Section        0  object.o(.text)
    rt_list_insert_after                     0x0801007d   Thumb Code    14  object.o(.text)
    rt_list_remove                           0x0801008b   Thumb Code    18  object.o(.text)
    .text                                    0x080103ac   Section        0  scheduler.o(.text)
    _rt_scheduler_stack_check                0x080103b3   Thumb Code    94  scheduler.o(.text)
    rt_list_init                             0x08010615   Thumb Code     6  scheduler.o(.text)
    .text                                    0x080106d0   Section        0  thread.o(.text)
    rt_list_insert_after                     0x080106d1   Thumb Code    14  thread.o(.text)
    rt_list_remove                           0x080106df   Thumb Code    18  thread.o(.text)
    rt_thread_exit                           0x080106f1   Thumb Code    76  thread.o(.text)
    _rt_thread_init                          0x08010797   Thumb Code   160  thread.o(.text)
    .text                                    0x08010d40   Section        0  timer.o(.text)
    rt_list_insert_after                     0x08010d41   Thumb Code    14  timer.o(.text)
    _rt_timer_init                           0x08010d55   Thumb Code    66  timer.o(.text)
    rt_timer_list_next_timeout               0x08010d97   Thumb Code    28  timer.o(.text)
    _rt_timer_remove                         0x08010db3   Thumb Code    46  timer.o(.text)
    rt_timer_count_height                    0x08010de1   Thumb Code    36  timer.o(.text)
    rt_list_init                             0x0801125f   Thumb Code     6  timer.o(.text)
    rt_list_isempty                          0x08011265   Thumb Code    16  timer.o(.text)
    .text                                    0x0801127c   Section        0  cpuport.o(.text)
    usage_fault_track                        0x080112c9   Thumb Code   122  cpuport.o(.text)
    bus_fault_track                          0x08011343   Thumb Code   144  cpuport.o(.text)
    mem_manage_fault_track                   0x080113d3   Thumb Code   126  cpuport.o(.text)
    hard_fault_track                         0x08011451   Thumb Code    86  cpuport.o(.text)
    .text                                    0x08011878   Section      236  context_rvds.o(.text)
    .text                                    0x08011964   Section        0  cmd.o(.text)
    rt_list_len                              0x08011965   Thumb Code    20  cmd.o(.text)
    _list_thread                             0x0801198f   Thumb Code   174  cmd.o(.text)
    show_wait_queue                          0x08011a47   Thumb Code    40  cmd.o(.text)
    _list_sem                                0x08011a6f   Thumb Code   108  cmd.o(.text)
    _list_event                              0x08011ae7   Thumb Code    96  cmd.o(.text)
    _list_mutex                              0x08011b53   Thumb Code    66  cmd.o(.text)
    _list_mailbox                            0x08011ba1   Thumb Code   120  cmd.o(.text)
    _list_msgqueue                           0x08011c25   Thumb Code   108  cmd.o(.text)
    _list_mempool                            0x08011c9d   Thumb Code   102  cmd.o(.text)
    _list_timer                              0x08011d0f   Thumb Code  1074  cmd.o(.text)
    _list_device                             0x0801214b   Thumb Code    78  cmd.o(.text)
    str_is_prefix                            0x08012223   Thumb Code    34  cmd.o(.text)
    str_common                               0x08012245   Thumb Code    32  cmd.o(.text)
    rt_list_isempty                          0x08012417   Thumb Code    16  cmd.o(.text)
    .text                                    0x080124f4   Section        0  finsh_compiler.o(.text)
    finsh_compile                            0x080124f5   Thumb Code  5712  finsh_compiler.o(.text)
    finsh_type_check                         0x08013b45   Thumb Code   350  finsh_compiler.o(.text)
    .text                                    0x08013d0c   Section        0  finsh_error.o(.text)
    .text                                    0x08013d38   Section        0  finsh_heap.o(.text)
    finsh_block_insert                       0x08013d5d   Thumb Code    62  finsh_heap.o(.text)
    finsh_block_remove                       0x08013d9b   Thumb Code    46  finsh_heap.o(.text)
    finsh_block_split                        0x08013dc9   Thumb Code    24  finsh_heap.o(.text)
    finsh_block_merge                        0x08013de1   Thumb Code   124  finsh_heap.o(.text)
    finsh_heap_gc                            0x08013e7f   Thumb Code    78  finsh_heap.o(.text)
    .text                                    0x08013f48   Section        0  finsh_init.o(.text)
    .text                                    0x08013fa0   Section        0  finsh_node.o(.text)
    .text                                    0x08014124   Section        0  finsh_ops.o(.text)
    .text                                    0x08014bfc   Section        0  finsh_parser.o(.text)
    make_sys_node                            0x08014bfd   Thumb Code    40  finsh_parser.o(.text)
    proc_param_list                          0x08014c25   Thumb Code    76  finsh_parser.o(.text)
    proc_expr                                0x08014c71   Thumb Code    12  finsh_parser.o(.text)
    proc_identifier                          0x08014c7d   Thumb Code    44  finsh_parser.o(.text)
    proc_primary_expr                        0x08014ca9   Thumb Code   158  finsh_parser.o(.text)
    proc_postfix_expr                        0x08014d47   Thumb Code   162  finsh_parser.o(.text)
    proc_unary_expr                          0x08014de9   Thumb Code   190  finsh_parser.o(.text)
    proc_type                                0x08014ea7   Thumb Code   250  finsh_parser.o(.text)
    proc_cast_expr                           0x08014fa1   Thumb Code    78  finsh_parser.o(.text)
    proc_multiplicative_expr                 0x08014fef   Thumb Code   138  finsh_parser.o(.text)
    proc_additive_expr                       0x08015079   Thumb Code   114  finsh_parser.o(.text)
    proc_shift_expr                          0x080150eb   Thumb Code   116  finsh_parser.o(.text)
    proc_and_expr                            0x0801515f   Thumb Code    76  finsh_parser.o(.text)
    proc_exclusive_or_expr                   0x080151ab   Thumb Code    76  finsh_parser.o(.text)
    proc_inclusive_or_expr                   0x080151f7   Thumb Code    76  finsh_parser.o(.text)
    proc_assign_expr                         0x08015243   Thumb Code    56  finsh_parser.o(.text)
    proc_variable_decl                       0x0801527b   Thumb Code   474  finsh_parser.o(.text)
    proc_expr_statement                      0x08015455   Thumb Code    56  finsh_parser.o(.text)
    .text                                    0x08015578   Section        0  finsh_token.o(.text)
    token_prev_char                          0x0801558d   Thumb Code    22  finsh_token.o(.text)
    token_next_char                          0x080155a3   Thumb Code    62  finsh_token.o(.text)
    token_spec_number                        0x080155e1   Thumb Code   152  finsh_token.o(.text)
    token_proc_number                        0x08015679   Thumb Code   260  finsh_token.o(.text)
    token_proc_escape                        0x0801577d   Thumb Code   174  finsh_token.o(.text)
    token_proc_string                        0x0801582b   Thumb Code    80  finsh_token.o(.text)
    token_proc_char                          0x0801587b   Thumb Code   162  finsh_token.o(.text)
    token_match_name                         0x0801591d   Thumb Code    48  finsh_token.o(.text)
    token_trim_space                         0x080159c5   Thumb Code    34  finsh_token.o(.text)
    token_run                                0x080159e7   Thumb Code   414  finsh_token.o(.text)
    .text                                    0x08015bb4   Section        0  finsh_var.o(.text)
    .text                                    0x08015d4c   Section        0  finsh_vm.o(.text)
    .text                                    0x08015e30   Section        0  shell.o(.text)
    finsh_rx_ind                             0x08015e4b   Thumb Code    46  shell.o(.text)
    shell_auto_complete                      0x08015f77   Thumb Code    34  shell.o(.text)
    shell_handle_history                     0x0801602f   Thumb Code    32  shell.o(.text)
    shell_push_history                       0x0801604f   Thumb Code   162  shell.o(.text)
    .text                                    0x0801682c   Section        0  api_lib.o(.text)
    netconn_recv_data                        0x08016e25   Thumb Code   364  api_lib.o(.text)
    netconn_close_shutdown                   0x08017301   Thumb Code    94  api_lib.o(.text)
    .text                                    0x0801748c   Section        0  api_msg.o(.text)
    recv_raw                                 0x0801748d   Thumb Code   152  api_msg.o(.text)
    recv_udp                                 0x08017525   Thumb Code   206  api_msg.o(.text)
    recv_tcp                                 0x080175f3   Thumb Code   208  api_msg.o(.text)
    err_tcp                                  0x080176c3   Thumb Code   262  api_msg.o(.text)
    do_writemore                             0x080177c9   Thumb Code   874  api_msg.o(.text)
    sent_tcp                                 0x08017b33   Thumb Code   130  api_msg.o(.text)
    do_close_internal                        0x08017bb5   Thumb Code   454  api_msg.o(.text)
    poll_tcp                                 0x08017d7b   Thumb Code   372  api_msg.o(.text)
    setup_tcp                                0x08017eef   Thumb Code    50  api_msg.o(.text)
    accept_function                          0x08018059   Thumb Code   122  api_msg.o(.text)
    pcb_new                                  0x080180d3   Thumb Code   176  api_msg.o(.text)
    netconn_drain                            0x080181a3   Thumb Code   198  api_msg.o(.text)
    do_connected                             0x0801858f   Thumb Code   210  api_msg.o(.text)
    do_dns_found                             0x08018beb   Thumb Code    78  api_msg.o(.text)
    .text                                    0x08018cb8   Section        0  netbuf.o(.text)
    .text                                    0x08019054   Section        0  netifapi.o(.text)
    .text                                    0x0801914c   Section        0  sockets.o(.text)
    get_socket                               0x0801914f   Thumb Code    54  sockets.o(.text)
    tryget_socket                            0x08019185   Thumb Code    42  sockets.o(.text)
    alloc_socket                             0x080191af   Thumb Code   166  sockets.o(.text)
    free_socket                              0x08019255   Thumb Code    56  sockets.o(.text)
    event_callback                           0x0801928d   Thumb Code   376  sockets.o(.text)
    lwip_selscan                             0x08019f69   Thumb Code   368  sockets.o(.text)
    lwip_getaddrname                         0x0801a53f   Thumb Code   126  sockets.o(.text)
    lwip_getsockopt_internal                 0x0801a5e9   Thumb Code   590  sockets.o(.text)
    lwip_setsockopt_internal                 0x0801a99b   Thumb Code   418  sockets.o(.text)
    .text                                    0x0801ad98   Section        0  tcpip.o(.text)
    tcpip_thread                             0x0801ad99   Thumb Code   202  tcpip.o(.text)
    pbuf_free_int                            0x0801b04d   Thumb Code    14  tcpip.o(.text)
    .text                                    0x0801b110   Section        0  sys_arch.o(.text)
    netif_device_init                        0x0801b111   Thumb Code    42  sys_arch.o(.text)
    tcpip_init_done_callback                 0x0801b16b   Thumb Code   156  sys_arch.o(.text)
    .text                                    0x0801b938   Section        0  def.o(.text)
    .text                                    0x0801b978   Section        0  dns.o(.text)
    dns_parse_name                           0x0801b995   Thumb Code    42  dns.o(.text)
    dns_compare_name                         0x0801b9bf   Thumb Code    60  dns.o(.text)
    dns_recv                                 0x0801b9fb   Thumb Code   348  dns.o(.text)
    dns_send                                 0x0801bbb9   Thumb Code   316  dns.o(.text)
    dns_check_entry                          0x0801bcf5   Thumb Code   486  dns.o(.text)
    dns_check_entries                        0x0801bedb   Thumb Code    22  dns.o(.text)
    dns_lookup                               0x0801beff   Thumb Code    86  dns.o(.text)
    dns_enqueue                              0x0801bf55   Thumb Code   218  dns.o(.text)
    .text                                    0x0801c0b4   Section        0  init.o(.text)
    .text                                    0x0801c0cc   Section        0  netif.o(.text)
    .text                                    0x0801c388   Section        0  pbuf.o(.text)
    pbuf_free_ooseq                          0x0801c389   Thumb Code    54  pbuf.o(.text)
    pbuf_pool_is_empty                       0x0801c3bf   Thumb Code    58  pbuf.o(.text)
    .text                                    0x0801d340   Section        0  raw.o(.text)
    .text                                    0x0801d55c   Section        0  tcp.o(.text)
    tcp_close_shutdown                       0x0801dc2f   Thumb Code   418  tcp.o(.text)
    tcp_new_port                             0x0801e179   Thumb Code    76  tcp.o(.text)
    tcp_accept_null                          0x0801e261   Thumb Code     8  tcp.o(.text)
    tcp_kill_prio                            0x0801e5d9   Thumb Code    76  tcp.o(.text)
    tcp_kill_timewait                        0x0801e625   Thumb Code    50  tcp.o(.text)
    .text                                    0x0801e774   Section        0  tcp_in.o(.text)
    tcp_oos_insert_segment                   0x0801e775   Thumb Code   138  tcp_in.o(.text)
    tcp_receive                              0x0801e7ff   Thumb Code  3286  tcp_in.o(.text)
    tcp_parseopt                             0x0801f4d5   Thumb Code   240  tcp_in.o(.text)
    tcp_process                              0x0801f5c5   Thumb Code  1526  tcp_in.o(.text)
    tcp_listen_input                         0x0801fbbb   Thumb Code   234  tcp_in.o(.text)
    tcp_timewait_input                       0x0801fca5   Thumb Code   144  tcp_in.o(.text)
    .text                                    0x080203f8   Section        0  tcp_out.o(.text)
    tcp_output_alloc_header                  0x080203f9   Thumb Code   150  tcp_out.o(.text)
    tcp_create_segment                       0x0802048f   Thumb Code   174  tcp_out.o(.text)
    tcp_pbuf_prealloc                        0x08020725   Thumb Code   146  tcp_out.o(.text)
    tcp_write_checks                         0x080207b7   Thumb Code   478  tcp_out.o(.text)
    tcp_output_segment                       0x08020ff9   Thumb Code   238  tcp_out.o(.text)
    .text                                    0x08021628   Section        0  timers.o(.text)
    tcpip_tcp_timer                          0x080216db   Thumb Code    40  timers.o(.text)
    arp_timer                                0x08021729   Thumb Code    22  timers.o(.text)
    dns_timer                                0x0802173f   Thumb Code    22  timers.o(.text)
    .text                                    0x080218d8   Section        0  udp.o(.text)
    .text                                    0x08021e20   Section        0  icmp.o(.text)
    icmp_send_response                       0x08022015   Thumb Code   138  icmp.o(.text)
    .text                                    0x08022200   Section        0  inet_chksum.o(.text)
    lwip_standard_chksum                     0x08022201   Thumb Code    94  inet_chksum.o(.text)
    .text                                    0x08022484   Section        0  ip.o(.text)
    .text                                    0x08022858   Section        0  ip_addr.o(.text)
    .text                                    0x08022b5c   Section        0  etharp.o(.text)
    free_etharp_q                            0x08022b5d   Thumb Code   104  etharp.o(.text)
    free_entry                               0x08022bc5   Thumb Code    48  etharp.o(.text)
    find_entry                               0x08022c4d   Thumb Code   448  etharp.o(.text)
    etharp_send_ip                           0x08022e0d   Thumb Code    84  etharp.o(.text)
    update_arp_entry                         0x08022e61   Thumb Code   496  etharp.o(.text)
    etharp_arp_input                         0x080230b5   Thumb Code   312  etharp.o(.text)
    etharp_raw                               0x080231ed   Thumb Code   232  etharp.o(.text)
    .text                                    0x0802374c   Section        0  ethernetif.o(.text)
    ethernetif_linkoutput                    0x0802374d   Thumb Code    38  ethernetif.o(.text)
    eth_netif_device_init                    0x08023773   Thumb Code    66  ethernetif.o(.text)
    eth_tx_thread_entry                      0x080238e1   Thumb Code   118  ethernetif.o(.text)
    eth_rx_thread_entry                      0x08023957   Thumb Code   152  ethernetif.o(.text)
    .text                                    0x0802411c   Section        0  ping.o(.text)
    ping_prepare_echo                        0x0802411d   Thumb Code    78  ping.o(.text)
    ping_send                                0x0802416b   Thumb Code   124  ping.o(.text)
    ping_recv                                0x080241e7   Thumb Code   124  ping.o(.text)
    .text                                    0x080243c8   Section        0  blit.o(.text)
    rtgui_blit_line_2_1                      0x080243c9   Thumb Code     2  blit.o(.text)
    rtgui_blit_line_3_1                      0x080243cb   Thumb Code    44  blit.o(.text)
    rtgui_blit_line_4_1                      0x080243f7   Thumb Code    46  blit.o(.text)
    rtgui_blit_line_1_2                      0x08024425   Thumb Code     2  blit.o(.text)
    rtgui_blit_line_3_2                      0x08024427   Thumb Code    54  blit.o(.text)
    rtgui_blit_line_4_2                      0x0802445d   Thumb Code    60  blit.o(.text)
    rtgui_blit_line_1_3                      0x08024499   Thumb Code     2  blit.o(.text)
    rtgui_blit_line_2_3                      0x0802449b   Thumb Code    56  blit.o(.text)
    rtgui_blit_line_4_3                      0x080244e7   Thumb Code    48  blit.o(.text)
    rtgui_blit_line_1_4                      0x08024517   Thumb Code     2  blit.o(.text)
    rtgui_blit_line_2_4                      0x08024519   Thumb Code     2  blit.o(.text)
    rtgui_blit_line_3_4                      0x0802451b   Thumb Code    52  blit.o(.text)
    rtgui_blit_line_3_2_inv                  0x080245a5   Thumb Code    54  blit.o(.text)
    Blit16to16SurfaceAlpha128                0x08024669   Thumb Code   406  blit.o(.text)
    Blit565to565PixelAlpha                   0x080247ff   Thumb Code   756  blit.o(.text)
    BlitARGBto565PixelAlpha                  0x08024af3   Thumb Code   582  blit.o(.text)
    BlitARGB8888toARGB8888PixelAlpha         0x08024d39   Thumb Code   234  blit.o(.text)
    BlitRGB565to32                           0x08024e23   Thumb Code   342  blit.o(.text)
    BlitRGB565toARGB8888                     0x08024f79   Thumb Code    14  blit.o(.text)
    .text                                    0x08025028   Section        0  color.o(.text)
    .text                                    0x08025058   Section        0  dc.o(.text)
    _int_compare                             0x08025059   Thumb Code    10  dc.o(.text)
    rtgui_dc_draw_point                      0x08027305   Thumb Code    22  dc.o(.text)
    rtgui_dc_draw_vline                      0x0802731b   Thumb Code    32  dc.o(.text)
    rtgui_dc_draw_hline                      0x0802733b   Thumb Code    32  dc.o(.text)
    .text                                    0x0802735c   Section        0  dc_buffer.o(.text)
    rtgui_dc_buffer_fini                     0x08027429   Thumb Code    30  dc_buffer.o(.text)
    rtgui_dc_buffer_draw_point               0x08027447   Thumb Code   336  dc_buffer.o(.text)
    rtgui_dc_buffer_draw_color_point         0x08027597   Thumb Code   334  dc_buffer.o(.text)
    rtgui_dc_buffer_draw_vline               0x080276e5   Thumb Code   724  dc_buffer.o(.text)
    rtgui_dc_buffer_draw_hline               0x080279b9   Thumb Code   576  dc_buffer.o(.text)
    rtgui_dc_buffer_fill_rect                0x08027bf9   Thumb Code  1778  dc_buffer.o(.text)
    rtgui_dc_buffer_blit                     0x080282eb   Thumb Code  1200  dc_buffer.o(.text)
    rtgui_dc_buffer_blit_line                0x0802879b   Thumb Code   150  dc_buffer.o(.text)
    .text                                    0x0802887c   Section        0  dc_client.o(.text)
    rtgui_dc_client_fini                     0x080288b9   Thumb Code    18  dc_client.o(.text)
    rtgui_dc_client_draw_point               0x080288cb   Thumb Code    82  dc_client.o(.text)
    rtgui_dc_client_draw_color_point         0x0802891d   Thumb Code    84  dc_client.o(.text)
    rtgui_dc_client_draw_vline               0x08028971   Thumb Code   290  dc_client.o(.text)
    rtgui_dc_client_draw_hline               0x08028a93   Thumb Code   290  dc_client.o(.text)
    rtgui_dc_client_fill_rect                0x08028bb5   Thumb Code    76  dc_client.o(.text)
    rtgui_dc_client_blit_line                0x08028c01   Thumb Code   438  dc_client.o(.text)
    rtgui_dc_client_blit                     0x08028db7   Thumb Code     2  dc_client.o(.text)
    .text                                    0x08028db8   Section        0  dc_hw.o(.text)
    rtgui_dc_hw_fini                         0x08028de3   Thumb Code    24  dc_hw.o(.text)
    rtgui_dc_hw_draw_point                   0x08028dfb   Thumb Code   114  dc_hw.o(.text)
    rtgui_dc_hw_draw_color_point             0x08028e6d   Thumb Code   110  dc_hw.o(.text)
    rtgui_dc_hw_draw_vline                   0x08028edb   Thumb Code   184  dc_hw.o(.text)
    rtgui_dc_hw_draw_hline                   0x08028f93   Thumb Code   184  dc_hw.o(.text)
    rtgui_dc_hw_fill_rect                    0x0802904b   Thumb Code   242  dc_hw.o(.text)
    rtgui_dc_hw_blit_line                    0x0802913d   Thumb Code   262  dc_hw.o(.text)
    rtgui_dc_hw_blit                         0x08029243   Thumb Code     2  dc_hw.o(.text)
    .text                                    0x08029244   Section        0  filerw.o(.text)
    stdio_seek                               0x08029245   Thumb Code    52  filerw.o(.text)
    stdio_read                               0x08029279   Thumb Code    50  filerw.o(.text)
    stdio_write                              0x080292ab   Thumb Code    32  filerw.o(.text)
    stdio_tell                               0x080292cb   Thumb Code    18  filerw.o(.text)
    stdio_eof                                0x080292dd   Thumb Code    20  filerw.o(.text)
    stdio_close                              0x080292f1   Thumb Code    30  filerw.o(.text)
    mem_seek                                 0x0802930f   Thumb Code   114  filerw.o(.text)
    mem_read                                 0x08029381   Thumb Code    74  filerw.o(.text)
    mem_write                                0x080293cb   Thumb Code     8  filerw.o(.text)
    mem_tell                                 0x080293d3   Thumb Code    12  filerw.o(.text)
    mem_eof                                  0x080293df   Thumb Code    20  filerw.o(.text)
    mem_close                                0x080293f3   Thumb Code    24  filerw.o(.text)
    parse_mode                               0x0802941f   Thumb Code    76  filerw.o(.text)
    .text                                    0x08029714   Section        0  font.o(.text)
    .text                                    0x08029948   Section        0  font_bmp.o(.text)
    rtgui_bitmap_font_draw_text              0x08029ab7   Thumb Code   246  font_bmp.o(.text)
    rtgui_bitmap_font_get_metrics            0x08029bad   Thumb Code   176  font_bmp.o(.text)
    .text                                    0x08029c9c   Section        0  font_fnt.o(.text)
    rtgui_fnt_font_draw_text                 0x08029c9d   Thumb Code   314  font_fnt.o(.text)
    rtgui_fnt_font_get_metrics               0x08029dd7   Thumb Code   116  font_fnt.o(.text)
    .text                                    0x08029e84   Section        0  font_hz_file.o(.text)
    _font_cache_compare                      0x08029e85   Thumb Code    32  font_hz_file.o(.text)
    _font_cache_get                          0x0802a0c1   Thumb Code   228  font_hz_file.o(.text)
    rtgui_hz_file_font_load                  0x0802a1a5   Thumb Code    64  font_hz_file.o(.text)
    _rtgui_hz_file_font_draw_text            0x0802a1e5   Thumb Code   328  font_hz_file.o(.text)
    rtgui_hz_file_font_draw_text             0x0802a32d   Thumb Code   200  font_hz_file.o(.text)
    rtgui_hz_file_font_get_metrics           0x0802a3f5   Thumb Code    78  font_hz_file.o(.text)
    .text                                    0x0802a4c8   Section        0  framebuffer_driver.o(.text)
    rtgui_color_to_565                       0x0802a4c9   Thumb Code    30  framebuffer_driver.o(.text)
    _rgb565_set_pixel                        0x0802a4e7   Thumb Code    62  framebuffer_driver.o(.text)
    _rgb565_get_pixel                        0x0802a525   Thumb Code   120  framebuffer_driver.o(.text)
    _rgb565_draw_hline                       0x0802a59d   Thumb Code    88  framebuffer_driver.o(.text)
    _rgb565_draw_vline                       0x0802a5f5   Thumb Code    92  framebuffer_driver.o(.text)
    _rgb565p_set_pixel                       0x0802a651   Thumb Code    62  framebuffer_driver.o(.text)
    _rgb565p_get_pixel                       0x0802a68f   Thumb Code   120  framebuffer_driver.o(.text)
    _rgb565p_draw_hline                      0x0802a707   Thumb Code    88  framebuffer_driver.o(.text)
    _rgb565p_draw_vline                      0x0802a75f   Thumb Code    92  framebuffer_driver.o(.text)
    framebuffer_draw_raw_hline               0x0802a7bb   Thumb Code    94  framebuffer_driver.o(.text)
    _mono_set_pixel                          0x0802a819   Thumb Code   132  framebuffer_driver.o(.text)
    _mono_get_pixel                          0x0802a89d   Thumb Code    68  framebuffer_driver.o(.text)
    _mono_draw_hline                         0x0802a8e1   Thumb Code   154  framebuffer_driver.o(.text)
    _mono_draw_vline                         0x0802a97b   Thumb Code   118  framebuffer_driver.o(.text)
    _mono_draw_raw_hline                     0x0802a9f1   Thumb Code   150  framebuffer_driver.o(.text)
    rtgui_color_to_565p                      0x0802aaaf   Thumb Code    28  framebuffer_driver.o(.text)
    rtgui_graphic_get_device                 0x0802aacb   Thumb Code     8  framebuffer_driver.o(.text)
    .text                                    0x0802aae8   Section        0  image.o(.text)
    rtgui_image_get_engine                   0x0802aaf5   Thumb Code    50  image.o(.text)
    .text                                    0x0802ae9c   Section        0  image_bmp.o(.text)
    rtgui_image_bmp_check                    0x0802ae9d   Thumb Code   126  image_bmp.o(.text)
    rtgui_image_bmp_load_palette             0x0802af1b   Thumb Code   174  image_bmp.o(.text)
    rtgui_image_bmp_load                     0x0802afc9   Thumb Code  1270  image_bmp.o(.text)
    rtgui_image_bmp_unload                   0x0802b4bf   Thumb Code    36  image_bmp.o(.text)
    rtgui_image_bmp_blit                     0x0802b4e3   Thumb Code  1612  image_bmp.o(.text)
    rtgui_dc_draw_color_point                0x0802bd7b   Thumb Code    32  image_bmp.o(.text)
    .text                                    0x0802bde0   Section        0  image_hdc.o(.text)
    rtgui_image_hdc_check                    0x0802bde1   Thumb Code    92  image_hdc.o(.text)
    rtgui_image_hdc_load                     0x0802be3d   Thumb Code   198  image_hdc.o(.text)
    rtgui_image_hdc_unload                   0x0802bf03   Thumb Code    40  image_hdc.o(.text)
    rtgui_image_hdc_blit                     0x0802bf2b   Thumb Code   608  image_hdc.o(.text)
    rtgui_image_hdcmm_blit                   0x0802c18b   Thumb Code   338  image_hdc.o(.text)
    .text                                    0x0802c2ec   Section        0  pixel_driver.o(.text)
    rtgui_color_to_mono                      0x0802c2ed   Thumb Code    28  pixel_driver.o(.text)
    rtgui_color_to_565                       0x0802c309   Thumb Code    30  pixel_driver.o(.text)
    _pixel_mono_set_pixel                    0x0802c327   Thumb Code    36  pixel_driver.o(.text)
    _pixel_rgb565p_set_pixel                 0x0802c34b   Thumb Code    36  pixel_driver.o(.text)
    _pixel_rgb565_set_pixel                  0x0802c36f   Thumb Code    36  pixel_driver.o(.text)
    _pixel_rgb888_set_pixel                  0x0802c393   Thumb Code    36  pixel_driver.o(.text)
    _pixel_mono_get_pixel                    0x0802c3b7   Thumb Code    48  pixel_driver.o(.text)
    _pixel_rgb565p_get_pixel                 0x0802c3e7   Thumb Code    94  pixel_driver.o(.text)
    _pixel_rgb565_get_pixel                  0x0802c445   Thumb Code    94  pixel_driver.o(.text)
    _pixel_rgb888_get_pixel                  0x0802c4a3   Thumb Code    56  pixel_driver.o(.text)
    _pixel_mono_draw_hline                   0x0802c4db   Thumb Code    46  pixel_driver.o(.text)
    _pixel_rgb565p_draw_hline                0x0802c509   Thumb Code    46  pixel_driver.o(.text)
    _pixel_rgb565_draw_hline                 0x0802c537   Thumb Code    46  pixel_driver.o(.text)
    _pixel_rgb888_draw_hline                 0x0802c565   Thumb Code    46  pixel_driver.o(.text)
    _pixel_mono_draw_vline                   0x0802c593   Thumb Code    46  pixel_driver.o(.text)
    _pixel_rgb565p_draw_vline                0x0802c5c1   Thumb Code    46  pixel_driver.o(.text)
    _pixel_rgb565_draw_vline                 0x0802c5ef   Thumb Code    46  pixel_driver.o(.text)
    _pixel_rgb888_draw_vline                 0x0802c61d   Thumb Code    46  pixel_driver.o(.text)
    _pixel_draw_raw_hline                    0x0802c64b   Thumb Code    74  pixel_driver.o(.text)
    rtgui_color_to_565p                      0x0802c6bb   Thumb Code    28  pixel_driver.o(.text)
    rtgui_color_to_888                       0x0802c6d7   Thumb Code    24  pixel_driver.o(.text)
    rtgui_graphic_get_device                 0x0802c6ef   Thumb Code     8  pixel_driver.o(.text)
    .text                                    0x0802c710   Section        0  region.o(.text)
    rtgui_break                              0x0802c783   Thumb Code    38  region.o(.text)
    rtgui_rect_alloc                         0x0802c7a9   Thumb Code   148  region.o(.text)
    rtgui_coalesce                           0x0802c8db   Thumb Code   172  region.o(.text)
    rtgui_region_appendNonO                  0x0802c987   Thumb Code   214  region.o(.text)
    rtgui_op                                 0x0802ca5d   Thumb Code  1526  region.o(.text)
    rtgui_set_extents                        0x0802d053   Thumb Code   186  region.o(.text)
    rtgui_region_intersectO                  0x0802d10d   Thumb Code   310  region.o(.text)
    rtgui_region_unionO                      0x0802d4d1   Thumb Code   994  region.o(.text)
    QuickSortRects                           0x0802dc4b   Thumb Code   340  region.o(.text)
    rtgui_region_subtractO                   0x0802e1f1   Thumb Code   672  region.o(.text)
    QuickSortSpans                           0x0802eaaf   Thumb Code   522  region.o(.text)
    .text                                    0x0802f18c   Section        0  rtgui_app.o(.text)
    _rtgui_application_dest_handle           0x0802f18d   Thumb Code   112  rtgui_app.o(.text)
    _rtgui_app_constructor                   0x0802f3c3   Thumb Code    58  rtgui_app.o(.text)
    _rtgui_app_destructor                    0x0802f3fd   Thumb Code    40  rtgui_app.o(.text)
    _rtgui_application_event_loop            0x0802f87f   Thumb Code   380  rtgui_app.o(.text)
    .text                                    0x0802fd38   Section        0  rtgui_object.o(.text)
    _rtgui_object_constructor                0x0802fd39   Thumb Code    16  rtgui_object.o(.text)
    _rtgui_object_destructor                 0x0802fd49   Thumb Code     8  rtgui_object.o(.text)
    .text                                    0x0802ff20   Section        0  rtgui_system.o(.text)
    rtgui_time_out                           0x0802ffd7   Thumb Code    48  rtgui_system.o(.text)
    .text                                    0x080305f8   Section        0  rtgui_theme.o(.text)
    rtgui_dc_draw_vline                      0x08031cb5   Thumb Code    32  rtgui_theme.o(.text)
    rtgui_dc_draw_hline                      0x08031cd5   Thumb Code    32  rtgui_theme.o(.text)
    rtgui_dc_fill_rect                       0x08031cf5   Thumb Code    18  rtgui_theme.o(.text)
    .text                                    0x08031d18   Section        0  driver.o(.text)
    _graphic_driver_vmode_init               0x08031d19   Thumb Code   126  driver.o(.text)
    .text                                    0x08032048   Section        0  gesture.o(.text)
    _rtgui_gesture_recognition               0x08032049   Thumb Code   532  gesture.o(.text)
    .text                                    0x080322dc   Section        0  mouse.o(.text)
    .text                                    0x08032494   Section        0  server.o(.text)
    rtgui_server_event_handler               0x080326b3   Thumb Code   506  server.o(.text)
    rtgui_server_entry                       0x080328ad   Thumb Code    88  server.o(.text)
    .text                                    0x08032a80   Section        0  topwin.o(.text)
    rt_list_insert_after                     0x08032a81   Thumb Code    14  topwin.o(.text)
    rt_list_insert_before                    0x08032a8f   Thumb Code    14  topwin.o(.text)
    rt_list_remove                           0x08032a9d   Thumb Code    18  topwin.o(.text)
    rtgui_topwin_search_in_list              0x08032abf   Thumb Code    52  topwin.o(.text)
    _rtgui_topwin_get_root_win               0x08032bd9   Thumb Code    46  topwin.o(.text)
    _rtgui_topwin_get_topmost_child_shown    0x08032c07   Thumb Code    64  topwin.o(.text)
    _rtgui_topwin_in_layer                   0x08032c47   Thumb Code    24  topwin.o(.text)
    _rtgui_topwin_get_topmost_window_shown   0x08032c5f   Thumb Code    56  topwin.o(.text)
    _rtgui_topwin_could_show                 0x08032c97   Thumb Code    54  topwin.o(.text)
    _rtgui_topwin_union_region_tree          0x08032ccd   Thumb Code    72  topwin.o(.text)
    _rtgui_topwin_free_tree                  0x08032d15   Thumb Code   100  topwin.o(.text)
    _rtgui_topwin_redraw_tree                0x08032d79   Thumb Code   172  topwin.o(.text)
    rtgui_topwin_redraw                      0x08032e25   Thumb Code    48  topwin.o(.text)
    rtgui_topwin_update_clip                 0x08032e55   Thumb Code   402  topwin.o(.text)
    _rtgui_topwin_only_activate              0x08032fe7   Thumb Code    96  topwin.o(.text)
    _rtgui_topwin_activate_next              0x08033047   Thumb Code    26  topwin.o(.text)
    _rtgui_topwin_get_focus_from_list        0x08033061   Thumb Code    80  topwin.o(.text)
    _rtgui_topwin_deactivate                 0x0803311f   Thumb Code   114  topwin.o(.text)
    _rtgui_topwin_move_whole_tree2top        0x08033191   Thumb Code   274  topwin.o(.text)
    _rtgui_topwin_raise_in_sibling           0x080332a3   Thumb Code    68  topwin.o(.text)
    _rtgui_topwin_raise_tree_from_root       0x080332e7   Thumb Code    56  topwin.o(.text)
    _rtgui_topwin_draw_tree                  0x0803331f   Thumb Code    62  topwin.o(.text)
    _rtgui_topwin_preorder_map               0x080334d1   Thumb Code    98  topwin.o(.text)
    _rtgui_topwin_clear_modal_tree           0x0803356b   Thumb Code   132  topwin.o(.text)
    _rtgui_topwin_get_wnd_from_tree          0x08033783   Thumb Code   134  topwin.o(.text)
    _get_obj_in_topwin                       0x0803397f   Thumb Code   134  topwin.o(.text)
    _rtgui_topwin_dump                       0x08033a77   Thumb Code    66  topwin.o(.text)
    _rtgui_topwin_dump_tree                  0x08033ab9   Thumb Code    46  topwin.o(.text)
    rt_list_isempty                          0x08033b11   Thumb Code    16  topwin.o(.text)
    _rtgui_topwin_clip_to_region             0x08033b21   Thumb Code    94  topwin.o(.text)
    _rtgui_topwin_mark_hidden                0x08033b7f   Thumb Code    46  topwin.o(.text)
    _rtgui_topwin_mark_shown                 0x08033bad   Thumb Code    80  topwin.o(.text)
    .text                                    0x08033c84   Section        0  touch.o(.text)
    .text                                    0x08033da8   Section        0  box.o(.text)
    _rtgui_box_constructor                   0x08033da9   Thumb Code    44  box.o(.text)
    rtgui_box_layout_vertical                0x08033e17   Thumb Code   460  box.o(.text)
    rtgui_box_layout_horizontal              0x08033fe3   Thumb Code   458  box.o(.text)
    .text                                    0x08034324   Section        0  button.o(.text)
    rtgui_button_onunfocus                   0x08034325   Thumb Code   174  button.o(.text)
    _rtgui_button_constructor                0x080346cf   Thumb Code   270  button.o(.text)
    _rtgui_button_destructor                 0x080347dd   Thumb Code    34  button.o(.text)
    .text                                    0x0803494c   Section        0  caret.o(.text)
    _caret_ondraw                            0x08034a9d   Thumb Code   232  caret.o(.text)
    rtgui_dc_blit                            0x08034c51   Thumb Code    32  caret.o(.text)
    .text                                    0x08034ce8   Section        0  container.o(.text)
    rtgui_list_remove                        0x08034ce9   Thumb Code    30  container.o(.text)
    _rtgui_container_constructor             0x08034fff   Thumb Code    74  container.o(.text)
    _rtgui_container_destructor              0x080350f5   Thumb Code   144  container.o(.text)
    .text                                    0x08035458   Section        0  label.o(.text)
    _rtgui_label_constructor                 0x080354e7   Thumb Code    60  label.o(.text)
    _rtgui_label_destructor                  0x08035523   Thumb Code    20  label.o(.text)
    .text                                    0x080356a0   Section        0  notebook.o(.text)
    _rtgui_notebook_get_bar_rect             0x080356a1   Thumb Code   196  notebook.o(.text)
    _rtgui_notebook_get_page_rect            0x08035765   Thumb Code   172  notebook.o(.text)
    _rtgui_notebook_all_widget_handle        0x08035811   Thumb Code    70  notebook.o(.text)
    _rtgui_notebook_current_widget_handle    0x08035893   Thumb Code   102  notebook.o(.text)
    _rtgui_notebook_draw_bar                 0x080358f9   Thumb Code   850  notebook.o(.text)
    _rtgui_notebook_onmouse                  0x08035d1d   Thumb Code   368  notebook.o(.text)
    _rtgui_notebook_ondraw                   0x08035e8d   Thumb Code   130  notebook.o(.text)
    _rtgui_notebook_ontab                    0x08035f0f   Thumb Code   138  notebook.o(.text)
    _rtgui_notebook_constructor              0x080360d9   Thumb Code    80  notebook.o(.text)
    _rtgui_notebook_destructor               0x08036129   Thumb Code    62  notebook.o(.text)
    rtgui_dc_fill_rect                       0x080368bb   Thumb Code    18  notebook.o(.text)
    .text                                    0x080368d0   Section        0  text_encoding.o(.text)
    .text                                    0x080369d4   Section        0  textbox.o(.text)
    rtgui_textbox_onunfocus                  0x080369df   Thumb Code    68  textbox.o(.text)
    rtgui_textbox_get_caret_rect             0x08036a23   Thumb Code   174  textbox.o(.text)
    rtgui_textbox_init_caret                 0x08036ad1   Thumb Code    62  textbox.o(.text)
    rtgui_textbox_onkey                      0x08036cab   Thumb Code  1840  textbox.o(.text)
    rtgui_textbox_onmouse                    0x080373db   Thumb Code   244  textbox.o(.text)
    _rtgui_textbox_constructor               0x08037593   Thumb Code   408  textbox.o(.text)
    _rtgui_textbox_deconstructor             0x0803772b   Thumb Code    28  textbox.o(.text)
    .text                                    0x080378e4   Section        0  title.o(.text)
    _rtgui_wintitle_constructor              0x08037a51   Thumb Code    78  title.o(.text)
    _rtgui_wintitle_deconstructor            0x08037a9f   Thumb Code     2  title.o(.text)
    .text                                    0x08037b28   Section        0  widget.o(.text)
    _rtgui_widget_constructor                0x08037d11   Thumb Code   126  widget.o(.text)
    _rtgui_widget_destructor                 0x08037d8f   Thumb Code   104  widget.o(.text)
    .text                                    0x08038984   Section        0  window.o(.text)
    _win_handle_mouse_btn                    0x08038985   Thumb Code   122  window.o(.text)
    rtgui_win_ondraw                         0x08038d8d   Thumb Code   150  window.o(.text)
    _rtgui_win_deal_close                    0x0803909d   Thumb Code   110  window.o(.text)
    _rtgui_win_create_in_server              0x0803910b   Thumb Code   100  window.o(.text)
    _rtgui_win_constructor                   0x080396b1   Thumb Code   204  window.o(.text)
    _rtgui_win_destructor                    0x0803977d   Thumb Code   128  window.o(.text)
    .text                                    0x08039b24   Section        0  dfs.o(.text)
    .text                                    0x08039ee0   Section        0  dfs_file.o(.text)
    .text                                    0x0803a5bc   Section        0  dfs_fs.o(.text)
    .text                                    0x0803ab9c   Section        0  dfs_posix.o(.text)
    .text                                    0x0803b160   Section        0  dfs_elm.o(.text)
    elm_result_to_dfs                        0x0803b161   Thumb Code    88  dfs_elm.o(.text)
    get_disk                                 0x0803b1b9   Thumb Code    32  dfs_elm.o(.text)
    .text                                    0x0803bba0   Section        0  ff.o(.text)
    mem_cpy                                  0x0803bba1   Thumb Code    80  ff.o(.text)
    mem_set                                  0x0803bbf1   Thumb Code    20  ff.o(.text)
    mem_cmp                                  0x0803bc05   Thumb Code    38  ff.o(.text)
    chk_chr                                  0x0803bc2b   Thumb Code    20  ff.o(.text)
    lock_fs                                  0x0803bc3f   Thumb Code    12  ff.o(.text)
    unlock_fs                                0x0803bc4b   Thumb Code    30  ff.o(.text)
    move_window                              0x0803bc69   Thumb Code   114  ff.o(.text)
    sync                                     0x0803bcdb   Thumb Code   110  ff.o(.text)
    remove_chain                             0x0803bfcd   Thumb Code   104  ff.o(.text)
    create_chain                             0x0803c035   Thumb Code   212  ff.o(.text)
    clmt_clust                               0x0803c109   Thumb Code    56  ff.o(.text)
    dir_sdi                                  0x0803c141   Thumb Code   218  ff.o(.text)
    dir_next                                 0x0803c21b   Thumb Code   320  ff.o(.text)
    cmp_lfn                                  0x0803c35b   Thumb Code   124  ff.o(.text)
    pick_lfn                                 0x0803c3d7   Thumb Code   100  ff.o(.text)
    fit_lfn                                  0x0803c43b   Thumb Code    92  ff.o(.text)
    sum_sfn                                  0x0803c553   Thumb Code    32  ff.o(.text)
    dir_find                                 0x0803c573   Thumb Code   222  ff.o(.text)
    dir_read                                 0x0803c651   Thumb Code   190  ff.o(.text)
    dir_register                             0x0803c70f   Thumb Code   400  ff.o(.text)
    dir_remove                               0x0803c89f   Thumb Code    96  ff.o(.text)
    create_name                              0x0803c8ff   Thumb Code   604  ff.o(.text)
    get_fileinfo                             0x0803cb5b   Thumb Code   286  ff.o(.text)
    follow_path                              0x0803cc79   Thumb Code   146  ff.o(.text)
    check_fs                                 0x0803cd0b   Thumb Code    82  ff.o(.text)
    chk_mounted                              0x0803cd5d   Thumb Code   700  ff.o(.text)
    validate                                 0x0803d019   Thumb Code    54  ff.o(.text)
    .text                                    0x0803e6e0   Section        0  cc936.o(.text)
    .text                                    0x0803e794   Section        0  ctype_o.o(.text)
    .text                                    0x0803e79c   Section        0  qsort.o(.text)
    .text                                    0x0803e83c   Section        0  mktime.o(.text)
    .text                                    0x0803e8dc   Section        0  ctime.o(.text)
    .text                                    0x0803e8ea   Section        0  memcpya.o(.text)
    .text                                    0x0803e90e   Section        0  memseta.o(.text)
    .text                                    0x0803e934   Section        0  strcat.o(.text)
    .text                                    0x0803e950   Section        0  strncpy.o(.text)
    .text                                    0x0803e968   Section        0  strchr.o(.text)
    .text                                    0x0803e97a   Section        0  strlen.o(.text)
    .text                                    0x0803e98a   Section        0  strcmp.o(.text)
    .text                                    0x0803e9a6   Section        0  strcpy.o(.text)
    .text                                    0x0803e9b8   Section        0  strncmp.o(.text)
    .text                                    0x0803e9d6   Section        0  strncasecmp.o(.text)
    .text                                    0x0803ea08   Section        0  atoi.o(.text)
    .text                                    0x0803ea22   Section        0  fdiv.o(.text)
    .text                                    0x0803eaa2   Section        0  dadd.o(.text)
    .text                                    0x0803ebee   Section        0  dmul.o(.text)
    .text                                    0x0803ecce   Section        0  ddiv.o(.text)
    .text                                    0x0803edac   Section        0  fflti.o(.text)
    .text                                    0x0803edbe   Section        0  ffltui.o(.text)
    .text                                    0x0803edc8   Section        0  dflti.o(.text)
    .text                                    0x0803edea   Section        0  dfltui.o(.text)
    .text                                    0x0803ee04   Section        0  dfixi.o(.text)
    .text                                    0x0803ee42   Section        0  dfixui.o(.text)
    .text                                    0x0803ee70   Section        0  f2d.o(.text)
    .text                                    0x0803ee9c   Section       40  cdcmple.o(.text)
    .text                                    0x0803eec4   Section       40  cdrcmple.o(.text)
    .text                                    0x0803eeec   Section        0  d2f.o(.text)
    .text                                    0x0803ef24   Section       20  cfrcmple.o(.text)
    .text                                    0x0803ef38   Section        0  uidiv.o(.text)
    .text                                    0x0803ef64   Section        0  uldiv.o(.text)
    .text                                    0x0803efc6   Section        0  llshl.o(.text)
    .text                                    0x0803efe4   Section        0  llushr.o(.text)
    .text                                    0x0803f004   Section        0  llsshr.o(.text)
    .text                                    0x0803f028   Section        0  tolower.o(.text)
    .text                                    0x0803f034   Section        0  localtime_w.o(.text)
    .text                                    0x0803f040   Section        0  localtime_i.o(.text)
    .text                                    0x0803f0c0   Section        0  asctime.o(.text)
    .text                                    0x0803f17c   Section        0  strtol.o(.text)
    .text                                    0x0803f1ec   Section        0  iusefp.o(.text)
    .text                                    0x0803f1ec   Section        0  fepilogue.o(.text)
    .text                                    0x0803f258   Section        0  depilogue.o(.text)
    .text                                    0x0803f316   Section        0  dscalb.o(.text)
    .text                                    0x0803f344   Section        0  dfixul.o(.text)
    .text                                    0x0803f374   Section       36  init.o(.text)
    .text                                    0x0803f398   Section        0  _strtoul.o(.text)
    .text                                    0x0803f436   Section        0  _chval.o(.text)
    .text                                    0x0803f452   Section        0  __dczerorl2.o(.text)
    i.LCD_ReadData                           0x0803f4b0   Section        0  lcd.o(i.LCD_ReadData)
    i.LCD_ReadReg                            0x0803f4bc   Section        0  lcd.o(i.LCD_ReadReg)
    i.LCD_WriteData                          0x0803f4cc   Section        0  lcd.o(i.LCD_WriteData)
    i.LCD_WriteIndex                         0x0803f4d8   Section        0  lcd.o(i.LCD_WriteIndex)
    i.LCD_WriteReg                           0x0803f4e0   Section        0  lcd.o(i.LCD_WriteReg)
    i.__0sprintf                             0x0803f4f4   Section        0  printfa.o(i.__0sprintf)
    i.__ARM_fpclassify                       0x0803f51c   Section        0  fpclassify.o(i.__ARM_fpclassify)
    i.__aeabi_errno_addr                     0x0803f544   Section        0  errno.o(i.__aeabi_errno_addr)
    i.__ieee754_rem_pio2                     0x0803f54c   Section        0  rred.o(i.__ieee754_rem_pio2)
    i.__kernel_cos                           0x0803f8d0   Section        0  cos_i.o(i.__kernel_cos)
    i.__kernel_poly                          0x0803f9cc   Section        0  poly.o(i.__kernel_poly)
    i.__kernel_sin                           0x0803fa78   Section        0  sin_i.o(i.__kernel_sin)
    i.__mathlib_dbl_underflow                0x0803fb64   Section        0  dunder.o(i.__mathlib_dbl_underflow)
    i.__scatterload_copy                     0x0803fb74   Section       14  handlers.o(i.__scatterload_copy)
    i.__scatterload_null                     0x0803fb82   Section        2  handlers.o(i.__scatterload_null)
    i.__scatterload_zeroinit                 0x0803fb84   Section       14  handlers.o(i.__scatterload_zeroinit)
    i.__set_errno                            0x0803fb94   Section        0  errno.o(i.__set_errno)
    i._fp_digits                             0x0803fba0   Section        0  printfa.o(i._fp_digits)
    _fp_digits                               0x0803fba1   Thumb Code   324  printfa.o(i._fp_digits)
    i._printf_core                           0x0803fcf8   Section        0  printfa.o(i._printf_core)
    _printf_core                             0x0803fcf9   Thumb Code  1782  printfa.o(i._printf_core)
    i._printf_post_padding                   0x080403fc   Section        0  printfa.o(i._printf_post_padding)
    _printf_post_padding                     0x080403fd   Thumb Code    38  printfa.o(i._printf_post_padding)
    i._printf_pre_padding                    0x08040422   Section        0  printfa.o(i._printf_pre_padding)
    _printf_pre_padding                      0x08040423   Thumb Code    48  printfa.o(i._printf_pre_padding)
    i._sputc                                 0x08040452   Section        0  printfa.o(i._sputc)
    _sputc                                   0x08040453   Thumb Code    10  printfa.o(i._sputc)
    i.cos                                    0x0804045c   Section        0  cos.o(i.cos)
    i.sin                                    0x08040508   Section        0  sin.o(i.sin)
    .constdata                               0x080405b8   Section      104  lcd_show.o(.constdata)
    __FUNCTION__                             0x080405e9   Data           9  lcd_show.o(.constdata)
    __FUNCTION__                             0x080405f2   Data          12  lcd_show.o(.constdata)
    __FUNCTION__                             0x080405fe   Data          11  lcd_show.o(.constdata)
    __FUNCTION__                             0x08040609   Data          17  lcd_show.o(.constdata)
    __FUNCTION__                             0x0804061a   Data           6  lcd_show.o(.constdata)
    .constdata                               0x08040620   Section       41  24lcxx.o(.constdata)
    .constdata                               0x08040649   Section       35  fm25lx.o(.constdata)
    __FUNCTION__                             0x0804065f   Data          13  fm25lx.o(.constdata)
    .constdata                               0x0804066c   Section      132  rtc.o(.constdata)
    __FUNCTION__                             0x080406e1   Data          15  rtc.o(.constdata)
    .constdata                               0x080406f0   Section      133  serial.o(.constdata)
    __FUNCTION__                             0x080406f0   Data          15  serial.o(.constdata)
    __FUNCTION__                             0x080406ff   Data          21  serial.o(.constdata)
    __FUNCTION__                             0x08040714   Data          16  serial.o(.constdata)
    __FUNCTION__                             0x08040724   Data          18  serial.o(.constdata)
    __FUNCTION__                             0x08040736   Data          22  serial.o(.constdata)
    __FUNCTION__                             0x0804074c   Data          17  serial.o(.constdata)
    __FUNCTION__                             0x0804075d   Data          24  serial.o(.constdata)
    .constdata                               0x08040775   Section       18  sdio_sd.o(.constdata)
    __FUNCTION__                             0x08040775   Data          18  sdio_sd.o(.constdata)
    .constdata                               0x08040787   Section     1520  asciilib.o(.constdata)
    AsciiLib                                 0x08040787   Data        1520  asciilib.o(.constdata)
    .constdata                               0x08040d77   Section       12  lcd.o(.constdata)
    __FUNCTION__                             0x08040d77   Data          12  lcd.o(.constdata)
    .constdata                               0x08040d83   Section       27  stm32f2_eth.o(.constdata)
    .constdata                               0x08040d9e   Section      168  device.o(.constdata)
    __FUNCTION__                             0x08040d9e   Data          21  device.o(.constdata)
    __FUNCTION__                             0x08040db3   Data          15  device.o(.constdata)
    __FUNCTION__                             0x08040dc2   Data          15  device.o(.constdata)
    __FUNCTION__                             0x08040dd1   Data          16  device.o(.constdata)
    __FUNCTION__                             0x08040de1   Data          15  device.o(.constdata)
    __FUNCTION__                             0x08040df0   Data          16  device.o(.constdata)
    __FUNCTION__                             0x08040e00   Data          18  device.o(.constdata)
    __FUNCTION__                             0x08040e12   Data          26  device.o(.constdata)
    __FUNCTION__                             0x08040e2c   Data          26  device.o(.constdata)
    .constdata                               0x08040e46   Section       22  idle.o(.constdata)
    __FUNCTION__                             0x08040e46   Data          22  idle.o(.constdata)
    .constdata                               0x08040e5c   Section      471  ipc.o(.constdata)
    __FUNCTION__                             0x08040e5c   Data          12  ipc.o(.constdata)
    __FUNCTION__                             0x08040e68   Data          14  ipc.o(.constdata)
    __FUNCTION__                             0x08040e76   Data          14  ipc.o(.constdata)
    __FUNCTION__                             0x08040e84   Data          14  ipc.o(.constdata)
    __FUNCTION__                             0x08040e92   Data          12  ipc.o(.constdata)
    __FUNCTION__                             0x08040e9e   Data          15  ipc.o(.constdata)
    __FUNCTION__                             0x08040ead   Data          14  ipc.o(.constdata)
    __FUNCTION__                             0x08040ebb   Data          16  ipc.o(.constdata)
    __FUNCTION__                             0x08040ecb   Data          16  ipc.o(.constdata)
    __FUNCTION__                             0x08040edb   Data          16  ipc.o(.constdata)
    __FUNCTION__                             0x08040eeb   Data          14  ipc.o(.constdata)
    __FUNCTION__                             0x08040ef9   Data          17  ipc.o(.constdata)
    __FUNCTION__                             0x08040f0a   Data          14  ipc.o(.constdata)
    __FUNCTION__                             0x08040f18   Data          16  ipc.o(.constdata)
    __FUNCTION__                             0x08040f28   Data          16  ipc.o(.constdata)
    __FUNCTION__                             0x08040f38   Data          16  ipc.o(.constdata)
    __FUNCTION__                             0x08040f48   Data          14  ipc.o(.constdata)
    __FUNCTION__                             0x08040f56   Data          14  ipc.o(.constdata)
    __FUNCTION__                             0x08040f64   Data          17  ipc.o(.constdata)
    __FUNCTION__                             0x08040f75   Data          11  ipc.o(.constdata)
    __FUNCTION__                             0x08040f80   Data          13  ipc.o(.constdata)
    __FUNCTION__                             0x08040f8d   Data          13  ipc.o(.constdata)
    __FUNCTION__                             0x08040f9a   Data          13  ipc.o(.constdata)
    __FUNCTION__                             0x08040fa7   Data          16  ipc.o(.constdata)
    __FUNCTION__                             0x08040fb7   Data          11  ipc.o(.constdata)
    __FUNCTION__                             0x08040fc2   Data          14  ipc.o(.constdata)
    __FUNCTION__                             0x08040fd0   Data          11  ipc.o(.constdata)
    __FUNCTION__                             0x08040fdb   Data          13  ipc.o(.constdata)
    __FUNCTION__                             0x08040fe8   Data          13  ipc.o(.constdata)
    __FUNCTION__                             0x08040ff5   Data          13  ipc.o(.constdata)
    __FUNCTION__                             0x08041002   Data          11  ipc.o(.constdata)
    __FUNCTION__                             0x0804100d   Data          13  ipc.o(.constdata)
    __FUNCTION__                             0x0804101a   Data          11  ipc.o(.constdata)
    __FUNCTION__                             0x08041025   Data          14  ipc.o(.constdata)
    .constdata                               0x08041033   Section      290  kservice.o(.constdata)
    small_digits                             0x08041133   Data          17  kservice.o(.constdata)
    large_digits                             0x08041144   Data          17  kservice.o(.constdata)
    .constdata                               0x08041158   Section      352  mem.o(.constdata)
    __FUNCTION__                             0x0804117f   Data          11  mem.o(.constdata)
    __FUNCTION__                             0x0804118a   Data          20  mem.o(.constdata)
    __FUNCTION__                             0x0804119e   Data          10  mem.o(.constdata)
    __FUNCTION__                             0x080411a8   Data          11  mem.o(.constdata)
    __FUNCTION__                             0x080411b3   Data          10  mem.o(.constdata)
    __FUNCTION__                             0x080411bd   Data           8  mem.o(.constdata)
    .constdata                               0x080412b8   Section       62  mempool.o(.constdata)
    __FUNCTION__                             0x080412b8   Data          11  mempool.o(.constdata)
    __FUNCTION__                             0x080412c3   Data          13  mempool.o(.constdata)
    __FUNCTION__                             0x080412d0   Data          13  mempool.o(.constdata)
    __FUNCTION__                             0x080412dd   Data          13  mempool.o(.constdata)
    __FUNCTION__                             0x080412ea   Data          12  mempool.o(.constdata)
    .constdata                               0x080412f6   Section       94  object.o(.constdata)
    __FUNCTION__                             0x080412f6   Data          17  object.o(.constdata)
    __FUNCTION__                             0x08041307   Data          19  object.o(.constdata)
    __FUNCTION__                             0x0804131a   Data          17  object.o(.constdata)
    __FUNCTION__                             0x0804132b   Data          26  object.o(.constdata)
    __FUNCTION__                             0x08041345   Data          15  object.o(.constdata)
    .constdata                               0x08041354   Section       78  scheduler.o(.constdata)
    __FUNCTION__                             0x08041354   Data          26  scheduler.o(.constdata)
    __FUNCTION__                             0x0804136e   Data          26  scheduler.o(.constdata)
    __FUNCTION__                             0x08041388   Data          26  scheduler.o(.constdata)
    .constdata                               0x080413a2   Section      170  thread.o(.constdata)
    __FUNCTION__                             0x080413a2   Data          16  thread.o(.constdata)
    __FUNCTION__                             0x080413b2   Data          15  thread.o(.constdata)
    __FUNCTION__                             0x080413c1   Data          18  thread.o(.constdata)
    __FUNCTION__                             0x080413d3   Data          17  thread.o(.constdata)
    __FUNCTION__                             0x080413e4   Data          17  thread.o(.constdata)
    __FUNCTION__                             0x080413f5   Data          16  thread.o(.constdata)
    __FUNCTION__                             0x08041405   Data          18  thread.o(.constdata)
    __FUNCTION__                             0x08041417   Data          18  thread.o(.constdata)
    __FUNCTION__                             0x08041429   Data          17  thread.o(.constdata)
    __FUNCTION__                             0x0804143a   Data          18  thread.o(.constdata)
    .constdata                               0x0804144c   Section       92  timer.o(.constdata)
    __FUNCTION__                             0x0804144c   Data          14  timer.o(.constdata)
    __FUNCTION__                             0x0804145a   Data          16  timer.o(.constdata)
    __FUNCTION__                             0x0804146a   Data          16  timer.o(.constdata)
    __FUNCTION__                             0x0804147a   Data          15  timer.o(.constdata)
    __FUNCTION__                             0x08041489   Data          14  timer.o(.constdata)
    __FUNCTION__                             0x08041497   Data          17  timer.o(.constdata)
    .constdata                               0x080414a8   Section       19  cpuport.o(.constdata)
    __FUNCTION__                             0x080414a8   Data          19  cpuport.o(.constdata)
    .constdata                               0x080414bc   Section      659  cmd.o(.constdata)
    .constdata                               0x08041750   Section      196  finsh_ops.o(.constdata)
    .constdata                               0x08041814   Section       64  finsh_token.o(.constdata)
    finsh_name_table                         0x08041814   Data          64  finsh_token.o(.constdata)
    .constdata                               0x08041854   Section       96  shell.o(.constdata)
    __FUNCTION__                             0x08041854   Data          13  shell.o(.constdata)
    __FUNCTION__                             0x08041861   Data          17  shell.o(.constdata)
    __FUNCTION__                             0x08041872   Data          17  shell.o(.constdata)
    __FUNCTION__                             0x08041883   Data          15  shell.o(.constdata)
    __FUNCTION__                             0x08041892   Data          15  shell.o(.constdata)
    __FUNCTION__                             0x080418a1   Data          19  shell.o(.constdata)
    .constdata                               0x080418b4   Section       64  sockets.o(.constdata)
    err_to_errno_table                       0x080418b4   Data          64  sockets.o(.constdata)
    .constdata                               0x080418f4   Section      179  sys_arch.o(.constdata)
    __FUNCTION__                             0x080418f4   Data          12  sys_arch.o(.constdata)
    __FUNCTION__                             0x08041900   Data          13  sys_arch.o(.constdata)
    __FUNCTION__                             0x0804190d   Data          18  sys_arch.o(.constdata)
    __FUNCTION__                             0x0804191f   Data          14  sys_arch.o(.constdata)
    __FUNCTION__                             0x0804192d   Data          15  sys_arch.o(.constdata)
    __FUNCTION__                             0x0804193c   Data          15  sys_arch.o(.constdata)
    __FUNCTION__                             0x0804194b   Data          13  sys_arch.o(.constdata)
    __FUNCTION__                             0x08041958   Data          14  sys_arch.o(.constdata)
    __FUNCTION__                             0x08041966   Data          14  sys_arch.o(.constdata)
    __FUNCTION__                             0x08041974   Data          20  sys_arch.o(.constdata)
    __FUNCTION__                             0x08041988   Data          15  sys_arch.o(.constdata)
    __FUNCTION__                             0x08041997   Data          16  sys_arch.o(.constdata)
    .constdata                               0x080419a8   Section       28  memp.o(.constdata)
    .constdata                               0x080419c4   Section       80  tcp.o(.constdata)
    .constdata                               0x08041a14   Section       85  tcp_out.o(.constdata)
    .constdata                               0x08041a6c   Section        8  ip_addr.o(.constdata)
    .constdata                               0x08041a74   Section       80  etharp.o(.constdata)
    .constdata                               0x08041ac4   Section      214  ethernetif.o(.constdata)
    __FUNCTION__                             0x08041b59   Data          22  ethernetif.o(.constdata)
    __FUNCTION__                             0x08041b6f   Data          20  ethernetif.o(.constdata)
    __FUNCTION__                             0x08041b83   Data          23  ethernetif.o(.constdata)
    .constdata                               0x08041b9a   Section       23  ping.o(.constdata)
    .constdata                               0x08041bb1   Section     4096  asc16font.o(.constdata)
    .constdata                               0x08042bb4   Section     4852  blit.o(.constdata)
    lookup_0                                 0x08042bb4   Data         256  blit.o(.constdata)
    lookup_1                                 0x08042cb4   Data         128  blit.o(.constdata)
    lookup_2                                 0x08042d34   Data          64  blit.o(.constdata)
    lookup_3                                 0x08042d74   Data          32  blit.o(.constdata)
    lookup_4                                 0x08042d94   Data          16  blit.o(.constdata)
    lookup_5                                 0x08042da4   Data           8  blit.o(.constdata)
    lookup_6                                 0x08042dac   Data           4  blit.o(.constdata)
    lookup_7                                 0x08042db0   Data           2  blit.o(.constdata)
    lookup_8                                 0x08042db2   Data           1  blit.o(.constdata)
    RGB565_RGBA8888_LUT                      0x08042db4   Data        2048  blit.o(.constdata)
    RGB565_ARGB8888_LUT                      0x080435b4   Data        2048  blit.o(.constdata)
    _blit_table                              0x08043db4   Data         100  blit.o(.constdata)
    _blit_table_inv                          0x08043e18   Data         100  blit.o(.constdata)
    __FUNCTION__                             0x08043e7c   Data          20  blit.o(.constdata)
    __FUNCTION__                             0x08043e90   Data          24  blit.o(.constdata)
    .constdata                               0x08043ea8   Section       42  color.o(.constdata)
    pixel_bits_table                         0x08043ec8   Data          10  color.o(.constdata)
    .constdata                               0x08043ed4   Section      364  dc.o(.constdata)
    __FUNCTION__                             0x08043ed4   Data          25  dc.o(.constdata)
    __FUNCTION__                             0x08043eed   Data          25  dc.o(.constdata)
    __FUNCTION__                             0x08043f06   Data          26  dc.o(.constdata)
    __FUNCTION__                             0x08043f20   Data          29  dc.o(.constdata)
    __FUNCTION__                             0x08043f3d   Data          19  dc.o(.constdata)
    __FUNCTION__                             0x08043f50   Data          26  dc.o(.constdata)
    __FUNCTION__                             0x08043f6a   Data          16  dc.o(.constdata)
    __FUNCTION__                             0x08043f7a   Data          16  dc.o(.constdata)
    __FUNCTION__                             0x08043f8a   Data          21  dc.o(.constdata)
    __FUNCTION__                             0x08043f9f   Data          18  dc.o(.constdata)
    __FUNCTION__                             0x08043fb1   Data          26  dc.o(.constdata)
    __FUNCTION__                             0x08043fcb   Data          23  dc.o(.constdata)
    __FUNCTION__                             0x08043fe2   Data          21  dc.o(.constdata)
    .constdata                               0x08044040   Section       58  dc_buffer.o(.constdata)
    dc_buffer_engine                         0x08044040   Data          32  dc_buffer.o(.constdata)
    __FUNCTION__                             0x08044060   Data          26  dc_buffer.o(.constdata)
    .constdata                               0x0804407c   Section       53  dc_client.o(.constdata)
    __FUNCTION__                             0x0804409c   Data          21  dc_client.o(.constdata)
    .constdata                               0x080440b4   Section      174  dc_hw.o(.constdata)
    __FUNCTION__                             0x080440d4   Data          23  dc_hw.o(.constdata)
    __FUNCTION__                             0x080440eb   Data          29  dc_hw.o(.constdata)
    __FUNCTION__                             0x08044108   Data          23  dc_hw.o(.constdata)
    __FUNCTION__                             0x0804411f   Data          23  dc_hw.o(.constdata)
    __FUNCTION__                             0x08044136   Data          22  dc_hw.o(.constdata)
    __FUNCTION__                             0x0804414c   Data          22  dc_hw.o(.constdata)
    .constdata                               0x08044164   Section      179  filerw.o(.constdata)
    __FUNCTION__                             0x08044170   Data           9  filerw.o(.constdata)
    __FUNCTION__                             0x08044179   Data          25  filerw.o(.constdata)
    __FUNCTION__                             0x08044192   Data          24  filerw.o(.constdata)
    __FUNCTION__                             0x080441aa   Data          18  filerw.o(.constdata)
    __FUNCTION__                             0x080441bc   Data          18  filerw.o(.constdata)
    __FUNCTION__                             0x080441ce   Data          19  filerw.o(.constdata)
    __FUNCTION__                             0x080441e1   Data          17  filerw.o(.constdata)
    __FUNCTION__                             0x080441f2   Data          18  filerw.o(.constdata)
    __FUNCTION__                             0x08044204   Data          19  filerw.o(.constdata)
    .constdata                               0x08044217   Section       58  font.o(.constdata)
    __FUNCTION__                             0x08044217   Data          19  font.o(.constdata)
    __FUNCTION__                             0x0804422a   Data          16  font.o(.constdata)
    __FUNCTION__                             0x0804423a   Data          23  font.o(.constdata)
    .constdata                               0x08044254   Section       74  font_bmp.o(.constdata)
    __FUNCTION__                             0x08044264   Data          28  font_bmp.o(.constdata)
    __FUNCTION__                             0x08044280   Data          30  font_bmp.o(.constdata)
    .constdata                               0x080442a0   Section       68  font_fnt.o(.constdata)
    __FUNCTION__                             0x080442b0   Data          25  font_fnt.o(.constdata)
    __FUNCTION__                             0x080442c9   Data          27  font_fnt.o(.constdata)
    .constdata                               0x080442e4   Section      166  font_hz_file.o(.constdata)
    __FUNCTION__                             0x080442f4   Data          24  font_hz_file.o(.constdata)
    __FUNCTION__                             0x0804430c   Data          29  font_hz_file.o(.constdata)
    __FUNCTION__                             0x08044329   Data          31  font_hz_file.o(.constdata)
    .constdata                               0x0804438c   Section       60  framebuffer_driver.o(.constdata)
    .constdata                               0x080443c8   Section       86  image.o(.constdata)
    __FUNCTION__                             0x080443c8   Data          20  image.o(.constdata)
    __FUNCTION__                             0x080443dc   Data          28  image.o(.constdata)
    __FUNCTION__                             0x080443f8   Data          17  image.o(.constdata)
    __FUNCTION__                             0x08044409   Data          21  image.o(.constdata)
    .constdata                               0x08044420   Section      135  image_bmp.o(.constdata)
    __FUNCTION__                             0x08044447   Data          21  image_bmp.o(.constdata)
    .constdata                               0x080444a8   Section       68  image_hdc.o(.constdata)
    __FUNCTION__                             0x080444c0   Data          21  image_hdc.o(.constdata)
    __FUNCTION__                             0x080444d5   Data          23  image_hdc.o(.constdata)
    .constdata                               0x080444ec   Section       80  pixel_driver.o(.constdata)
    .constdata                               0x0804453c   Section      148  region.o(.constdata)
    __FUNCTION__                             0x0804453c   Data          15  region.o(.constdata)
    __FUNCTION__                             0x0804454b   Data          24  region.o(.constdata)
    __FUNCTION__                             0x08044563   Data           9  region.o(.constdata)
    __FUNCTION__                             0x0804456c   Data          18  region.o(.constdata)
    __FUNCTION__                             0x0804457e   Data          24  region.o(.constdata)
    __FUNCTION__                             0x08044596   Data          20  region.o(.constdata)
    __FUNCTION__                             0x080445aa   Data          23  region.o(.constdata)
    __FUNCTION__                             0x080445c1   Data          15  region.o(.constdata)
    .constdata                               0x080445d0   Section      307  rtgui_app.o(.constdata)
    __FUNCTION__                             0x080445e4   Data          23  rtgui_app.o(.constdata)
    __FUNCTION__                             0x080445fb   Data          22  rtgui_app.o(.constdata)
    __FUNCTION__                             0x08044611   Data          17  rtgui_app.o(.constdata)
    __FUNCTION__                             0x08044622   Data          18  rtgui_app.o(.constdata)
    __FUNCTION__                             0x08044634   Data          21  rtgui_app.o(.constdata)
    __FUNCTION__                             0x08044649   Data          21  rtgui_app.o(.constdata)
    __FUNCTION__                             0x0804465e   Data          31  rtgui_app.o(.constdata)
    __FUNCTION__                             0x0804467d   Data          24  rtgui_app.o(.constdata)
    __FUNCTION__                             0x08044695   Data          30  rtgui_app.o(.constdata)
    __FUNCTION__                             0x080446b3   Data          14  rtgui_app.o(.constdata)
    __FUNCTION__                             0x080446c1   Data          20  rtgui_app.o(.constdata)
    __FUNCTION__                             0x080446d5   Data          23  rtgui_app.o(.constdata)
    __FUNCTION__                             0x080446ec   Data          23  rtgui_app.o(.constdata)
    .constdata                               0x08044704   Section       72  rtgui_object.o(.constdata)
    __FUNCTION__                             0x08044718   Data          21  rtgui_object.o(.constdata)
    __FUNCTION__                             0x0804472d   Data          31  rtgui_object.o(.constdata)
    .constdata                               0x0804474c   Section      160  rtgui_system.o(.constdata)
    __FUNCTION__                             0x0804474c   Data          20  rtgui_system.o(.constdata)
    __FUNCTION__                             0x08044760   Data          18  rtgui_system.o(.constdata)
    __FUNCTION__                             0x08044772   Data          17  rtgui_system.o(.constdata)
    __FUNCTION__                             0x08044783   Data          11  rtgui_system.o(.constdata)
    __FUNCTION__                             0x0804478e   Data          18  rtgui_system.o(.constdata)
    __FUNCTION__                             0x080447a0   Data          16  rtgui_system.o(.constdata)
    __FUNCTION__                             0x080447b0   Data          10  rtgui_system.o(.constdata)
    __FUNCTION__                             0x080447ba   Data          11  rtgui_system.o(.constdata)
    __FUNCTION__                             0x080447c5   Data          21  rtgui_system.o(.constdata)
    __FUNCTION__                             0x080447da   Data          18  rtgui_system.o(.constdata)
    .constdata                               0x080447ec   Section      375  rtgui_theme.o(.constdata)
    close_byte                               0x080447fc   Data          14  rtgui_theme.o(.constdata)
    checked_byte                             0x0804480a   Data           7  rtgui_theme.o(.constdata)
    radio_unchecked_byte                     0x08044811   Data          24  rtgui_theme.o(.constdata)
    radio_checked_byte                       0x08044829   Data          24  rtgui_theme.o(.constdata)
    __FUNCTION__                             0x08044841   Data          21  rtgui_theme.o(.constdata)
    __FUNCTION__                             0x08044860   Data          24  rtgui_theme.o(.constdata)
    __FUNCTION__                             0x08044878   Data          23  rtgui_theme.o(.constdata)
    __FUNCTION__                             0x0804488f   Data          25  rtgui_theme.o(.constdata)
    __FUNCTION__                             0x080448a8   Data          25  rtgui_theme.o(.constdata)
    __FUNCTION__                             0x080448c1   Data          26  rtgui_theme.o(.constdata)
    __FUNCTION__                             0x080448db   Data          29  rtgui_theme.o(.constdata)
    __FUNCTION__                             0x080448f8   Data          26  rtgui_theme.o(.constdata)
    __FUNCTION__                             0x08044912   Data          24  rtgui_theme.o(.constdata)
    __FUNCTION__                             0x0804492a   Data          29  rtgui_theme.o(.constdata)
    __FUNCTION__                             0x08044947   Data          28  rtgui_theme.o(.constdata)
    .constdata                               0x08044963   Section       30  driver.o(.constdata)
    __FUNCTION__                             0x08044963   Data          30  driver.o(.constdata)
    .constdata                               0x08044981   Section       70  server.o(.constdata)
    __FUNCTION__                             0x08044981   Data          24  server.o(.constdata)
    __FUNCTION__                             0x08044999   Data          27  server.o(.constdata)
    __FUNCTION__                             0x080449b4   Data          19  server.o(.constdata)
    .constdata                               0x080449c7   Section      691  topwin.o(.constdata)
    __FUNCTION__                             0x080449e8   Data          17  topwin.o(.constdata)
    __FUNCTION__                             0x080449f9   Data          27  topwin.o(.constdata)
    __FUNCTION__                             0x08044a14   Data          38  topwin.o(.constdata)
    __FUNCTION__                             0x08044a3a   Data          25  topwin.o(.constdata)
    __FUNCTION__                             0x08044a53   Data          32  topwin.o(.constdata)
    __FUNCTION__                             0x08044a73   Data          24  topwin.o(.constdata)
    __FUNCTION__                             0x08044a8b   Data          28  topwin.o(.constdata)
    __FUNCTION__                             0x08044aa7   Data          25  topwin.o(.constdata)
    __FUNCTION__                             0x08044ac0   Data          34  topwin.o(.constdata)
    __FUNCTION__                             0x08044ae2   Data          31  topwin.o(.constdata)
    __FUNCTION__                             0x08044b01   Data          35  topwin.o(.constdata)
    __FUNCTION__                             0x08044b24   Data          22  topwin.o(.constdata)
    __FUNCTION__                             0x08044b3a   Data          29  topwin.o(.constdata)
    __FUNCTION__                             0x08044b57   Data          27  topwin.o(.constdata)
    __FUNCTION__                             0x08044b72   Data          26  topwin.o(.constdata)
    __FUNCTION__                             0x08044b8c   Data          25  topwin.o(.constdata)
    __FUNCTION__                             0x08044ba5   Data          31  topwin.o(.constdata)
    __FUNCTION__                             0x08044bc4   Data          34  topwin.o(.constdata)
    __FUNCTION__                             0x08044be6   Data          32  topwin.o(.constdata)
    __FUNCTION__                             0x08044c06   Data          29  topwin.o(.constdata)
    __FUNCTION__                             0x08044c23   Data          26  topwin.o(.constdata)
    __FUNCTION__                             0x08044c3d   Data          25  topwin.o(.constdata)
    __FUNCTION__                             0x08044c56   Data          19  topwin.o(.constdata)
    __FUNCTION__                             0x08044c69   Data          17  topwin.o(.constdata)
    .constdata                               0x08044c7c   Section      154  box.o(.constdata)
    __FUNCTION__                             0x08044c90   Data          23  box.o(.constdata)
    __FUNCTION__                             0x08044ca7   Data          18  box.o(.constdata)
    __FUNCTION__                             0x08044cb9   Data          26  box.o(.constdata)
    __FUNCTION__                             0x08044cd3   Data          28  box.o(.constdata)
    __FUNCTION__                             0x08044cef   Data          17  box.o(.constdata)
    __FUNCTION__                             0x08044d00   Data          22  box.o(.constdata)
    .constdata                               0x08044d18   Section      227  button.o(.constdata)
    __FUNCTION__                             0x08044d2c   Data          26  button.o(.constdata)
    __FUNCTION__                             0x08044d46   Data          27  button.o(.constdata)
    __FUNCTION__                             0x08044d61   Data          20  button.o(.constdata)
    __FUNCTION__                             0x08044d75   Data          21  button.o(.constdata)
    __FUNCTION__                             0x08044d8a   Data          31  button.o(.constdata)
    __FUNCTION__                             0x08044da9   Data          33  button.o(.constdata)
    __FUNCTION__                             0x08044dca   Data          26  button.o(.constdata)
    __FUNCTION__                             0x08044de4   Data          23  button.o(.constdata)
    .constdata                               0x08044dfb   Section      102  caret.o(.constdata)
    __FUNCTION__                             0x08044dfb   Data          17  caret.o(.constdata)
    __FUNCTION__                             0x08044e0c   Data          17  caret.o(.constdata)
    __FUNCTION__                             0x08044e1d   Data          19  caret.o(.constdata)
    __FUNCTION__                             0x08044e30   Data          18  caret.o(.constdata)
    __FUNCTION__                             0x08044e42   Data          17  caret.o(.constdata)
    __FUNCTION__                             0x08044e53   Data          14  caret.o(.constdata)
    .constdata                               0x08044e64   Section      378  container.o(.constdata)
    __FUNCTION__                             0x08044e78   Data          29  container.o(.constdata)
    __FUNCTION__                             0x08044e95   Data          28  container.o(.constdata)
    __FUNCTION__                             0x08044eb1   Data          31  container.o(.constdata)
    __FUNCTION__                             0x08044ed0   Data          32  container.o(.constdata)
    __FUNCTION__                             0x08044ef0   Data          37  container.o(.constdata)
    __FUNCTION__                             0x08044f15   Data          30  container.o(.constdata)
    __FUNCTION__                             0x08044f33   Data          24  container.o(.constdata)
    __FUNCTION__                             0x08044f4b   Data          26  container.o(.constdata)
    __FUNCTION__                             0x08044f65   Data          29  container.o(.constdata)
    __FUNCTION__                             0x08044f82   Data          33  container.o(.constdata)
    __FUNCTION__                             0x08044fa3   Data          32  container.o(.constdata)
    __FUNCTION__                             0x08044fc3   Data          27  container.o(.constdata)
    .constdata                               0x08044fe0   Section      152  label.o(.constdata)
    __FUNCTION__                             0x08044ff4   Data          25  label.o(.constdata)
    __FUNCTION__                             0x0804500d   Data          26  label.o(.constdata)
    __FUNCTION__                             0x08045027   Data          19  label.o(.constdata)
    __FUNCTION__                             0x0804503a   Data          20  label.o(.constdata)
    __FUNCTION__                             0x0804504e   Data          21  label.o(.constdata)
    __FUNCTION__                             0x08045063   Data          21  label.o(.constdata)
    .constdata                               0x08045078   Section      616  notebook.o(.constdata)
    __FUNCTION__                             0x0804508c   Data          28  notebook.o(.constdata)
    __FUNCTION__                             0x080450a8   Data          25  notebook.o(.constdata)
    __FUNCTION__                             0x080450c1   Data          22  notebook.o(.constdata)
    __FUNCTION__                             0x080450d7   Data          23  notebook.o(.constdata)
    __FUNCTION__                             0x080450ee   Data          24  notebook.o(.constdata)
    __FUNCTION__                             0x08045106   Data          30  notebook.o(.constdata)
    __FUNCTION__                             0x08045124   Data          29  notebook.o(.constdata)
    __FUNCTION__                             0x08045141   Data          22  notebook.o(.constdata)
    __FUNCTION__                             0x08045157   Data          23  notebook.o(.constdata)
    __FUNCTION__                             0x0804516e   Data          19  notebook.o(.constdata)
    __FUNCTION__                             0x08045181   Data          25  notebook.o(.constdata)
    __FUNCTION__                             0x0804519a   Data          22  notebook.o(.constdata)
    __FUNCTION__                             0x080451b0   Data          25  notebook.o(.constdata)
    __FUNCTION__                             0x080451c9   Data          27  notebook.o(.constdata)
    __FUNCTION__                             0x080451e4   Data          33  notebook.o(.constdata)
    __FUNCTION__                             0x08045205   Data          27  notebook.o(.constdata)
    __FUNCTION__                             0x08045220   Data          36  notebook.o(.constdata)
    __FUNCTION__                             0x08045244   Data          29  notebook.o(.constdata)
    __FUNCTION__                             0x08045261   Data          38  notebook.o(.constdata)
    __FUNCTION__                             0x08045287   Data          34  notebook.o(.constdata)
    __FUNCTION__                             0x080452a9   Data          29  notebook.o(.constdata)
    __FUNCTION__                             0x080452c6   Data          26  notebook.o(.constdata)
    .constdata                               0x080452e0   Section       19  text_encoding.o(.constdata)
    __FUNCTION__                             0x080452e0   Data          19  text_encoding.o(.constdata)
    .constdata                               0x080452f4   Section      318  textbox.o(.constdata)
    __FUNCTION__                             0x08045308   Data          27  textbox.o(.constdata)
    __FUNCTION__                             0x08045323   Data          29  textbox.o(.constdata)
    __FUNCTION__                             0x08045340   Data          25  textbox.o(.constdata)
    __FUNCTION__                             0x08045359   Data          22  textbox.o(.constdata)
    __FUNCTION__                             0x0804536f   Data          20  textbox.o(.constdata)
    __FUNCTION__                             0x08045383   Data          22  textbox.o(.constdata)
    __FUNCTION__                             0x08045399   Data          24  textbox.o(.constdata)
    __FUNCTION__                             0x080453b1   Data          22  textbox.o(.constdata)
    __FUNCTION__                             0x080453c7   Data          21  textbox.o(.constdata)
    __FUNCTION__                             0x080453dc   Data          30  textbox.o(.constdata)
    __FUNCTION__                             0x080453fa   Data          28  textbox.o(.constdata)
    __FUNCTION__                             0x08045416   Data          28  textbox.o(.constdata)
    .constdata                               0x08045434   Section      121  title.o(.constdata)
    __FUNCTION__                             0x08045448   Data          28  title.o(.constdata)
    __FUNCTION__                             0x08045464   Data          22  title.o(.constdata)
    __FUNCTION__                             0x0804547a   Data          23  title.o(.constdata)
    __FUNCTION__                             0x08045491   Data          28  title.o(.constdata)
    .constdata                               0x080454b0   Section      816  widget.o(.constdata)
    __FUNCTION__                             0x080454c4   Data          26  widget.o(.constdata)
    __FUNCTION__                             0x080454de   Data          25  widget.o(.constdata)
    __FUNCTION__                             0x080454f7   Data          20  widget.o(.constdata)
    __FUNCTION__                             0x0804550b   Data          21  widget.o(.constdata)
    __FUNCTION__                             0x08045520   Data          22  widget.o(.constdata)
    __FUNCTION__                             0x08045536   Data          24  widget.o(.constdata)
    __FUNCTION__                             0x0804554e   Data          25  widget.o(.constdata)
    __FUNCTION__                             0x08045567   Data          26  widget.o(.constdata)
    __FUNCTION__                             0x08045581   Data          27  widget.o(.constdata)
    __FUNCTION__                             0x0804559c   Data          27  widget.o(.constdata)
    __FUNCTION__                             0x080455b7   Data          22  widget.o(.constdata)
    __FUNCTION__                             0x080455cd   Data          24  widget.o(.constdata)
    __FUNCTION__                             0x080455e5   Data          25  widget.o(.constdata)
    __FUNCTION__                             0x080455fe   Data          27  widget.o(.constdata)
    __FUNCTION__                             0x08045619   Data          19  widget.o(.constdata)
    __FUNCTION__                             0x0804562c   Data          21  widget.o(.constdata)
    __FUNCTION__                             0x08045641   Data          29  widget.o(.constdata)
    __FUNCTION__                             0x0804565e   Data          28  widget.o(.constdata)
    __FUNCTION__                             0x0804567a   Data          28  widget.o(.constdata)
    __FUNCTION__                             0x08045696   Data          27  widget.o(.constdata)
    __FUNCTION__                             0x080456b1   Data          26  widget.o(.constdata)
    __FUNCTION__                             0x080456cb   Data          29  widget.o(.constdata)
    __FUNCTION__                             0x080456e8   Data          27  widget.o(.constdata)
    __FUNCTION__                             0x08045703   Data          25  widget.o(.constdata)
    __FUNCTION__                             0x0804571c   Data          18  widget.o(.constdata)
    __FUNCTION__                             0x0804572e   Data          20  widget.o(.constdata)
    __FUNCTION__                             0x08045742   Data          20  widget.o(.constdata)
    __FUNCTION__                             0x08045756   Data          18  widget.o(.constdata)
    __FUNCTION__                             0x08045768   Data          35  widget.o(.constdata)
    __FUNCTION__                             0x0804578b   Data          35  widget.o(.constdata)
    __FUNCTION__                             0x080457ae   Data          20  widget.o(.constdata)
    __FUNCTION__                             0x080457c2   Data          30  widget.o(.constdata)
    .constdata                               0x080457e0   Section      336  window.o(.constdata)
    __FUNCTION__                             0x080457f4   Data          23  window.o(.constdata)
    __FUNCTION__                             0x0804580b   Data          22  window.o(.constdata)
    __FUNCTION__                             0x08045821   Data          17  window.o(.constdata)
    __FUNCTION__                             0x08045832   Data          22  window.o(.constdata)
    __FUNCTION__                             0x08045848   Data          18  window.o(.constdata)
    __FUNCTION__                             0x0804585a   Data          15  window.o(.constdata)
    __FUNCTION__                             0x08045869   Data          15  window.o(.constdata)
    __FUNCTION__                             0x08045878   Data          23  window.o(.constdata)
    __FUNCTION__                             0x0804588f   Data          15  window.o(.constdata)
    __FUNCTION__                             0x0804589e   Data          17  window.o(.constdata)
    __FUNCTION__                             0x080458af   Data          22  window.o(.constdata)
    __FUNCTION__                             0x080458c5   Data          22  window.o(.constdata)
    __FUNCTION__                             0x080458db   Data          24  window.o(.constdata)
    __FUNCTION__                             0x080458f3   Data          19  window.o(.constdata)
    __FUNCTION__                             0x08045906   Data          20  window.o(.constdata)
    __FUNCTION__                             0x0804591a   Data          22  window.o(.constdata)
    .constdata                               0x08045930   Section     3584  asc12font.o(.constdata)
    _font_bits                               0x08045930   Data        2864  asc12font.o(.constdata)
    _sysfont_offset                          0x08046460   Data         448  asc12font.o(.constdata)
    _sysfont_width                           0x08046620   Data         224  asc12font.o(.constdata)
    .constdata                               0x08046730   Section       35  dfs.o(.constdata)
    __FUNCTION__                             0x08046730   Data           9  dfs.o(.constdata)
    __FUNCTION__                             0x08046739   Data           7  dfs.o(.constdata)
    __FUNCTION__                             0x08046740   Data          19  dfs.o(.constdata)
    .constdata                               0x08046753   Section      115  dfs_file.o(.constdata)
    .constdata                               0x080467c6   Section       70  dfs_fs.o(.constdata)
    __FUNCTION__                             0x080467ef   Data          29  dfs_fs.o(.constdata)
    .constdata                               0x0804680c   Section       61  dfs_posix.o(.constdata)
    .constdata                               0x0804684c   Section      185  dfs_elm.o(.constdata)
    dfs_elm                                  0x0804684c   Data          68  dfs_elm.o(.constdata)
    __FUNCTION__                             0x08046890   Data          16  dfs_elm.o(.constdata)
    __FUNCTION__                             0x080468a0   Data          15  dfs_elm.o(.constdata)
    __FUNCTION__                             0x080468af   Data          14  dfs_elm.o(.constdata)
    __FUNCTION__                             0x080468bd   Data          13  dfs_elm.o(.constdata)
    __FUNCTION__                             0x080468ca   Data          14  dfs_elm.o(.constdata)
    __FUNCTION__                             0x080468d8   Data          14  dfs_elm.o(.constdata)
    __FUNCTION__                             0x080468e6   Data          14  dfs_elm.o(.constdata)
    __FUNCTION__                             0x080468f4   Data          17  dfs_elm.o(.constdata)
    .constdata                               0x08046906   Section       58  ff.o(.constdata)
    LfnOfs                                   0x08046906   Data          13  ff.o(.constdata)
    vst                                      0x08046914   Data          22  ff.o(.constdata)
    cst                                      0x0804692a   Data          22  ff.o(.constdata)
    .constdata                               0x08046940   Section    175304  cc936.o(.constdata)
    uni2oem                                  0x08046940   Data       87172  cc936.o(.constdata)
    oem2uni                                  0x0805bdc4   Data       87172  cc936.o(.constdata)
    tbl_lower                                0x08071248   Data         480  cc936.o(.constdata)
    tbl_upper                                0x08071428   Data         480  cc936.o(.constdata)
    .constdata                               0x08071608   Section      129  ctype_o.o(.constdata)
    .constdata                               0x0807168c   Section        4  ctype_o.o(.constdata)
    table                                    0x0807168c   Data           4  ctype_o.o(.constdata)
    .constdata                               0x08071690   Section       12  mktime.o(.constdata)
    monlen                                   0x08071690   Data          12  mktime.o(.constdata)
    .constdata                               0x080716a0   Section       48  cos_i.o(.constdata)
    C                                        0x080716a0   Data          48  cos_i.o(.constdata)
    .constdata                               0x080716d0   Section      200  rred.o(.constdata)
    pio2s                                    0x080716d0   Data          48  rred.o(.constdata)
    twooverpi                                0x08071700   Data         152  rred.o(.constdata)
    .constdata                               0x08071798   Section       40  sin_i.o(.constdata)
    S                                        0x08071798   Data          40  sin_i.o(.constdata)
    .constdata                               0x080717c0   Section       12  localtime_i.o(.constdata)
    monlen                                   0x080717c0   Data          12  localtime_i.o(.constdata)
    .constdata                               0x080717cc   Section       57  asctime.o(.constdata)
    week                                     0x080717cc   Data          21  asctime.o(.constdata)
    mon                                      0x080717e1   Data          36  asctime.o(.constdata)
    .conststring                             0x08071805   Section      233  cmd.o(.conststring)
    .conststring                             0x080718ee   Section      216  finsh_error.o(.conststring)
    .conststring                             0x080719c6   Section       44  finsh_token.o(.conststring)
    .conststring                             0x080719f2   Section      104  tcp.o(.conststring)
    .conststring                             0x08071a5a   Section        4  asc16font.o(.conststring)
    .conststring                             0x08071a5e   Section        4  image_bmp.o(.conststring)
    .conststring                             0x08071a62   Section       10  image_hdc.o(.conststring)
    .conststring                             0x08071a6c   Section       12  rtgui_app.o(.conststring)
    .conststring                             0x08071a78   Section        7  rtgui_object.o(.conststring)
    .conststring                             0x08071a7f   Section        7  button.o(.conststring)
    .conststring                             0x08071a86   Section       10  container.o(.conststring)
    .conststring                             0x08071a90   Section        6  label.o(.conststring)
    .conststring                             0x08071a96   Section        9  notebook.o(.conststring)
    .conststring                             0x08071a9f   Section        8  textbox.o(.conststring)
    .conststring                             0x08071aa7   Section        9  title.o(.conststring)
    .conststring                             0x08071ab0   Section        7  widget.o(.conststring)
    .conststring                             0x08071ab7   Section        4  window.o(.conststring)
    .conststring                             0x08071abb   Section       23  hz12font.o(.conststring)
    .conststring                             0x08071ad2   Section       20  hz16font.o(.conststring)
    .conststring                             0x08071ae6   Section        4  dfs_elm.o(.conststring)
    FSymTab                                  0x08071aec   Section       24  lcd_show.o(FSymTab)
    FSymTab                                  0x08071b04   Section       24  24lcxx.o(FSymTab)
    FSymTab                                  0x08071b1c   Section       12  fm25lx.o(FSymTab)
    FSymTab                                  0x08071b28   Section       36  rtc.o(FSymTab)
    FSymTab                                  0x08071b4c   Section       12  stm32f2_eth.o(FSymTab)
    FSymTab                                  0x08071b58   Section       12  mem.o(FSymTab)
    FSymTab                                  0x08071b64   Section      144  cmd.o(FSymTab)
    FSymTab                                  0x08071bf4   Section       48  ethernetif.o(FSymTab)
    FSymTab                                  0x08071c24   Section       12  ping.o(FSymTab)
    FSymTab                                  0x08071c30   Section       12  image_bmp.o(FSymTab)
    FSymTab                                  0x08071c3c   Section       12  topwin.o(FSymTab)
    FSymTab                                  0x08071c48   Section       48  dfs_file.o(FSymTab)
    FSymTab                                  0x08071c78   Section       24  dfs_fs.o(FSymTab)
    FSymTab                                  0x08071c90   Section       24  dfs_posix.o(FSymTab)
    VSymTab                                  0x08071cc8   Section       16  lcd_show.o(VSymTab)
    VSymTab                                  0x08071cd8   Section       16  cmd.o(VSymTab)
    .data                                    0x20000000   Section       24  sensor_conf.o(.data)
    mb_str1                                  0x20000000   Data           3  sensor_conf.o(.data)
    mb_str2                                  0x20000003   Data           4  sensor_conf.o(.data)
    mb_str                                   0x20000007   Data          10  sensor_conf.o(.data)
    i                                        0x20000014   Data           4  sensor_conf.o(.data)
    .data                                    0x20000018   Section       64  lcd_show.o(.data)
    heat_on_off                              0x2000001c   Data           4  lcd_show.o(.data)
    fan_on_off                               0x20000020   Data           4  lcd_show.o(.data)
    win                                      0x20000024   Data           4  lcd_show.o(.data)
    textbox1                                 0x20000028   Data           4  lcd_show.o(.data)
    textbox2                                 0x2000002c   Data           4  lcd_show.o(.data)
    textbox3                                 0x20000030   Data           4  lcd_show.o(.data)
    textbox4                                 0x20000034   Data           4  lcd_show.o(.data)
    heat_btn                                 0x20000038   Data           4  lcd_show.o(.data)
    fan_btn                                  0x2000003c   Data           4  lcd_show.o(.data)
    label1                                   0x20000040   Data           4  lcd_show.o(.data)
    label2                                   0x20000044   Data           4  lcd_show.o(.data)
    IRS1_str                                 0x20000048   Data           4  lcd_show.o(.data)
    IRS2_str                                 0x2000004c   Data           4  lcd_show.o(.data)
    Seed_str                                 0x20000050   Data           4  lcd_show.o(.data)
    Temp_Value                               0x20000054   Data           4  lcd_show.o(.data)
    .data                                    0x20000058   Section       16  adc_dma.o(.data)
    i                                        0x2000005c   Data           2  adc_dma.o(.data)
    sum                                      0x20000060   Data           4  adc_dma.o(.data)
    time                                     0x20000064   Data           2  adc_dma.o(.data)
    .data                                    0x20000068   Section        8  fm25lx.o(.data)
    spi_timeout_cnt                          0x20000068   Data           4  fm25lx.o(.data)
    .data                                    0x20000070   Section       44  i2c.o(.data)
    i2c1_init_flag                           0x20000078   Data           1  i2c.o(.data)
    call_cnt                                 0x2000007c   Data           4  i2c.o(.data)
    i                                        0x20000080   Data           4  i2c.o(.data)
    i2c_mux                                  0x20000084   Data           4  i2c.o(.data)
    i2c_buf                                  0x2000008c   Data           4  i2c.o(.data)
    MemAddr                                  0x20000090   Data           4  i2c.o(.data)
    i2cStatus                                0x20000094   Data           1  i2c.o(.data)
    i2cFlag                                  0x20000095   Data           1  i2c.o(.data)
    i2cPhase                                 0x20000096   Data           1  i2c.o(.data)
    memtype                                  0x20000097   Data           1  i2c.o(.data)
    BufSize                                  0x20000098   Data           4  i2c.o(.data)
    .data                                    0x2000009c   Section       64  rtc.o(.data)
    month                                    0x200000a4   Data          48  rtc.o(.data)
    .data                                    0x200000dc   Section       24  usart.o(.data)
    .data                                    0x200000f4   Section       20  sdio_sd.o(.data)
    CardType                                 0x200000f4   Data           4  sdio_sd.o(.data)
    RCA                                      0x200000f8   Data           4  sdio_sd.o(.data)
    .data                                    0x20000108   Section       26  lcd.o(.data)
    LCD_Code                                 0x2000011c   Data           1  lcd.o(.data)
    .data                                    0x20000122   Section       24  touchpanel.o(.data)
    screen                                   0x2000012e   Data           4  touchpanel.o(.data)
    .data                                    0x2000013c   Section       20  system_stm32f2xx.o(.data)
    .data                                    0x20000150   Section       16  stm32f2xx_rcc.o(.data)
    APBAHBPrescTable                         0x20000150   Data          16  stm32f2xx_rcc.o(.data)
    .data                                    0x20000160   Section       12  stm32f2_eth.o(.data)
    tx_is_waiting                            0x20000160   Data           4  stm32f2_eth.o(.data)
    led                                      0x20000164   Data           1  stm32f2_eth.o(.data)
    framecnt                                 0x20000168   Data           4  stm32f2_eth.o(.data)
    .data                                    0x2000016c   Section       16  stm32f2x7_eth.o(.data)
    .data                                    0x2000017c   Section        4  clock.o(.data)
    rt_tick                                  0x2000017c   Data           4  clock.o(.data)
    .data                                    0x20000180   Section        4  idle.o(.data)
    rt_thread_idle_hook                      0x20000180   Data           4  idle.o(.data)
    .data                                    0x20000184   Section        1  irq.o(.data)
    .data                                    0x20000188   Section        8  kservice.o(.data)
    _console_device                          0x20000188   Data           4  kservice.o(.data)
    _errno                                   0x2000018c   Data           4  kservice.o(.data)
    .data                                    0x20000190   Section       32  mem.o(.data)
    rt_malloc_hook                           0x20000190   Data           4  mem.o(.data)
    rt_free_hook                             0x20000194   Data           4  mem.o(.data)
    heap_ptr                                 0x20000198   Data           4  mem.o(.data)
    heap_end                                 0x2000019c   Data           4  mem.o(.data)
    lfree                                    0x200001a0   Data           4  mem.o(.data)
    mem_size_aligned                         0x200001a4   Data           4  mem.o(.data)
    used_mem                                 0x200001a8   Data           4  mem.o(.data)
    max_mem                                  0x200001ac   Data           4  mem.o(.data)
    .data                                    0x200001b0   Section        8  mempool.o(.data)
    rt_mp_alloc_hook                         0x200001b0   Data           4  mempool.o(.data)
    rt_mp_free_hook                          0x200001b4   Data           4  mempool.o(.data)
    .data                                    0x200001b8   Section      164  object.o(.data)
    rt_object_attach_hook                    0x20000248   Data           4  object.o(.data)
    rt_object_detach_hook                    0x2000024c   Data           4  object.o(.data)
    .data                                    0x2000025c   Section       28  scheduler.o(.data)
    rt_scheduler_lock_nest                   0x2000025c   Data           2  scheduler.o(.data)
    rt_scheduler_hook                        0x20000274   Data           4  scheduler.o(.data)
    .data                                    0x20000278   Section       16  timer.o(.data)
    random_nr                                0x20000278   Data           4  timer.o(.data)
    rt_timer_list                            0x2000027c   Data           8  timer.o(.data)
    rt_timer_timeout_hook                    0x20000284   Data           4  timer.o(.data)
    .data                                    0x20000288   Section       16  cpuport.o(.data)
    rt_exception_hook                        0x20000288   Data           4  cpuport.o(.data)
    .data                                    0x20000298   Section        4  cmd.o(.data)
    dummy                                    0x20000298   Data           4  cmd.o(.data)
    .data                                    0x2000029c   Section        8  finsh_compiler.o(.data)
    .data                                    0x200002a4   Section       61  finsh_error.o(.data)
    finsh_error_string_table                 0x200002a4   Data          60  finsh_error.o(.data)
    .data                                    0x200002e4   Section        8  finsh_heap.o(.data)
    free_list                                0x200002e4   Data           4  finsh_heap.o(.data)
    allocate_list                            0x200002e8   Data           4  finsh_heap.o(.data)
    .data                                    0x200002ec   Section        4  finsh_var.o(.data)
    .data                                    0x200002f0   Section       12  finsh_vm.o(.data)
    .data                                    0x200002fc   Section      136  shell.o(.data)
    finsh_prompt                             0x200002fc   Data         129  shell.o(.data)
    .data                                    0x20000384   Section       16  symbol.o(.data)
    .data                                    0x20000394   Section        8  sockets.o(.data)
    select_cb_list                           0x20000394   Data           4  sockets.o(.data)
    select_cb_ctr                            0x20000398   Data           4  sockets.o(.data)
    .data                                    0x2000039c   Section       12  tcpip.o(.data)
    tcpip_init_done                          0x2000039c   Data           4  tcpip.o(.data)
    tcpip_init_done_arg                      0x200003a0   Data           4  tcpip.o(.data)
    mbox                                     0x200003a4   Data           4  tcpip.o(.data)
    .data                                    0x200003a8   Section        6  sys_arch.o(.data)
    counter                                  0x200003a8   Data           2  sys_arch.o(.data)
    counter                                  0x200003aa   Data           2  sys_arch.o(.data)
    counter                                  0x200003ac   Data           2  sys_arch.o(.data)
    .data                                    0x200003b0   Section       20  dns.o(.data)
    dns_pcb                                  0x200003b0   Data           4  dns.o(.data)
    dns_seqno                                0x200003b4   Data           1  dns.o(.data)
    dns_servers                              0x200003b8   Data           8  dns.o(.data)
    dns_payload                              0x200003c0   Data           4  dns.o(.data)
    .data                                    0x200003c4   Section       12  netif.o(.data)
    netifnum                                 0x200003c4   Data           1  netif.o(.data)
    .data                                    0x200003d0   Section        1  pbuf.o(.data)
    pbuf_free_ooseq_queued                   0x200003d0   Data           1  pbuf.o(.data)
    .data                                    0x200003d4   Section        4  raw.o(.data)
    raw_pcbs                                 0x200003d4   Data           4  raw.o(.data)
    .data                                    0x200003d8   Section       33  tcp.o(.data)
    port                                     0x200003d8   Data           2  tcp.o(.data)
    iss                                      0x200003dc   Data           4  tcp.o(.data)
    tcp_timer                                0x200003f8   Data           1  tcp.o(.data)
    .data                                    0x200003fc   Section       32  tcp_in.o(.data)
    tcphdr                                   0x200003fc   Data           4  tcp_in.o(.data)
    iphdr                                    0x20000400   Data           4  tcp_in.o(.data)
    seqno                                    0x20000404   Data           4  tcp_in.o(.data)
    ackno                                    0x20000408   Data           4  tcp_in.o(.data)
    flags                                    0x2000040c   Data           1  tcp_in.o(.data)
    tcplen                                   0x2000040e   Data           2  tcp_in.o(.data)
    recv_flags                               0x20000410   Data           1  tcp_in.o(.data)
    recv_data                                0x20000414   Data           4  tcp_in.o(.data)
    .data                                    0x2000041c   Section        8  timers.o(.data)
    next_timeout                             0x2000041c   Data           4  timers.o(.data)
    tcpip_tcp_timer_active                   0x20000420   Data           4  timers.o(.data)
    .data                                    0x20000424   Section        4  udp.o(.data)
    .data                                    0x20000428   Section       18  ip.o(.data)
    ip_id                                    0x20000438   Data           2  ip.o(.data)
    .data                                    0x2000043a   Section        1  etharp.o(.data)
    etharp_cached_entry                      0x2000043a   Data           1  etharp.o(.data)
    .data                                    0x2000043c   Section        2  ping.o(.data)
    ping_seq_num                             0x2000043c   Data           2  ping.o(.data)
    .data                                    0x20000440   Section       44  asc16font.o(.data)
    .data                                    0x2000046c   Section        8  font.o(.data)
    _rtgui_font_list                         0x2000046c   Data           4  font.o(.data)
    rtgui_default_font                       0x20000470   Data           4  font.o(.data)
    .data                                    0x20000474   Section        4  image.o(.data)
    _rtgui_system_image_list                 0x20000474   Data           4  image.o(.data)
    .data                                    0x20000478   Section       24  image_bmp.o(.data)
    .data                                    0x20000490   Section       24  image_hdc.o(.data)
    .data                                    0x200004a8   Section       28  region.o(.data)
    rtgui_region_emptydata                   0x200004b4   Data           8  region.o(.data)
    rtgui_brokendata                         0x200004bc   Data           8  region.o(.data)
    .data                                    0x200004c4   Section        8  rtgui_system.o(.data)
    _mainwin_rect                            0x200004c4   Data           8  rtgui_system.o(.data)
    .data                                    0x200004cc   Section        4  driver.o(.data)
    _current_driver                          0x200004cc   Data           4  driver.o(.data)
    .data                                    0x200004d0   Section        4  gesture.o(.data)
    _last_x                                  0x200004d0   Data           2  gesture.o(.data)
    _last_y                                  0x200004d2   Data           2  gesture.o(.data)
    .data                                    0x200004d4   Section        4  mouse.o(.data)
    .data                                    0x200004d8   Section       12  server.o(.data)
    rtgui_server_app                         0x200004d8   Data           4  server.o(.data)
    rtgui_wm_application                     0x200004dc   Data           4  server.o(.data)
    last_monitor_topwin                      0x200004e0   Data           4  server.o(.data)
    .data                                    0x200004e4   Section        8  topwin.o(.data)
    _rtgui_topwin_list                       0x200004e4   Data           8  topwin.o(.data)
    .data                                    0x200004ec   Section       12  touch.o(.data)
    _cali_ops                                0x200004ec   Data           4  touch.o(.data)
    _calibrating                             0x200004f0   Data           4  touch.o(.data)
    x_prev                                   0x200004f4   Data           2  touch.o(.data)
    y_prev                                   0x200004f6   Data           2  touch.o(.data)
    .data                                    0x200004f8   Section       24  asc12font.o(.data)
    .data                                    0x20000510   Section       44  hz12font.o(.data)
    .data                                    0x2000053c   Section       44  hz16font.o(.data)
    .data                                    0x20000568   Section      256  dfs.o(.data)
    .data                                    0x20000668   Section        4  dfs_elm.o(.data)
    disk                                     0x20000668   Data           4  dfs_elm.o(.data)
    .data                                    0x2000066c   Section        6  ff.o(.data)
    FatFs                                    0x2000066c   Data           4  ff.o(.data)
    Fsid                                     0x20000670   Data           2  ff.o(.data)
    .data                                    0x20000674   Section        4  errno.o(.data)
    _errno                                   0x20000674   Data           4  errno.o(.data)
    .bss                                     0x20000678   Section      528  sensor_conf.o(.bss)
    .bss                                     0x20000888   Section      560  temp_conf.o(.bss)
    .bss                                     0x20000ab8   Section      640  lcd_show.o(.bss)
    .bss                                     0x20000d38   Section       64  24lcxx.o(.bss)
    ee_dev                                   0x20000d38   Data          64  24lcxx.o(.bss)
    .bss                                     0x20000d78   Section       64  fm25lx.o(.bss)
    spi_flash_device                         0x20000d78   Data          64  fm25lx.o(.bss)
    .bss                                     0x20000db8   Section       92  i2c.o(.bss)
    .bss                                     0x20000e14   Section       92  rtc.o(.bss)
    rtc                                      0x20000e30   Data          64  rtc.o(.bss)
    .bss                                     0x20000e70   Section      272  usart.o(.bss)
    .bss                                     0x20000f80   Section      820  sdio_sd.o(.bss)
    CSD_Tab                                  0x20000f80   Data          16  sdio_sd.o(.bss)
    CID_Tab                                  0x20000f90   Data          16  sdio_sd.o(.bss)
    SDSTATUS_Tab                             0x20000fa0   Data          16  sdio_sd.o(.bss)
    sdcard_device                            0x20001044   Data          64  sdio_sd.o(.bss)
    part                                     0x20001084   Data          16  sdio_sd.o(.bss)
    sd_lock                                  0x20001094   Data          32  sdio_sd.o(.bss)
    _sdcard_buffer                           0x200010b4   Data         512  sdio_sd.o(.bss)
    .bss                                     0x200012b4   Section       64  lcd.o(.bss)
    .bss                                     0x200012f8   Section       68  touchpanel.o(.bss)
    .bss                                     0x2000133c   Section      152  stm32f2_eth.o(.bss)
    stm32_eth_device                         0x2000133c   Data         120  stm32f2_eth.o(.bss)
    tx_wait                                  0x200013b4   Data          32  stm32f2_eth.o(.bss)
    .bss                                     0x200013d4   Section     9348  stm32f2x7_eth.o(.bss)
    .bss                                     0x20003858   Section      384  idle.o(.bss)
    idle                                     0x20003858   Data         128  idle.o(.bss)
    rt_thread_stack                          0x200038d8   Data         256  idle.o(.bss)
    .bss                                     0x200039d8   Section      128  kservice.o(.bss)
    rt_log_buf                               0x200039d8   Data         128  kservice.o(.bss)
    .bss                                     0x20003a58   Section       32  mem.o(.bss)
    heap_sem                                 0x20003a58   Data          32  mem.o(.bss)
    .bss                                     0x20003a78   Section      256  scheduler.o(.bss)
    .bss                                     0x20003b78   Section      128  finsh_heap.o(.bss)
    .bss                                     0x20003bf8   Section      320  finsh_node.o(.bss)
    .bss                                     0x20003d38   Section      192  finsh_var.o(.bss)
    .bss                                     0x20003df8   Section      384  finsh_vm.o(.bss)
    .bss                                     0x20003f78   Section     2176  shell.o(.bss)
    finsh_thread                             0x20003f78   Data         128  shell.o(.bss)
    finsh_thread_stack                       0x20003ff8   Data        2048  shell.o(.bss)
    .bss                                     0x200047f8   Section       96  sockets.o(.bss)
    sockets                                  0x200047f8   Data          96  sockets.o(.bss)
    .bss                                     0x20004858   Section     1635  dns.o(.bss)
    dns_table                                0x20004858   Data        1120  dns.o(.bss)
    dns_payload_buffer                       0x20004cb8   Data         515  dns.o(.bss)
    .bss                                     0x20004ebc   Section       16  tcp_in.o(.bss)
    inseg                                    0x20004ebc   Data          16  tcp_in.o(.bss)
    .bss                                     0x20004ecc   Section       16  ip_addr.o(.bss)
    str                                      0x20004ecc   Data          16  ip_addr.o(.bss)
    .bss                                     0x20004edc   Section      160  etharp.o(.bss)
    arp_table                                0x20004edc   Data         160  etharp.o(.bss)
    .bss                                     0x20004f7c   Section     1408  ethernetif.o(.bss)
    eth_tx_thread_mb                         0x20004f7c   Data          48  ethernetif.o(.bss)
    eth_tx_thread                            0x20004fac   Data         128  ethernetif.o(.bss)
    eth_tx_thread_mb_pool                    0x2000502c   Data          16  ethernetif.o(.bss)
    eth_tx_thread_stack                      0x2000503c   Data         512  ethernetif.o(.bss)
    eth_rx_thread_mb                         0x2000523c   Data          48  ethernetif.o(.bss)
    eth_rx_thread                            0x2000526c   Data         128  ethernetif.o(.bss)
    eth_rx_thread_mb_pool                    0x200052ec   Data          16  ethernetif.o(.bss)
    eth_rx_thread_stack                      0x200052fc   Data         512  ethernetif.o(.bss)
    .bss                                     0x200054fc   Section       36  rtgui_system.o(.bss)
    _screen_lock                             0x200054fc   Data          36  rtgui_system.o(.bss)
    .bss                                     0x20005520   Section       48  driver.o(.bss)
    _vfb_driver                              0x20005520   Data          24  driver.o(.bss)
    _driver                                  0x20005538   Data          24  driver.o(.bss)
    .bss                                     0x20005550   Section       32  topwin.o(.bss)
    _rtgui_topwin_lock                       0x20005550   Data          32  topwin.o(.bss)
    .bss                                     0x20005570   Section      212  dfs.o(.bss)
    fslock                                   0x200055a0   Data          36  dfs.o(.bss)
    .bss                                     0x20005644   Section      292  dfs_file.o(.bss)
    fd                                       0x20005644   Data          32  dfs_file.o(.bss)
    dirent                                   0x20005664   Data         260  dfs_file.o(.bss)
    .bss                                     0x20005768   Section       44  localtime_w.o(.bss)
    _tms                                     0x20005768   Data          44  localtime_w.o(.bss)
    .bss                                     0x20005794   Section       26  asctime.o(.bss)
    result                                   0x20005794   Data          26  asctime.o(.bss)
    STACK                                    0x200057b0   Section     1024  startup_stm32f2xx.o(STACK)

    Global Symbols

    Symbol Name                              Value     Ov Type        Size  Object(Section)

    BuildAttributes$$THM_ISAv4$P$D$K$B$S$PE$A:L22UL41UL21$X:L11$S22US41US21$IEEE1$IW$USESV6$~STKCKD$USESV7$~SHL$OTIME$ROPI$IEEEX$EBA8$MICROLIB$REQ8$PRES8$EABIv2 0x00000000   Number         0  anon$$obj.o ABSOLUTE
    __ARM_use_no_argv                        0x00000000   Number         0  startup.o ABSOLUTE
    _printf_a                                0x00000000   Number         0  stubs.o ABSOLUTE
    _printf_c                                0x00000000   Number         0  stubs.o ABSOLUTE
    _printf_charcount                        0x00000000   Number         0  stubs.o ABSOLUTE
    _printf_d                                0x00000000   Number         0  stubs.o ABSOLUTE
    _printf_e                                0x00000000   Number         0  stubs.o ABSOLUTE
    _printf_f                                0x00000000   Number         0  stubs.o ABSOLUTE
    _printf_flags                            0x00000000   Number         0  stubs.o ABSOLUTE
    _printf_fp_dec                           0x00000000   Number         0  stubs.o ABSOLUTE
    _printf_fp_hex                           0x00000000   Number         0  stubs.o ABSOLUTE
    _printf_g                                0x00000000   Number         0  stubs.o ABSOLUTE
    _printf_i                                0x00000000   Number         0  stubs.o ABSOLUTE
    _printf_int_dec                          0x00000000   Number         0  stubs.o ABSOLUTE
    _printf_l                                0x00000000   Number         0  stubs.o ABSOLUTE
    _printf_lc                               0x00000000   Number         0  stubs.o ABSOLUTE
    _printf_ll                               0x00000000   Number         0  stubs.o ABSOLUTE
    _printf_lld                              0x00000000   Number         0  stubs.o ABSOLUTE
    _printf_lli                              0x00000000   Number         0  stubs.o ABSOLUTE
    _printf_llo                              0x00000000   Number         0  stubs.o ABSOLUTE
    _printf_llu                              0x00000000   Number         0  stubs.o ABSOLUTE
    _printf_llx                              0x00000000   Number         0  stubs.o ABSOLUTE
    _printf_longlong_dec                     0x00000000   Number         0  stubs.o ABSOLUTE
    _printf_longlong_hex                     0x00000000   Number         0  stubs.o ABSOLUTE
    _printf_longlong_oct                     0x00000000   Number         0  stubs.o ABSOLUTE
    _printf_ls                               0x00000000   Number         0  stubs.o ABSOLUTE
    _printf_mbtowc                           0x00000000   Number         0  stubs.o ABSOLUTE
    _printf_n                                0x00000000   Number         0  stubs.o ABSOLUTE
    _printf_o                                0x00000000   Number         0  stubs.o ABSOLUTE
    _printf_p                                0x00000000   Number         0  stubs.o ABSOLUTE
    _printf_percent                          0x00000000   Number         0  stubs.o ABSOLUTE
    _printf_pre_padding                      0x00000000   Number         0  stubs.o ABSOLUTE
    _printf_return_value                     0x00000000   Number         0  stubs.o ABSOLUTE
    _printf_s                                0x00000000   Number         0  stubs.o ABSOLUTE
    _printf_sizespec                         0x00000000   Number         0  stubs.o ABSOLUTE
    _printf_str                              0x00000000   Number         0  stubs.o ABSOLUTE
    _printf_truncate_signed                  0x00000000   Number         0  stubs.o ABSOLUTE
    _printf_truncate_unsigned                0x00000000   Number         0  stubs.o ABSOLUTE
    _printf_u                                0x00000000   Number         0  stubs.o ABSOLUTE
    _printf_wc                               0x00000000   Number         0  stubs.o ABSOLUTE
    _printf_wctomb                           0x00000000   Number         0  stubs.o ABSOLUTE
    _printf_widthprec                        0x00000000   Number         0  stubs.o ABSOLUTE
    _printf_x                                0x00000000   Number         0  stubs.o ABSOLUTE
    _clock_init                               - Undefined Weak Reference
    __Vectors_Size                           0x00000184   Number         0  startup_stm32f2xx.o ABSOLUTE
    __Vectors                                0x08000000   Data           4  startup_stm32f2xx.o(RESET)
    __Vectors_End                            0x08000184   Data           0  startup_stm32f2xx.o(RESET)
    __main                                   0x08000185   Thumb Code     0  entry.o(.ARM.Collect$$$$00000000)
    _main_stk                                0x08000185   Thumb Code     0  entry2.o(.ARM.Collect$$$$00000001)
    _main_scatterload                        0x08000189   Thumb Code     0  entry5.o(.ARM.Collect$$$$00000004)
    __main_after_scatterload                 0x0800018d   Thumb Code     0  entry5.o(.ARM.Collect$$$$00000004)
    _main_clock                              0x0800018d   Thumb Code     0  entry7b.o(.ARM.Collect$$$$00000008)
    _main_init                               0x0800018d   Thumb Code     0  entry8.o(.ARM.Collect$$$$00000009)
    tp_thread_entry                          0x08000199   Thumb Code   222  application.o(.text)
    rt_init_thread_entry                     0x08000277   Thumb Code   176  application.o(.text)
    rt_application_init                      0x08000327   Thumb Code    40  application.o(.text)
    fputc                                    0x0800034f   Thumb Code    18  application.o(.text)
    rtthread_startup                         0x08000435   Thumb Code    82  startup.o(.text)
    main                                     0x08000487   Thumb Code    14  startup.o(.text)
    Tim2_Init                                0x080004a5   Thumb Code   260  tim_conf.o(.text)
    NVIC_Sensor_Config                       0x080005b1   Thumb Code   118  sensor_conf.o(.text)
    EXTI_Config                              0x08000627   Thumb Code    98  sensor_conf.o(.text)
    Sensor_GPIO_Init                         0x08000689   Thumb Code   110  sensor_conf.o(.text)
    EXTI2_IRQHandler                         0x080006f7   Thumb Code    50  sensor_conf.o(.text)
    EXTI4_IRQHandler                         0x08000729   Thumb Code    50  sensor_conf.o(.text)
    EXTI15_10_IRQHandler                     0x0800075b   Thumb Code    20  sensor_conf.o(.text)
    sensor_config                            0x0800076f   Thumb Code    66  sensor_conf.o(.text)
    GPIO_RM_Configuration                    0x080007f5   Thumb Code    60  temp_conf.o(.text)
    temp_config                              0x08000831   Thumb Code    20  temp_conf.o(.text)
    _onidle1                                 0x08000869   Thumb Code   542  lcd_show.o(.text)
    gui4                                     0x080010e1   Thumb Code    36  lcd_show.o(.text)
    gui5                                     0x08001105   Thumb Code    10  lcd_show.o(.text)
    test2                                    0x0800110f   Thumb Code    46  lcd_show.o(.text)
    ADC1_CH3_4_DMA_Config                    0x080011ad   Thumb Code   292  adc_dma.o(.text)
    NVIC_Config                              0x080012d1   Thumb Code    64  adc_dma.o(.text)
    ADC_PM2R5                                0x08001311   Thumb Code    16  adc_dma.o(.text)
    DMA2_Stream0_IRQHandler                  0x08001321   Thumb Code   226  adc_dma.o(.text)
    TIM2_IRQHandler                          0x08001403   Thumb Code    20  adc_dma.o(.text)
    EE_ReadBuffer                            0x0800146d   Thumb Code    30  24lcxx.o(.text)
    EE_WritePage                             0x0800148b   Thumb Code    36  24lcxx.o(.text)
    EE_WriteByte                             0x080014af   Thumb Code    36  24lcxx.o(.text)
    EE_WriteBuffer                           0x080014d3   Thumb Code   100  24lcxx.o(.text)
    ee24LCxx_hw_init                         0x0800159b   Thumb Code    70  24lcxx.o(.text)
    dump_ee                                  0x080015e1   Thumb Code    70  24lcxx.o(.text)
    ee_reset                                 0x08001627   Thumb Code   120  24lcxx.o(.text)
    rt_hw_spi2_baud_rate                     0x08001705   Thumb Code    22  fm25lx.o(.text)
    fm25_spi_cfg                             0x0800171b   Thumb Code   210  fm25lx.o(.text)
    fm25_read                                0x08001879   Thumb Code   134  fm25lx.o(.text)
    fm25_write                               0x080018ff   Thumb Code   156  fm25lx.o(.text)
    fm25_hw_init                             0x08001a43   Thumb Code    94  fm25lx.o(.text)
    fram_test                                0x08001aa1   Thumb Code   340  fm25lx.o(.text)
    SD_LowLevel_DeInit                       0x08001c19   Thumb Code   140  board.o(.text)
    SD_LowLevel_Init                         0x08001ca5   Thumb Code   182  board.o(.text)
    SD_LowLevel_DMA_TxConfig                 0x08001d5b   Thumb Code   124  board.o(.text)
    SD_LowLevel_DMA_RxConfig                 0x08001dd7   Thumb Code   122  board.o(.text)
    SD_DMAEndOfTransferStatus                0x08001e51   Thumb Code    14  board.o(.text)
    NVIC_Configuration                       0x08001e5f   Thumb Code    14  board.o(.text)
    SysTick_Configuration                    0x08001e6d   Thumb Code    94  board.o(.text)
    SysTick_Handler                          0x08001ecb   Thumb Code    16  board.o(.text)
    rt_hw_board_init                         0x08001edb   Thumb Code    22  board.o(.text)
    dump_i2c_register                        0x08001f15   Thumb Code     2  i2c.o(.text)
    I2C_AcknowledgePolling                   0x08001f17   Thumb Code   146  i2c.o(.text)
    I2C_DMAConfig                            0x08001fa9   Thumb Code   146  i2c.o(.text)
    I2C1_EV_IRQHandler                       0x0800203b   Thumb Code   628  i2c.o(.text)
    DMA1_Stream6_IRQHandler                  0x080022af   Thumb Code    30  i2c.o(.text)
    DMA1_Stream0_IRQHandler                  0x080022cd   Thumb Code   276  i2c.o(.text)
    I2C1_ER_IRQHandler                       0x080023e1   Thumb Code   114  i2c.o(.text)
    I2C_Free_Bus                             0x08002453   Thumb Code     6  i2c.o(.text)
    I2C_IORW                                 0x08002459   Thumb Code   412  i2c.o(.text)
    I2C1_INIT                                0x080025f5   Thumb Code   508  i2c.o(.text)
    RTC_Config                               0x0800293b   Thumb Code    84  rtc.o(.text)
    RTC_Configuration                        0x0800298f   Thumb Code   100  rtc.o(.text)
    rt_hw_rtc_init                           0x080029f3   Thumb Code    96  rtc.o(.text)
    time                                     0x08002a53   Thumb Code    38  rtc.o(.text)
    set_date                                 0x08002a79   Thumb Code    74  rtc.o(.text)
    set_time                                 0x08002ac3   Thumb Code    68  rtc.o(.text)
    list_date                                0x08002b07   Thumb Code    26  rtc.o(.text)
    rt_hw_serial_register                    0x08002eb7   Thumb Code   134  serial.o(.text)
    rt_hw_serial_isr                         0x08002f3d   Thumb Code   470  serial.o(.text)
    rt_hw_serial_dma_tx_isr                  0x08003113   Thumb Code   164  serial.o(.text)
    NMI_Handler                              0x080031fd   Thumb Code     2  stm32f2xx_it.o(.text)
    MemManage_Handler                        0x080031ff   Thumb Code     4  stm32f2xx_it.o(.text)
    BusFault_Handler                         0x08003203   Thumb Code     4  stm32f2xx_it.o(.text)
    UsageFault_Handler                       0x08003207   Thumb Code     4  stm32f2xx_it.o(.text)
    SVC_Handler                              0x0800320b   Thumb Code     2  stm32f2xx_it.o(.text)
    DebugMon_Handler                         0x0800320d   Thumb Code     2  stm32f2xx_it.o(.text)
    SDIO_IRQHandler                          0x0800320f   Thumb Code    26  stm32f2xx_it.o(.text)
    rt_hw_usart_init                         0x08003307   Thumb Code   188  usart.o(.text)
    USART1_IRQHandler                        0x080033c3   Thumb Code    18  usart.o(.text)
    USART6_IRQHandler                        0x080033d5   Thumb Code    18  usart.o(.text)
    SD_DeInit                                0x08003419   Thumb Code     8  sdio_sd.o(.text)
    SD_EnableWideBusOperation                0x080036d5   Thumb Code   140  sdio_sd.o(.text)
    SD_SelectDeselect                        0x08003761   Thumb Code    48  sdio_sd.o(.text)
    SD_GetCardInfo                           0x08003791   Thumb Code   794  sdio_sd.o(.text)
    SD_InitializeCards                       0x08003b85   Thumb Code   316  sdio_sd.o(.text)
    SD_PowerON                               0x08003d67   Thumb Code   374  sdio_sd.o(.text)
    SD_Init                                  0x08003edd   Thumb Code   100  sdio_sd.o(.text)
    SD_SendStatus                            0x08003f41   Thumb Code    52  sdio_sd.o(.text)
    SD_Detect                                0x08003f75   Thumb Code     4  sdio_sd.o(.text)
    SD_GetState                              0x08003f79   Thumb Code    38  sdio_sd.o(.text)
    SD_GetStatus                             0x08003f9f   Thumb Code    30  sdio_sd.o(.text)
    SD_PowerOFF                              0x08003fbd   Thumb Code    14  sdio_sd.o(.text)
    SD_SendSDStatus                          0x08003fcb   Thumb Code   390  sdio_sd.o(.text)
    SD_GetCardStatus                         0x08004151   Thumb Code   156  sdio_sd.o(.text)
    SD_ReadBlock                             0x080041ed   Thumb Code   148  sdio_sd.o(.text)
    SD_ReadMultiBlocks                       0x08004281   Thumb Code   202  sdio_sd.o(.text)
    SD_WaitReadOperation                     0x0800434b   Thumb Code    42  sdio_sd.o(.text)
    SD_WriteBlock                            0x08004375   Thumb Code   146  sdio_sd.o(.text)
    SD_WriteMultiBlocks                      0x08004407   Thumb Code   286  sdio_sd.o(.text)
    SD_WaitWriteOperation                    0x08004525   Thumb Code    50  sdio_sd.o(.text)
    SD_GetTransferState                      0x08004557   Thumb Code    18  sdio_sd.o(.text)
    SD_StopTransfer                          0x08004569   Thumb Code    32  sdio_sd.o(.text)
    SD_Erase                                 0x080046df   Thumb Code   288  sdio_sd.o(.text)
    SD_ProcessIRQSrc                         0x080047ff   Thumb Code    74  sdio_sd.o(.text)
    convert_from_bytes_to_power_of_two       0x08004849   Thumb Code    18  sdio_sd.o(.text)
    rt_hw_sdcard_init                        0x08004b27   Thumb Code   194  sdio_sd.o(.text)
    GetASCIICode                             0x08004ced   Thumb Code    26  asciilib.o(.text)
    LCD_Initializtion                        0x08004f09   Thumb Code  5998  lcd.o(.text)
    LCD_Clear                                0x080066f1   Thumb Code   122  lcd.o(.text)
    LCD_GetPoint                             0x08006785   Thumb Code   144  lcd.o(.text)
    LCD_DrawLine                             0x0800683d   Thumb Code   250  lcd.o(.text)
    PutChar                                  0x08006937   Thumb Code   100  lcd.o(.text)
    GUI_Text                                 0x0800699b   Thumb Code    80  lcd.o(.text)
    rt_hw_lcd_init                           0x08006ad9   Thumb Code    58  lcd.o(.text)
    TP_Init                                  0x08006bdf   Thumb Code   212  touchpanel.o(.text)
    Read_X                                   0x08006d71   Thumb Code    50  touchpanel.o(.text)
    Read_Y                                   0x08006da3   Thumb Code    50  touchpanel.o(.text)
    TP_GetAdXY                               0x08006dd5   Thumb Code    34  touchpanel.o(.text)
    TP_DrawPoint                             0x08006df7   Thumb Code     2  touchpanel.o(.text)
    DrawCross                                0x08006df9   Thumb Code   336  touchpanel.o(.text)
    Read_Ads7846                             0x08006f49   Thumb Code   522  touchpanel.o(.text)
    setCalibrationMatrix                     0x08007153   Thumb Code   356  touchpanel.o(.text)
    getDisplayPoint                          0x080072b7   Thumb Code   230  touchpanel.o(.text)
